:020000040800F2
:10000000481F00207D0100088501000887010008C5
:1000100000000000000000000000000000000000E0
:10002000000000000000000000000000B501000812
:1000300000000000000000002D0200083902000846
:100040008F010008000000008F0100088F010008E8
:100050008F0100088F0100088F0100088F01000840
:10006000000000008F010008C9210008FD210008E0
:100070008F0100088F0100088F01000800000000B8
:100080008F010008912B0008000000008F0100087C
:100090008F0100088F0100088F010008512500081A
:1000A0008F0100088F0100088F010008ED2B000868
:1000B000952C000800F002F800F030F80CA030C8D1
:1000C000083824182D18A246671EAB4654465D46D4
:1000D000AC4201D100F022F87E460F3E0FCCB6466E
:1000E0000126334200D0FB1AA246AB4633431847E1
:1000F0002843000048430000002300240025002678
:10010000103A01D378C1FBD8520700D330C100D5D3
:100110000B6070471FB51FBD10B510BD00F0F7F99B
:10012000114603B402F0ADFF03BCFFF7F3FF03F089
:10013000A5FA00F00BFA03B4FFF7EEFF03BC00F0E2
:1001400011FA000070B505460C46164602E00FCCC9
:100150000FC5103E102EFAD2082E02D303CC03C5D1
:10016000083E042E07D301CC01C5361F03E02178D9
:100170002970641C6D1C761EF9D270BD074880473B
:1001800007480047FEE7FEE7FEE7FEE7FEE7FEE77B
:1001900004480549054A064B70470000992A0008A3
:1001A000B500000848180020481F0020481A002009
:1001B000481A0020EFF309808169891E0978002917
:1001C00026D101B50FC8B8470CBC03C29E461D4BD3
:1001D00006CB91421BD0002909D0EFF309802038CB
:1001E0008863F0C044464D4656465F46F0C0083B23
:1001F0001A60906B1030F0C8A046A946B246BB46C4
:1002000080F309882038F0C80220C04300477047B7
:1002100010B50D4A1368994206D8890054580FC882
:10022000A047EFF309840FC410BD000001B500F032
:10023000B3FC03BC8E46CAE701B501F02BF803BC42
:100240008E46C4E7EC1500208C430008F8B5042A5C
:100250002CD3830712D00B78491C0370401C521E0C
:1002600083070BD00B78491C0370401C521E830778
:1002700004D00B78491C0370401C521E8B079B0F47
:1002800005D0C91ADF002023DE1B08C90AE0FFF7EA
:1002900059FFF8BD1D4608C9FD401C46B4402C431B
:1002A00010C0121F042AF5D2F308C91A521EF0D446
:1002B0000B78491C0370401C521EEAD40B78491C71
:1002C0000370401C012AE4D409780170F8BDD2B251
:1002D00010B513029A1813049A1800F001F810BD13
:1002E00001E004C0091F0429FBD28B0701D502805D
:1002F000801CC90700D00270704700290BD0C307CB
:1003000002D00270401C491E022904D3830702D583
:100310000280801C891EE3E70022EEE70022DFE76F
:10032000002203098B4273D3030A8B4258D3030B79
:100330008B423CD3030C8B4221D312E003460B4388
:100340007FD4002243088B4274D303098B425FD3CE
:10035000030A8B4244D3030B8B4228D3030C8B42FA
:100360000DD3FF22090212BA030C8B4202D31212E0
:10037000090265D0030B8B4219D300E0090AC30BB5
:100380008B4201D3CB03C01A5241830B8B4201D362
:100390008B03C01A5241430B8B4201D34B03C01A4B
:1003A0005241030B8B4201D30B03C01A5241C30AC3
:1003B0008B4201D3CB02C01A5241830A8B4201D334
:1003C0008B02C01A5241430A8B4201D34B02C01A1E
:1003D0005241030A8B4201D30B02C01A5241CDD2C3
:1003E000C3098B4201D3CB01C01A524183098B420E
:1003F00001D38B01C01A524143098B4201D34B01F7
:10040000C01A524103098B4201D30B01C01A524159
:10041000C3088B4201D3CB00C01A524183088B42E0
:1004200001D38B00C01A524143088B4201D34B00C9
:10043000C01A5241411A00D201465241104670473B
:100440005DE0CA0F00D04942031000D34042534040
:1004500000229C4603098B422DD3030A8B4212D300
:10046000FC22890112BA030A8B420CD38901921132
:100470008B4208D3890192118B4204D389013AD06F
:10048000921100E08909C3098B4201D3CB01C01A44
:10049000524183098B4201D38B01C01A5241430957
:1004A0008B4201D34B01C01A524103098B4201D345
:1004B0000B01C01A5241C3088B4201D3CB00C01AB2
:1004C000524183088B4201D38B00C01A5241D9D2CA
:1004D00043088B4201D34B00C01A5241411A00D24B
:1004E0000146634652415B10104601D34042002B47
:1004F00000D54942704763465B1000D3404201B5C6
:100500000020C046C04602BD704770477047754620
:1005100000F024F8AE46050069465346C008C00006
:10052000854618B020B5FFF733FE60BC00274908A8
:10053000B6460026C0C5C0C5C0C5C0C5C0C5C0C57B
:10054000C0C5C0C5403D49008D46704710B5044642
:10055000C046C0462046FFF7EEFD10BD004870477C
:10056000E417002001491820ABBEFEE72600020078
:10057000704770B58C180578401C6B075B0F01D174
:100580000378401C2A1106D10278401C03E006784B
:10059000401C0E70491C5B1EF9D12B0705D40023AB
:1005A000521E0DD40B70491CFAE70378401CCB1A7D
:1005B000921C03E01D780D70491C5B1C521EF9D57E
:1005C000A142D8D3002070BD80B501460520C043AC
:1005D000EFF30582002A06D1EFF31082002A02D140
:1005E000014F084600DF80BD3914000880B5014680
:1005F0000020EFF30582002A11D1EFF31082002AC8
:100600000DD1074F0846EFF31482920706D4EFF39B
:100610000882203AD208D20082F3098800DF80BD28
:100620004D140008D0B5EFF30582002A03D1EFF393
:100630001082002A1BD00322D44300281AD000299C
:1006400018DB0278032A15D1641C4278002A11D0E5
:10065000EFF31082EFF3108372B6C4680C43C460EA
:10066000002A00D162B600F0E7FA2046D0BD024F62
:1006700000DF04462046D0BDC5140008F0B581B0A7
:10068000EFF30584002C03D1EFF31084002C32D05B
:100690000324E44300282CD0002930DB002B45D173
:1006A0000378032B44D1631C4578002D41D00223ED
:1006B0001A4226D101252A40EFF310830093EFF36D
:1006C000108672B6C3681E460E40771A7D1BAF4176
:1006D000174016430025002E06D0002F04D1E21C3F
:1006E00051401940C1601D460098002819D162B6DA
:1006F00017E023461DE0104F00DF034619E02346B4
:1007000017E0C368184608400025884200D11D46FE
:1007100001210A40002A00D11D461043002800D1C3
:100720000546631C002D04D02B4602E0234600E062
:100730002346184601B0F0BDD515000880B500204D
:10074000C043EFF3058100290DD1EFF3108100299B
:1007500009D10120EFF31481014202D10348007A4C
:1007600080BD014F00DF80BDC5160008D0150020F8
:1007700080B50520C043EFF30581002910D1EFF3C8
:10078000108100290CD1074FEFF31482920706D491
:10079000EFF30882203AD208D20082F3098800DF02
:1007A00080BDC046D116000880B50520C043EFF3D8
:1007B0000581002910D1EFF3108100290CD1074FDA
:1007C000EFF31482920706D4EFF30882203AD2089E
:1007D000D20082F3098800DF80BDC046851800087A
:1007E000F0B581B00C460546EFF30580002803D133
:1007F000EFF31080002829D00320C643002D2AD013
:10080000002B28D1002C26D02878082823D1761C4C
:10081000687800281FD0009228460C3000F03DF97F
:100820000746002F17D06A6A38460C302146FFF77A
:100830000DFD07203870012078700026BE700098EA
:10084000F870BD60384600F0F7F904E0034F284621
:10085000214600DF0646304601B0F0BD15190008FC
:1008600080B502460520C043EFF30583002B06D177
:10087000EFF31083002B02D1014F104600DF80BD43
:10088000491A000880B501460520C043EFF30582F0
:10089000002A06D1EFF31082002A02D1014F084648
:1008A00000DF80BDED1A000880B501460020EFF39F
:1008B0000582002A11D1EFF31082002A0DD1074FD3
:1008C0000846EFF31482920706D4EFF30882203A29
:1008D000D208D20082F3098800DF80BDC51B000862
:1008E00080B501460520C043EFF30582002A06D1FA
:1008F000EFF31082002A02D1014F084600DF80BDCD
:100900003D1C0008F0B583B004466078002847D04D
:10091000A768002F44D001943D462320295C686AD3
:10092000AF68022211421BD101263140EFF3108241
:100930000292EFF3108372B6E268134603401C1A6A
:10094000A61BB4410C400B430026002B17D0002CF3
:10095000019C029B15D111468143E160164610E0CF
:1009600001221140E66833460340181A821A90416A
:1009700008400B43002B11D0002805D00EE0019C4D
:10098000029B002B00D162B6002E07D0284600F053
:10099000B3FA00222846314600F028FC002FBBD1D4
:1009A00003B0F0BDF0B582B0002300282BD00029A1
:1009B0002CD0032A17D8009301920F3107229143BC
:1009C00086680246083035462C1A476803233E469F
:1009D0009E43A31B8B4209D22E68002E2846F2D1DB
:1009E000009802B0F0BD184602B0F0BD53685B1825
:1009F0005360019A0A43002F0BD0355031184A60DA
:100A00000160084606E0184602B0F0BD184602B084
:100A1000F0BD4260083002B0F0BDB0B50022002841
:100A200019D0002917D00446083408390023254678
:100A30008D4205D02C680022002C2B46F7D10AE00D
:100A40004A680324A2434468A21A4260002B04D0DF
:100A50000868186001221046B0BD002048600122DD
:100A60001046B0BD10B502460020002A14D007235E
:100A70001A4211D10C461C4018290DD3002C0BD161
:100A80001160102050608818014608399160D943E0
:100A900000234350D360012010BD10B50146002053
:100AA000EFF31082002912D0EFF3108072B60C68B9
:100AB0004B680020A34207D25B1C4B604B69002BA4
:100AC00002D0186848611846002A00D162B610BDED
:100AD00010B502460320C043EFF31083002A15D05F
:100AE000D4688C4212D814698C420FD9EFF3108469
:100AF00072B6401C5468002C05D0601E50605069CE
:100B0000086051610020002B00D162B610BDB0B565
:100B100004460020002C1BD0002919D0002A17D031
:100B2000002B15D000200D4655435D192160271D6F
:100B30002DC763614C1E09D00125691A54431C1945
:100B40009D181D60491C2B46FAD1234618600120D0
:100B5000B0BDF0B581B004460EE0284600F0A4F91F
:100B600007463146324600F041FBEF60F86A6861A3
:100B70002E61FD6201202876002C0BD025466C6981
:100B8000E87808210842F7D000262E76A8680028C9
:100B9000E3D1F1E701B0F0BDF0B581B0254C01E043
:100BA000616F8847EFF310815822EFF3108072B61F
:100BB0005A23E55A0020002D0ED0A65A681EE05296
:100BC0005E22A05A451CAFB20023B74200D02B468C
:100BD0008000256E2858A352002900D162B6002853
:100BE00022D00178491E0629DCD8890001A2895843
:100BF0008F46C046110C0008A50B0008170C000812
:100C0000A50B00081D0C0008230C0008A10B000810
:100C1000616E8847C6E7A16E8847C3E7E16E8847E3
:100C2000C0E7216F8847BDE7002000F0A7F801B0BA
:100C3000F0BDC046D0150020F0B581B00146EFF3FD
:100C4000108258231748C35AEFF3108472B65A25FE
:100C5000465B00249E420ED2741C44535C24055B08
:100C6000AE00076EB9516D1CAFB200269F4200D096
:100C70002E4606530124002A00D162B6002C06D06D
:100C8000417A002908D00121C17201B0F0BD0220D3
:100C900002F05AFE01B0F0BD0120000702490860D1
:100CA00001B0F0BDD015002004ED00E0014800685F
:100CB0007047C04610E000E001480721016070471E
:100CC00010E000E080B50948C06809494968FFF7AD
:100CD00027FB401E0749086000204860FF210906E5
:100CE000054A13680B431360C04380BDD015002034
:100CF000A443000814E000E020ED00E070B51E48B9
:100D0000416B002936D0CA69521ECA6132D1CA6805
:100D1000002A07D08B6893608B68002B00D0DA60C4
:100D20000022CA6001224A702023CC560246243297
:100D3000C66A002E09D0054624353246D656A6424C
:100D400008DB9668002E1546F7D100238B60CA6039
:100D5000083203E08A60CD60A9600C321160096935
:100D60000022002905D0CA69002AD0D000224A6199
:100D70000A46426370BDC046D0150020F0B581B070
:100D80004849CA690123002A00D113460C7AA41EDF
:100D900000273E1B66411E40002831D02024055705
:100DA000012E19D11657B54216DD00970123537055
:100DB0000D462435CF6A002F09D00B4624333D461B
:100DC0002F57B74243DDAF68002F2B46F7D1009B6A
:100DD0009360D56008353EE0012242700A46243215
:100DE000CB6A002B08D024311A461357AB4227DBBD
:100DF0009368002B1146F7D18760C260083223E068
:100E0000C86A0123002800D103461E40012E1CD1D0
:100E1000202415570357AB4217DDC368002B0097FA
:100E200021D086689E608668002E00D0F360C7607F
:100E3000CF6A012353700E462436002F16D11FE0CF
:100E40008260C16088600C32106001B0F0BD9560B6
:100E5000D3609A600C352A6002224270086200F06A
:100E600031F901B0F0BD0123537007460B4624331E
:100E70003E463757AF4208DDB768002F3346F7D1FB
:100E8000009B9360D660083603E09660D3609A605A
:100E90000C36326002224270086200F013F901B091
:100EA000F0BDC046D015002001468868002806D055
:100EB00082688A60002A00D0D1600021C16070473A
:100EC000B0B5002917D020228B568468002C08D09A
:100ED0000546204684569C4208DB8468002C054663
:100EE000F7D100228A60C860083003E08860CD60D6
:100EF000A9600C300160B0BDC168002907D08268CC
:100F00008A608268002A00D0D1600021C1607047E9
:100F1000B0B501460A78012A03D1C9680029F9D180
:100F200023E0C268002A07D0836893608368002B9F
:100F300000D0DA600022C2602023C4568D68002DE4
:100F400008D02A46D556A5420ADB9568002D1146E1
:100F5000F7D100E00A4600218160C260083203E058
:100F60008260C16088600C321060B0BDF0B541781D
:100F700033297BD12321435C426A02210B421BD1DE
:100F800001210B40EFF31084EFF3108572B6856AF0
:100F90002F461740BE1A711A8E411E401F43002172
:100FA000002F05D0002E03D12946914381622946A6
:100FB000002C0FD162B60DE001242340816A0D465A
:100FC0001540AA1A141BA2411A401D43002D4DD0F2
:100FD000002A4BD1002949D0826B11624169C36953
:100FE0001A46013211D0224A002902D1546B8442A0
:100FF0001FD10469002C04D0E569EB18E36161613D
:101000004169002912D00C610DE0194A002902D172
:10101000936B83420DD10369002B01D05961416963
:10102000002905D00B610021416102E0546300E01A
:10103000936301214170202283560D4C21462431B7
:10104000E56A002D08D0243429468D569D4208DBE0
:101050008D68002D0C46F7D100228260C1600831F6
:1010600003E08160C460A0600C310860F0BDC04640
:10107000D0150020B0B50121417000281AD02022DF
:1010800083560D4C21462431E56A002D08D02434C6
:1010900029468D569D4208DB8D68002D0C46F7D100
:1010A00000228260C160083103E08160C460A060FA
:1010B0000C310860B0BDC046D0150020806B2030D8
:1010C0007047000080B50848C16900290AD0086B44
:1010D0008A6B824203D90068044A904202D0012000
:1010E00002F032FC80BDC046D0150020A52E5AE289
:1010F00080B50221417002490862FFF7E3FF80BD1D
:10110000D015002070B50246374BDC690020002C5A
:1011100069D01D7A022D15D1DD6A002D63D0627071
:10112000084601301AD05E6B0022002E2CD000251C
:101130003046C669B14234D3891B0669002E054684
:10114000F6D122E0E16800294DD0A0688860A0684F
:10115000002800D0C1600020E06070BD1846383023
:1011600000221146026810461030002AF9D10020F2
:10117000C243E26161612061084610301A4638328C
:1011800000291DD110461BE01046E161606122611B
:10119000014610311A463432002800D11146084663
:1011A0000EE0E161656120612A4610321E46343648
:1011B000002D00D132461460C269511AC161143049
:1011C0000460D86A002808D08168D962002902D05A
:1011D0001A462432CA600021C1600221417018629F
:1011E000FFF770FF012070BDD015002070B5836B34
:1011F00019624169C4692346013311D0244B002987
:1012000002D15D6B85421FD10569002D04D0EE69C6
:101210003419EC6169614169002912D00D610DE05A
:101220001B4B002902D19C6B84420DD10469002C18
:1012300001D061614169002905D00C610021416143
:1012400002E05D6300E09C63012A02D1FFF796FD96
:1012500070BD01214170202283560D4C214624315E
:10126000E56A002D08D0243429468D569D4209DBBD
:101270008D68002D0C46F7D100228260C1600831D4
:10128000086070BD8160C460A0600C31086070BDF2
:10129000D0150020B0B5FFF709FD1B4D286969691D
:1012A0000024401C61412861696100F02FF8FFF7BC
:1012B00025FD2046FFF762FDA96C002923D02A6A8C
:1012C000286C904202D02A646964B0BD696C002920
:1012D00002D0491E696416D1297A022913D1EC6A19
:1012E000002C10D02021405C615C81420BD1204653
:1012F000FFF702FE286CFFF7BDFE2046FFF7F8FE61
:101300002C64A86C6864B0BDD015002070B5274E61
:10131000F46C002C03D02069401E206100D070BD09
:10132000E068002801D0A1688160F064706D2146FA
:10133000183100252A462B46FFF752FA002803D021
:101340000320214602F000FBE07801280ED1F36C67
:101350006069002B0DD0002219460B6998420DD30D
:10136000C01ACB68002B0A46F6D103E0012060705A
:1013700014E02946A160E560206107E0A260E16019
:1013800020610B69181A08618C60114608460C3000
:1013900032464C32002900D110460460F46C002C17
:1013A000BDD020690028BBD0B9E7C046D0150020C9
:1013B000F0B5014F00DFFEE7091D000880B50020F1
:1013C000EFF30581002905D1EFF31081002901D148
:1013D000014F00DF80BDC0465D1E0008D0B503464A
:1013E0000020EFF30584002C11D1EFF31084002CC2
:1013F0000DD1074F1846EFF314839B0706D4EFF384
:101400000883203BDB08DB0083F3098800DFD0BDC5
:10141000691E000880B502460520C043EFF305832E
:10142000002B06D1EFF31083002B02D1014F1046A1
:1014300000DF80BDB120000880B50146002902D040
:101440001320FFF75FFE002080BD000010B50246AC
:101450000024002A10D090681468002808D00021C9
:101460000323184227D1D2680021102A23D315E084
:10147000D068002100281ED1942010490858002867
:1014800002D0FFF70AFB05E0842008581021012252
:10149000FFF788FA002100280DD0012103220270F5
:1014A000012242708170002144608160C160034963
:1014B000034A8A660146084610BDC046D015002082
:1014C00005090008F0B587B005460320C343002D89
:1014D00073D0002973DB2878032872D15C1C6878EC
:1014E000002874D0EFF31080EFF3108272B6EC682E
:1014F0000C43EC60002800D162B6A868002863D0D5
:1015000002930395019406462320335C3046233032
:10151000726AB1680691022105910B421DD1012723
:101520003B40EFF310810491EFF3108172B6EC6849
:1015300025461540A91ACF1BB94119401D43002764
:10154000002D19D00029039D049B17D10299C91CB5
:101550004A402240EA60274610E001210B40EF6834
:101560003C461440A21A511A8A411A401C43002CCE
:1015700009D0002A05D006E0039D049B002B00D172
:1015800062B6002F03D106980028BCD11BE000787A
:10159000059908423C4604D10298C01C746A444034
:1015A0003C403046FFF7A8FC002230463946FFF7A2
:1015B0001DFE06980028A5D106E01C4607E01C4643
:1015C00005E01C4603E0019C0020FFF7D7FB204606
:1015D00007B0F0BDF0B585B00C463949C96903259F
:1015E000EE43F51C002967D000282DD0002C2DDB00
:1015F0000578032D2CD1771C4578002D2AD00225A3
:101600002A420492029727D10193012513462B40C9
:10161000EFF310820392EFF3108772B6C76800975A
:10162000274022463C1B651BAC411C401F43002544
:10163000002F2BD0002C134629D1F41C5C40009ABB
:101640001440C460154622E0354635E0354633E0A7
:10165000354631E03D462FE00127009715463D40D5
:101660000195C56803942F46039A1740039ABA1A46
:10167000009C141BA2411C46019B1A401F43002FD3
:10168000039B049F0BD0002A07D008E01346039A5F
:10169000002A049F00D162B6019C002D0CD1002CC1
:1016A000029D09D04B6223228F54FFF709FC43208F
:1016B0002146FFF727FDB51C284605B0F0BDC04602
:1016C000D01500200148007A7047C046D015002090
:1016D000F0B583B0684F387A0026F543002804D06F
:1016E000012830460ED103B0F0BD38460830A021A5
:1016F0000291FEF713FE614C606D482805D2284622
:1017000003B0F0BD284603B0F0BDE168002900D168
:10171000AEE0228A002A2846E5D0396658203A529F
:10172000A068B864E56A216B2846FFF79BF900289A
:1017300001D084203D506569A1692846FFF792F9E0
:1017400084210191002801D101983D58BD67E569C8
:10175000216A2846FFF786F9002801D101983D58F3
:10176000FD67656AA16A2846FFF77CF9002801D168
:1017700001983D5880203D50656B002D09D0AA6826
:10178000EB6829682846FFF7C2F9002801D08820B5
:101790003D50A56B002D09D0AA68EB682968284642
:1017A000FFF7B5F9002801D08C203D50E56B002DE6
:1017B00009D0AA68EB6829682846FFF7A8F900282D
:1017C00001D090203D50256C002D09D0AA68EB680F
:1017D00029682846FFF79BF9002801D094203D5046
:1017E000656C002D09D0AA68EB6829682846FFF7C8
:1017F0008EF9002801D098203D50A56C002D09D00D
:10180000AA68EB6829682846FFF781F9002801D00B
:101810009C203D50E56C002D09D0AA68EB68296832
:101820002846FFF774F9002801D002983D50246D36
:10183000002C09D0A268E36821682046FFF767F909
:10184000002801D0A4203C50FF2000040C490A6865
:1018500002430A6008680322D2438B583F24A4063F
:1018600040022040184388500120387230463AE741
:10187000284603B0F0BDC046D0150020A4430008A0
:1018800020ED00E070B50025EC431D4E307A0128B4
:1018900033D1306B002808D11A48826D1A480021D4
:1018A00000F0E2FA3063002827D030462430FFF7FA
:1018B000FBFA002821D0FFF71BFC12480078012416
:1018C000204203D1032080F3148802E0022080F339
:1018D00014880E480068F060FFF7F4F9B061002842
:1018E00006DB1F2101408C40401180000849445014
:1018F000FFF7E2F9022030722C46204670BDC04648
:10190000D0150020A443000869390008CC15002038
:1019100000E100E0F0B583B00E4604460320C54365
:10192000002C29D0002E29D02078082828D16F1C1F
:101930006078002800D182E0A0688321002802920C
:1019400020D0407888421DD12046FFF7ADFA0546E9
:10195000002701223946FFF749FC2846FFF7AEFB76
:101960000546626AA8683146FEF770FCE868002800
:1019700065D00299017062E02F4660E02F465EE07C
:101980002F465CE00091019320460C30FFF785F86C
:10199000002824D0626A05460C303146FEF756FC1A
:1019A00007202870012068700023AB700298E8704F
:1019B00021463031EFF31080266B002E2F4624D0C5
:1019C000FD783246D678AE4224D25668002E1346B1
:1019D000F7D100237B60BA6025462C351FE0019AC1
:1019E000002A2CD01748C16920461446FFF768FA30
:1019F00000981030C0B22146FFF784FBEFF3098056
:101A000086600299C160AF1C19E000227A60BA605A
:101A1000E76208E07A60BB60154608351A462F6019
:101A2000131D002A00D10B461F60EFF3108172B620
:101A3000A16A491CA1620027002800D162B638467D
:101A400003B0F0BDD0150020F0B581B00D460446BE
:101A50002548C6690221CF43B81C002E2AD0781E23
:101A6000002C27D02278042A24D16078002823D0A3
:101A7000227E002A23D0E0780123184202D0E368B6
:101A8000B34229D0002D24D008420AD02022B156DA
:101A9000E0688356024620328B4202DA1170FFF76B
:101AA00037FA20463146FFF70BFA53202946FFF755
:101AB00029FB781C01B0F0BD384601B0F0BDE660EE
:101AC000F06A606100202061F4620121217601B09A
:101AD000F0BD384601B0F0BDFF2A3846EAD0501CB0
:101AE0002076002001B0F0BDD0150020F0B581B007
:101AF00005460320C643002D30D0287804282FD176
:101B0000741C6878002857D000246C70287E002848
:101B100040D06969E868002901D02A690A61024653
:101B20002C322F693B461433002F00D01A46116027
:101B3000E9780222114227D02121415CC26A00E0EB
:101B40005269002A0ED09368002BF9D02027DB576A
:101B50004FB2BB4200DC0B461946F1E734462BE09E
:101B6000344629E02022835C02462032CFB2BB42B9
:101B70000AD01170FFF7CCF906E02846FFF794F978
:101B8000711C0022FFF732FBA8680028F5D1002065
:101B9000FFF7F4F8A878012108420DD098200849F1
:101BA0000858002803D02946FEF792FF04E084205D
:101BB00008582946FEF731FF204601B0F0BDC04667
:101BC000D0150020B0B502460024002A254611D0C9
:101BD000156854689068002808D000210323184233
:101BE00028D1D26800211C2A24D315E0D068002116
:101BF00000281FD1982010490858002802D0FEF76D
:101C00004CFF05E0842008581C210122FEF7CAFE83
:101C1000002100280ED0012104220270012242700E
:101C20008170C47045600021017641610161C1602D
:101C3000816001460846B0BDD015002070B504464D
:101C40003048C0690221CA43951C002857D0551E50
:101C5000002C54D02378042B51D16378002B05D06D
:101C6000E368834205D01546284670BD15462846D0
:101C700070BD237E002B154641D05A1E22760025CA
:101C8000FF231A423BD16269002A01D02369136104
:101C900003462C33266935461435002E00D02B46DA
:101CA0001A60E2780A4213D02121415CC26A00E046
:101CB0005269002A0AD09368002BF9D020255B577F
:101CC0004DB2AB4200DC0B461946F1E720228154AD
:101CD000A06800280FD02046FFF7E6F8054600264A
:101CE00031463246FFF782FAE560E86A60612661B4
:101CF000EC620120207600252846FFF73FF82846B1
:101D000070BDC046D0150020F0B581B0524DEC69D1
:101D1000002C00D196E0E06AFEF71BFFA0690028C6
:101D20004AD0816B00270F624269C6693146013192
:101D300011D0002A02D1696B81421ED10369002BA8
:101D400004D0D9698919D9615A614269002A11D030
:101D50001361476111E0002A02D1A96B81420CD1C5
:101D60000169002901D04A614269002A04D0116149
:101D7000476102E06B6300E0A9632A463D4601210A
:101D800041702023C65611462431D26A002A09D058
:101D9000314F24371146CA56B24207DB8A68002AFF
:101DA0000F46F7D18560C160083103E08160C760EC
:101DB000B8600C310860284D287A022842D1E86AC0
:101DC00000283FD0EFF30980A063E86A002808D01C
:101DD0008168E962002902D02A462432CA600021C3
:101DE000C160022747702862FFF76CF90020E861A4
:101DF000E1780126314202D0A16900291BD0607030
:101E0000A07838420BD0216B1022104203D1A86F6A
:101E1000FEF703FE03E088202858FEF759FEA0785D
:101E200030420FD08C20285800280DD02146FEF7D4
:101E30004FFE01B0F0BD042060700020E060E86B50
:101E4000A060EC6301B0F0BD842028582146FEF765
:101E5000E4FD01B0F0BDC046D01500200148C069C6
:101E60007047C046D0150020F0B587B006910546F2
:101E70000024002D00D1FBE0182000270121002ABA
:101E8000049116D013695069039091691068059008
:101E900057689668002E1AD028461D460024032352
:101EA0001E4200D0E4E0D268442A2B46054613D2F5
:101EB000DEE002903B463C4605978C207749085867
:101EC0000028039434D01C46FEF7E7FD37E0D268C3
:101ED0000024002A00D0CBE0002B09D007221A40B2
:101EE00000240398002800D1C2E0002A00D0BFE0FF
:101EF00018200290002905D04A1E0024372A02919A
:101F000000D9B5E000210398002808460CD00191C3
:101F10000721039801400024482800D2A8E00029A6
:101F20000494019900D0A3E0002E04460FD1C4E729
:101F300084200858442101221C46FEF733FD234625
:101F400006460024002E00D192E00121039C002BC4
:101F50002DD104980128019114D188204F490858A7
:101F60004F4A546D002816D003941021019C214340
:101F70000491FEF792FD21460346002B00D0049900
:101F8000039C0FE04548806F00222146FEF70AFDC2
:101F90000199034606E0886F00222146FEF702FD04
:101FA00003460199C9B2002B65D0022001430120EC
:101FB000307004907070B170F770059870600020F8
:101FC000F061B06170613061F060B0602021029A10
:101FD0007254212172542221FD2272542E217054F8
:101FE0002D2170542C2170542B2170542A217054AF
:101FF00029217054282170542721705426217054AF
:102000002521705424217054232170542F217054A1
:10201000E018403833637463B063F5632148186097
:102020001F4800780421084201D1B46B0DE0A008DC
:102030001C1D112809D0870039464439CC2220467E
:102040001C46FEF744F9E419403C34212046FEF7D3
:1020500065F91548049909066063A563E16306986C
:1020600020620E48114941663046FEF787FE34462D
:10207000204607B0F0BD002401200142F8D08C209A
:1020800006490858002803D03146FEF721FDEFE746
:10209000842008583146FEF7C0FCE9E7D01500203F
:1020A000A4430008A52E5AE2B11300086D0F0008E2
:1020B000F0B581B00322D44300280BD04A1E372A42
:1020C00008D80278012A05D1427804231343641CFE
:1020D000042B02D1204601B0F0BD202286560546D1
:1020E00020354BB200249E42F4D029702125415561
:1020F00001460D78012D03D1C9680029F9D121E0ED
:10210000C568002D07D08668AE608668002E00D0B6
:10211000F5600025C5608E68002E08D03546AE56A5
:102120009E420ADBAE68002E2946F7D100E00D463C
:1021300000218160C560083503E08560C16088606A
:102140000C3528601F4FFB69387AF96A0228C1D123
:10215000002BBFD00029BDD09D568856A842B9DDBE
:10216000C86800280FD08E6886608E68002E00D068
:10217000F0600020C8603E46F76A0120587024369F
:10218000002F03D10CE0012058700F460D48243079
:102190003E46B756AF4208DDB768002F3046F7D14C
:1021A00000209860DE60083603E09E60D86083609F
:1021B0000C3633600220487002480162FEF782FF4D
:1021C00088E7C046D015002010B50021094800F06E
:1021D00051F8102000F02EF8102000F03BF80648CF
:1021E000007940084000044908710121014800F0CD
:1021F00041F810BD1C0002404E15002010B5002112
:102200000A4800F037F80120000300F013F801201D
:10221000000300F01FF80648007940084000044918
:1022200008710121014800F025F810BD440002406A
:1022300098150020012109070140002902D0034917
:10224000486001E002494860704700000004024015
:1022500000000240012109070140002902D0034982
:10226000486001E0024948607047000000040240F5
:1022700000000240002904D0026801231A430260D2
:1022800003E00268014B1A4002607047FEFF000045
:102290000168554A11400160002101604160816080
:1022A000C1605249884208D15049083949680F2213
:1022B00011434E4A083A516094E04C491431884227
:1022C00008D14A4908394968F0221143474A083A77
:1022D000516087E045492831884209D1434908398E
:1022E00049680F2212021143404A083A516079E0CE
:1022F0003E493C31884209D13C49083949680F229E
:1023000012031143394A083A51606BE037495031A2
:10231000884209D13549083949680F22120411430E
:10232000324A083A51605DE030496431884209D14F
:102330002E49083949680F22120511432B4A083AE1
:1023400051604FE029497831884209D1274908393D
:1023500049680F2212061143244A083A516041E0AD
:102360002349884208D12249083949680F2211437C
:102370001F4A083A516035E01D491431884208D19E
:102380001B4908394968F0221143194A083A51603B
:1023900028E017492831884209D115490839496888
:1023A0000F2212021143124A083A51601AE01049F2
:1023B0003C31884209D10E49083949680F2212037D
:1023C00011430B4A083A51600CE0094950318842E8
:1023D00008D10749083949680F2212041143044AF9
:1023E000083A516070470000FEFF000008000240FC
:1023F0000804024001460020002201231B070B4075
:10240000002B02D0064B1A6801E0064B1A681346EF
:102410000B40002B01D0012000E00020704700009D
:102420000004024000000240002A03D003680B436E
:10243000036002E003688B430360704710B500221D
:1024400002680D4B1A400C6A8B6823430C692343C6
:102450004C6923438C692343CC6923434C6A23434F
:102460008C6A23431A430260CB6843600B68836025
:102470004B68C36010BD00000F80FFFFF0B50A4637
:1024800000210023002400BF3DE001258D402B46A4
:1024900015681D402C469C4234D11579012D02D07F
:1024A0001579022D16D185684F000326BE40B5432D
:1024B000856055794E00B5408668354385608588CE
:1024C00001268E40B5438580858896798E40B6B2C8
:1024D0003543858005684F000326BE40B54305603F
:1024E00015794E00B540066835430560C5684F0054
:1024F0000326BE40B543C560D5794E00B540C668D9
:102500003543C560491C1029BFD3F0BDF0B5002389
:1025100000244D07EE0E1546B5402B46CD10AE00FB
:1025200005462035AD594E07F70E0F26BE40B54380
:10253000CE10B60007462037BD51CD10AE003D4647
:10254000AD591D432C46CD10AD003E467451F0BD33
:102550006D48806908210840002808D008206A4991
:10256000C8616A486A4908606A486B4908606648F9
:10257000806920210840002809D020206249C861D4
:1025800066480078202188432030644908705E48FE
:10259000806940210840002841D061480078002827
:1025A00029DD6048007840005F49086008460068FF
:1025B0000121890208435C49086054485449086075
:1025C000584840780004FF2109040840564909682A
:1025D000084355490860084600684B49486008466A
:1025E000406849140843484948604D480078401EF7
:1025F0004B49087013E044484068012189030843AF
:102600004149486045480078C006C00F002806D1FF
:1026100042480078202188432030404908703A48D9
:102620008069C007C00F002809D03B4800680078C7
:102630003549886238480068401C3749086032488C
:10264000806904210840002809D02F48406A304999
:10265000096808702E480068401C2D4908602A4807
:10266000806902210840002809D02B4800680078C2
:102670002549886228480068401C2749086022488C
:10268000806910210840002809D010201E49C86127
:1026900022480078102188431030204908701A48D9
:1026A0008069012189020840002809D0084616499E
:1026B000C8611A48007804218843001D1749087032
:1026C00011488069012149020840002809D00846C4
:1026D0000D49C861114800780821884308300F4926
:1026E000087009488069FF2101310840002809D09D
:1026F00008460549C8610948007802218843801CC2
:10270000064908707047000000540040C4170020BC
:10271000A4150020A4170020A0150020AA15002051
:10272000AB150020A8150020AC15002000218278F0
:10273000002A27D0184A03231B02D21803789B10C3
:102740009B00D15802789207D30EFF229A400B4685
:102750009343194642789207120E03789B07DB0ECB
:102760009A4011430C4A03231B02D21803789B1092
:102770009B00D1500278D306DB0E01229A40064B13
:102780001A6007E00278D306DB0E01229A40024B62
:1027900080331A607047000000E100E0FEB5044697
:1027A0000025002600200290019000900027864816
:1027B00040680C2108400546002D06D0042D07D0A6
:1027C000082D08D00C2D2CD128E0804820602BE06B
:1027D0007E48206028E07C4840680F21890408403A
:1027E0000646794840680321C90308400290B00CAE
:1027F000861C0298002803D17548374647430BE0F2
:102800007148C06A0007000F401C01906F48019991
:10281000FDF786FD70430746276005E06D482060A0
:1028200002E06A48206000BF00BF67484068F021AE
:10283000084005462D096848405D009020680099D1
:10284000C8406060604840680721090208400546AA
:102850002D0A6148405D009061680098C140A16008
:102860005948006BFF2101310840884202D05B4883
:10287000E0600DE054484068012189030840884227
:1028800003D0A0684008E06002E0A0688008E06033
:102890004D48006B40210840402802D0504820613C
:1028A00002E00120C00320614748006B102108406E
:1028B000102802D04548606101E02068606142480C
:1028C000006B8007800F002802D1A068A06119E08A
:1028D0003D48006B8007800F012802D12068A0616D
:1028E00010E03948006B8007800F022802D1800376
:1028F000A06107E03448006B8007800F032801D1F6
:102900003248A0613048006B0321090408400028C8
:1029100002D1A068E06120E02B48006B032109048C
:10292000084001210904884202D12068E06114E0D6
:102930002548006B0321090408400121490488420D
:1029400002D18010E06108E01F48006B03210904F8
:102950000840884201D11D48E0611B48006B0321FB
:1029600089040840002802D1A068206220E01648AF
:10297000006B03218904084001218904884202D1A7
:102980002068206214E01048006B0321890408408D
:102990000121C904884202D10011206208E00A48DE
:1029A000006B032189040840884201D10748206256
:1029B0000548006B80210840802802D005486062ED
:1029C00000E06762FEBD00000010024000127A00C5
:1029D00000093D00006CDC02B2150020809FD5008C
:1029E00012800000F8B500250024002600272548A5
:1029F00040680C2108400546002D04D0042D06D067
:102A0000082D2CD107E02048204908602BE01E4803
:102A10001E49086027E01B4840680F2189040840D0
:102A20000446184840680321C90308400646A00C24
:102A3000841C1448C06A0007000F471C01200004D2
:102A4000864207D139461048FDF76AFC60430F49BA
:102A5000086003E00E4860430C49086003E00A4840
:102A60000A49086000BF00BF06484068F0210840DE
:102A7000000908490D5C05480068E8400349086002
:102A8000F8BD00000010024000127A00CC150020B2
:102A900000093D0090430008384840683849084024
:102AA000364948600846006836490840334908609E
:102AB00008460068012189048843304908600846B7
:102AC00040683F21090488432C4948600846C06A91
:102AD00000090001C8620846006BFF2114318843D9
:102AE0002649086300208860084680690121084360
:102AF000224988610846406B400840004863084608
:102B000040687B21C90388431C49486008464068E7
:102B10001D490843194948600846406807210902D1
:102B20008843164948600846406805210902084361
:102B30001249486000BF00BF1048006813490843AD
:102B40000E49086000BF0D48006801214906084091
:102B50000028F8D00948406880088000074948608C
:102B600008464068022108430449486000BF034802
:102B700040680C2108400828F9D170470010024035
:102B80000CB8FF08FFFFF6FE02002800010000015C
:102B9000114800881149884204DA0F480088401C17
:102BA0000D4908800E4800880C49884204DA0C4818
:102BB0000088401C0A4908800A4800880749884262
:102BC00004DA08480088401C064908800120C043F8
:102BD0000549088270470000B0150020204E000013
:102BE000DE140020541500200010004010B52349C9
:102BF000234800F0B8F8002806D0224800784008A2
:102C00004000401C1F4908701C491D4800F098F8FE
:102C100000211D48FFF72EFB1A48407801280FD1EC
:102C20001A4819493039C8630020164948701648B7
:102C30003038406B4021081A1449423908700FE0BF
:102C40001248403810493039C86301200D49487096
:102C50000D483038406B4021081A0C494239487001
:102C6000402009493039486301210748FFF702FB3A
:102C7000012107480068FDF7D5FC10BD1A010B00C3
:102C8000003801404E15002030000240D6160020CA
:102C9000D414002010B52349234800F064F800281C
:102CA00006D02248007840084000401C1F490870A8
:102CB0001C491D4800F044F800211D48FFF7DAFACE
:102CC0001A48407801280FD11A4819491839486222
:102CD00000201649487016481838C0694021081A63
:102CE0001449423908700FE0124840381049183929
:102CF000486201200D4948700D481838C0694021CC
:102D0000081A0C494239487040200949583948632B
:102D100001210748FFF7AEFA022107480068FDF7D6
:102D200081FC10BD1A010B000044004098150020E2
:102D3000580002405E170020D41400200162704742
:102D400010B5002300220B0C01249C402246026295
:102D500010BD002A03D083680B43836002E08368C0
:102D60008B438360704770B502460B4600240021F8
:102D7000002500201E04350ED9B201268E403146B2
:102D8000012D02D11668314006E0022D02D15668AD
:102D9000314001E0966831401C0C0126A6403446C3
:102DA000D6693440002903D0002C01D0012000E076
:102DB000002070BDF8B503460024002600960025CB
:102DC000002018460E04340ECEB200960127009E55
:102DD000B7403D46022C01D1001D02E0032C00D17A
:102DE0000830002A03D006682E43066002E0066819
:102DF000AE430660F8BD0000F0B58BB004460D464A
:102E0000002700200A90002620684008400020602B
:102E1000666803210903304688430646A8680643CE
:102E2000666026682D480640E96868680843296995
:102E3000084306432660A6680321090230468843FA
:102E4000064668690643A6606846FFF7A7FC244863
:102E5000844202D106980A900DE02248844202D1B1
:102E600007980A9007E02048844202D108980A9007
:102E700001E002980A9020680121C9030840002857
:102E80000CD029680A9A5000FDF74AFA07462968CB
:102E90000A9A5000FDF744FA0E4609E029680A989C
:102EA000FDF73EFA074629680A98FDF739FA0E46FB
:102EB00028684008B04200D87F1C20680121C9035F
:102EC0000840002806D03807460F38460749084012
:102ED00030430746A7810BB0F0BD0000F3E9FFFFC8
:102EE000003801400044004000480040F0FF00006E
:102EF000002905D042680123DB051A43426004E043
:102F000042680123DB059A43426070474269120E12
:102F10001206426142690A434261704730B4744606
:102F2000641E2578641CAB4204D3635D5B00E31828
:102F300030BC18471D46F8E710B5002819DB1A4ABF
:102F400003231B02D21883089B00D2588307DC0E90
:102F5000FF23A3409A438B071B0E8407E40EA34074
:102F60001A43114B032424021B198408A4001A518C
:102F700018E00E4A03071B0F083B9B089B00D25822
:102F80008307DC0EFF23A3409A438B071B0E8407A5
:102F9000E40EA3401A43054B0407240F083CA40881
:102FA000A4001A5110BD000000E100E01CED00E09B
:102FB00010B5002819DB1A4A03231B02D218830814
:102FC0009B00D2588307DC0EFF23A3409A438B0754
:102FD0001B0E8407E40EA3401A43114B0324240262
:102FE0001B198408A4001A5118E00E4A03071B0F8E
:102FF000083B9B089B00D2588307DC0EFF23A340AD
:103000009A438B071B0E8407E40EA3401A43054B1B
:103010000407240F083CA408A4001A5110BD0000A6
:1030200000E100E01CED00E010B5044600F09EFC5D
:10303000002804D00021C9432068FDF711FC10BD11
:1030400010B504462068FDF71DFC10BD10B5044600
:103050000020FDF729FC20602068002805D12146CA
:10306000052000F071FC002010BD0120FCE710B528
:10307000044600F07BFC002802D02068FDF730FCFD
:1030800010BD10B5FDF774FB10BD000038B5024649
:103090000B4615480068009012E01178521C6C46EF
:1030A00064786140684600784C00104D641964787B
:1030B00044406846447048002C46245C68460470CE
:1030C00018465C1EA3B20028E7D168464078147801
:1030D000A04207D1521C684600781478A04201D162
:1030E000012038BD0020FCE7E8420008E440000869
:1030F00038B50A46114B1B68009312E00178401C5A
:103100006C46647861406B461B784C000C4D64192A
:1031100064785C406B465C704B002C46E45C6B460C
:103120001C701346541EE2B2002BE7D16B465B784D
:103130000370401C6B461B78037038BDE4420008E6
:10314000E440000801462A480078002803D02848B7
:103150000078022801DD002070470020254A107009
:103160002548264A1060264800784000254A10600D
:10317000012908D1104600688A021043214A1060D4
:103180002148224A10601E484078002800D1E3E719
:103190001B4840780004FF2212041040194A1268AC
:1031A0001043184A106010460068194A5060002009
:1031B000184A108007E0174800887D22D20090420C
:1031C00001DD0020C8E7124880690122D2031040C7
:1031D0000028F0D10E484068921010430C4A50600D
:1031E00003480078401E024A10700120B4E7000036
:1031F000AB150020AA150020A4170020A015002060
:10320000A8150020AC150020C4170020A41500202C
:1032100000540040B01500201CB539484069012118
:1032200049040843364948610846806A0721490431
:103230000843334988620846806A07214904884365
:103240002F49886201220921C806FFF75FF9012290
:103250000A210920C006FFF759F903204002009017
:103260000221684601710021817103214171002111
:10327000C17169460920C006FFF700F9FF200090E0
:1032800000216846017181714171C171694609204F
:10329000C006FFF7F3F81A48406901218904084382
:1032A00017494861012206211648FFF72FF901222C
:1032B00007211448FFF72AF9C02000900221684630
:1032C000017101218171002141710121C1716946A2
:1032D0000C48FFF7D3F80A4840690121C9040843A4
:1032E00007494861084800900121684601710021A2
:1032F00081714171C17169460448FFF7BFF81CBD77
:103300000010024000040048FF03000000080048CD
:1033100010B52248C0690121490508431F49C86109
:10332000084600690121490508431C49086108460F
:103330000069012149058843184908611848006857
:1033400040084000164908601648086116480860A1
:10335000002088601420886008468068C9130843EC
:103360000F49886008460068012108430C4908603D
:103370001720002805DBC206D20E012191400B4A1E
:10338000116000BF00211720FFF7D6FD0348006B36
:10339000102188430149086310BD0000001002405D
:1033A000005400401C0E2000FE0F080000E100E069
:1033B00010B51948C069102108431749C86108466B
:1033C000006910210843144908610846006910216A
:1033D00088431149086184201049088001208881B0
:1033E0000F480E492031088127200C49C862084641
:1033F000008801210843094908801120002805DBC5
:10340000C206D20E01219140064A116000BF002180
:103410001120FFF7CDFD10BD00100240001000404C
:10342000AF04000000E100E010B586B004461B4880
:103430008069012189030843184988610846C068EA
:103440000121890308431549C8600846C068012165
:10345000890388431149C8600094002001900290BC
:10346000039005900C20049069460D48FFF7C4FCBA
:1034700023210B48FFF74AFD01210948FFF738FDDA
:10348000012208490648FFF795FC0548006801211C
:1034900008430349086006B010BD00000010024058
:1034A000003801401A010B0000B58BB05D48FEF7F3
:1034B000EFFE5D4800905D480190002002904020A2
:1034C0000390002004908020059000200690079033
:1034D000089001204003099000200A906946514855
:1034E000FEF7ACFF01214F48FEF7C4FE0120504912
:1034F00048700846007940084000401C087149485F
:103500001438FEF7C5FE4848001D00904948019058
:10351000102002904748801E4078039000200490BD
:10352000802005900020069007900890012000035D
:10353000099000200A9069463A481438FEF77EFF49
:103540000122022137481438FEF76EFF0121354869
:103550001438FEF78FFE0122C02133482438FFF7CC
:10356000F8FB30482830FEF793FE3348009033488C
:1035700001900020029040200390002004908020C1
:1035800005900020069007900890012040030990C4
:1035900000200A90694623482830FEF74FFF01219A
:1035A00020482830FEF766FE01202549487008466D
:1035B000007940084000401C08711A481430FEF79A
:1035C00067FE1D48001D00901E48019010200290CB
:1035D0001C48801E407803900020049080200590B5
:1035E0000020069007900890012000030990002019
:1035F0000A9069460B481430FEF720FF0122022191
:1036000008481430FEF710FF012106481430FEF779
:1036100031FE0122C02108482438FFF79AFB0BB085
:1036200000BD000030000240243801409616002002
:103630004E1500200E150020244400401E170020C7
:10364000981500205815002010B50A480078400849
:103650004000401C074908700220074908701021EB
:10366000054841700021817000F0E8FCC820FCF79B
:10367000ABFF10BDDC140020A4170020FFF7B2F947
:10368000FFF7CAFD00F094FA1C494888FFF7CCFE0A
:103690001B4840690121084319494861FFF704FFAD
:1036A00000F02EFCFFF784FEFFF732FEFDF746F830
:1036B000002801D1FDF75CF80020FDF7F5F811496D
:1036C00008600020FCF792FF0F49086000221146B5
:1036D0000E48FDF783FE002211460D48FDF77EFEE1
:1036E000002211460B48FDF779FEFDF727F8012867
:1036F00001D1FDF759F800BFFEE700007816002061
:1037000000100240D0140020D4140020E13C000836
:10371000D53B0008093D000810B504460C488068F8
:1037200000780B4909680870094880684078803043
:1037300007490968487006480068847004490868A9
:103740000321FFF7D5FC05200149087110BD0000D9
:103750008416002010B50020784908710846007BC7
:10376000082800DA10BD7548806800787349497BE5
:10377000884270D1714A127B921E91B26F4A906852
:10378000FFF784FC002800D1ECE76C48407B6B49D4
:103790000968087069488068407804280FD006DC02
:1037A000012809D0022808D003281FD106E00F28DD
:1037B00006D010281AD104E000BF00BF00BF00BF30
:1037C00000BF5E498A68517912790902114308469F
:1037D00000F0BAFB0446002C03D07D200001844297
:1037E00003DD0320FFF798FFBCE700BF00BF53498C
:1037F0008A685179127909021143084600F0A4FB46
:103800004F4908804D4880684078052872D008DC10
:1038100001280DD0022827D0032840D0042867D1E2
:1038200067E0062876D00F287FD010287FD17DE072
:1038300042498A68D178927809021143084600F01B
:1038400083FB3F490988401884B2082C04DD02201C
:10385000FFF762FF6FE06FE000F09CF8002802D1F4
:103860000420FFF759FF66E034498A68D1789278DE
:1038700009021143084600F067FB314909884018E6
:1038800084B2082C03DD0220FFF746FF53E000F06E
:103890003DF9002802D10420FFF73EFF4BE0274905
:1038A0008A68D178927809021143084600F04CFBEF
:1038B00023490988401884B222480088844203DDE5
:1038C0000220FFF729FF36E01C498A68D1789278F8
:1038D00009021143084600F037FB0446204600F079
:1038E0009BF8002802D10420FFF716FF23E001E037
:1038F0001DE020E011498A68D178927809021143CD
:10390000084600F021FB0446082C05DB0220FFF7E7
:1039100003FF10E008E008E000F01EFB002802D1E1
:103920000420FFF7F9FE06E005E004E003E00120D3
:10393000FFF7F2FE00BF00BF00BF13E784160020B0
:10394000E4140020284300080300FFF7E7FA060903
:1039500004050607080904E003E002E001E000E0D6
:1039600000BF00BF00BFFEE700BFFEE710B508487C
:103970000078002809D1FCF7E1FE012803DD0120D1
:103980000349087010BD0020FCE70120FAE70000A1
:10399000C815002010B500F035F81248006812492B
:1039A00008601248816848790979000208430E4985
:1039B0000968C1400C48016001200C490968487041
:1039C0000A49096888700848007808490968C87079
:1039D000064908680421FFF78BFB0620034908719C
:1039E000012010BD04150020E814002084160020DA
:1039F0000920C006008AC0B2014908607047000073
:103A0000001500200248808AC0B202490860704751
:103A1000000800480415002010B50446032036496C
:103A200009684870354800784006000E3249096838
:103A3000887031480068C01C3149086042E0142099
:103A400060433049085C0300FFF768FA0534041648
:103A50001733380000202A49096808702848006890
:103A6000401C274908600020096808702448006845
:103A7000401C2349086022E000BF14206043214914
:103A800040184068008820490880084640781C4952
:103A9000096808701A480068401C194908601A48EB
:103AA00000780968087016480068401C14490860CE
:103AB00005E004E000201149088000E000BF00BFDD
:103AC000601C84B20D4801880088401E0B4A10809B
:103AD0000029B4D1084A12689278D21CD1B2064AA1
:103AE0001068FFF705FB044800688078401D024914
:103AF0000871012010BD000084160020E41400208D
:103B0000F8140020EC420008F414002010B5FFF770
:103B10006FFF1348006813490860134881684879AB
:103B20000979000208430F490968C1400D48016046
:103B300002200D490968487001200B490968887006
:103B40000848007808490968C870074908680421CE
:103B5000FFF7CEFA062004490871012010BD0000CD
:103B600000150020E8140020841600200120704772
:103B70000C4800780B4908600B48808A0B490860A4
:103B800008460068000A0002086008460068054907
:103B9000096840180549086008460088024988827B
:103BA0007047000004150020000800480815002098
:103BB00001200749087008714B20C001488002208D
:103BC0004871012008724B20C001C8807047000076
:103BD00078160020FDF7F2FB0546002D05D01021D8
:103BE0002846FDF717FC3549086065E03448007841
:103BF000C007C00F002858D000F0EAF86420FCF796
:103C0000E3FC2F480078C007C00F002800D153E024
:103C10007D21C9002B480068FCF722FE2749086077
:103C200008460068002820D1012027490870042098
:103C300026494870402008700120FFF783FA0020D1
:103C4000234908800CE0224800887D21C900884271
:103C500006DD1B480078400840001949087003E061
:103C60001C4800780028EED000BF16480068FCF71A
:103C700037FE13480078C007C00F002817D0164938
:103C8000088800F061F90446A5206043000C28383C
:103C9000124908801049488800F056F9044664200B
:103CA0006043000C0D49488001E0FFF7CDFC7D200A
:103CB000C000FCF789FC00BF98E70000E01400207A
:103CC000DC140020D0140020AB150020A815002023
:103CD000DE140020AA150020C4170020D8140020EC
:103CE0000FE003200002074988616420FCF76CFCA8
:103CF00003200002034920310881FF209130FCF7A6
:103D000063FCEEE70008004856E00023DB43002296
:103D100001212A480068FCF7B1FC294800780028F6
:103D200046D0012802D0022844D142E00020254993
:103D300048702348007924494873244800780028B3
:103D400012D02248801C8860801E007808731D48AD
:103D5000801C0860FFF7FEFC1B4800791949487079
:103D600000201A49087016E018484078002812D040
:103D70001648423014498860423840780873114828
:103D8000801C0860FFF7E6FC0F4800790D49487079
:103D900000200E4948700B484078002807D00520C5
:103DA000FCF712FC07484178801C00F069F802E03B
:103DB00001E000E000BF00BFA7E70000D41400202E
:103DC000781600200C150020841600209416002080
:103DD00010B57D21C90022480068FCF741FD21494A
:103DE00008600846006800282ED101201E4908708E
:103DF0001E4948704020087000201D490870FFF7D8
:103E0000A1F900201B4908800CE01A4800887D2198
:103E1000C900884206DD184800784008400016496D
:103E2000087003E0154800780028EED000BF134862
:103E300000788006C00F00280CD10F480078400899
:103E400040000D49087005E00B480078400840002C
:103E50000949087002480068FCF742FD10BD0000E7
:103E6000D0140020E0140020AB150020A81500207D
:103E7000A4170020DE140020DC140020AA15002066
:103E800070B504460D4600201949088009E018481D
:103E900000887D21C900884200DD08E00220FCF78F
:103EA00093FB14480079C007C00F0028EFD100BF72
:103EB0001048007940084000401C0E49087100215C
:103EC0000D48FEF7D7F92020FEF794FA002806D017
:103ED0002020FEF7AFF940210848FEF72FFF0648E3
:103EE0001C388462056201210348FEF7C3F970BDE6
:103EF000541500204E1500201C00024000380140DF
:103F000008B50A21684601700021417001218170C5
:103F1000FEF70CFC1B216846017001214170817085
:103F2000FEF704FC0B21684601700021417001215D
:103F30008170FEF7FBFB1C21684601700121417076
:103F40008170FEF7F3FB08BD014608460206100C1F
:103F50000912421890B2704710B50520344909681B
:103F6000487033488168C87889780002084330492E
:103F700009688870000AC8702D48816848790979F5
:103F8000000208432A4909680871000A4871284854
:103F900081684879097900020843FF2818D1012077
:103FA0002449086022498A68D1789278090211432D
:103FB0000846FFF7C9FF1F49096881401D48016095
:103FC0001D4800681B49096808431B49086022E036
:103FD000174881684879097900020843002818D1F8
:103FE00001201449086012498A68D1789278090240
:103FF00011430846FFF7A8FF0E49096881400D48A4
:1040000001600D4800680B49096888430A49086047
:1040100001E0002010BDFFF7ABFD0549086806214F
:10402000FFF766F80820024908710120F2E7000056
:1040300084160020E81400200415002010B57D210E
:10404000C90021480068FCF70BFC204908600846BD
:10405000006800282DD101201D49087003201D494A
:104060004870402008700020FFF76CF800201A49C3
:1040700008800CE0184800887D21C900884206DDD0
:1040800016480078400840001449087003E01448BE
:1040900000780028EED000BF114800788006C00FDD
:1040A00000280CD10D480078400840000B490870EA
:1040B00005E00A48007840084000084908700248B6
:1040C0000068FCF70DFC10BDD0140020E0140020A7
:1040D000AB150020A8150020DE140020DC14002001
:1040E000AA1500200000C0C1C1810140C30103C066
:1040F0000280C241C60106C00780C7410500C5C194
:10410000C4810440CC010CC00D80CD410F00CFC153
:10411000CE810E400A00CAC1CB810B40C90109C043
:104120000880C841D80118C01980D9411B00DBC1E3
:10413000DA811A401E00DEC1DF811F40DD011DC093
:104140001C80DC411400D4C1D5811540D70117C0B3
:104150001680D641D20112C01380D3411100D1C1C3
:10416000D0811040F00130C03180F1413300F3C103
:10417000F28132403600F6C1F7813740F50135C093
:104180003480F4413C00FCC1FD813D40FF013FC053
:104190003E80FE41FA013AC03B80FB413900F9C143
:1041A000F88138402800E8C1E9812940EB012BC0A3
:1041B0002A80EA41EE012EC02F80EF412D00EDC193
:1041C000EC812C40E40124C02580E5412700E7C1B3
:1041D000E68126402200E2C1E3812340E10121C0C3
:1041E0002080E041A00160C06180A1416300A3C1C3
:1041F000A28162406600A6C1A7816740A50165C093
:104200006480A4416C00ACC1AD816D40AF016FC052
:104210006E80AE41AA016AC06B80AB416900A9C142
:10422000A88168407800B8C1B9817940BB017BC0E2
:104230007A80BA41BE017EC07F80BF417D00BDC192
:10424000BC817C40B40174C07580B5417700B7C1B2
:10425000B68176407200B2C1B3817340B10171C0C2
:104260007080B041500090C191815140930153C082
:1042700052809241960156C057809741550095C192
:10428000948154409C015CC05D809D415F009FC152
:104290009E815E405A009AC19B815B40990159C042
:1042A00058809841880148C0498089414B008BC1A2
:1042B0008A814A404E008EC18F814F408D014DC092
:1042C0004C808C41440084C185814540870147C0B2
:1042D00046808641820142C043808341410081C1C2
:1042E00080814040FFFF0000FFFF0000030000004E
:1042F000FE1400206D3B00086D3B0008000000002C
:1043000003000000FC1400206D3B00086D3B00081A
:10431000030000000000000000000000000000009A
:10432000000000000000000002000000000000008B
:1043300000000000B41200204400000040130020E0
:10434000C8000000010000000000000000000000A4
:104350000000000000000000F812002044000000EF
:1043600008140020C8000000280000000000000021
:1043700000000000000000000000000030120020DB
:104380003400000064120020500000000000000013
:1043900000000000000000000102030406070809F5
:1043A0000000000003000000E8030000050000001A
:1043B00000100020100000000000000000000000BD
:1043C00000000000000000000000000000000000ED
:1043D00000000020001000000000000000000000AD
:1043E00000000000000000000000000000000000CD
:1043F0000000000000000000C80000002C4300087E
:104400005043000874430008040000005254582030
:1044100056352E312E3000003844000800000020B0
:104420007816000072050008A844000878160020DD
:10443000D0080000F800000801FF01FF01FF01FFA4
:1044400001FF01FF01FF01FF01FF01FF01FF01FF6C
:1044500001FF01FF01FF01FF01FF01FF01FF01FF5C
:1044600001FF0111E567452301001635756172747E
:1044700031207472616E736D697420646174610DB2
:104480000A294A0A43324A01142D01020304042571
:104490000607080913A043520813127A130C4406A6
:0844A000A0089017FB020000C8
:04000005080000B53A
:00000001FF
