:020000040800F2
:10000000001D00207D01000885010008870100080F
:1000100000000000000000000000000000000000E0
:10002000000000000000000000000000B501000812
:100030000000000000000000290200083102000852
:100040008F010008000000008F0100088F010008E8
:100050008F0100088F0100088F0100088F01000840
:10006000000000008F010008E52100088F01000852
:100070008F0100088F0100088F01000800000000B8
:100080008F010008592C0008000000008F010008B3
:100090008F0100088F0100088F0100083525000836
:1000A0008F0100088F0100088F010008B52C00089F
:1000B0008F01000800F002F800F030F80CA030C802
:1000C000083824182D18A246671EAB4654465D46D4
:1000D000AC4201D100F022F87E460F3E0FCCB6466E
:1000E0000126334200D0FB1AA246AB4633431847E1
:1000F000FC4000001C4100000023002400250026D5
:10010000103A01D378C1FBD8520700D330C100D5D3
:100110000B6070471FB51FBD10B510BD00F0F1F9A1
:10012000114603B402F018FF03BCFFF7F3FF03F01E
:10013000A9F900F005FA03B4FFF7EEFF03BC00F0E5
:100140000BFA000070B505460C46164602E00FCCCF
:100150000FC5103E102EFAD2082E02D303CC03C5D1
:10016000083E042E07D301CC01C5361F03E02178D9
:100170002970641C6D1C761EF9D270BD074880473B
:1001800007480047FEE7FEE7FEE7FEE7FEE7FEE77B
:1001900004480549054A064B704700006D2B0008CE
:1001A000B500000800170020001D002000190020E5
:1001B00000190020EFF309808169891E0978002960
:1001C00024D10FC8B847EFF3098303C31A4B06CBFA
:1001D000914218D0083B002909D0EFF3098020385C
:1001E0008863F0C044464D4656465F46F0C01A60EC
:1001F000906B1030F0C8A046A946B246BB4680F3CB
:1002000009882038F0C80220C043004710B50B4AC7
:100210001368994206D8890054580FC8A047EFF3D5
:1002200009840FC410BD000000F070FDCEE700008F
:1002300001F0EAF8CAE7000074150020CC4100087C
:10024000F8B5042A2CD3830712D00B78491C03700D
:10025000401C521E83070BD00B78491C0370401CB6
:10026000521E830704D00B78491C0370401C521E99
:100270008B079B0F05D0C91ADF002023DE1B08C99E
:100280000AE0FFF75FFFF8BD1D4608C9FD401C46A8
:10029000B4402C4310C0121F042AF5D2F308C91A27
:1002A000521EF0D40B78491C0370401C521EEAD435
:1002B0000B78491C0370401C012AE4D409780170B2
:1002C000F8BDD2B210B513029A1813049A1800F0B0
:1002D00001F810BD01E004C0091F0429FBD28B07FF
:1002E00001D50280801CC90700D002707047002928
:1002F0000BD0C30702D00270401C491E022904D350
:10030000830702D50280801C891EE3E70022EEE706
:100310000022DFE7002203098B4273D3030A8B42DA
:1003200058D3030B8B423CD3030C8B4221D312E0F6
:1003300003460B437FD4002243088B4274D3030946
:100340008B425FD3030A8B4244D3030B8B4228D3E7
:10035000030C8B420DD3FF22090212BA030C8B420D
:1003600002D31212090265D0030B8B4219D300E0AD
:10037000090AC30B8B4201D3CB03C01A5241830B32
:100380008B4201D38B03C01A5241430B8B4201D3E2
:100390004B03C01A5241030B8B4201D30B03C01A0B
:1003A0005241C30A8B4201D3CB02C01A5241830A85
:1003B0008B4201D38B02C01A5241430A8B4201D3B4
:1003C0004B02C01A5241030A8B4201D30B02C01ADE
:1003D0005241CDD2C3098B4201D3CB01C01A524145
:1003E00083098B4201D38B01C01A524143098B42CE
:1003F00001D34B01C01A524103098B4201D30B01B7
:10040000C01A5241C3088B4201D3CB00C01A5241DB
:1004100083088B4201D38B00C01A524143088B42A0
:1004200001D34B00C01A5241411A00D20146524139
:10043000104670475DE0CA0F00D04942031000D358
:100440004042534000229C4603098B422DD3030AAD
:100450008B4212D3FC22890112BA030A8B420CD3BD
:10046000890192118B4208D3890192118B4204D3E6
:1004700089013AD0921100E08909C3098B4201D366
:10048000CB01C01A524183098B4201D38B01C01AA0
:10049000524143098B4201D34B01C01A5241030917
:1004A0008B4201D30B01C01A5241C3088B4201D3C6
:1004B000CB00C01A524183088B4201D38B00C01A73
:1004C0005241D9D243088B4201D34B00C01A52414A
:1004D000411A00D20146634652415B10104601D3D7
:1004E0004042002B00D54942704763465B1000D361
:1004F000404201B50020C046C04602BD704770476B
:100500007047754600F024F8AE460500694653462C
:10051000C008C000854618B020B5FFF739FE60BCA2
:1005200000274908B6460026C0C5C0C5C0C5C0C51D
:10053000C0C5C0C5C0C5C0C5403D49008D46704757
:1005400010B50446C046C0462046FFF7F4FD10BD76
:1005500000487047A016002001491820ABBEFEE7F6
:1005600026000200704770B58C180578401C6B0798
:100570005B0F01D10378401C2A1106D10278401C80
:1005800003E00678401C0E70491C5B1EF9D12B0756
:1005900005D40023521E0DD40B70491CFAE70378D2
:1005A000401CCB1A921C03E01D780D70491C5B1C8B
:1005B000521EF9D5A142D8D3002070BD80B50146A6
:1005C0000520C043EFF30582002A06D1EFF3108225
:1005D000002A02D1014F084600DF80BD2515000822
:1005E000F0B581B002460021EFF30580002820D14C
:1005F000EFF3108000281CD1204C207A012814D160
:100600000125EFF3148028420FD10026002A17D0CD
:100610009068166800280FD000210323184208D1E3
:10062000D2680021102A04D31BE0154F104600DFCA
:100630000146084601B0F0BDD06800210028F8D17D
:1006400094202058002802D000F0E1FA05E0842030
:1006500020581021012200F05FFA00210028E8D084
:100660002946032202704570817000214660816036
:10067000C1600449A1660146DBE7C0465815002069
:1006800039150008790A0008D0B5EFF30582002A71
:1006900003D1EFF31082002A1BD00322D443002899
:1006A0001AD0002918DB0278032A15D1641C42787D
:1006B000002A11D0EFF31082EFF3108372B6C468F2
:1006C0000C43C460002A00D162B600F06FFB2046E4
:1006D000D0BD024F00DF04462046D0BDB115000852
:1006E000F0B581B00446EFF30580002803D1EFF3A5
:1006F0001080002833D00320C543002C2CD0002BC1
:1007000031D100294ADB207803284AD1681C63785C
:10071000002B41D00220024228D101200240EFF3F9
:1007200010830093EFF3108672B6E3681E460E4006
:10073000771A381A8741174016430020002E06D03A
:10074000002F04D1E81C41401940E160184600998F
:1007500000291BD162B619E0284601B0F0BD124F46
:10076000204600DF18E0284601B0F0BDE4682346CB
:100770000B4000208B4200D1204601210A40002A74
:1007800000D120461343002B00D11846691C0028D5
:1007900002DC084601B0F0BD01B0F0BD284601B052
:1007A000F0BD284601B0F0BDC116000880B500209C
:1007B000C043EFF3058100290DD1EFF3108100292B
:1007C00009D10120EFF31481014202D10348007ADC
:1007D00080BD014F00DF80BDB11700085815002013
:1007E00080B50520C043EFF3058100290DD1EFF35B
:1007F0001081002909D10120EFF31481014202D1B7
:1008000000F0DCFF80BD014F00DF80BDBD17000898
:1008100080B588B00520C043EFF3058100290ED1D3
:10082000EFF3108100290AD10322EFF31481114064
:10083000401D012903D0002903D00D4F00DF08B06F
:1008400080BD6846203080F30988022080F3148838
:10085000BFF34F8FBFF36F8F054F00DF01460020BE
:100860000029ECD0002080F31488084608B080BD31
:10087000A5190008F0B581B00C460546EFF30580D8
:10088000002803D1EFF31080002829D00320C643AD
:10089000002D2AD0002B28D1002C26D0287808281B
:1008A00023D1761C687800281FD0009228460C308F
:1008B00000F0ADF90746002F17D06A6A38460C30B1
:1008C0002146FFF7BDFC0720387001207870002614
:1008D000BE700098F870BD60384600F067FA04E01A
:1008E000034F2846214600DF0646304601B0F0BDE2
:1008F000211A000880B502460520C043EFF30583A6
:10090000002B06D1EFF31083002B02D1014F1046CC
:1009100000DF80BD551B0008F0B581B00246002104
:10092000EFF30580002822D1EFF3108000281ED1BC
:10093000224B187A012816D10124EFF314802042AB
:1009400011D10025002A2E4618D0166855689068E7
:1009500000280FD000210323184208D1D2680021BB
:100960001C2A04D31BE0164F104600DF0146084640
:1009700001B0F0BDD06800210028F8D198201858A7
:10098000002802D000F043F905E0842018581C210B
:10099000012200F0C1F800210028E8D021460422FD
:1009A000027044708170C57046600021017641611B
:1009B0000161C16081600146D9E7C0465815002039
:1009C000F91B000880B501460520C043EFF30582FE
:1009D000002A06D1EFF31082002A02D1014F084607
:1009E00000DF80BD711C0008F0B5014F00DFFEE79D
:1009F0003D1D000880B50020EFF30581002905D1D9
:100A0000EFF31081002901D1014F00DF80BDC04606
:100A1000911E0008D0B50023EFF30584002C12D1FD
:100A2000EFF31084002C0ED1084B1B7A012B07D159
:100A30000123EFF314841C4202D101F02FFAD0BD40
:100A4000034F00DF03461846D0BDC04658150020AE
:100A50009D1E000880B502460520C043EFF30583C4
:100A6000002B06D1EFF31083002B02D1014F10466B
:100A700000DF80BDCD200008F0B583B0044660786B
:100A8000002847D0A768002F44D001943D4623207A
:100A9000295C686AAF68022211421BD101263140ED
:100AA000EFF310820292EFF3108372B6E2681346FE
:100AB00003401C1AA61BB4410C400B430026002B1C
:100AC00017D0002C019C029B15D111468143E16097
:100AD000164610E001221140E66833460340181A1A
:100AE000821A904108400B43002B11D0002805D0FA
:100AF0000EE0019C029B002B00D162B6012E07DBA9
:100B0000284600F0B3FA00222846314600F028FCBF
:100B1000002FBBD103B0F0BDF0B582B00023002898
:100B20002BD000292CD0032A17D8009301920F3123
:100B30000722914386680246083035462C1A4768DA
:100B400003233E469E43A31B8B4209D22E68002EF0
:100B50002846F2D1009802B0F0BD184602B0F0BDB0
:100B600053685B185360019A0A43002F0BD035502D
:100B700031184A600160084606E0184602B0F0BD30
:100B8000184602B0F0BD4260083002B0F0BDB0B50A
:100B90000022002819D0002917D00446083408394B
:100BA000002325468D4205D02C680022002C2B46C0
:100BB000F7D10AE04A680324A2434468A21A4260BB
:100BC000002B04D00868186001221046B0BD002038
:100BD000486001221046B0BD10B502460020002A30
:100BE00014D007231A4211D10C461C4018290DD3EA
:100BF000002C0BD111601020506088180146083974
:100C00009160D94300234350D360012010BD10B53B
:100C100001460020EFF31082002912D0EFF310807C
:100C200072B60C684B680020A34207D25B1C4B6075
:100C30004B69002B02D0186848611846002A00D181
:100C400062B610BD10B502460320C043EFF3108317
:100C5000002A15D0D4688C4212D814698C420FD95E
:100C6000EFF3108472B6401C5468002C05D0601E4F
:100C700050605069086051610020002B00D162B6BD
:100C800010BDB0B504460020002C1BD0002919D09F
:100C9000002A17D0002B15D000200D4655435D19B2
:100CA0002160271D2DC763614C1E09D00125691ADB
:100CB00054431C199D181D60491C2B46FAD123462C
:100CC00018600120B0BDF0B581B004460EE02846A2
:100CD00000F0A4F907463146324600F041FBEF60D0
:100CE000F86A68612E61FD6201202876002C0BD025
:100CF00025466C69E87808210842F7D000262E7650
:100D0000A8680028E3D1F1E701B0F0BDF0B581B0EB
:100D1000254C01E0616F8847EFF310815822EFF313
:100D2000108072B65A23E55A0020002D0ED0A65A24
:100D3000681EE0525E22A05A451CAFB20023B742A3
:100D400000D02B468000256E2858A352002900D1E0
:100D500062B6002822D00178491E0629DCD8890015
:100D600001A289588F46C046850D0008190D00085C
:100D70008B0D0008190D0008910D0008970D000853
:100D8000150D0008616E8847C6E7A16E8847C3E766
:100D9000E16E8847C0E7216F8847BDE7002000F07B
:100DA000A7F801B0F0BDC04658150020F0B581B0DD
:100DB0000146EFF3108258231748C35AEFF310840B
:100DC00072B65A25465B00249E420ED2741C4453D0
:100DD0005C24055BAE00076EB9516D1CAFB20026F6
:100DE0009F4200D02E4606530124002A00D162B64D
:100DF000002C06D0417A002908D00121C17201B02F
:100E0000F0BD022002F0A4FC01B0F0BD01200007FB
:100E10000249086001B0F0BD5815002004ED00E063
:100E2000014800687047C04610E000E00148072113
:100E30000160704710E000E080B50948C0680949CA
:100E40004968FFF767FA401E0749086000204860BC
:100E5000FF210906054A13680B431360C04380BD98
:100E6000581500206441000814E000E020ED00E087
:100E700070B51E48416B002936D0CA69521ECA613E
:100E800032D1CA68002A07D08B6893608B68002B28
:100E900000D0DA600022CA6001224A702023CC56BA
:100EA00002462432C66A002E09D005462435324651
:100EB000D656A64208DB9668002E1546F7D10023C9
:100EC0008B60CA60083203E08A60CD60A9600C3292
:100ED000116009690022002905D0CA69002AD0D012
:100EE00000224A610A46426370BDC0465815002080
:100EF000F0B581B04849CA690123002A00D11346E0
:100F00000C7AA41E00273E1B66411E40002831D0EB
:100F100020240557012E19D11657B54216DD00972A
:100F2000012353700D462435CF6A002F09D00B469C
:100F300024333D462F57B74243DDAF68002F2B4681
:100F4000F7D1009B9360D56008353EE001224270E6
:100F50000A462432CB6A002B08D024311A46135794
:100F6000AB4227DB9368002B1146F7D18760C26044
:100F7000083223E0C86A0123002800D103461E403E
:100F8000012E1CD1202415570357AB4217DDC3682F
:100F9000002B009721D086689E608668002E00D0C6
:100FA000F360C760CF6A012353700E462436002FCA
:100FB00016D11FE08260C16088600C32106001B001
:100FC000F0BD9560D3609A600C352A6002224270B1
:100FD000086200F031F901B0F0BD012353700746FB
:100FE0000B4624333E463757AF4208DDB768002F23
:100FF0003346F7D1009B9360D660083603E09660D5
:10100000D3609A600C36326002224270086200F0AF
:1010100013F901B0F0BDC04658150020014688689C
:10102000002806D082688A60002A00D0D1600021A2
:10103000C1607047B0B5002917D020228B56846854
:10104000002C08D00546204684569C4208DB846864
:10105000002C0546F7D100228A60C860083003E002
:101060008860CD60A9600C300160B0BDC168002906
:1010700007D082688A608268002A00D0D16000218F
:10108000C1607047B0B501460A78012A03D1C9682A
:101090000029F9D123E0C268002A07D08368936051
:1010A0008368002B00D0DA600022C2602023C4567F
:1010B0008D68002D08D02A46D556A5420ADB9568D2
:1010C000002D1146F7D100E00A4600218160C26080
:1010D000083203E08260C16088600C321060B0BDED
:1010E000F0B5417833297BD12321435C426A022148
:1010F0000B421BD101210B40EFF31084EFF310855D
:1011000072B6856A2F461740BE1A711A8E411E406C
:101110001F430021002F05D0002E03D12946914303
:1011200081622946002C0FD162B60DE001242340D4
:10113000816A0D461540AA1A141BA2411A401D438C
:10114000002D4DD0002A4BD1012949DB826B116261
:101150004169C3691A46013211D0224A002902D1DD
:10116000546B84421FD10469002C04D0E569EB184C
:10117000E36161614169002912D00C610DE0194AF7
:10118000002902D1936B83420DD10369002B01D05A
:1011900059614169002905D00B610021416102E0DC
:1011A000546300E0936301214170202283560D4C6B
:1011B00021462431E56A002D08D0243429468D5675
:1011C0009D4208DB8D68002D0C46F7D1002282601D
:1011D000C160083103E08160C460A0600C31086028
:1011E000F0BDC04658150020B0B50121417000285F
:1011F0001AD0202283560D4C21462431E56A002D59
:1012000008D0243429468D569D4208DB8D68002D78
:101210000C46F7D100228260C160083103E0816092
:10122000C460A0600C310860B0BDC04658150020F5
:10123000806B20307047000080B50848C1690029E4
:101240000AD0086B8A6B824203D90068044A904234
:1012500002D0012002F07CFA80BDC0465815002063
:10126000A52E5AE280B50221417002490862FFF7BB
:10127000E3FF80BD5815002070B50246374BDC698E
:101280000020002C69D01D7A022D15D1DD6A002DB9
:1012900063D06270084601301AD05E6B0022002EC7
:1012A0002CD000253046C669B14234D3891B06696B
:1012B000002E0546F6D122E0E16800294DD0A06855
:1012C0008860A068002800D0C1600020E06070BD88
:1012D0001846383000221146026810461030002AA5
:1012E000F9D10020C243E2616161206108461030FB
:1012F0001A46383200291DD110461BE01046E16124
:1013000060612261014610311A463432002800D152
:10131000114608460EE0E161656120612A461032FF
:101320001E463436002D00D132461460C269511A6F
:10133000C16114300460D86A002808D08168D9627D
:10134000002902D01A462432CA600021C16002215D
:1013500041701862FFF770FF012070BD5815002022
:1013600070B5836B19624169C4692346013311D09A
:10137000244B002902D15D6B85421FD10569002DE8
:1013800004D0EE693419EC6169614169002912D019
:101390000D610DE01B4B002902D19C6B84420DD1E5
:1013A0000469002C01D061614169002905D00C61FC
:1013B0000021416102E05D6300E09C63012A02D1EB
:1013C000FFF796FD70BD01214170202283560D4C20
:1013D00021462431E56A002D08D0243429468D5653
:1013E0009D4209DB8D68002D0C46F7D100228260FA
:1013F000C1600831086070BD8160C460A0600C31BC
:10140000086070BD58150020B0B5FFF709FD1B4DF1
:10141000286969690024401C614128616961FFF7FE
:1014200027FD00F02DF82046FFF762FDA96C00298A
:1014300023D02A6A286C904202D02A646964B0BD25
:10144000696C002902D0491E696416D1297A0229E3
:1014500013D1EC6A002C10D02021405C615C8142E9
:101460000BD12046FFF702FE286CFFF7BDFE204699
:10147000FFF7F8FE2C64A86C6864B0BD5815002016
:1014800070B5274EF46C002C03D02069401E2061FB
:1014900000D070BDE068002801D0A1688160F064D0
:1014A000706D2146183100252A462B46FFF7E2F9D8
:1014B000002803D00320214602F04AF9E0780128F1
:1014C0000ED1F36C6069002B0DD0002219460B6918
:1014D00098420DD3C01ACB68002B0A46F6D103E020
:1014E0000120607014E02946A160E560206107E0FA
:1014F000A260E16020610B69181A08618C601146D6
:1015000008460C3032464C32002900D110460460A7
:10151000F46C002CBDD020690028BBD0B9E7C046D0
:101520005815002080B50146002902D01320FFF78E
:10153000A3FE002080BD000010B502460024002A52
:1015400010D090681468002808D0002103231842A6
:1015500027D1D2680021102A23D315E0D0680021BA
:1015600000281ED1942010490858002802D0FFF707
:101570004EFB05E08420085810210122FFF7CCFA29
:10158000002100280DD001210322027001224270A7
:101590008170002144608160C1600349034A8A660A
:1015A0000146084610BDC04658150020790A0008BB
:1015B000F0B587B005460320C343002D73D0002942
:1015C00073DB2878032872D15C1C6878002874D0FB
:1015D000EFF31080EFF3108272B6EC680C43EC600E
:1015E000002800D162B6A868002863D00293039552
:1015F000019406462320335C30462330726AB1687A
:101600000691022105910B421DD101273B40EFF3CA
:1016100010810491EFF3108172B6EC6825461540F5
:10162000A91ACF1BB94119401D430027002D19D01D
:101630000029039D049B17D10299C91C4A402240EE
:10164000EA60274610E001210B40EF683C46144059
:10165000A21A511A8A411A401C43002C09D0002AB0
:1016600005D006E0039D049B002B00D162B6002F3D
:1016700003DC06980028BCD11BE0007805990842DD
:101680003C4604D10298C01C746A44403C40304639
:10169000FFF7ECFC002230463946FFF761FE069862
:1016A0000028A5D106E01C4607E01C4605E01C46C4
:1016B00003E0019C0020FFF71BFC204607B0F0BDB3
:1016C000F0B585B00C463949C9690325EE43F51CD0
:1016D000002967D000282DD0002C2DDB0578032DA4
:1016E0002CD1771C4578002D2AD002252A4204925D
:1016F000029727D10193012513462B40EFF3108267
:101700000392EFF3108772B6C7680097274022460E
:101710003C1B651BAC411C401F430025002F2BD0F8
:10172000002C134629D1F41C5C40009A1440C4607C
:10173000154622E0354635E0354633E0354631E0A2
:101740003D462FE00127009715463D400195C568AD
:1017500003942F46039A1740039ABA1A009C141B4D
:10176000A2411C46019B1A401F43002F039B049F6C
:101770000BD0002A07D008E01346039A002A049FE2
:1017800000D162B6019C002D0CDC002C029D09D01A
:101790004B6223228F54FFF74DFC43202146FFF775
:1017A0006BFDB51C284605B0F0BDC046581500209D
:1017B0000148007A7047C04658150020F0B581B046
:1017C000744E317A0020C743002903D001290ED17D
:1017D00001B0F0BD30460830A0242146FEF798FD48
:1017E0006D4A506D482805D2384601B0F0BD3846E4
:1017F00001B0F0BDD068002800D1C4E0118A0029F2
:1018000000D1C3E03066582031529068B064D56A88
:10181000116B2846FFF7E0F9002801D084203550ED
:101820005D48456981692846FFF7D6F98421009112
:10183000002801D100983558B5675748C569016A35
:101840002846FFF7C9F9002801D100983558F567F7
:101850005148456A816A2846FFF7BEF9002801D140
:1018600000983558802035504B494D6B002D0AD0DB
:10187000AA68EB6829682846FFF703FA464900285A
:1018800001D0882035508D6B002D0AD0AA68EB68F6
:1018900029682846FFF7F5F93F49002801D08C2038
:1018A0003550CD6B002D0AD0AA68EB682968284610
:1018B000FFF7E7F93849002801D0902035500D6C2A
:1018C000002D0AD0AA68EB6829682846FFF7D9F9E5
:1018D0003149002801D0942035504D6C002D0AD09C
:1018E000AA68EB6829682846FFF7CBF92A4900283F
:1018F00001D0982035508D6C002D0AD0AA68EB6875
:1019000029682846FFF7BDF92349002801D09C200B
:101910003550CD6C002D09D0AA68EB68296828469F
:10192000FFF7AFF91C49002800D035510C6D002C91
:101930000AD0A268E36821682046FFF7A2F9164999
:10194000002801D0A42034508A6D14480024214678
:1019500000F0A4FA30630028384600D138E7FF20B1
:1019600000040F490A6802430A6008680322D24350
:101970008B583F25AD06400228401843885001206F
:101980003072204624E7384601B0F0BD384601B039
:10199000F0BDC046581500206441000871370008AA
:1019A00020ED00E070B50025EC43194E307A012897
:1019B0002BD130462430FFF731FB002825D0FFF72C
:1019C00051FC144800780124204203D1032080F305
:1019D000148802E0022080F31488BFF34F8FBFF316
:1019E0006F8F0D480068F060FFF726FAB06100289D
:1019F00006DB1F2101408C40401180000749445004
:101A0000FFF714FA022030722C46204670BDC04603
:101A100058150020644100085415002000E100E042
:101A2000F0B583B00E4604460320C543002C29D0F0
:101A3000002E29D02078082828D16F1C6078002833
:101A400000D182E0A06883210028029220D0407853
:101A500088421DD12046FFF7E1FA05460027012202
:101A60003946FFF77DFC2846FFF7E2FB0546626A30
:101A7000A8683146FEF7E4FBE868002865D00299C3
:101A8000017062E02F4660E02F465EE02F465CE08A
:101A90000091019320460C30FFF7B9F8002824D0BC
:101AA000626A05460C303146FEF7CAFB07202870F3
:101AB000012068700023AB700298E8702146303135
:101AC000EFF31080266B002E2F4624D0FD7832468F
:101AD000D678AE4224D25668002E1346F7D10023A2
:101AE0007B60BA6025462C351FE0019A002A2CD075
:101AF0001748C16920461446FFF79CFA0098103039
:101B0000C0B22146FFF7B8FBEFF309808660029967
:101B1000C160AF1C19E000227A60BA60E76208E099
:101B20007A60BB60154608351A462F60131D002ADF
:101B300000D10B461F60EFF3108172B6A16A491CF9
:101B4000A1620027002800D162B6384603B0F0BD7C
:101B500058150020F0B581B00D4604462548C669E9
:101B60000221CF43B81C002E2AD0781E002C27D08B
:101B70002278042A24D16078002823D0227E002AEB
:101B800023D0E0780123184202D0E368B34229D081
:101B9000002D24D008420AD02022B156E068835696
:101BA000024620328B4202DA1170FFF76BFA2046B0
:101BB0003146FFF73FFA53202946FFF75DFB781CBB
:101BC00001B0F0BD384601B0F0BDE660F06A60617A
:101BD00000202061F4620121217601B0F0BD384679
:101BE00001B0F0BDFF2A3846EAD0501C2076002014
:101BF00001B0F0BD58150020B0B502460024002AFF
:101C0000254611D0156854689068002808D0002136
:101C10000323184228D1D26800211C2A24D315E0BE
:101C2000D068002100281FD19820104908580028AA
:101C300002D0FEF7ECFF05E0842008581C210122A9
:101C4000FEF76AFF002100280ED001210422027055
:101C5000012242708170C4704560002101764161AB
:101C60000161C160816001460846B0BD5815002081
:101C700070B504463048C0690221CA43951C00284B
:101C800057D0551E002C54D02378042B51D16378A3
:101C9000002B2FD0237E002B2FD0E56885421546E0
:101CA00047D15A1E22760025FF231A4241D162698C
:101CB000002A01D02369136103462C332669354677
:101CC0001435002E00D02B461A60E2780A4219D053
:101CD0002121415CC26A00E05269002A10D0936859
:101CE000002BF9D020255B574DB2AB4200DC0B46F0
:101CF0001946F1E71546284670BD1546284670BDC1
:101D000020228154A06800280FD02046FFF786F9D2
:101D10000546002631463246FFF722FBE560E86AB9
:101D200060612661EC620120207600252846FFF7DD
:101D3000DFF8284670BDC04658150020F0B581B0C8
:101D4000524DEC69002C00D196E0E06AFEF7BBFF33
:101D5000A06900284AD0816B00270F624269C669DA
:101D60003146013111D0002A02D1696B81421ED166
:101D70000369002B04D0D9698919D9615A61426974
:101D8000002A11D01361476111E0002A02D1A96B2A
:101D900081420CD10169002901D04A614269002ABF
:101DA00004D01161476102E06B6300E0A9632A4639
:101DB0003D46012141702023C65611462431D26A86
:101DC000002A09D0314F24371146CA56B24207DBE8
:101DD0008A68002A0F46F7D18560C160083103E0A8
:101DE0008160C760B8600C310860284D287A0228ED
:101DF00042D1E86A00283FD0EFF30980A063E86A87
:101E0000002808D08168E962002902D02A462432DD
:101E1000CA600021C160022747702862FFF70CFAF0
:101E20000020E861E1780126314202D0A169002951
:101E30001BD06070A07838420BD0216B102210426A
:101E400003D1A86FFEF7A3FE03E088202858FEF711
:101E5000F9FEA07830420FD08C20285800280DD0F1
:101E60002146FEF7EFFE01B0F0BD042060700020B7
:101E7000E060E86BA060EC6301B0F0BD84202858FE
:101E80002146FEF784FE01B0F0BDC0465815002083
:101E90000148C0697047C04658150020F0B587B0AA
:101EA000069105460024002D00D1EFE01820002700
:101EB00001210491002A16D013695069029091699A
:101EC0001068059057689668002E19D028461D4660
:101ED000002403231E4200D0D8E0D268402A2B46BB
:101EE000054612D2D2E001903B46039705978C201D
:101EF00071490858002832D01C46FEF788FE35E0AC
:101F0000D2680024002A00D0C0E0002B09D00722AC
:101F10001A4000240298002800D1B7E0002A00D01F
:101F2000B4E018200190002905D04A1E0024372A69
:101F3000019100D9AAE000220298002803920BD058
:101F40000721029801400024482800D29EE0002981
:101F50000390049400D099E0002E0ED1C7E78420AE
:101F60000858402101221C46FEF7D6FD23460646AE
:101F70000024002E00D189E00122002B01D0104660
:101F800023E00498012812D188204B4908584B4976
:101F9000496D039100280AD01446FEF738FE034627
:101FA000002B03D01020214601430CE02246029270
:101FB0004148806F002403992246FEF7ADFD034699
:101FC000002B66D002990220084305990124347041
:101FD0007470B070F77071600020F061B061706172
:101FE0003061F060B0602021019A72542121725456
:101FF0002221FD2272542E2170542D2170542C2147
:1020000070542B2170542A21705429217054282196
:102010007054272170542621705425217054242196
:102020007054232170542F217054039AD0184038D3
:1020300033637263B063224818602048007804213B
:102040000842059401D1B46B0DE090081C1D1128C5
:1020500009D0870039464439CC2220461C46FEF779
:1020600030F9E419403C069F34212046FEF750F930
:102070001448059909066063A563E16327620E4869
:10208000114941663046FEF733FF3446204607B01B
:10209000F0BD094902980028F8D08C200858002883
:1020A00003D03146FEF7CEFDF0E7842008583146D4
:1020B000FEF76DFDEAE7C0465815002064410008B0
:1020C000A52E5AE2E9090008E1100008F0B581B038
:1020D0000322D44300280BD04A1E372A08D802789E
:1020E000012A05D1427804231343641C042B02D136
:1020F000204601B0F0BD20228656054620354BB261
:1021000000249E42F4D029702125415501460D78C6
:10211000012D03D1C9680029F9D121E0C568002D3E
:1021200007D08668AE608668002E00D0F560002576
:10213000C5608E68002E08D03546AE569E420ADB3A
:10214000AE68002E2946F7D100E00D4600218160DF
:10215000C560083503E08560C16088600C35286083
:102160001F4FFB69387AF96A0228C1D1002BBFD012
:102170000029BDD09D568856A842B9DDC868002800
:102180000FD08E6886608E68002E00D0F060002030
:10219000C8603E46F76A012058702436002F03D1EC
:1021A0000CE0012058700F460D4824303E46B756CB
:1021B000AF4208DDB768002F3046F7D100209860A5
:1021C000DE60083603E09E60D86083600C363360C2
:1021D0000220487002480162FFF72EF888E7C046E7
:1021E0005815002010B50021094800F035F81020DE
:1021F00000F012F8102000F01FF80648007940089F
:102200004000044908710121014800F025F810BD83
:102210001C00024026150020012109070140002969
:1022200002D00349486001E002494860704700005D
:10223000000402400000024001210907014000297A
:1022400002D00349486001E002494860704700003D
:102250000004024000000240002904D0026801236B
:102260001A43026003E00268014B1A4002607047A3
:10227000FEFF00000168554A114001600021016025
:1022800041608160C1605249884208D15049083993
:1022900049680F2211434E4A083A516094E04C4974
:1022A0001431884208D14A4908394968F02211435B
:1022B000474A083A516087E045492831884209D1A8
:1022C0004349083949680F2212021143404A083A2B
:1022D000516079E03E493C31884209D13C49083996
:1022E00049680F2212031143394A083A51606BE0E2
:1022F00037495031884209D13549083949680F2298
:1023000012041143324A083A51605DE030496431A9
:10231000884209D12E49083949680F221205114314
:102320002B4A083A51604FE029497831884209D157
:102330002749083949680F2212061143244A083AEE
:10234000516041E02349884208D12249083949684F
:102350000F2211431F4A083A516035E01D491431DC
:10236000884208D11B4908394968F0221143194AAB
:10237000083A516028E017492831884209D11549A7
:10238000083949680F2212021143124A083A516073
:102390001AE010493C31884209D10E490839496890
:1023A0000F22120311430B4A083A51600CE009490D
:1023B0005031884208D10749083949680F22120470
:1023C0001143044A083A516070470000FEFF0000C4
:1023D00008000240080402400146002000220123B8
:1023E0001B070B40002B02D0064B1A6801E0064B7E
:1023F0001A6813460B40002B01D0012000E000209A
:10240000704700000004024000000240002A03D090
:1024100003680B43036002E003688B43036070476B
:1024200010B5002202680D4B1A400C6A8B682343DA
:102430000C6923434C6923438C692343CC692343B0
:102440004C6A23438C6A23431A430260CB6843607F
:102450000B6883604B68C36010BD00000F80FFFFF6
:10246000F0B50A4600210023002400BF3DE001250D
:102470008D402B4615681D402C469C4234D1157961
:10248000012D02D01579022D16D185684F00032643
:10249000BE40B543856055794E00B54086683543EA
:1024A0008560858801268E40B5438580858896792C
:1024B0008E40B6B23543858005684F000326BE4086
:1024C000B543056015794E00B54006683543056093
:1024D000C5684F000326BE40B543C560D5794E00A0
:1024E000B540C6683543C560491C1029BFD3F0BD4F
:1024F000F0B5002300244D07EE0E1546B5402B46DF
:10250000CD10AE0005462035AD594E07F70E0F260B
:10251000BE40B543CE10B60007462037BD51CD10A2
:10252000AE003D46AD591D432C46CD10AD003E4694
:102530007451F0BD6D48806908210840002808D01A
:1025400008206A49C8616A486A4908606A486B4954
:1025500008606648806920210840002809D02020B2
:102560006249C86166480078202188432030644968
:1025700008705E48806940210840002841D06148C9
:102580000078002829DD6048007840005F49086035
:10259000084600680121890208435C4908605448E4
:1025A00054490860584840780004FF210904084055
:1025B00056490968084355490860084600684B4970
:1025C00048600846406849140843484948604D48F7
:1025D0000078401E4B49087013E0444840680121D0
:1025E000890308434149486045480078C006C00F48
:1025F000002806D1424800782021884320304049F5
:1026000008703A488069C007C00F002809D03B48CD
:10261000006800783549886238480068401C3749AE
:1026200008603248806904210840002809D02F48FA
:10263000406A3049096808702E480068401C2D49DE
:1026400008602A48806902210840002809D02B48E8
:10265000006800782549886228480068401C27499E
:1026600008602248806910210840002809D0102005
:102670001E49C86122480078102188431030204943
:1026800008701A488069012189020840002809D091
:1026900008461649C8611A48007804218843001D7D
:1026A0001749087011488069012149020840002833
:1026B00009D008460D49C8611148007808218843AF
:1026C00008300F49087009488069FF21013108402E
:1026D000002809D008460549C86109480078022148
:1026E0008843801C06490870704700000054004071
:1026F0007E160020341500205E16002030150020C4
:102700003A1500203B150020381500203C1500200C
:1027100000218278002A27D0184A03231B02D218EE
:1027200003789B109B00D15802789207D30EFF22AA
:102730009A400B469343194642789207120E03784B
:102740009B07DB0E9A4011430C4A03231B02D2184D
:1027500003789B109B00D1500278D306DB0E012238
:102760009A40064B1A6007E00278D306DB0E01227E
:102770009A40024B80331A607047000000E100E08D
:1027800010B5002819DB1A4A03231B02D21883084C
:102790009B00D2588307DC0EFF23A3409A438B078C
:1027A0001B0E8407E40EA3401A43114B032424029A
:1027B0001B198408A4001A5118E00E4A03071B0FC6
:1027C000083B9B089B00D2588307DC0EFF23A340E5
:1027D0009A438B071B0E8407E40EA3401A43054B54
:1027E0000407240F083CA408A4001A5110BD0000DF
:1027F00000E100E01CED00E010B5002819DB1A4AEA
:1028000003231B02D21883089B00D2588307DC0ED7
:10281000FF23A3409A438B071B0E8407E40EA340BB
:102820001A43114B032424021B198408A4001A51D3
:1028300018E00E4A03071B0F083B9B089B00D25869
:102840008307DC0EFF23A3409A438B071B0E8407EC
:10285000E40EA3401A43054B0407240F083CA408C8
:10286000A4001A5110BD000000E100E01CED00E0E2
:10287000FEB504460025002600200290019000903D
:102880000027864840680C2108400546002D06D0E8
:10289000042D07D0082D08D00C2D2CD128E080481D
:1028A00020602BE07E48206028E07C4840680F21B3
:1028B000890408400646794840680321C903084056
:1028C0000290B00C861C0298002803D17548374648
:1028D00047430BE07148C06A0007000F401C01909D
:1028E0006F480199FDF716FD70430746276005E024
:1028F0006D48206002E06A48206000BF00BF674862
:102900004068F021084005462D096848405D009068
:1029100020680099C840606060484068072109024B
:10292000084005462D0A6148405D009061680098A6
:10293000C140A1605948006BFF2101310840884225
:1029400002D05B48E0600DE05448406801218903F3
:102950000840884203D0A0684008E06002E0A06818
:102960008008E0604D48006B40210840402802D0BC
:102970005048206102E00120C00320614748006BFD
:1029800010210840102802D04548606101E020680D
:1029900060614248006B8007800F002802D1A06868
:1029A000A06119E03D48006B8007800F012802D12B
:1029B0002068A06110E03948006B8007800F022872
:1029C00002D18003A06107E03448006B8007800FCC
:1029D000032801D13248A0613048006B032109046B
:1029E0000840002802D1A068E06120E02B48006B7D
:1029F00003210904084001210904884202D120680A
:102A0000E06114E02548006B03210904084001211E
:102A10004904884202D18010E06108E01F48006B41
:102A2000032109040840884201D11D48E0611B4888
:102A3000006B032189040840002802D1A0682062AD
:102A400020E01648006B0321890408400121890415
:102A5000884202D12068206214E01048006B0321F4
:102A6000890408400121C904884202D10011206272
:102A700008E00A48006B032189040840884201D11C
:102A8000074820620548006B80210840802802D05A
:102A90000548606200E06762FEBD00000010024071
:102AA00000127A0000093D00006CDC024215002093
:102AB000809FD50012800000F8B500250024002674
:102AC0000027254840680C2108400546002D04D009
:102AD000042D06D0082D2CD107E02048204908609D
:102AE0002BE01E481E49086027E01B4840680F2164
:102AF000890408400446184840680321C903084077
:102B00000646A00C841C1448C06A0007000F471C2E
:102B100001200004864207D139461048FDF7FAFB30
:102B200060430F49086003E00E4860430C490860A9
:102B300003E00A480A49086000BF00BF0648406831
:102B4000F0210840000908490D5C05480068E8408C
:102B500003490860F8BD00000010024000127A002E
:102B60005415002000093D00D04100083548406858
:102B700035490840334948600846006833490840F1
:102B800030490860084600680121890488432D49BE
:102B90000860084640683F21090488432949486085
:102BA0000846C06A00090001C8620846006BFF21A0
:102BB0001431884323490863002088600846406B2D
:102BC000400840004863084640687B21C9038843A9
:102BD0001C494860084640681D4908431949486037
:102BE000084640680721090288431649486008469C
:102BF00040680521090208431249486000BF00BF30
:102C000010480068134908430E49086000BF0D488A
:102C100000680121490608400028F8D009484068AA
:102C20008008800007494860084640680221084340
:102C30000449486000BF034840680C210840082848
:102C4000F9D17047001002400CB8FF08FFFFF6FEF4
:102C50000200280001000001114800881149884243
:102C600004DA0F480088401C0D4908800E4800888F
:102C70000C49884204DA0C480088401C0A49088044
:102C80000A4800880749884204DA08480088401C3E
:102C9000064908800120C0430549088270470000AA
:102CA00040150020204E0000D61400202C150020D6
:102CB0000010004010B52349234800F064F80028B4
:102CC00006D02248007840084000401C1F49087088
:102CD0001C491D4800F044F800211D48FFF7BCFACC
:102CE0001A48407801280FD11A4819493039C86369
:102CF00000201649487016483038406B2021081AC9
:102D00001449223908700FE0124820381049303930
:102D1000C86301200D4948700D483038406B2021B0
:102D2000081A0C4922394870202009493039486373
:102D300001210748FFF790FA012107480068FDF7D5
:102D4000A3FC10BD1A010B0000380140261500201D
:102D5000300002403E160020CC1400200162704773
:102D600010B5002300220B0C01249C402246026275
:102D700010BD002A03D083680B43836002E08368A0
:102D80008B438360704770B502460B4600240021D8
:102D9000002500201E04350ED9B201268E40314692
:102DA000012D02D11668314006E0022D02D156688D
:102DB000314001E0966831401C0C0126A6403446A3
:102DC000D6693440002903D0002C01D0012000E056
:102DD000002070BDF8B503460024002600960025AB
:102DE000002018460E04340ECEB200960127009E35
:102DF000B7403D46022C01D1001D02E0032C00D15A
:102E00000830002A03D006682E43066002E00668F8
:102E1000AE430660F8BD0000F0B58BB004460D4629
:102E2000002700200A90002620684008400020600B
:102E3000666803210903304688430646A8680643AE
:102E4000666026682D480640E96868680843296975
:102E5000084306432660A6680321090230468843DA
:102E6000064668690643A6606846FFF701FD2448E8
:102E7000844202D106980A900DE02248844202D191
:102E800007980A9007E02048844202D108980A90E7
:102E900001E002980A9020680121C9030840002837
:102EA0000CD029680A9A5000FDF734FA07462968C1
:102EB0000A9A5000FDF72EFA0E4609E029680A9892
:102EC000FDF728FA074629680A98FDF723FA0E4607
:102ED00028684008B04200D87F1C20680121C9033F
:102EE0000840002806D03807460F384607490840F2
:102EF00030430746A7810BB0F0BD0000F3E9FFFFA8
:102F0000003801400044004000480040F0FF00004D
:102F1000002905D042680123DB051A43426004E022
:102F200042680123DB059A43426070474269120EF2
:102F30001206426142690A434261704730B47446E6
:102F4000641E2578641CAB4204D3635D5B00E31808
:102F500030BC18471D46F8E710B5FDF741FC10BD21
:102F600038B502460B4615480068009012E011780B
:102F7000521C6C4664786140684600784C00104DE5
:102F80006419647844406846447048002C46245CC8
:102F90006846047018465C1EA3B20028E7D1684654
:102FA00040781478A04207D1521C68460078147803
:102FB000A04201D1012038BD0020FCE7C04000083C
:102FC000BC3E000838B50A46114B1B68009312E05E
:102FD0000178401C6C46647861406B461B784C005D
:102FE0000C4D641964785C406B465C704B002C4659
:102FF000E45C6B461C701346541EE2B2002BE7D112
:103000006B465B780370401C6B461B78037038BDC1
:10301000BC400008BC3E000801462A480078002851
:1030200003D028480078022801DD002070470020E6
:10303000254A10702548264A10602648007840002E
:10304000254A1060012908D1104600688A02104301
:10305000214A10602148224A10601E48407800280A
:1030600000D1E3E71B4840780004FF22120410401F
:10307000194A12681043184A106010460068194A2D
:1030800050600020184A108007E0174800887D2211
:10309000D200904201DD0020C8E712488069012279
:1030A000D20310400028F0D10E484068921010431F
:1030B0000C4A506003480078401E024A10700120FC
:1030C000B4E700003B1500203A1500205E160020F2
:1030D00030150020381500203C1500207E160020F9
:1030E0003415002000540040401500201CB539481C
:1030F0004069012149040843364948610846806A0D
:10310000072149040843334988620846806A072139
:10311000490488432F49886201220921C806FFF724
:10312000E7F901220A210920C006FFF7E1F903208F
:103130004002009002216846017100218171032143
:1031400041710021C17169460920C006FFF788F965
:10315000FF20009000216846017181714171C171A9
:1031600069460920C006FFF77BF91A48406901212A
:103170008904084317494861012206211648FFF7D0
:10318000B7F9012207211448FFF7B2F9C0200090D7
:1031900002216846017101218171002141710121E3
:1031A000C17169460C48FFF75BF90A484069012183
:1031B000C90408430749486108480090012168464E
:1031C0000171002181714171C17169460448FFF7A5
:1031D00047F91CBD0010024000040048FF03000036
:1031E0000008004810B52248C0690121490508437C
:1031F0001F49C861084600690121490508431C4967
:103200000861084600690121490588431849086199
:1032100018480068400840001649086016480861D0
:10322000164808600020886014208860084680687E
:10323000C91308430F498860084600680121084304
:103240000C4908601720002805DBC206D20E0121B8
:1032500091400B4A116000BF00211720FFF790FA40
:103260000348006B102188430149086310BD00002A
:1032700000100240005400401C0E2000FE0F080009
:1032800000E100E010B51948C06910210843174952
:10329000C8610846006910210843144908610846BE
:1032A0000069102188431149086184201049088071
:1032B000012088810F480E492031088127200C49C0
:1032C000C862084600880121084309490880112086
:1032D000002805DBC206D20E01219140064A11608A
:1032E00000BF00211120FFF787FA10BD0010024037
:1032F00000100040AF04000000E100E010B586B00F
:1033000004461B48806901218903084318498861E4
:103310000846C0680121890308431549C86008466A
:10332000C0680121890388431149C86000940020C6
:1033300001900290039005900C20049069460D487E
:10334000FFF76AFD23210B48FFF7F0FD0121094833
:10335000FFF7DEFD012208490648FFF73BFD05485F
:103360000068012108430349086006B010BD000051
:1033700000100240003801401A010B0000B58BB06C
:103380002E48FEF777FF2E4800902E48019000202F
:1033900002902020039000200490802005900020BF
:1033A00006900790089001204003099000200A90A1
:1033B00069462248FFF734F801212048FEF74CFF08
:1033C0000120214948700846007940084000401C0F
:1033D00008711A481438FEF74DFF1948001D009077
:1033E0001A480190102002901848801E40780390DF
:1033F00000200490802005900020069007900890FF
:1034000001200003099000200A9069460B481438F7
:10341000FFF706F80122022108481438FEF7F6FFEC
:10342000012106481438FEF717FF0122C021044885
:103430002438FFF79EFC0BB000BD000030000240B6
:10344000243801401E1600202615002006150020F5
:1034500010B50A48007840084000401C0749087031
:103460000220074908701021054841700021817031
:1034700000F0D0FCC820FDF7A1F810BDD414002046
:103480005E160020FFF718FBFFF730FE00F080FA11
:103490001C494888FFF732FF1B4840690121084357
:1034A00019494861FFF76AFF00F0D4FBFFF7EAFE15
:1034B000FFF798FEFDF77AF9002801D1FDF790F9A2
:1034C0000020FDF729FA114908600020FDF788F86F
:1034D0000F490860002211460E48FDF79BFA0022B2
:1034E00011460D48FDF796FA002211460B48FDF7EC
:1034F00091FAFDF75BF9012801D1FDF789F900BFC9
:10350000FEE700000016002000100240C814002052
:10351000CC140020BD3A0008A5390008E53A00089F
:1035200010B504460C48806800780B49096808709B
:103530000948806840788030074909684870064823
:1035400000688470044908680321FFF73BFD0520EB
:103550000149087110BD00000C16002010B50020B4
:10356000784908710846007B082800DA10BD7548C4
:10357000806800787349497B884270D1714A127B18
:10358000921E91B26F4A9068FFF7EAFC002800D1C2
:10359000ECE76C48407B6B490968087069488068B3
:1035A000407804280FD006DC012809D0022808D072
:1035B00003281FD106E00F2806D010281AD104E0F6
:1035C00000BF00BF00BF00BF00BF5E498A685179DD
:1035D000127909021143084600F0A2FB0446002CB0
:1035E00003D07D200001844203DD0320FFF798FF14
:1035F000BCE700BF00BF53498A68517912790902BC
:103600001143084600F08CFB4F4908804D48806804
:103610004078052872D008DC01280DD0022827D078
:10362000032840D0042867D167E0062876D00F2809
:103630007FD010287FD17DE042498A68D178927886
:1036400009021143084600F06BFB3F490988401806
:1036500084B2082C04DD0220FFF762FF6FE06FE008
:1036600000F088F8002802D10420FFF759FF66E037
:1036700034498A68D178927809021143084600F0EB
:103680004FFB31490988401884B2082C03DD022021
:10369000FFF746FF53E000F029F9002802D104208B
:1036A000FFF73EFF4BE027498A68D17892780902FC
:1036B0001143084600F034FB23490988401884B2BE
:1036C00022480088844203DD0220FFF729FF36E00C
:1036D0001C498A68D178927809021143084600F0A3
:1036E0001FFB0446204600F087F8002802D1042082
:1036F000FFF716FF23E001E01DE020E011498A6892
:10370000D178927809021143084600F009FB04467B
:10371000082C05DB0220FFF703FF10E008E008E0BB
:1037200000F006FB002802D10420FFF7F9FE06E0B6
:1037300005E004E003E00120FFF7F2FE00BF00BF58
:1037400000BF13E70C160020DC1400200041000825
:103750000300FFF7F3FB060904050607080904E068
:1037600003E002E001E000E000BF00BF00BFFEE7B1
:1037700000BFFEE710B500F035F8124800681249A6
:1037800008601248816848790979000208430E49A7
:103790000968C1400C48016001200C490968487063
:1037A0000A49096888700848007808490968C8709B
:1037B000064908680421FFF705FC06200349087143
:1037C000012010BDFC140020E01400200C16002085
:1037D0000920C006008AC0B2014908607047000095
:1037E000F81400200248808AC0B20249086070477D
:1037F00000080048FC14002010B504460320364998
:1038000009684870354800784006000E324909685A
:10381000887031480068C01C3149086042E01420BB
:1038200060433049085C0300FFF788FB0534041649
:103830001733380000202A490968087028480068B2
:10384000401C274908600020096808702448006867
:10385000401C2349086022E000BF14206043214936
:1038600040184068008820490880084640781C4974
:10387000096808701A480068401C194908601A480D
:1038800000780968087016480068401C14490860F0
:1038900005E004E000201149088000E000BF00BFFF
:1038A000601C84B20D4801880088401E0B4A1080BD
:1038B0000029B4D1084A12689278D21CD1B2064AC3
:1038C0001068FFF77FFB044800688078401D0249BC
:1038D0000871012010BD00000C160020DC1400202F
:1038E000F0140020C4400008EC14002010B5FFF7CD
:1038F0006FFF1348006813490860134881684879CE
:103900000979000208430F490968C1400D48016068
:1039100002200D490968487001200B490968887028
:103920000848007808490968C870074908680421F0
:10393000FFF748FB062004490871012010BD000074
:10394000F8140020E01400200C160020012070471D
:103950000C4800780B4908600B48808A0B490860C6
:1039600008460068000A0002086008460068054929
:10397000096840180549086008460088024988829D
:1039800070470000FC1400200008004800150020CB
:1039900001200349087008714B20C001488070471E
:1039A00000160020FDF726F80546002D05D0102151
:1039B0002846FDF74FF8384908606CE03748007832
:1039C000C007C00F00285FD000F0ECF86420FCF7BF
:1039D000F5FD32480078C007C00F002800D15AE03A
:1039E0007D21C9002E480068FCF784FF2A49086041
:1039F00008460068002820D101202A4908700420C8
:103A000029494870402008700120FFF705FB00207D
:103A1000264908800CE0254800887D21C90088429D
:103A200006DD1E480078400840001C49087003E08D
:103A30001F4800780028EED000BF19480068FCF746
:103A4000C1FF16480078C007C00F00281ED01949D2
:103A5000088800F065F9184908801649488800F080
:103A60005FF91549488008460088A5214843000CA5
:103A70000446283C10490C8008464088642148438D
:103A8000040C0D494C8001E0FFF7E2FC7D20C000F2
:103A9000FCF794FD00BF91E7D8140020D414002057
:103AA000C81400203B15002038150020D614002033
:103AB0003A1500207E160020D01400200FE00320CD
:103AC0000002074988616420FCF778FD03200002AA
:103AD000034920310881FF209130FCF76FFDEEE7AC
:103AE0000008004852E00023DB430022012128485F
:103AF0000068FCF7F5FD27480078002843D001282E
:103B000042D1002024494870224800792349487353
:103B100023480078002812D02148801C8860801E2D
:103B2000007808731C48801C0860FFF717FD1B48CD
:103B300000791949487000201949087016E01848A2
:103B40004078002812D01648223014498860223864
:103B5000407808731048801C0860FFF7FFFC0F488E
:103B600000790D49487000200D4948700A48407896
:103B7000002807D00520FCF721FD07484178801C6C
:103B800000F07CF801E000E000BF00BFABE7000000
:103B9000CC14002000160020041500200C16002074
:103BA0001C16002010B57D21C90022480068FCF7D2
:103BB000A1FE214908600846006800282ED1012096
:103BC0001E4908701E4948704020087000201D4999
:103BD0000870FFF721FA00201B4908800CE01A4802
:103BE00000887D21C900884206DD18480078400819
:103BF00040001649087003E0154800780028EED010
:103C000000BF134800788006C00F00280CD10F4871
:103C10000078400840000D49087005E00B48007826
:103C2000400840000949087002480068FCF7CAFED5
:103C300010BD0000C8140020D81400203B1500203F
:103C4000381500205E160020D6140020D414002061
:103C50003A15002008B50A2168460170002141701C
:103C600001218170FEF754FD1B216846017001217E
:103C700041708170FEF74CFD08BD000070B5044630
:103C80000D4600202149088006E0204800887D215B
:103C9000C900884200DD05E01D480079C007C00F5B
:103CA0000028F2D100BF00201849088006E017481C
:103CB00000887D21C900884200DD70BD15488069FB
:103CC0000121C90308400028F1D1114800794008BA
:103CD0004000401C0E49087100210F48FEF7BCFA55
:103CE0002020FEF779FB002806D02020FEF794FA6A
:103CF00040210A48FFF732F807481C388462056201
:103D000001210548FEF7A8FA00BFD6E72C150020D0
:103D100026150020005400401C00024000380140DD
:103D2000014608460206100C0912421890B270476C
:103D300010B5052034490968487033488168C8784F
:103D4000897800020843304909688870000AC87001
:103D50002D48816848790979000208432A49096891
:103D60000871000A48712848816848790979000279
:103D70000843FF2818D101202449086022498A6895
:103D8000D1789278090211430846FFF7C9FF1F490D
:103D9000096881401D4801601D4800681B49096889
:103DA00008431B49086022E017488168487909796F
:103DB00000020843002818D1012014490860124964
:103DC0008A68D1789278090211430846FFF7A8FF64
:103DD0000E49096881400D4801600D4800680B4993
:103DE000096888430A49086001E0002010BDFFF718
:103DF000AFFD054908680621FFF7E4F808200249ED
:103E000008710120F2E700000C160020E0140020E9
:103E1000FC14002010B57D21C90021480068FCF782
:103E200069FD204908600846006800282DD101205E
:103E30001D49087003201D4948704020087000206B
:103E4000FFF7EAF800201A4908800CE018480088BB
:103E50007D21C900884206DD1648007840084000F0
:103E60001449087003E0144800780028EED000BF21
:103E7000114800788006C00F00280CD10D4800784A
:103E8000400840000B49087005E00A4800784008E7
:103E900040000849087002480068FCF793FD10BD17
:103EA000C8140020D81400203B150020381500202D
:103EB000D6140020D41400203A1500200000C0C100
:103EC000C1810140C30103C00280C241C60106C0D6
:103ED0000780C7410500C5C1C4810440CC010CC0A6
:103EE0000D80CD410F00CFC1CE810E400A00CAC166
:103EF000CB810B40C90109C00880C841D80118C056
:103F00001980D9411B00DBC1DA811A401E00DEC1D5
:103F1000DF811F40DD011DC01C80DC411400D4C1C5
:103F2000D5811540D70117C01680D641D20112C0E5
:103F30001380D3411100D1C1D0811040F00130C0B5
:103F40003180F1413300F3C1F28132403600F6C1D5
:103F5000F7813740F50135C03480F4413C00FCC1A5
:103F6000FD813D40FF013FC03E80FE41FA013AC065
:103F70003B80FB413900F9C1F88138402800E8C195
:103F8000E9812940EB012BC02A80EA41EE012EC0D5
:103F90002F80EF412D00EDC1EC812C40E40124C0C5
:103FA0002580E5412700E7C1E68126402200E2C1E5
:103FB000E3812340E10121C02080E041A00160C0F5
:103FC0006180A1416300A3C1A28162406600A6C1D5
:103FD000A7816740A50165C06480A4416C00ACC1A5
:103FE000AD816D40AF016FC06E80AE41AA016AC065
:103FF0006B80AB416900A9C1A88168407800B8C155
:10400000B9817940BB017BC07A80BA41BE017EC0D4
:104010007F80BF417D00BDC1BC817C40B40174C0C4
:104020007580B5417700B7C1B68176407200B2C1E4
:10403000B3817340B10171C07080B041500090C134
:1040400091815140930153C052809241960156C0D4
:1040500057809741550095C1948154409C015CC0A4
:104060005D809D415F009FC19E815E405A009AC164
:104070009B815B40990159C058809841880148C094
:10408000498089414B008BC18A814A404E008EC1D4
:104090008F814F408D014DC04C808C41440084C1C4
:1040A00085814540870147C046808641820142C0E4
:1040B00043808341410081C180814040FFFF000077
:1040C000FFFF000003000000F61400204D39000837
:1040D0004D3900080000000003000000F414002027
:1040E0004D3900084D3900080300000000000000B1
:1040F00000000000000000000000000000000000C0
:10410000020000000000000000000000B4120020C7
:104110004000000038130020C8000000010000002B
:10412000000000000000000000000000000000008F
:10413000F41200204000000000140020C80000001D
:104140002800000000000000000000000000000047
:104150000000000030120020340000006412002033
:104160005000000003000000E8030000050000000C
:1041700000100020100000000000000000000000FF
:10418000000000000000000000000000000000002F
:1041900000000020001000000000000000000000EF
:1041A000000000000000000000000000000000000F
:1041B0000000000000000000C800000004410008EA
:1041C000284100084C4100080400000000000000E5
:1041D00000000000000000000102030406070809B7
:1041E0005254582056352E302E3000000C42000814
:1041F0000000002000160000660500086C42000860
:104200000016002000070000F800000801FF01FF71
:1042100001FF01FF01FF01FF01FF01FF01FF01FF9E
:1042200001FF01FF01FF01FF01FF01FF01FF01FF8E
:1042300001FF01FF01FF91E56745230100162B7582
:1042400061727431207472616E736D69742064617F
:1042500074610D0A2D0102030404350607080913D1
:0C426000127A13E04106A00880F0FA0278
:04000005080000B53A
:00000001FF
