:020000040800F2
:10000000581F00200D33000815330008173300086F
:1000100000000000000000000000000000000000E0
:10002000000000000000000000000000ED340008A7
:100030000000000000000000653500087135000870
:100040001F330008000000001F3300081F330008A2
:100050001F3300081F3300081F3300081F33000838
:10006000000000001F330008A51F0008D51F00086E
:100070001F3300081F3300081F3300080000000072
:100080001F33000865290008000000001F33000826
:100090001F3300081F3300081F330008D125000854
:1000A0001F3300081F3300081F330008791E0008A3
:1000B0000D1F000800F002F800F038F80CA030C85E
:1000C000083824182D18A246671EAB4654465D46D4
:1000D000AC4201D100F02AF87E460F3E0FCCB64666
:1000E0000126334200D0FB1AA246AB4633431847E1
:1000F00088590000A859000000230024002500268C
:10010000103A01D378C1FBD8520700D330C100D5D3
:100110000B60704710B5642902D103F07DFA10BD61
:10012000002010BD1FB51FBD10B510BD03F095FC1C
:10013000114603B403F05EF803BCFFF7F3FF00F0D1
:1001400037F803F0A9FC03B4FFF7EEFF03BC03F09C
:10015000AFFC000070B505460C46164602E00FCC19
:100160000FC5103E102EFAD2082E02D303CC03C5C1
:10017000083E042E07D301CC01C5361F03E02178C9
:100180002970641C6D1C761EF9D270BD0FE003202F
:10019000000229498861642003F0BCFC03200002AE
:1001A000254920310881FF20913003F0B3FCEEE7B0
:1001B00003F03AF901F0B8FD00F050F81F49488803
:1001C00001F022FF1E484069012108431C49486193
:1001D00001F0B0FF01F08AFF02F0E7FB02F0D3FA72
:1001E00003F052FD002801D103F068FD002003F068
:1001F00001FE14490860002003F09EFC12490860CB
:1002000000221146114804F08FFB002211461048CD
:1002100004F08AFB002211460E4804F085FB002200
:1002200011460D4804F080FB03F02EFD012801D19A
:1002300003F060FD00BFFEE70008004880160020C4
:1002400000100240D0140020D41400208D010008BA
:10025000ED0400082F240008510B00080120074975
:10026000087008714B20C0014880022048710120AD
:1002700008724B20C001C880704700008016002023
:10028000014608460206100C0912421890B2704747
:1002900030B5034600200AE01C78002C01D10C7018
:1002A0000AE01C780C70491C5B1C441CE0B214462C
:1002B000551EEAB2002CEFD100BF30BD10B5034689
:1002C0000CE018780C78A04201D0002010BD1878FE
:1002D000002801D10120F9E7491C5B1C1046541E7F
:1002E000E2B20028EDD10120F0E710B5024600206F
:1002F00006E01378002B00D107E0431CD8B2521C53
:100300000B464C1EE1B2002BF3D100BF10BD000024
:1003100010B57D21C900AF48006803F047FDAE4924
:1003200008600846006800282DD10120AB490870FC
:100330000320AB49487040200870002002F068FAA2
:100340000020A84908800CE0A64800887D21C9004B
:10035000884206DDA448007840084000A2490870A1
:1003600003E0A24800780028EED000BF9F48007844
:100370008006C00F00280CD19B4800784008400040
:100380009949087005E0984800784008400096496F
:1003900008709048006803F049FD10BD10B57D213C
:1003A000C9008C48006803F001FD8B4908600846CD
:1003B0000068002832D1022088490870012088494D
:1003C000487040200870002002F022FA032084497F
:1003D0004870402008700020824908800CE0814865
:1003E00000887D21C900884206DD7F4800784008EA
:1003F00040007D49087003E07C4800780028EED07A
:1004000000BF7A4800788006C00F00280CD17648DB
:100410000078400840007449087005E07248007890
:1004200040084000704908706A48006803F0FEFC0C
:1004300010BD10B57D21C9006648006803F0B6FC08
:10044000654908600846006800282ED101206349EC
:1004500008706349487040200870002064490870A3
:1004600002F0D6F900205F4908800CE05D48008862
:100470007D21C900884206DD5B48007840084000C5
:100480005949087003E0594800780028EED000BFB1
:10049000564800788006C00F00280CD152480078DA
:1004A000400840005049087005E04F480078400877
:1004B00040004D4908704748006803F0B7FC10BD84
:1004C00010B54948007840084000401C4649087073
:1004D0000220474908701021454841700021817071
:1004E000FFF716FFC82003F015FB10BD04F00CFA4F
:1004F0000546002D05D01021284604F031FA364972
:10050000086065E038480078C007C00F002858D060
:10051000FFF78FFF642003F0FDFA33480078C0072F
:10052000C00F002800D153E07D21C9002948006890
:1005300003F03CFC2849086008460068002820D1E8
:100540000120264908700420254948704020087081
:10055000012002F05DF90020224908800CE02148CA
:1005600000887D21C900884206DD1F4800784008C8
:1005700040001D49087003E01C4800780028EED0B8
:1005800000BF1448006803F051FC17480078C0070A
:10059000C00F002817D017490888FFF771FE0446DE
:1005A000A5206043000C2838134908801149488869
:1005B000FFF766FE044664206043000C0E49488045
:1005C00001E0FFF77DFF7D20C00003F0A3FA00BF2C
:1005D00098E70000D0140020E0140020AF150020A0
:1005E000AC150020DE140020DC140020AE15002025
:1005F000B8170020D8170020D814002038B50A46B4
:10060000B04B1B68009312E00178401C6C46647884
:1006100061406B461B784C00AB4D641964785C40BC
:100620006B465C704B002C46E45C6B461C701346BA
:10063000541EE2B2002BE7D16B465B780370401C7E
:100640006B461B78037038BD38B502460B469D4893
:10065000001D0068009012E01178521C6C4664780E
:100660006140684600784C00974D641964784440B6
:100670006846447048002C46245C6846047018465E
:100680005C1EA3B20028E7D1684640781478A042E7
:1006900007D1521C684600781478A04201D101208D
:1006A00038BD0020FCE710B5044688484068007853
:1006B00086490968087085484068407880308349D9
:1006C000096848708148006884708049086803217F
:1006D000FFF794FF05207D49087210BD10B500207A
:1006E0007A4908720846407A082800DA10BD77482F
:1006F000406800787549897A884270D1734A527A85
:10070000921E91B2714A5068FFF79EFF002800D1F7
:10071000ECE76E48807A6D49096808706B4840685C
:10072000407804280FD006DC012809D0022808D020
:1007300003281FD106E00F2806D010281AD104E0A4
:1007400000BF00BF00BF00BF00BF60494A685179C9
:100750001279090211430846FFF792FD0446002C66
:1007600003D07D200001844203DD0320FFF79BFFBF
:10077000BCE700BF00BF55494A68517912790902A8
:1007800011430846FFF77CFD514908804F484068F7
:100790004078052872D008DC01280DD0022827D027
:1007A000032840D0042867D167E0062876D00F28B8
:1007B0007FD010287FD17DE044494A68D178927873
:1007C000090211430846FFF75BFD414909884018BB
:1007D00084B2082C04DD0220FFF765FF6FE06FE0B4
:1007E00000F07AF8002802D10420FFF75CFF66E0F1
:1007F00036494A68D1789278090211430846FFF7D2
:100800003FFD33490988401884B2082C03DD0220DB
:10081000FFF749FF53E000F087F8002802D10420D9
:10082000FFF741FF4BE029494A68D17892780902E5
:1008300011430846FFF724FD25490988401884B272
:1008400024480088844203DD0220FFF72CFF36E0B5
:100850001E494A68D1789278090211430846FFF789
:100860000FFD0446204600F088F8002802D104203D
:10087000FFF719FF23E001E01DE020E013494A687B
:10088000D1789278090211430846FFF7F9FC044633
:10089000082C05DB0220FFF706FF10E008E008E067
:1008A00000F0D8F8002802D10420FFF7FCFE06E093
:1008B00005E004E003E00120FFF7F5FE00BF00BF04
:1008C00000BF13E730590008305700088C1600208D
:1008D000E41400206859000810B501F0B2FA9448F9
:1008E0000068944908609448416848790979000291
:1008F000084390490968C1408E48016001208E4933
:10090000096848708C49096888708A4800788A4963
:100910000968C870884908680421FFF76FFE06203F
:1009200085490872012010BD10B501F090FA834886
:100930000068804908608048416848790979000268
:1009400008437C490968C1407A48016002207A491D
:1009500009684870012078490968887075480078EE
:1009600075490968C870744908680421FFF746FE94
:10097000062071490872012010BD10B504460320FD
:100980006D49096848706E4800784006000E6A4953
:100990000968887068480068C01C6A49086040E0BF
:1009A000200169494018407B030004F0B3FE053282
:1009B0000416173136000020624909680870614842
:1009C0000068401C5F4908600020096808705D48A5
:1009D0000068401C5B49086020E000BF20015A49C4
:1009E00008580088594908800846407855490968E0
:1009F000087054480068401C524908605348007809
:100A0000096808704F480068401C4E49086005E0BE
:100A100004E000204A49088000E000BF00BF601CDD
:100A200084B2474801880088401E454A108000294A
:100A3000B6D1414A12689278D21CD1B23E4A1068AF
:100A4000FFF7DCFD3C4800688078401D3A49087299
:100A5000012010BD10B50520374909684870364897
:100A60004168C8788978000208433349096888706A
:100A7000000AC87030484168487909790002084383
:100A80002D4909680871000A48712B484168487966
:100A9000097900020843FF2818D101202549086080
:100AA00025494A68D1789278090211430846FFF730
:100AB000E7FB2049096881401E4801601C48006826
:100AC0001C49096808431A49086022E01A4841682D
:100AD0004879097900020843002818D101201549F6
:100AE000086015494A68D17892780902114308468E
:100AF000FFF7C6FB0F49096881400E4801600C48AA
:100B000000680C49096888430949086001E0002031
:100B100010BD01F07DF9084908680621FFF76EFD58
:100B20000820054908720120F2E701207047000003
:100B300008150020E81400208C1600200415002061
:100B4000E4140020F814002038590008F4140020A0
:100B500091E1C9480078401CC749087008460078F0
:100B6000C007C00F087008460078012801DD00208A
:100B70000870C1480078C000C04940184079012879
:100B800004D0022875D0032872D173E0BA480078E7
:100B9000C000BA49085A002807D0B7480078C000FA
:100BA00040184088B649884207DB0020B2490978DE
:100BB000C900B24A8918487135E1AF480078800011
:100BC000B0490858B04909680843AF490860AA48C5
:100BD00000788000AD490958AB4800688843AA49AD
:100BE0000860A5480078C000A44940180079800733
:100BF000800FA1490978C900A04A891808719E4848
:100C00000078C0001146401801799B480078C00068
:100C100080180079401C984A1278D200974BD2185D
:100C200010719B48405C9B49934A1278895C8840CC
:100C3000954909680843944908608F480078C000C6
:100C4000194640184088401C8B490978C9001A464B
:100C50008918488088480078C0001146085A401E0C
:100C600085490978C900505201F0D2F8DBE000E074
:100C7000D1E000BF80480078C0008049401840792A
:100C800002280CD17C480078C000085A002806D100
:100C900079490978C900794A89184871C3E07648CA
:100CA0000078C0007549401840880A2807DA0020FB
:100CB00071490978C900714A89184871B3E06E48D2
:100CC000007880006F4908586F49096808436E49E9
:100CD00008606948007880006C4909586A480068D3
:100CE00088436949086064480078C0006349401837
:100CF00000798007800F60490978C9005F4A891828
:100D000008715D480078C0001146401801795A48C2
:100D10000078C00080180079401E574A1278D2002F
:100D2000564BD21810715A48405C5A49524A1278B0
:100D3000895C8840544909680843534908604E4813
:100D40000078C000194640184088401E4A4909787A
:100D5000C9001A468918488047480078C0001146E3
:100D600040184079022808D143480078C000085A4A
:100D7000401E41490978C900505201F049F801F07C
:100D800066F84548006800281BD03B480078800082
:100D900042490858002814D137480078C000374924
:100DA00040188079042820DA33480078C0004018C1
:100DB0008079401C30490978C900304A8918887107
:100DC00013E02D480078C0002C4940188079002895
:100DD0000BDD29480078C00040188079401E264964
:100DE0000978C900254A8918887123480078C0000D
:100DF00022494018807904280CDB00201E4909781C
:100E0000C9001E4A89184871C8201B490978C900C1
:100E10008918488007E0002017490978C900174A57
:100E20008918487100BF00BF13480078C0001349FB
:100E30004018407900280BD10F48007880001149F4
:100E400009581148006888430F49086000F0E0FF26
:100E50000A484079002803D00848407B002807D181
:100E60000023DB43002210210D48006802F0ACFE95
:100E70000A2002F04FFE6CE60015002098160020B4
:100E8000F0FF000074590008081500207C59000884
:100E90006C59000870590008041500208459000896
:100EA000D414002010B5044614228A492046FFF7C6
:100EB000EFF988494031487008464178403801F0E0
:100EC0000EFA642002F026FE01F07DFA002800D11F
:100ED00010BD81481422016880A0FFF7EFF9F7E701
:100EE000F1B5012701F06FFA0446002C00D1F8BDDE
:100EF0000098002803D178480568764E02E07848CB
:100F00000568784E1422294677A0FFF7D7F9002804
:100F100049D0042C47D1022775480078C007C00F7C
:100F200000282CD07348028873A1304602F02AFBB7
:100F300040213046FFF7D9F90446002C04D1214660
:100F4000304601F0CCF903E02146304601F001FAC9
:100F5000684842886DA1304602F014FB40213046BB
:100F6000FFF7C3F90446002C04D12146304601F0B6
:100F7000B6F918E02146304601F0EBF913E067A11D
:100F8000304602F0FFFA40213046FFF7AEF9044642
:100F9000002C04D12146304601F0A1F903E021469E
:100FA000304601F0D6F94C481422016862A0FFF7E0
:100FB00085F900282AD0042C28D1022760A13046C8
:100FC00002F0E0FA40213046FFF78FF90446002C8A
:100FD00004D12146304601F082F903E02146304633
:100FE00001F0B7F95AA1304602F0CCFA4021304660
:100FF000FFF77BF90446002C04D12146304601F06E
:101000006EF903E02146304601F0A3F9324814227C
:10101000016855A0FFF752F900280AD0062C08D124
:10102000042053494871002710215248006802F0FB
:101030009FFD2948142201684FA0FFF73FF90028BF
:101040000AD0062C08D103204949487100271021F5
:101050004848006802F08CFD1F481422016848A02F
:10106000FFF72CF900280AD0062C08D104214048AB
:101070004173002710213F48006802F079FD1648AF
:101080001422016840A0FFF719F900280AD0062CA5
:1010900008D10321364841730027102135480068E4
:1010A00002F066FD002F08D139A1304602F06AFA3D
:1010B0000421304601F04DF909E0012F07D136A196
:1010C000304602F05FFA0521304601F042F900BFD8
:1010D0000DE7000010150020A81600204F4B00005F
:1010E000301700205A15002052530D0A000000004E
:1010F000DC140020D814002054656D706572617492
:101100007572653A2025640D0A00000048756D6906
:10111000646974793A2025640D0A000054656D7085
:10112000657261747572652073656E736F72206588
:1011300072726F720D0A000052520D0A0000000018
:101140004461696C79205265706F72743A0D0A00BF
:10115000556E64657220636F6E7374727563746923
:101160006F6E0D0A00000000434F47310D0A00006A
:1011700098160020D4140020434347310D0A000084
:10118000434F47320D0A0000434347320D0A000027
:101190004F4B0D0A000000004552520D0A0000009E
:1011A0000168A84A1140016000210160416081602E
:1011B000C160A549884208D1A349083949680F226E
:1011C0001143A14A083A516094E09F491431884282
:1011D00008D19D4908394968F02211439A4A083AD2
:1011E000516087E098492831884209D196490839E9
:1011F00049680F2212021143934A083A516079E07C
:1012000091493C31884209D18F49083949680F22F8
:10121000120311438C4A083A51606BE08A495031FD
:10122000884209D18849083949680F2212041143BC
:10123000854A083A51605DE083496431884209D1AA
:101240008149083949680F22120511437E4A083A3C
:1012500051604FE07C497831884209D17A49083998
:1012600049680F2212061143774A083A516041E05B
:101270007649884208D17549083949680F221143D7
:10128000724A083A516035E070491431884208D1F9
:101290006E4908394968F02211436C4A083A516096
:1012A00028E06A492831884209D1684908394968E3
:1012B0000F2212021143654A083A51601AE063494D
:1012C0003C31884209D16149083949680F2212032B
:1012D00011435E4A083A51600CE05C495031884243
:1012E00008D15A49083949680F2212041143574A54
:1012F000083A5160704710B500220268544B1A40FA
:101300000C6A8B6823430C6923434C6923438C6923
:101310002343CC6923434C6A23438C6A23431A43F7
:101320000260CB6843600B6883604B68C36010BD8C
:101330000021016041608160C160016141618161A2
:10134000C1610162416281627047002904D0026874
:1013500001231A43026003E002683A4B1A4002601C
:10136000704710B5384A083A904200D100E000BFFB
:10137000A82212580B0F9C000F23A3409A43A823C6
:101380001A50A82212580B011B091A43A8231A50FD
:1013900010BD416070470146486880B27047002A1E
:1013A00003D003680B43036002E003688B430360D0
:1013B000704701460020002201231B070B40002B31
:1013C00003D0224B083B1A6802E01F4B083B1A6807
:1013D00013460B40002B01D0012000E00020704795
:1013E000012109070140002903D018490839486044
:1013F00002E0154908394860704701460020002284
:1014000001231B070B40002B03D0104B083B1A682D
:1014100002E00D4B083B1A6813460B40002B01D02D
:10142000012000E000207047012109070140002948
:1014300003D006490839486002E00349083948608A
:1014400070470000FEFF0000080002400804024050
:101450000F80FFFF10B504460920C006844209D161
:101460000121480401F069FE00210120400401F03F
:1014700064FE3CE07448844208D10121000201F07E
:101480005CFE0021200201F058FE30E06F488442EB
:1014900008D10121000201F050FE0021200201F0DC
:1014A0004CFE24E06A48844209D10121080501F07C
:1014B00044FE00210120000501F03FFE17E06548D1
:1014C000844208D10121400201F037FE0021600270
:1014D00001F033FE0BE06048844208D10121880509
:1014E00001F02BFE00210120800501F026FE10BD39
:1014F000F0B50A4600210023002400BF3DE001258D
:101500008D402B4615681D402C469C4234D11579E0
:10151000012D02D01579022D16D185684F000326C2
:10152000BE40B543856055794E00B5408668354369
:101530008560858801268E40B543858085889679AB
:101540008E40B6B23543858005684F000326BE4005
:10155000B543056015794E00B54006683543056012
:10156000C5684F000326BE40B543C560D5794E001F
:10157000B540C6683543C560491C1029BFD3F0BDCE
:101580003649016000210171012141710021817101
:10159000C171704708B5012212040092009A0A43F3
:1015A0000092009AC261C161009AC261C269009250
:1015B000C269009208BD02460020138A0B40002B2E
:1015C00001D0012000E0002070470146088A7047E2
:1015D00002460020938A0B40002B01D0012000E03E
:1015E000002070470146888A7047816170470185F5
:1015F0007047002A01D0816100E001857047818237
:101600007047F0B5002300244D07EE0E1546B54097
:101610002B46CD10AE0005462035AD594E07F70ECE
:101620000F26BE40B543CE10B60007462037BD5149
:10163000CD10AE003D46AD591D432C46CD10AD003A
:101640003E467451F0BD0000000400480008004808
:10165000000C00480010004800140048FFFF000084
:1016600000218278002A27D0274A03231B02D218A0
:1016700003789B109B00D15802789207D30EFF226B
:101680009A400B469343194642789207120E03780C
:101690009B07DB0E9A4011431B4A03231B02D218FF
:1016A00003789B109B00D1500278D306DB0E0122F9
:1016B0009A40154B1A6007E00278D306DB0E012230
:1016C0009A40114B80331A607047002905D00F4AA9
:1016D000126902430D4B1A6104E00C4A12698243FD
:1016E0000A4B1A617047042806D109490969042286
:1016F0001143074A116105E0054909690422914334
:10170000034A11617047000000E100E000ED00E0D5
:1017100000E000E010B50446F848844209D10121F8
:10172000880301F018FD00210120800301F013FD62
:1017300056E0F348844209D10121480401F019FD23
:1017400000210120400401F014FD49E0ED488442ED
:1017500009D10121880401F00CFD00210120800441
:1017600001F007FD3CE0E848844209D10121C804AA
:1017700001F0FFFC00210120C00401F0FAFC2FE081
:10178000E248844209D10121080501F0F2FC002160
:101790000120000501F0EDFC22E0DD48844208D183
:1017A0000121202001F0D7FC0021202001F0D3FCF2
:1017B00016E0D848844208D10121402001F0CBFC3A
:1017C0000021402001F0C7FC0AE0D348844207D141
:1017D0000121802001F0BFFC0021802001F0BBFC32
:1017E00010BDF0B58BB004460D46002700200A90CE
:1017F0000026206840084000206066680321090335
:10180000304688430646A868064366602668C34893
:101810000640E9686868084329690843064326606A
:10182000A6680321090230468843064668690643D4
:10183000A660684601F00DFBB048844202D10698CC
:101840000A900DE0AE48844202D107980A9007E062
:10185000AC48844202D108980A9001E002980A90AC
:1018600020680121C903084000280CD029680A9A81
:10187000500001F071FF074629680A9A500001F0F4
:101880006BFF0E4609E029680A9801F065FF0746DC
:1018900029680A9801F060FF0E4628684008B042A7
:1018A00000D87F1C20680121C9030840002806D009
:1018B0003807460F38469A49084030430746A78103
:1018C0000BB0F0BD4B21C901016000214160816076
:1018D000C1600C21016100214161704710B50022F7
:1018E00042680F2424021346A3431A464C680B682F
:1018F00023438C682343CC6823431A43426010BDC2
:101900000021016041608160C1607047002904D0FE
:10191000026801231A43026003E002685208520081
:1019200002607047002A03D003680B43036002E0A3
:1019300003688B4303607047002905D002680123C8
:10194000DB031A43026004E002680123DB039A43CD
:1019500002607047002905D082680123DB021A4328
:10196000826004E082680123DB029A438260704750
:10197000002905D042680123DB041A43426004E0D9
:1019800042680123DB049A4342607047002905D076
:10199000426801239B041A43426004E04268012329
:1019A0009B049A4342607047002A03D043680B436C
:1019B000436002E043688B4343607047002905D0D1
:1019C00042680123DB031A43426004E042680123BA
:1019D000DB039A4342607047002905D04268012327
:1019E000DB051A43426004E042680123DB059A43A9
:1019F000426070474269120E1206426142690A4310
:101A000042617047028AFF231B021A400282028A47
:101A10000A4302827047002904D0026802231A4355
:101A2000026003E0026802239A4302607047826802
:101A300003231B059A43826082680A4382607047D1
:101A4000002905D0426801231B051A43426004E0C7
:101A5000426801231B059A43426070474268032392
:101A60005B059A43426042680A4342607047CA0578
:101A7000D20D028570470146888CC005C00D7047A5
:101A800042681202120A426042680B061A43426020
:101A90007047002905D0026801235B031A430260E6
:101AA00004E0026801235B039A4302607047026806
:101AB0000123DB029A43026002680A430260704716
:101AC000426810239A43426042680A43426070476A
:101AD000426820239A43426042680A43426070474A
:101AE000002905D0426801239B031A43426004E0A9
:101AF000426801239B039A434260704700380140CB
:101B00000044004000480040004C004000500040AD
:101B10000014014000180140001C0140F3E9FFFFE0
:101B2000F0FF0000002904D0826808231A43826075
:101B300003E0826808239A4382607047028AD2B227
:101B40000282028A0B021A4302827047002904D0E3
:101B5000826820231A43826003E0826820239A432C
:101B600082607047002904D0826810231A43826083
:101B700003E0826810239A438260704782680723DB
:101B80005B049A43826082684B041A438260704708
:101B900042691202120A426142690B061A4342610B
:101BA0007047826804239A43826082680A43826095
:101BB0007047002904D0826802231A43826003E040
:101BC000826802239A4382607047002905D08268A8
:101BD00001239B031A43826004E0826801239B0374
:101BE0009A438260704782680123DB039A438260D4
:101BF00082680A438260704702681F235B059A432C
:101C0000026002684B051A430260704702681F2396
:101C10001B049A43026002680B041A430260704777
:101C2000002A03D083680B43836002E083688B4300
:101C300083607047826801235B039A4382608268F5
:101C40000A4382607047F8B50346002400260096D8
:101C50000025002018460E04340ECEB2009601274F
:101C6000009EB7403D46022C01D1001D02E0032C2E
:101C700000D10830002A03D006682E43066002E037
:101C80000668AE430660F8BD002A03D0038B0B4301
:101C9000038302E0038B8B43038370478268012335
:101CA0001B039A43826082680A438260704702463F
:101CB0000020D3690B40002B01D0012000E0002060
:101CC00070470162704770B502460B460024002140
:101CD000002500201E04350ED9B201268E40314663
:101CE000012D02D11668314006E0022D02D156685E
:101CF000314001E0966831401C0C0126A640344674
:101D0000D6693440002903D0002C01D0012000E026
:101D1000002070BD10B5002300220B0C01249C4054
:101D20002246026210BD00001CB54C4840690121EA
:101D300049040843494948610846806A0721490423
:101D40000843464988620846806A07214904884357
:101D50004249886201220921C806FFF752FC01228C
:101D60000A210920C006FFF74CFC03204002009026
:101D70000221684601710021817103214171002116
:101D8000C17169460920C006FFF7B2FBFF20009031
:101D900000216846017181714171C1716946092054
:101DA000C006FFF7A5FB2D484069012189040843BF
:101DB0002A494861012206212948FFF722FC012215
:101DC00007212748FFF71DFCC0200090022168462C
:101DD000017101218171002141710121C1716946A7
:101DE0001F48FFF785FB1D4840690121C9040843CE
:101DF0001A4948611B480090012168460171002181
:101E000081714171C17169461748FFF771FB1CBDB3
:101E100016480078154908601348808A14490860FC
:101E200008460068000A00020860084600680F497A
:101E3000096840180E490860084600880A498882E7
:101E400070470948808AC0B2084908607047092075
:101E5000C006008AC0B207490860704700100240FF
:101E600000040048FF030000000800480815002097
:101E70000C1500200415002010B5FE49FE48FFF7A0
:101E800022FF002806D0FD48007840084000401C92
:101E9000FA490870F749F848FFF73CFF0021F84875
:101EA000FFF753FAF5484078012810D1F548F44976
:101EB0003039C8630020F1494870F1483038406B30
:101EC0004021081AC1B2EF483C30017110E0ED48E2
:101ED0004038EB493039C8630120E8494870E84888
:101EE0003038406B4021081AC1B2E6483C3041719D
:101EF0004020E349303948630121E148FFF725FAE2
:101F00000121E148006801F033FE10BD10B5D94948
:101F1000DE48FFF7D8FE002806D0DD4800784008EC
:101F20004000401CDA490870D249D848FFF7F2FE59
:101F30000021D3482830FFF708FAD5484078012817
:101F400010D1D448CE49103148620020D0494870A1
:101F5000CB481030C0694021081AC1B2CD483C308E
:101F6000017110E0CB484038C5491031486201206A
:101F7000C7494870C2481030C0694021081AC1B230
:101F8000C4483C3041714020BD493039486301218B
:101F9000BB482830FFF7D9F90221BB48006801F09F
:101FA000E7FD10BD10B50021B5481438FFF7CDF995
:101FB0001020FFF715FA1020FFF736FAAF48007926
:101FC00040084000AD4908710121AD481438FFF7C1
:101FD000BCF910BD10B50021A9481430FFF7B5F9C0
:101FE00001200003FFF7FCF901200003FFF71CFAB2
:101FF000A748007940084000A54908710121A04880
:102000001430FFF7A2F910BD10B586B00446A248FF
:1020100080690121890308439F4988610846C06897
:102020000121890308439C49C8600846C068012112
:10203000890388439849C860009400200190029069
:10204000039005900C20049069468B48FFF7C9FB6C
:1020500023218948FFF7CEFC01218748FFF7BCFC0C
:10206000012284498448FFF7EEFD8348006801217E
:1020700008438149086006B010BD10B586B004461B
:102080008548C0690121490408438349C86108465D
:1020900000690121490408437F4908610846006935
:1020A0000121490488437C49086100940020019083
:1020B0000290039005900C20049069467348FFF746
:1020C00090FB23217148FFF795FC01216F48FFF732
:1020D00083FC012267496D48FFF7B5FD6B48006836
:1020E000012108436949086006B010BD08B50A21FE
:1020F000684601700021417001218170FFF7B0FA3C
:102100001B2168460170012141708170FFF7A8FA18
:102110000B21684601700021417001218170FFF799
:102120009FFA1C2168460170012141708170FFF700
:1021300097FA08BD00B58BB05148FFF731F84E480B
:10214000243000904F4840380190002002904020F9
:1021500003900020049080200590002006900790B6
:10216000089001204003099000200A9069464448E5
:10217000FFF7C1F801214248FFF7E7F801203F4986
:1021800048700846007940084000401C08713C48EF
:102190001438FFF705F83848283000903F48019080
:1021A000102002903D484030407803900020049079
:1021B00080200590002006900790089001200003E1
:1021C000099000200A9069462D481438FFF793F8CB
:1021D000012202212A481438FFF7E1F8012128489A
:1021E0001438FFF7B2F80122C0212348FFF718FD89
:1021F00023482830FEF7D4FF244824300090254897
:10220000403801900020029040200390002004906C
:102210008020059000200690079008900120400340
:10222000099000200A90694615482830FFF763F8A6
:10223000012113482830FFF788F80120144948701D
:102240000846007940084000401C08710C481430D2
:10225000FEF7A6FF0D48283000901148019010208D
:1022600002900F4840304078039000200490802076
:10227000059017E01A010B000038014052150020AC
:1022800030000240EC160020D4140020004400402E
:102290009C1500207417002000100240101500202B
:1022A0005A15002000200690079008900120000396
:1022B000099000200A906946B748FFF71CF80122F0
:1022C0000221B548FFF76BF80121B348FFF73DF84D
:1022D0000122C021B148FFF7A3FC0BB000BD70B5CF
:1022E00004460D460020AE49088009E0AC4800884D
:1022F0007D21C900884200DD08E0022001F00AFCCF
:10230000A8480079C007C00F0028EFD100BFA5483A
:10231000007940084000401CA249087100219E48F5
:102320002838FFF712F82020FFF743F8002806D0DE
:102330002020FFF755F840219B48FFF7C2FC964844
:10234000443884620562012193482838FEF7FDFF76
:1023500070BD70B504460D4600209449088009E020
:10236000924800887D21C900884200DD08E00220F3
:1023700001F0D0FB8E480079C007C00F0028EFD1D4
:1023800000BF8B48007940084000401C8849087114
:1023900000218148FEF7D9FF01204003FFF709F82B
:1023A000002807D001204003FFF71AF840217B489E
:1023B000FFF787FC7848001F046185600121001D3C
:1023C000FEF7C3FF70BD00207A490979002907D0C4
:1023D0007849087900220A717C390A1F11600BE0E4
:1023E00074494979002907D07249487900224A7115
:1023F0003C390A46443A1160704700206E49097919
:10240000002907D06C49087900220A717C390A1F1B
:1024100011600BE068494979002907D0664948797D
:1024200000224A713C390A46443A1160704756E02E
:102430000023DB43002201216048006801F0C4FB57
:102440005F480078002846D0012802D0022844D1F5
:1024500042E000215B484170594800795A4988722E
:1024600054480079002812D052487C3848607C30AB
:1024700000794872534840380860FEF72FF95248F7
:10248000017A5048417000214A48017116E04948DC
:102490004079002812D047483C384B4948603C30CE
:1024A00040794872474840380860FEF717F94648B7
:1024B000017A4448417000213E48417141484078CA
:1024C000002807D0052001F025FB3E484178403820
:1024D000FFF705FF02E001E000E000BF00BFA7E753
:1024E00059E00023DB43002202213448006801F058
:1024F0006BFB33484079002846D0012802D00228DF
:1025000047D142E00021314841702D48007A2E49E0
:10251000887229480079002812D027487C38486002
:102520007C3000794872294840380860FEF7D6F8B8
:102530002548017A2548417000211F48017116E0A5
:102540001D484079002812D01B483C381E4948607D
:102550003C30407948721D4840380860FEF7BEF8AC
:102560001948017A194841700021134841711748F0
:102570004078002807D0052001F0CCFA13484178B4
:102580004038FFF7E6FE05E004E00120FEF7A8FC76
:1025900000E000BF00BFA4E7440002400044004048
:1025A000581500205215002000380140A2150020C7
:1025B0009C15002028170020B0170020D4140020FC
:1025C00080160020501500208C1600209A1500203F
:1025D000D548806908210840002808D00820D24941
:1025E000C861D248D2490860D248D3490860CE4871
:1025F000806920210840002809D02020CA49C861EC
:10260000CE480078202188432030CC490870C64845
:10261000806940210840002841D0C948007800283E
:1026200029DDC84800784000C749086008460068AE
:10263000012189020843C4490860BC48BC490860BC
:10264000C04840780004FF2109040840BE490968D9
:102650000843BD49086008460068B3494860084619
:10266000406849140843B0494860B5480078401EA6
:10267000B349087013E0AC4840680121890308435E
:10268000A9494860AD480078C006C00F002806D1AF
:10269000AA480078202188432030A8490870A24821
:1026A0008069C007C00F002809D0A34800680078DF
:1026B0009D498862A0480068401C9F4908609A486C
:1026C000806904210840002809D09748406A984949
:1026D0000968087096480068401C9549086092484F
:1026E000806902210840002809D0934800680078DA
:1026F0008D49886290480068401C8F4908608A486C
:10270000806910210840002809D010208649C8613E
:102710008A48007810218843103088490870824820
:102720008069012189020840002809D008467E49B5
:10273000C8618248007804218843001D7F490870E1
:1027400079488069012149020840002809D00846DB
:102750007549C8617948007808218843083077496D
:10276000087071488069FF2101310840002809D0B4
:1027700008466D49C8617148007802218843801C71
:102780006E490870704710B57048C069012149054D
:1027900008436E49C861084600690121490508439C
:1027A0006A4908610846006901214905884367496B
:1027B00008615D480068400840005B490860644863
:1027C000086164480860002088601420886008461A
:1027D0008068C9130843544988600846006801218D
:1027E0000843514908601720002805DBC206D20EB5
:1027F00001219140584A116000BF0021172000F0CC
:102800005CF85248006B102188435049086310BDA2
:1028100001464B480078002803D049480078022838
:1028200001DD002070470020444A10704148424AB0
:102830001060444800784000434A1060012908D1E4
:10284000104600688A0210433F4A10603748384AF1
:1028500010603C484078002800D1E3E739484078D0
:102860000004FF2212041040374A12681043364A0F
:102870001060104600682C4A50600020374A1080D3
:1028800007E0364800887D22D200904201DD00201A
:10289000C8E7254880690122D20310400028F0D102
:1028A00021484068921010431F4A50602448007825
:1028B000401E234A10700120B4E710B5002819DB30
:1028C000254A03231B02D21883089B00D258830792
:1028D000DC0EFF23A3409A438B071B0E8407E40EF4
:1028E000A3401A431C4B032424021B198408A40090
:1028F0001A5118E01A4A03071B0F083B9B089B005C
:10290000D2588307DC0EFF23A3409A438B071B0E8C
:102910008407E40EA3401A43114B0407240F083C1C
:10292000A408A4001A5110BD00540040D81700207C
:10293000A8150020B8170020A4150020AE1500200F
:10294000AF150020AC150020B0150020001002408B
:102950001C0E2000FE0F080000E100E0B41500206E
:102960001CED00E0464800884649884204DA4448A5
:102970000088401C424908804348008841498842F9
:1029800004DA41480088401C3F4908803F480088DD
:102990003C49884204DA3D480088401C3B49088095
:1029A0000120C0433A490882704710B53948C069D0
:1029B000102108433749C8610846006910210843BF
:1029C000344908610846006910218843314908618B
:1029D00084202F490880012088812F482C492031EC
:1029E000088127202A49C862084600880121084337
:1029F000274908801120002805DBC206D20E0121DC
:102A00009140264A116000BF0021112000F001F81A
:102A100010BD10B5002819DB204A03231B02D21871
:102A200083089B00D2588307DC0EFF23A3409A4300
:102A30008B071B0E8407E40EA3401A43174B032495
:102A400024021B198408A4001A5118E0144A030731
:102A50001B0F083B9B089B00D2588307DC0EFF230B
:102A6000A3409A438B071B0E8407E40EA3401A432E
:102A70000B4B0407240F083CA408A4001A5110BDF6
:102A8000B4150020204E0000DE1400205815002050
:102A90000010004000100240AF04000000E100E020
:102AA0001CED00E0F848006801210843F649086081
:102AB00008464068F5490840F34948600846006800
:102AC000F3490840F049086008460068012189047C
:102AD0008843ED490860084640683F21090488435F
:102AE000E94948600846C06A00090001C862084612
:102AF000006BE8490840E44908630846406B400819
:102B0000400048630020886070470021DE4A9170D1
:102B100011468870704710B502460021002300203E
:102B20005111002902D1D84C23680BE0012902D1B0
:102B3000D54C236A06E0022902D1D34C636A01E036
:102B4000D14C636BD106C90E01248C401C40002C73
:102B500001D0012000E0002010BD38B50020009019
:102B60000024002500BF1120FFF7D5FF054600987F
:102B7000401C0090052109030098884201D0002DD7
:102B8000F1D01120FFF7C7FF002801D0012400E099
:102B90000024204638BD01460020BB4A1068F823B7
:102BA00002469A431046CA001043B74A1060704765
:102BB000002806D0B449096801221143B24A1160C5
:102BC00005E0B149096849084900AF4A11607047FA
:102BD00001460020AC4A506BF82302469A43104647
:102BE000CA001043A84A50637047002806D0A6497F
:102BF000496B01221143A44A516305E0A249496B84
:102C000049084900A04A51637047002806D09E49F0
:102C1000496B042291439C4A516305E09A49496BF0
:102C200004221143984A516370479749096A490839
:102C30004900954A11621146096A04229143924A59
:102C400011621146096A0143116270478E49096A8F
:102C5000182291438C4A11621146096A014311629C
:102C60007047002806D08849496A01221143864AE4
:102C7000516205E08449496A49084900824A516223
:102C80007047814A52687B23DB039A437E4B5A602C
:102C90001A46526803460B431A437B4B5A607047EF
:102CA000002807D078490968012212061143764AA4
:102CB000116006E074490968012212069143724AC4
:102CC00011607047002807D06F49496B0122120438
:102CD00011436D4A516306E06B49496B01221204AE
:102CE0009143694A5163704701460020664AD06AA1
:102CF0000009000102460A431046634AD062704749
:102D0000002807D0604909680122D20411435E4AB5
:102D1000116006E05C4909680122D20491435A4AD5
:102D20001160704702460020574B58680002000AA5
:102D300013060B431843544B58607047014600205C
:102D4000514A50688008800002460A4310464E4AA5
:102D5000506070474C4840680C210840704701465D
:102D60000020494A5068F02302469A431046024622
:102D70000A431046444A5060704701460020424AC8
:102D8000506807231B0202469A43104602460A4334
:102D900010463D4A506070473B4949680122920302
:102DA0009143394A51601146496882B21143364A0B
:102DB00051601146096B92159143334A11631146D4
:102DC000096B020C1143304A116370472E49096B9D
:102DD000402291432C4A11631146096B0143116350
:102DE00070472949096B10229143274A1163114604
:102DF000096B0143116370470021010F012906D1BE
:102E0000214A126B920892001F4B1A6310E00229AC
:102E100007D11D4A126B03231B049A431A4B1A63F2
:102E200006E0194A126B03239B049A43164B1A635C
:102E3000154A126B0243144B1A6370471249096B0F
:102E400080229143104A11631146096B01431163BB
:102E50007047FEB504460025002600200290019030
:102E600000900027084840680C2108400546002DC6
:102E700006D0042D12D0082D13D00C2D37D133E0FD
:102E80000548206036E00000001002400CB8FF0842
:102E9000FFFFF6FEACFEF0FF00127A00CE48206085
:102EA00028E0CE4840680F21890408400646CB48F8
:102EB00040680321C90308400290B00C861C0298A8
:102EC000002803D1C648374647430BE0C348C06AD1
:102ED0000007000F401C0190BF48019900F03CFC26
:102EE00070430746276005E0BE48206002E0BA480C
:102EF000206000BF00BFB9484068F0210840054687
:102F00002D09B948405D009020680099C840606074
:102F1000B248406807210902084005462D0AB24818
:102F2000405D009061680098C140A160AB48006BB3
:102F3000FF2101310840884202D0AC48E0600DE03A
:102F4000A6484068012189030840884203D0A06850
:102F50004008E06002E0A0688008E0609F48006BE5
:102F600040210840402802D0A148206102E0012011
:102F7000C00320619948006B10210840102802D03E
:102F80009548606101E0206860619448006B8007AB
:102F9000800F002802D1A068A06119E08F48006B63
:102FA0008007800F012802D12068A06110E08B48C3
:102FB000006B8007800F022802D18003A06107E028
:102FC0008648006B8007800F032801D18248A061EA
:102FD0008248006B032109040840002802D1A06840
:102FE000E06120E07D48006B0321090408400121D5
:102FF0000904884202D12068E06114E07748006B40
:1030000003210904084001214904884202D18010AB
:10301000E06108E07148006B032109040840884220
:1030200001D16D48E0616D48006B032189040840BF
:10303000002802D1A068206220E06848006B0321CC
:103040008904084001218904884202D12068206255
:1030500014E06248006B0321890408400121C9047F
:10306000884202D10011206208E05C48006B032115
:1030700089040840884201D1574820625748006BB4
:1030800080210840802802D05648606200E06762D4
:10309000FEBD5249096A0143504A11627047002837
:1030A00007D04E49096A0122D20311434B4A1162EB
:1030B00006E04A49096A0122D2039143474A116254
:1030C0007047002807D04549096A012212041143BC
:1030D000424A116206E04149096A01221204914301
:1030E0003E4A11627047002905D03C4A52690243AA
:1030F0003A4B5A6104E0394A52698243374B5A616C
:103100007047002905D0354A92690243334B9A61D2
:1031100004E0324A92698243304B9A617047002939
:1031200005D02E4AD26902432C4BDA6104E02B4AC7
:10313000D2698243294BDA617047002905D0274ABA
:10314000926A0243254B9A6204E0244A926A8243BF
:10315000224B9A627047002905D0204AD268024368
:103160001E4BDA6004E01D4AD26882431B4BDA60D2
:103170007047002905D0194A12690243174B1A619A
:1031800004E0164A12698243144B1A617047002901
:1031900005D0124A527A0243104B5A7204E00F4A89
:1031A000527A82430D4B5A7270470C48406A012193
:1031B0000906084309494862704701460020074A4A
:1031C00092680A40002A01D0012000E000207047E8
:1031D000024988727047000000127A000010024015
:1031E00000093D00006CDC02B6150020809FD50070
:1031F0001280000010B500F061FD10BD10B536481A
:103200000078002809D100F03FFD012803DD0120EE
:103210003149087010BD0020FCE70120FAE770B5C5
:10322000FFF7ECFF002801D12C4870BD01F06CFBCA
:103230000546002416E0A00029490858002806D1B8
:10324000A0000D506020604326494018EDE7A00023
:1032500023490858A84204D16020604321494018FE
:10326000E3E7641C042CE6D303D12946042000F0D4
:103270003DF8602060431B494018D6E710B504466E
:10328000002000F0B7FD20602068002805D121460D
:10329000052000F02BF8002010BD0120FCE710B540
:1032A0000446FFF7ABFF002804D00021C943206883
:1032B00000F07CFD10BD10B50446FFF79FFF00280D
:1032C00002D0206800F0B2FD10BD10B504462068A1
:1032D00000F07EFD10BD0000CC150020C0110020C4
:1032E000201200204010002000BFFEE7030002F083
:1032F00011FA060904050607080904E003E002E0E4
:1033000001E000E000BF00BF00BFFEE707488047C4
:1033100007480047FEE7FEE7FEE7FEE7FEE7FEE7B9
:1033200004480549054A064B70470000453300082C
:10333000B500000858180020581F0020581A002017
:10334000581A002060484068604908405E4948605B
:10335000084600685E4908405B4908600846006806
:1033600001218904884358490860084640683F2184
:1033700009048843544948600846C06A00090001AE
:10338000C8620846006BFF21143188434E49086328
:103390000020886008468069012108434A49886105
:1033A0000846406B400840004863084640687B215F
:1033B000C903884344494860084640684549084372
:1033C00041494860084640680721090288433E4950
:1033D0004860084640680521090208433A494860A8
:1033E00000BF00BF384800683B49084336490860C1
:1033F00000BF354800680121490608400028F8D080
:1034000031484068800880002F494860084640687D
:10341000022108432C49486000BF2B4840680C211A
:1034200008400828F9D17047F8B500250024002687
:103430000027254840680C2108400546002D04D08F
:10344000042D06D0082D2CD107E02448244908601B
:103450002BE022482249086027E01B4840680F21E2
:10346000890408400446184840680321C9030840FD
:103470000646A00C841C1448C06A0007000F471CB5
:1034800001200004864207D13946144800F064F94F
:1034900060431349086003E0124860431049086024
:1034A00003E00E480E49086000BF00BF06484068B0
:1034B000F021084000090C490D5C09480068E8400B
:1034C00007490860F8BD0000001002400CB8FF0872
:1034D000FFFFF6FE020028000100000100127A0042
:1034E000D015002000093D00F0590008EFF30980D5
:1034F0008169891E0978002926D101B50FC8B8470E
:103500000CBC03C29E461D4B06CB91421BD000292A
:1035100009D0EFF3098020388863F0C044464D4657
:1035200056465F46F0C0083B1A60906B1030F0C8FA
:10353000A046A946B246BB4680F309882038F0C8A9
:103540000220C0430047704710B50D4A13689942E6
:1035500006D8890054580FC8A047EFF309840FC458
:1035600010BD000001B500F0BDFD03BC8E46CAE7EA
:1035700001B501F035F903BC8E46C4E7F41500200F
:10358000EC5900080FB41CB5074B06AA7B446946EA
:103590000090059800F035FA0020694600F044FAE2
:1035A0001CBC08BC04B0184799040000F8B50E46CE
:1035B0000446002020622046E1688847002829D080
:1035C000252802D06268A16820E0E1682046002733
:1035D000884705001ED028464138192802D80127FF
:1035E000FF0220353246204627602946FCF792FD2F
:1035F000002808D0012804D0F61DF608F600083689
:10360000D9E7361DD7E762682846A1689047206A47
:10361000401CCFE7206AF8BDF7B500257529106872
:10362000009914A611D0C046C046002802DA4042D4
:1036300011A608E0009909688A0701D50FA602E0E3
:10364000490704D50EA6012501E0C046C046009FEB
:103650000024243704E000F0ECF930313955641CC3
:103660000028F8D12B4632462146009800F06BF92D
:10367000FEBD0000000000002D0000002B00000037
:1036800020000000F8B5042A2CD3830712D00B7851
:10369000491C0370401C521E83070BD00B78491C39
:1036A0000370401C521E830704D00B78491C037022
:1036B000401C521E8B079B0F05D0C91ADF00202328
:1036C000DE1B08C90AE0FCF745FDF8BD1D4608C928
:1036D000FD401C46B4402C4310C0121F042AF5D2F2
:1036E000F308C91A521EF0D40B78491C0370401C11
:1036F000521EEAD40B78491C0370401C012AE4D402
:1037000009780170F8BDD2B210B513029A181304EB
:103710009A1800F001F810BD01E004C0091F042947
:10372000FBD28B0701D50280801CC90700D0027034
:10373000704700290BD0C30702D00270401C491EFD
:10374000022904D3830702D50280801C891EE3E787
:103750000022EEE70022DFE7002203098B4273D349
:10376000030A8B4258D3030B8B423CD3030C8B428E
:1037700021D312E003460B437FD4002243088B423F
:1037800074D303098B425FD3030A8B4244D3030BE8
:103790008B4228D3030C8B420DD3FF22090212BAAD
:1037A000030C8B4202D31212090265D0030B8B4229
:1037B00019D300E0090AC30B8B4201D3CB03C01A13
:1037C0005241830B8B4201D38B03C01A5241430BEE
:1037D0008B4201D34B03C01A5241030B8B4201D3DE
:1037E0000B03C01A5241C30A8B4201D3CB02C01A49
:1037F0005241830A8B4201D38B02C01A5241430AC1
:103800008B4201D34B02C01A5241030A8B4201D3AF
:103810000B02C01A5241CDD2C3098B4201D3CB0156
:10382000C01A524183098B4201D38B01C01A524105
:1038300043098B4201D34B01C01A524103098B4209
:1038400001D30B01C01A5241C3088B4201D3CB00F4
:10385000C01A524183088B4201D38B00C01A5241D7
:1038600043088B4201D34B00C01A5241411A00D287
:1038700001465241104670475DE0CA0F00D04942F0
:10388000031000D34042534000229C4603098B4260
:103890002DD3030A8B4212D3FC22890112BA030AE8
:1038A0008B420CD3890192118B4208D3890192116A
:1038B0008B4204D389013AD0921100E08909C309EF
:1038C0008B4201D3CB01C01A524183098B4201D3F1
:1038D0008B01C01A524143098B4201D34B01C01ADC
:1038E000524103098B4201D30B01C01A5241C30854
:1038F0008B4201D3CB00C01A524183088B4201D3C3
:103900008B00C01A5241D9D243088B4201D34B00DD
:10391000C01A5241411A00D20146634652415B101F
:10392000104601D34042002B00D549427047634600
:103930005B1000D3404201B50020C046C04602BD26
:10394000704770477047FFB504460D4681B024307C
:1039500000902168880604D51022E0699143216017
:1039600000E00120A84201DD471B00E00027049889
:10397000A1697A191018081AA0612078C00602D42B
:103980002046C046C046002608E003986268A16849
:10399000805D9047206A401C761C20620498864215
:1039A000F3DB2078C0060AD52046C046C04606E0B4
:1039B0006268A16830209047206A401C2062384627
:1039C0007F1E0028F4DC07E000986268A168405D73
:1039D0009047206A401C206228466D1E0028F3DCB8
:1039E0002046C046C0462078000602D5022005B019
:1039F000F0BD0120FBE7000001694A1C0261087864
:103A0000704700B58FB002910021059105490193DF
:103A100079440391114604906846FFF7C7FD0FB043
:103A200000BD0000E5FFFFFF0A681070521C0A602D
:103A3000704701468008081A02091018020A101877
:103A4000020C1018C008820012185200891A01E0F6
:103A5000401C0A390A29FBD27047754600F024F849
:103A6000AE46050069465346C008C000854618B0FA
:103A700020B5FFF755FC60BC00274908B646002674
:103A8000C0C5C0C5C0C5C0C5C0C5C0C5C0C5C0C50E
:103A9000403D49008D46704710B50446C046C046BB
:103AA0002046FCF750FB10BD00487047F817002077
:103AB00001491820ABBEFEE726000200704770B532
:103AC0008C180578401C6B075B0F01D10378401CF4
:103AD0002A1106D10278401C03E00678401C0E70C3
:103AE000491C5B1EF9D12B0705D40023521E0DD4AF
:103AF0000B70491CFAE70378401CCB1A921C03E0B8
:103B00001D780D70491C5B1C521EF9D5A142D8D3FB
:103B1000002070BD80B501460520C043EFF305824B
:103B2000002A06D1EFF31082002A02D1014F084685
:103B300000DF80BD8549000880B501460020EFF315
:103B40000582002A11D1EFF31082002A0DD1074F10
:103B50000846EFF31482920706D4EFF30882203A66
:103B6000D208D20082F3098800DF80BD994900089D
:103B7000D0B5EFF30582002A03D1EFF31082002ABB
:103B80001BD00322D44300281AD0002918DB027866
:103B9000032A15D1641C4278002A11D0EFF3108259
:103BA000EFF3108372B6C4680C43C460002A00D1DE
:103BB00062B600F0E7FA2046D0BD024F00DF0446AF
:103BC0002046D0BD114A0008F0B581B0EFF305845E
:103BD000002C03D1EFF31084002C32D00324E443F3
:103BE00000282CD0002930DB002B45D10378032B93
:103BF00044D1631C4578002D41D002231A4226D1BE
:103C000001252A40EFF310830093EFF3108672B67C
:103C1000C3681E460E40771A7D1BAF4117401643FE
:103C20000025002E06D0002F04D1E21C514019407F
:103C3000C1601D460098002819D162B617E02346DE
:103C40001DE0104F00DF034619E0234617E0C3686C
:103C5000184608400025884200D11D4601210A402F
:103C6000002A00D11D461043002800D10546631CE0
:103C7000002D04D02B4602E0234600E023461846E0
:103C800001B0F0BD214B000880B50020C043EFF328
:103C9000058100290DD1EFF31081002909D1012000
:103CA000EFF31481014202D10348007A80BD014F35
:103CB00000DF80BD114C0008D815002080B505201C
:103CC000C043EFF30581002910D1EFF310810029E3
:103CD0000CD1074FEFF31482920706D4EFF308825A
:103CE000203AD208D20082F3098800DF80BDC046A6
:103CF0001D4C000880B50520C043EFF30581002965
:103D000010D1EFF3108100290CD1074FEFF314828B
:103D1000920706D4EFF30882203AD208D20082F349
:103D2000098800DF80BDC046D14D0008F0B581B0E4
:103D30000C460546EFF30580002803D1EFF3108011
:103D4000002829D00320C643002D2AD0002B28D1DB
:103D5000002C26D02878082823D1761C68780028E3
:103D60001FD0009228460C3000F03DF90746002F86
:103D700017D06A6A38460C302146FFF783FC0720CB
:103D80003870012078700026BE700098F870BD6011
:103D9000384600F0F7F904E0034F2846214600DFDB
:103DA0000646304601B0F0BD614E000880B50246BF
:103DB0000520C043EFF30583002B06D1EFF31083FA
:103DC000002B02D1014F104600DF80BD954F000847
:103DD00080B501460520C043EFF30582002A06D1D5
:103DE000EFF31082002A02D1014F084600DF80BDA8
:103DF0003950000880B501460020EFF30582002A03
:103E000011D1EFF31082002A0DD1074F0846EFF3CE
:103E10001482920706D4EFF30882203AD208D20027
:103E200082F3098800DF80BD1151000880B501468A
:103E30000520C043EFF30582002A06D1EFF310827C
:103E4000002A02D1014F084600DF80BD89510008D9
:103E5000F0B583B004466078002847D0A768002FEB
:103E600044D001943D462320295C686AAF68022251
:103E700011421BD101263140EFF310820292EFF381
:103E8000108372B6E268134603401C1AA61BB441A5
:103E90000C400B430026002B17D0002C019C029BEA
:103EA00015D111468143E160164610E00122114010
:103EB000E66833460340181A821A904108400B43C3
:103EC000002B11D0002805D00EE0019C029B002B96
:103ED00000D162B6002E07D0284600F0B3FA0022C7
:103EE0002846314600F028FC002FBBD103B0F0BDBE
:103EF000F0B582B0002300282BD000292CD0032A53
:103F000017D8009301920F31072291438668024629
:103F1000083035462C1A476803233E469E43A31BB0
:103F20008B4209D22E68002E2846F2D1009802B0AA
:103F3000F0BD184602B0F0BD53685B185360019A9B
:103F40000A43002F0BD0355031184A6001600846F3
:103F500006E0184602B0F0BD184602B0F0BD42605F
:103F6000083002B0F0BDB0B50022002819D00029F9
:103F700017D0044608340839002325468D4205D061
:103F80002C680022002C2B46F7D10AE04A68032453
:103F9000A2434468A21A4260002B04D0086818604B
:103FA00001221046B0BD0020486001221046B0BD7D
:103FB00010B502460020002A14D007231A4211D15E
:103FC0000C461C4018290DD3002C0BD11160102079
:103FD00050608818014608399160D9430023435046
:103FE000D360012010BD10B501460020EFF3108210
:103FF000002912D0EFF3108072B60C684B680020D5
:10400000A34207D25B1C4B604B69002B02D018689F
:1040100048611846002A00D162B610BD10B50246AC
:104020000320C043EFF31083002A15D0D4688C42DC
:1040300012D814698C420FD9EFF3108472B6401C69
:104040005468002C05D0601E5060506908605161B2
:104050000020002B00D162B610BDB0B50446002090
:10406000002C1BD0002919D0002A17D0002B15D006
:1040700000200D4655435D192160271D2DC7636142
:104080004C1E09D00125691A54431C199D181D6046
:10409000491C2B46FAD1234618600120B0BDF0B56B
:1040A00081B004460EE0284600F0A4F907463146E8
:1040B000324600F041FBEF60F86A68612E61FD62F4
:1040C00001202876002C0BD025466C69E878082161
:1040D0000842F7D000262E76A8680028E3D1F1E741
:1040E00001B0F0BDF0B581B0254C01E0616F8847AB
:1040F000EFF310815822EFF3108072B65A23E55A7D
:104100000020002D0ED0A65A681EE0525E22A05A52
:10411000451CAFB20023B74200D02B468000256E6D
:104120002858A352002900D162B6002822D0017875
:10413000491E0629DCD8890001A289588F46C0464D
:104140005D410008F140000863410008F1400008AB
:10415000694100086F410008ED400008616E884722
:10416000C6E7A16E8847C3E7E16E8847C0E7216FC5
:104170008847BDE7002000F0A7F801B0F0BDC046B9
:10418000D8150020F0B581B00146EFF31082582316
:104190001748C35AEFF3108472B65A25465B0024C1
:1041A0009E420ED2741C44535C24055BAE00076E25
:1041B000B9516D1CAFB200269F4200D02E46065367
:1041C0000124002A00D162B6002C06D0417A0029D1
:1041D00008D00121C17201B0F0BD0220FFF786F8BE
:1041E00001B0F0BD012000070249086001B0F0BD38
:1041F000D815002004ED00E0014800687047C04673
:1042000010E000E0014807210160704710E000E085
:1042100080B50948C06809494968FFF79DFA401E02
:104220000749086000204860FF210906054A136815
:104230000B431360C04380BDD8150020045A00080A
:1042400014E000E020ED00E070B51E48416B00294D
:1042500036D0CA69521ECA6132D1CA68002A07D054
:104260008B6893608B68002B00D0DA600022CA60F4
:1042700001224A702023CC5602462432C66A002E00
:1042800009D0054624353246D656A64208DB966844
:10429000002E1546F7D100238B60CA60083203E078
:1042A0008A60CD60A9600C32116009690022002982
:1042B00005D0CA69002AD0D000224A610A4642636A
:1042C00070BDC046D8150020F0B581B04849CA6914
:1042D0000123002A00D113460C7AA41E00273E1B9E
:1042E00066411E40002831D020240557012E19D1E7
:1042F0001657B54216DD0097012353700D4624353D
:10430000CF6A002F09D00B4624333D462F57B742C2
:1043100043DDAF68002F2B46F7D1009B9360D5603B
:1043200008353EE0012242700A462432CB6A002B57
:1043300008D024311A461357AB4227DB9368002B71
:104340001146F7D18760C260083223E0C86A0123B2
:10435000002800D103461E40012E1CD120241557F1
:104360000357AB4217DDC368002B009721D0866846
:104370009E608668002E00D0F360C760CF6A01237C
:1043800053700E462436002F16D11FE08260C160A4
:1043900088600C32106001B0F0BD9560D3609A6007
:1043A0000C352A6002224270086200F031F901B037
:1043B000F0BD0123537007460B4624333E46375762
:1043C000AF4208DDB768002F3346F7D1009B9360FA
:1043D000D660083603E09660D3609A600C3632608F
:1043E00002224270086200F013F901B0F0BDC0462D
:1043F000D815002001468868002806D082688A60A7
:10440000002A00D0D1600021C1607047B0B50029FA
:1044100017D020228B568468002C08D005462046F1
:1044200084569C4208DB8468002C0546F7D10022A4
:104430008A60C860083003E08860CD60A9600C30F5
:104440000160B0BDC168002907D082688A608268B7
:10445000002A00D0D1600021C1607047B0B501468C
:104460000A78012A03D1C9680029F9D123E0C2687A
:10447000002A07D0836893608368002B00D0DA603D
:104480000022C2602023C4568D68002D08D02A4621
:10449000D556A5420ADB9568002D1146F7D100E0FC
:1044A0000A4600218160C260083203E08260C16078
:1044B00088600C321060B0BDF0B5417833297BD1F3
:1044C0002321435C426A02210B421BD101210B4094
:1044D000EFF31084EFF3108572B6856A2F4617400C
:1044E000BE1A711A8E411E401F430021002F05D0B5
:1044F000002E03D12946914381622946002C0FD119
:1045000062B60DE001242340816A0D461540AA1AC7
:10451000141BA2411A401D43002D4DD0002A4BD13F
:10452000002949D0826B11624169C3691A46013280
:1045300011D0224A002902D1546B84421FD1046950
:10454000002C04D0E569EB18E36161614169002941
:1045500012D00C610DE0194A002902D1936B8342FD
:104560000DD10369002B01D059614169002905D0A3
:104570000B610021416102E0546300E0936301217B
:104580004170202283560D4C21462431E56A002DCE
:1045900008D0243429468D569D4208DB8D68002DB5
:1045A0000C46F7D100228260C160083103E08160CF
:1045B000C460A0600C310860F0BDC046D815002072
:1045C000B0B50121417000281AD0202283560D4C2D
:1045D00021462431E56A002D08D0243429468D5621
:1045E0009D4208DB8D68002D0C46F7D100228260C9
:1045F000C160083103E08160C460A0600C310860D4
:10460000B0BDC046D8150020806B20307047000038
:1046100080B50848C16900290AD0086B8A6B8242BC
:1046200003D90068044A904202D00120FEF75EFEE2
:1046300080BDC046D8150020A52E5AE280B50221C3
:10464000417002490862FFF7E3FF80BDD8150020E2
:1046500070B50246374BDC690020002C69D01D7A0A
:10466000022D15D1DD6A002D63D06270084601303D
:104670001AD05E6B0022002E2CD000253046C66971
:10468000B14234D3891B0669002E0546F6D122E0DB
:10469000E16800294DD0A0688860A068002800D09B
:1046A000C1600020E06070BD18463830002211461D
:1046B000026810461030002AF9D10020C243E2619E
:1046C00061612061084610301A46383200291DD138
:1046D00010461BE01046E161606122610146103125
:1046E0001A463432002800D1114608460EE0E16136
:1046F000656120612A4610321E463436002D00D1F5
:1047000032461460C269511AC16114300460D86A1B
:10471000002808D08168D962002902D01A462432C4
:10472000CA600021C160022141701862FFF770FF6A
:10473000012070BDD815002070B5836B19624169E6
:10474000C4692346013311D0244B002902D15D6B8B
:1047500085421FD10569002D04D0EE693419EC6142
:1047600069614169002912D00D610DE01B4B0029E0
:1047700002D19C6B84420DD10469002C01D061618F
:104780004169002905D00C610021416102E05D63AF
:1047900000E09C63012A02D1FFF796FD70BD012164
:1047A0004170202283560D4C21462431E56A002DAC
:1047B00008D0243429468D569D4209DB8D68002D92
:1047C0000C46F7D100228260C1600831086070BDDC
:1047D0008160C460A0600C31086070BDD8150020F5
:1047E000B0B5FFF709FD1B4D286969690024401C1D
:1047F00061412861696100F02FF8FFF725FD20462F
:10480000FFF762FDA96C002923D02A6A286C904228
:1048100002D02A646964B0BD696C002902D0491EC7
:10482000696416D1297A022913D1EC6A002C10D0C0
:104830002021405C615C81420BD12046FFF702FEE3
:10484000286CFFF7BDFE2046FFF7F8FE2C64A86C2D
:104850006864B0BDD815002070B5274EF46C002CEC
:1048600003D02069401E206100D070BDE0680028A0
:1048700001D0A1688160F064706D21461831002577
:104880002A462B46FFF752FA002803D00320214680
:10489000FEF72CFDE07801280ED1F36C6069002B47
:1048A0000DD0002219460B6998420DD3C01ACB686F
:1048B000002B0A46F6D103E00120607014E029467F
:1048C000A160E560206107E0A260E16020610B6902
:1048D000181A08618C60114608460C3032464C327A
:1048E000002900D110460460F46C002CBDD0206972
:1048F0000028BBD0B9E7C046D8150020F0B5014F5D
:1049000000DFFEE75552000880B50020EFF3058177
:10491000002905D1EFF31081002901D1014F00DFFB
:1049200080BDC046A9530008D0B503460020EFF370
:104930000584002C11D1EFF31084002C0DD1074F0A
:104940001846EFF314839B0706D4EFF30883203B4C
:10495000DB08DB0083F3098800DFD0BDB553000816
:1049600080B502460520C043EFF30583002B06D136
:10497000EFF31083002B02D1014F104600DF80BD02
:10498000FD55000880B50146002902D01320FFF72D
:104990005FFE002080BD000010B502460024002A02
:1049A00010D090681468002808D000210323184212
:1049B00027D1D2680021102A23D315E0D068002126
:1049C00000281ED1942010490858002802D0FFF773
:1049D0000AFB05E08420085810210122FFF788FA1D
:1049E000002100280DD00121032202700122427013
:1049F0008170002144608160C1600349034A8A6676
:104A00000146084610BDC046D8150020513E00089A
:104A1000F0B587B005460320C343002D73D00029AD
:104A200073DB2878032872D15C1C6878002874D066
:104A3000EFF31080EFF3108272B6EC680C43EC6079
:104A4000002800D162B6A868002863D002930395BD
:104A5000019406462320335C30462330726AB168E5
:104A60000691022105910B421DD101273B40EFF336
:104A700010810491EFF3108172B6EC682546154061
:104A8000A91ACF1BB94119401D430027002D19D089
:104A90000029039D049B17D10299C91C4A4022405A
:104AA000EA60274610E001210B40EF683C461440C5
:104AB000A21A511A8A411A401C43002C09D0002A1C
:104AC00005D006E0039D049B002B00D162B6002FA9
:104AD00003D106980028BCD11BE000780599084254
:104AE0003C4604D10298C01C746A44403C403046A5
:104AF000FFF7A8FC002230463946FFF71DFE069856
:104B00000028A5D106E01C4607E01C4605E01C462F
:104B100003E0019C0020FFF7D7FB204607B0F0BD63
:104B2000F0B585B00C463949C9690325EE43F51C3B
:104B3000002967D000282DD0002C2DDB0578032D0F
:104B40002CD1771C4578002D2AD002252A420492C8
:104B5000029727D10193012513462B40EFF31082D2
:104B60000392EFF3108772B6C7680097274022467A
:104B70003C1B651BAC411C401F430025002F2BD064
:104B8000002C134629D1F41C5C40009A1440C460E8
:104B9000154622E0354635E0354633E0354631E00E
:104BA0003D462FE00127009715463D400195C56819
:104BB00003942F46039A1740039ABA1A009C141BB9
:104BC000A2411C46019B1A401F43002F039B049FD8
:104BD0000BD0002A07D008E01346039A002A049F4E
:104BE00000D162B6019C002D0CD1002C029D09D091
:104BF0004B6223228F54FFF709FC43202146FFF725
:104C000027FDB51C284605B0F0BDC046D8150020CC
:104C10000148007A7047C046D8150020F0B583B02F
:104C2000684F387A0026F543002804D00128304622
:104C30000ED103B0F0BD38460830A0210291FEF736
:104C400089FD614C606D482805D2284603B0F0BD4F
:104C5000284603B0F0BDE168002900D1AEE0228A09
:104C6000002A2846E5D0396658203A52A068B86430
:104C7000E56A216B2846FFF79BF9002801D08420C4
:104C80003D506569A1692846FFF792F98421019199
:104C9000002801D101983D58BD67E569216A284681
:104CA000FFF786F9002801D101983D58FD67656A34
:104CB000A16A2846FFF77CF9002801D101983D58E8
:104CC00080203D50656B002D09D0AA68EB682968EB
:104CD0002846FFF7C2F9002801D088203D50A56B77
:104CE000002D09D0AA68EB6829682846FFF7B5F9B6
:104CF000002801D08C203D50E56B002D09D0AA681A
:104D0000EB6829682846FFF7A8F9002801D0902011
:104D10003D50256C002D09D0AA68EB68296828460B
:104D2000FFF79BF9002801D094203D50656C002DC1
:104D300009D0AA68EB6829682846FFF78EF9002891
:104D400001D098203D50A56C002D09D0AA68EB68D1
:104D500029682846FFF781F9002801D09C203D50A2
:104D6000E56C002D09D0AA68EB6829682846FFF792
:104D700074F9002801D002983D50246D002C09D010
:104D8000A268E36821682046FFF767F9002801D090
:104D9000A4203C50FF2000040C490A6802430A602A
:104DA00008680322D2438B583F24A40640022040C7
:104DB000184388500120387230463AE7284603B03D
:104DC000F0BDC046D8150020045A000820ED00E0D0
:104DD00070B50025EC431D4E307A012833D1306B7D
:104DE000002808D11A48826D1A48002100F0E2FA22
:104DF0003063002827D030462430FFF7FBFA002824
:104E000021D0FFF71BFC124800780124204203D177
:104E1000032080F3148802E0022080F314880E48F7
:104E20000068F060FFF7F4F9B061002806DB1F218D
:104E300001408C404011800008494450FFF7E2F9DE
:104E4000022030722C46204670BDC046D815002086
:104E5000045A0008E9320008D015002000E100E003
:104E6000F0B583B00E4604460320C543002C29D07C
:104E7000002E29D02078082828D16F1C60780028BF
:104E800000D182E0A06883210028029220D04078DF
:104E900088421DD12046FFF7ADFA054600270122C2
:104EA0003946FFF749FC2846FFF7AEFB0546626A24
:104EB000A8683146FEF7E6FBE868002865D002994D
:104EC000017062E02F4660E02F465EE02F465CE016
:104ED0000091019320460C30FFF785F8002824D07C
:104EE000626A05460C303146FEF7CCFB072028707D
:104EF000012068700023AB700298E87021463031C1
:104F0000EFF31080266B002E2F4624D0FD7832461A
:104F1000D678AE4224D25668002E1346F7D100232D
:104F20007B60BA6025462C351FE0019A002A2CD000
:104F30001748C16920461446FFF768FA00981030F8
:104F4000C0B22146FFF784FBEFF309808660029927
:104F5000C160AF1C19E000227A60BA60E76208E025
:104F60007A60BB60154608351A462F60131D002A6B
:104F700000D10B461F60EFF3108172B6A16A491C85
:104F8000A1620027002800D162B6384603B0F0BD08
:104F9000D8150020F0B581B00D4604462548C669F5
:104FA0000221CF43B81C002E2AD0781E002C27D017
:104FB0002278042A24D16078002823D0227E002A77
:104FC00023D0E0780123184202D0E368B34229D00D
:104FD000002D24D008420AD02022B156E068835622
:104FE000024620328B4202DA1170FFF737FA204670
:104FF0003146FFF70BFA53202946FFF729FB781CAF
:1050000001B0F0BD384601B0F0BDE660F06A606105
:1050100000202061F4620121217601B0F0BD384604
:1050200001B0F0BDFF2A3846EAD0501C207600209F
:1050300001B0F0BDD8150020F0B581B005460320C1
:10504000C643002D30D0287804282FD1741C6878EE
:10505000002857D000246C70287E002840D0696951
:10506000E868002901D02A690A6102462C322F69BA
:105070003B461433002F00D01A461160E978022213
:10508000114227D02121415CC26A00E05269002A06
:105090000ED09368002BF9D02027DB574FB2BB42CC
:1050A00000DC0B461946F1E734462BE0344629E094
:1050B0002022835C02462032CFB2BB420AD011705C
:1050C000FFF7CCF906E02846FFF794F9711C00229F
:1050D000FFF732FBA8680028F5D10020FFF7F4F8AD
:1050E000A878012108420DD09820084908580028C6
:1050F00003D02946FEF792FF04E084200858294691
:10510000FEF731FF204601B0F0BDC046D8150020A3
:10511000B0B502460024002A254611D0156854680F
:105120009068002808D000210323184228D1D268B3
:1051300000211C2A24D315E0D068002100281FD1AB
:10514000982010490858002802D0FEF74CFF05E0CF
:10515000842008581C210122FEF7CAFE00210028E5
:105160000ED0012104220270012242708170C470AD
:1051700045600021017641610161C16081600146A5
:105180000846B0BDD815002070B504463048C06947
:105190000221CA43951C002857D0551E002C54D01C
:1051A0002378042B51D16378002B05D0E368834228
:1051B00005D01546284670BD1546284670BD237E8D
:1051C000002B154641D05A1E22760025FF231A4295
:1051D0003BD16269002A01D02369136103462C3355
:1051E000266935461435002E00D02B461A60E27829
:1051F0000A4213D02121415CC26A00E05269002AB0
:105200000AD09368002BF9D020255B574DB2AB42F2
:1052100000DC0B461946F1E720228154A0680028E3
:105220000FD02046FFF7E6F8054600263146324605
:10523000FFF782FAE560E86A60612661EC620120AE
:10524000207600252846FFF73FF8284670BDC04667
:10525000D8150020F0B581B0524DEC69002C00D17A
:1052600096E0E06AFEF71BFFA06900284AD0816B38
:1052700000270F624269C6693146013111D0002A08
:1052800002D1696B81421ED10369002B04D0D96918
:105290008919D9615A614269002A11D013614761A5
:1052A00011E0002A02D1A96B81420CD101690029C9
:1052B00001D04A614269002A04D01161476102E0CD
:1052C0006B6300E0A9632A463D460121417020231B
:1052D000C65611462431D26A002A09D0314F2437EC
:1052E0001146CA56B24207DB8A68002A0F46F7D138
:1052F0008560C160083103E08160C760B8600C312F
:105300000860284D287A022842D1E86A00283FD058
:10531000EFF30980A063E86A002808D08168E96299
:10532000002902D02A462432CA600021C160022727
:1053300047702862FFF76CF90020E861E1780126E8
:10534000314202D0A16900291BD06070A078384298
:105350000BD0216B1022104203D1A86FFEF703FE81
:1053600003E088202858FEF759FEA07830420FD07D
:105370008C20285800280DD02146FEF74FFE01B0A2
:10538000F0BD042060700020E060E86BA060EC637A
:1053900001B0F0BD842028582146FEF7E4FD01B09D
:1053A000F0BDC046D81500200148C0697047C0460E
:1053B000D8150020F0B587B0069105460024002DD1
:1053C00000D1FBE0182000270121002A049116D00B
:1053D0001369506903909169106805905768966841
:1053E000002E1AD028461D46002403231E4200D05A
:1053F000E4E0D268442A2B46054613D2DEE0029050
:105400003B463C4605978C20774908580028039472
:1054100034D01C46FEF7E7FD37E0D2680024002AAE
:1054200000D0CBE0002B09D007221A4000240398BB
:10543000002800D1C2E0002A00D0BFE0182002906E
:10544000002905D04A1E0024372A029100D9B5E070
:1054500000210398002808460CD0019107210398E9
:1054600001400024482800D2A8E0002904940199B2
:1054700000D0A3E0002E04460FD1C4E784200858D2
:10548000442101221C46FEF733FD23460646002434
:10549000002E00D192E00121039C002B2DD1049815
:1054A0000128019114D188204F4908584F4A546D62
:1054B000002816D003941021019C21430491FEF78B
:1054C00092FD21460346002B00D00499039C0FE077
:1054D0004548806F00222146FEF70AFD01990346E8
:1054E00006E0886F00222146FEF702FD034601997F
:1054F000C9B2002B65D00220014301203070049016
:105500007070B170F770059870600020F061B06144
:1055100070613061F060B0602021029A72542121E4
:1055200072542221FD2272542E2170542D21705468
:105530002C2170542B2170542A217054292170542D
:10554000282170542721705426217054252170542D
:1055500024217054232170542F217054E0184038B6
:1055600033637463B063F563214818601F480078A3
:105570000421084201D1B46B0DE0A0081C1D1128C4
:1055800009D0870039464439CC2220461C46FEF714
:10559000BAF8E419403C34212046FEF7DBF8154800
:1055A000049909066063A563E163069820620E48CA
:1055B000114941663046FEF787FE3446204607B063
:1055C000F0BD002401200142F8D08C200649085883
:1055D000002803D03146FEF721FDEFE7842008586C
:1055E0003146FEF7C0FCE9E7D8150020045A000850
:1055F000A52E5AE2FD480008B9440008F0B581B074
:105600000322D44300280BD04A1E372A08D8027838
:10561000012A05D1427804231343641C042B02D1D0
:10562000204601B0F0BD20228656054620354BB2FB
:1056300000249E42F4D029702125415501460D7861
:10564000012D03D1C9680029F9D121E0C568002DD9
:1056500007D08668AE608668002E00D0F560002511
:10566000C5608E68002E08D03546AE569E420ADBD5
:10567000AE68002E2946F7D100E00D46002181607A
:10568000C560083503E08560C16088600C3528601E
:105690001F4FFB69387AF96A0228C1D1002BBFD0AD
:1056A0000029BDD09D568856A842B9DDC86800289B
:1056B0000FD08E6886608E68002E00D0F0600020CB
:1056C000C8603E46F76A012058702436002F03D187
:1056D0000CE0012058700F460D4824303E46B75666
:1056E000AF4208DDB768002F3046F7D10020986040
:1056F000DE60083603E09E60D86083600C3633605D
:105700000220487002480162FEF782FF88E7C04627
:10571000D815002030B47446641E2578641CAB4252
:1057200004D3635D5B00E31830BC18471D46F8E7FF
:105730000000C0C1C1810140C30103C00280C24159
:10574000C60106C00780C7410500C5C1C481044029
:10575000CC010CC00D80CD410F00CFC1CE810E40D9
:105760000A00CAC1CB810B40C90109C00880C841E9
:10577000D80118C01980D9411B00DBC1DA811A4059
:105780001E00DEC1DF811F40DD011DC01C80DC4129
:105790001400D4C1D5811540D70117C01680D64159
:1057A000D20112C01380D3411100D1C1D081104069
:1057B000F00130C03180F1413300F3C1F281324059
:1057C0003600F6C1F7813740F50135C03480F44129
:1057D0003C00FCC1FD813D40FF013FC03E80FE41D9
:1057E000FA013AC03B80FB413900F9C1F8813840E9
:1057F0002800E8C1E9812940EB012BC02A80EA4159
:10580000EE012EC02F80EF412D00EDC1EC812C4028
:10581000E40124C02580E5412700E7C1E681264058
:105820002200E2C1E3812340E10121C02080E04168
:10583000A00160C06180A1416300A3C1A281624058
:105840006600A6C1A7816740A50165C06480A44128
:105850006C00ACC1AD816D40AF016FC06E80AE41D8
:10586000AA016AC06B80AB416900A9C1A8816840E8
:105870007800B8C1B9817940BB017BC07A80BA4158
:10588000BE017EC07F80BF417D00BDC1BC817C4028
:10589000B40174C07580B5417700B7C1B681764058
:1058A0007200B2C1B3817340B10171C07080B04168
:1058B000500090C191815140930153C05280924158
:1058C000960156C057809741550095C19481544028
:1058D0009C015CC05D809D415F009FC19E815E40D8
:1058E0005A009AC19B815B40990159C058809841E8
:1058F000880148C0498089414B008BC18A814A4058
:105900004E008EC18F814F408D014DC04C808C4127
:10591000440084C185814540870147C04680864157
:10592000820142C043808341410081C18081404067
:10593000FFFF0000FFFF0000FE1400202B0B0008FB
:105940002B0B000800030000FC1400202B0B0008A8
:105950002B0B000803030000000000000000000003
:10596000000000000000000002000000000103022F
:105970000104000001000000080000000600000013
:1059800030000000010000000200000000000000E4
:1059900000000000B412002044000000401300206A
:1059A000C80000000100000000000000000000002E
:1059B0000000000000000000F81200204400000079
:1059C00008140020C80000002800000000000000AB
:1059D0000000000000000000000000003012002065
:1059E000340000006412002050000000000000009D
:1059F000000000000000000001020304060708097F
:105A00000000000003000000E803000005000000A3
:105A10000010002010000000000000000000000046
:105A20000000000000000000000000000000000076
:105A30000000002000100000000000000000000036
:105A40000000000000000000000000000000000056
:105A50000000000000000000C80000008C59000891
:105A6000B0590008D45900080400000052545820CE
:105A700056352E312E300000985A000800000020C4
:105A800080160000BE3A0008085B0008801600205F
:105A9000D8080000F800000801FF01FF01FF01FF26
:105AA00001FF01FF01FF01FF01FF01FF01FF01FFF6
:105AB00001FF01FF01FF01FF01FF01FF01FF01FFE6
:105AC00001FF0111F667452301010016357561726A
:105AD0007431207472616E736D69742064617461D5
