:020000040800F2
:1000000000200020651B0008B11B0008B11B000880
:1000100000000000000000000000000000000000E0
:10002000000000000000000000000000B11B0008FC
:100030000000000000000000994D0008E5120008D3
:10004000B11B0008B11B0008B11B0008B11B000860
:10005000B11B0008B11B0008B11B0008B11B000850
:10006000B11B0008B11B0008BD060008B11B000849
:10007000B11B0008B11B0008B11B0008B11B000830
:10008000B11B00085514000800000000B11B000857
:10009000B11B0008B11B0008B11B00087103000868
:1000A000B11B0008B11B0008B11B0008C505000802
:1000B000B11B000800000000B11B00080000000098
:1000C0005FF808F110B5064C2378002B07D1054BDB
:1000D000002B02D0044800E000BF0123237010BDB4
:1000E000100A0020000000003CBD0008084B10B5BD
:1000F000002B03D00749084800E000BF0748036809
:10010000002B00D110BD064B002BFBD09847F9E720
:1001100000000000140A00203CBD00080C0A00206A
:100120000000000010B501000022022004F0CEFF04
:10013000002803D00023C380007910BDFF20FCE716
:10014000030010B50120132B07D80F24054A1B010B
:10015000D3185A792240022A00D010BD180004F0AA
:10016000DDFFFAE73C0E002070B50C00132818D80C
:100170000F25114900010A1853792B40022B10D189
:100180000E4D2B780133DBB22B70D388012B0CD1B1
:10019000002323704458D380435000F0E3FF200035
:1001A00070BD012300202370FAE700F0DBFF0A2373
:1001B00000202370F4E7C0463C0E0020E60A002031
:1001C000F8B54F464646C0B4394B88461B78914631
:1001D000002B5FD113283BD80F21364A0001161897
:1001E00073790B40022B33D1334C2578EDB2002DBF
:1001F00054D123780133DBB22370F388012B2CD048
:1002000000F0B0FF2D4B1F684346002B2ED0237803
:1002100039000133DBB23000237004F0D1FF380025
:10022000414602F097FB00F09DFF386900283AD064
:100230004B461D7023780133DBB223703C69F58097
:100240003D6100F08FFF20000CBC90469946F8BD40
:1002500001234A4600201370F6E74B461D70845870
:10026000F580855000F07EFF2000EDE7300039007A
:1002700004F0A6FF4B4642461A7023780133DBB2E6
:10028000237043463C69F38043463B6100F06AFFBC
:100290002000D9E7032300201370D5E74A46133323
:1002A00013700020D0E705234A461370CCE7C04600
:1002B000E40A00203C0E0020E60A00202C0C00205E
:1002C00070B50124132807D80F260D4D0301E81837
:1002D00042793240022A01D0200070BDC288063423
:1002E000002AF9D159510123064CC38022780132EA
:1002F000D2B2227004F0B2FF002400F033FFEBE72B
:100300003C0E0020E60A0020F8B5174B1C78E4B23A
:10031000002C11D1132802D901242000F8BD0F2789
:10032000124E000135186A793A40022AF4D1EA885F
:10033000002A0CD00724F0E70A000100022001F097
:100340000DF843425841122440420440E5E71A7830
:1003500081510132D2B21A7001232800EB8004F0DF
:100360007DFF00F0FFFED8E7E60A00203C0E0020EB
:1003700070B500F0D5FE08224C4B99690A4206D0B0
:10038000DA614B4B4B4A13604B4A203313602022F7
:10039000464B99690A4206D0DA612023444920324B
:1003A000885C03438B544021404B9A6911421BD017
:1003B00041253F4A545D002C00D16BE08020043180
:1003C000515CC000490008433A49013C0A601100F1
:1003D0004431497809040143802091645960596887
:1003E0008001014359605455304A9369DB0705D5B4
:1003F00031490B681878013390620B602B4B9A6976
:10040000520706D52B4A5B6A11680B7013680133DB
:100410001360264A93699B0705D527490B6818780E
:10042000013390620B601022204B99690A4206D07A
:10043000DA6110231E493032885C03438B548022DA
:100440001A4BD2009969114206D0DA614022042386
:100450001749885C03438B548022144B920099699E
:10046000114207D0DA6108231149C13AFF3A885C8A
:1004700003438B5480220D4B52009969114206D0E0
:10048000DA6102230A49C03A885C03438B5400F0C6
:100490004FFE70BD80245868E40120435860535CCF
:1004A000D806A1D42020034353549DE700540040B4
:1004B0002C0A0020B40F0020B80F00208020184A1A
:1004C0008003D16910B50143D161136980240343CE
:1004D00013611169134B24020B4001211361124B6C
:1004E0001868884318601148186111481860002086
:1004F00098601430986098682043986018680143A9
:1005000019608023C5200B491B040B6080000B5829
:100510001B021B0A0B501021136B8B43136310BD7E
:1005200000100240FFFFDFFF005400401C0E2000BF
:10053000FE0F080000E100E0412330B51B49CB5C11
:10054000013BDBB2012B01D9002030BD0024402249
:100550008C540C00164A2034146044228A5C5200E9
:1005600001281CD08A640800443040780028EBD071
:10057000000402430F488A640024426080254C2214
:100580002D028C5282690B4C2A42FBD1802062687A
:10059000800102436260412201208B54D5E7802014
:1005A000C000024304488A640160DCE72C0A002092
:1005B000B80F002000540040B40F002040BA80B2B1
:1005C0007047C04670B500F0ABFD1B491B4804F0F6
:1005D00099FB1B4C002803D001232278134323707E
:1005E000184D1549154804F0ADFB0021280003F013
:1005F0000FFA6378012B15D023000A33EB60202318
:100600006A689B1A63720123637020230D480121DD
:10061000436003F0FDF90C4B187800F099FC00F0F2
:1006200087FD70BD23002A33EB6020236A689B1A84
:1006300023720023E8E7C0461A010B00003801408E
:100640007C0A002030000240F80F002010B5802402
:10065000164BE401996986B021439961DA68224317
:10066000DA60D968124A134C0A40DA60002300901D
:10067000019302930393059369460C33200004937E
:1006800004F0DEF82000232104F0DAF92000012133
:1006900004F0C6F901220849200004F0FBFA012306
:1006A00022681343236006B010BDC046001002400C
:1006B000FFBFFFFF003801401A010B0010B50C4CC2
:1006C00000F02EFD0021200003F0A2F9102003F01D
:1006D000DDF9102003F0F6F90121064A2000137914
:1006E0008B43137103F094F900F022FD10BDC04656
:1006F0001C0002407C0A00200A2330B583B001AC04
:1007000001252370002320006370A57004F008FE0B
:100710001B23200023706570A57004F001FE03B058
:1007200030BDC046F0B5284E8DB0300003F0B6F8AD
:10073000264D274B002401932B000A3302932023DC
:100740000493802380279B0101A930000A9303941E
:10075000059406970794089409940B9403F02CF9D8
:100760000121300003F054F901232A796B701343FF
:100770002B71184D280003F091F8174B01A9019334
:10078000164B28009A1C0292102203925B78059463
:10079000049380235B010A930697079408940994B5
:1007A0000B9403F009F901222800022103F054F907
:1007B0002800012103F02CF90122C021084804F08F
:1007C00055FA0DB0F0BDC046300002407C0A002052
:1007D000243801401C00024028380140000000205D
:1007E000003801404A23002270B5050013480C0070
:1007F000C2520379DB0700D5FEE7802210491202BE
:100800008B691342FCD10123027900211343037148
:100810000C4803F0FDF8202003F028F9002806D04A
:10082000202003F033F94021074804F069FA054815
:100830000121C560446003F0EBF870BD7C0A002024
:10084000005400401C00024000380140F8B55646F4
:100850005F464D464446374BF0B49A46364D374CCA
:10086000374E384F022353449B462878002100F02E
:10087000AFF92378012BF8D10023994653464A4615
:100880005A70237973733B7A9846002B1DD17B7A7B
:10089000002BEAD033735B462B4A3360B26003F01F
:1008A000A1FA52463379537042467A72002BDCD05B
:1008B000052002F0B3F853465B78002298464A239D
:1008C000FA523B79DB070ED5FEE7204BB360434677
:1008D00033735B46336003F085FA524633795370C5
:1008E0004A463A72E2E78022194912028B691342A2
:1008F000FCD101233A791748134300213B7103F0DF
:1009000087F8202003F0B2F8002806D0202003F05A
:10091000BDF84021104804F0F3F953460D4A023364
:10092000D3601300424601215A60180003F070F8AA
:1009300098E7C04600000020F80F0020EC0F0020D0
:10094000DC0F00207C0A0020A60A0020860A002076
:10095000005400401C00024000380140F8B5124A23
:10096000124F1378BC680133DBB2137001260023E9
:1009700002E00133202B12D032009A40DDB2144243
:10098000F7D19940984022437B68BA603A6818438F
:1009900011437860396000F0E5FB2800F8BD00F0F5
:1009A000E1FBFF20FAE7C046E60A0020CC0A00205F
:1009B000F8B55F464D4656464446F0B4524B0F00DC
:1009C0001D78EDB2002D07D0032528003CBC9046D1
:1009D0009946A246AB46F8BD012686404B4B9A6825
:1009E0009846164230D04A490B780133DBB20B707F
:1009F0004346DC68002C19D0464B9A469B4602E0E1
:100A00002468002C10D0A3683342F9D0002F3CD0CA
:100A1000012FF5D1227C002A18D19E4239D0B34350
:100A2000A3602468002CEED143469A68F6434346FF
:100A300032409A6042461B683340136053681E4040
:100A4000566000F08FFBC0E70125BEE723686268AF
:100A5000002B3CD0002A40D05A606268136000220C
:100A6000E3689946DA611B6A013302D0484601F017
:100A7000A5FF01234A465B42D36153461B684B45A1
:100A800022D0484601F0CCF8BAE700F06BFB042511
:100A90009BE723686268002B23D0002A27D05A6086
:100AA000626813600022E3689946DA611B6A0133C9
:100AB00002D0484601F082FF01234A465B42D361DF
:100AC0005B461B684B45DCD10123537198E7002A34
:100AD00011D041460A611360C1E74146CB605A60BC
:100AE000BDE7002A0BD041460A611360DAE74146B0
:100AF000CB605A60D6E74346DA601A61AFE74346F7
:100B0000DA601A61CEE7C046E40A0020CC0A002071
:100B1000E60A00202C0C002010B501231F2809D85C
:100B20001A0082400B498868104203D008680B33D2
:100B3000104201D1180010BD074C23780133DBB2FD
:100B400023704B681A409043086000F00BFB0023B1
:100B5000F0E7C046CC0A0020E60A0020F8B51500F0
:100B6000194A040093680E000340984203D0022300
:100B700000202B70F8BD1068144907000B7827403F
:100B80000133DBB20B70002F01D0012E12D0BC421A
:100B900005D000F0E7FA0C2300202B70EAE7002EC6
:100BA000F7D1536823409843106000F0DBFA2E70B1
:100BB0002000DFE753683B409843106000F0D2FA12
:100BC000002338002B70D5E7CC0A0020E60A00206D
:100BD000F0B5474680B4364B86B01B780324002B13
:100BE00004D0200006B004BC9046F0BD314D2C78F6
:100BF000E4B2002C01D01524F3E71F2836D80126D3
:100C000086402D4FBB68334230D02B780133DBB2A6
:100C10002B703B6833423CD1284B1B6898464246B8
:100C200001ABD361DA6002229E601A743A6900292E
:100C30001ED1002A34D013605A6001943B614246B1
:100C40000223537101221E4B1A7000F08BFA00230D
:100C50004246D3612B780133DBB22B707B681E4098
:100C60003B68B3433B6000F07DFABAE70124B8E784
:100C7000002A19D013605A60019440463B6101F08C
:100C800069FE00F06FFA4346DB69002BDFD10524D3
:100C9000A7E77A681640B3433B6000F063FAA0E729
:100CA00001945C60FB60C9E701945C60FB60E4E771
:100CB000E40A0020E60A0020CC0A00202C0C0020C8
:100CC000E50A0020F0B54E4657464546E0B41E0002
:100CD000484B86B01B7804008946002B17D1464F3D
:100CE0003D78EDB2002D0ED1444B98469B680340F1
:100CF000984210D002230020337006B01CBC9046EE
:100D00009946A246F0BD152300203370F5E7032372
:100D100000203370F1E73B780133DBB23B70434690
:100D20001B68190001408A4602D04946012954D067
:100D3000544544D04946324B1D6801AB19744146B5
:100D4000EB61DD609C600969002A23D100293FD056
:100D50000B605960019242461361022301226B71BC
:100D6000284B1A7000F0FEF900239946EB613B789E
:100D70000133DBB23B7043461B681C40424652685D
:100D8000224093434246136000F0ECF94B462000AA
:100D90003370B2E7002916D00B6059600021019131
:100DA000414628000B61110001F0D4FD00F0DAF992
:100DB000EB69002BD8D10533337000209DE74946FD
:100DC0000029B7D1DAE7019159604146CB60E7E7E6
:100DD00001925A604246D360BDE74246514652688E
:100DE0000A4093434246136000F0BCF93570504608
:100DF00083E7C046E40A0020E60A0020CC0A00206F
:100E00002C0C0020E50A002001231F2809D8190016
:100E10008140054A9068084203D013688B431360F1
:100E2000002318007047C046CC0A0020F0B5574692
:100E30004E4645460122E0B41F2849D81600864098
:100E4000404DAB68334243D02B68002233423FD140
:100E50003D49EC680A7833430132D2B22B600A7004
:100E6000002C32D00022394F9046B94607E0A268E4
:100E700013409A4232D02468002C26D02B68227C62
:100E8000002AF4D0A2681A42F5D023686268002BC9
:100E900045D0002A40D05A60626813604246E36839
:100EA0009A46DA611B6A013302D0504601F086FD92
:100EB000012352465B42D3613B68534529D05046DB
:100EC00000F0AEFE6B683342D5D000F04BF9002243
:100ED00010001CBC90469946A246F0BD236862688B
:100EE000002B21D0002A24D05A6062681360424649
:100EF000E3689A46DA611B6A013302D0504601F07A
:100F00005DFD012352465B42D3614B461B6853454E
:100F1000D5D101235371D5E7EB605A60BEE7002AB3
:100F20000AD02A611360B9E7002A08D02A61136049
:100F3000DDE7EB605A60DAE7EA602A61AEE7EA6073
:100F40002A61D4E7CC0A0020E60A00202C0C0020FD
:100F5000F8B544465F4656464D46F0B44B4B1C78B8
:100F6000E4B2002C53D11F2807D9012420003CBC37
:100F700090469946A246AB46F8BD01278740444EAD
:100F8000B2683A42F1D032683A4248D11978F568ED
:100F900001313A43C9B232601970002D34D00023B8
:100FA00099463C4B98469A4607E0AB681A409342F4
:100FB00037D02D68002D27D032682B7C002BF4D041
:100FC000AB681342F5D02B686A68002B47D0002A23
:100FD0004AD05A606A6813604A46EB689B46DA61F9
:100FE0001B6A013302D0584601F0E8FC01235A463F
:100FF0005B42D36143461B685B452DD0584600F0E9
:101000000FFE73683B42D4D000F0ACF8AEE70100AD
:101010000022032000F0A2F912240028A6D0002408
:10102000A4E72B686A68002B21D0002A24D05A60DC
:101030006A6813604A46EB689B46DA611B6A0133B3
:1010400002D0584601F0BAFC01235A465B42D361F4
:1010500053461B685B45D1D101235371D1E7002A68
:101060000DD032611360B7E7F3605A60B4E7002A2D
:1010700008D032611360DDE7F3605A60DAE7F260AE
:101080003261A9E7F2603261D4E7C046E60A002087
:10109000CC0A00202C0C002003684268002B08D0EA
:1010A000002A0CD05A60426813600022C368DA61DB
:1010B0007047002A07D006490A611360F5E7044922
:1010C000CB605A60F1E7024BDA601A61EDE7C04687
:1010D000CC0A0020044A1368002B03D018181060B3
:1010E00018007047014BF9E7E00A002000160020C5
:1010F000012040427047C046012040427047C04630
:1011000080239B0100204B607047C0460120704740
:10111000002070471000704710007047FEE7C0467F
:1011200010B5024803F014FE10BDC046E40A0020CA
:1011300010B50B4C200003F017FE2378002B02D1D2
:101140006378012B00D010BDA3780133DBB2A3700C
:1011500000F092FEA378013BDBB2A370F3E7C04638
:10116000E40A002010B50C4CA378012B04D0A3781E
:10117000013BDBB2A37010BD084B1B78012B08D0DC
:101180006378012B02D00023A370F4E700F074FE13
:10119000F9E700F007F9F3E7E40A00201C0B002050
:1011A000024A93780133DBB293707047E40A00205F
:1011B00010B50C4CA378012B04D0A378013BDBB213
:1011C000A37010BD084B1B78012B08D06378012B4E
:1011D00002D00023A370F4E700F04EFEF9E700F020
:1011E000E1F8F3E7E40A00201C0B0020144A154B39
:1011F00010B51A600722FF21134B09061A60134A23
:1012000013680B431360124A124913680B431360AF
:1012100000F0D0FC03F032FF01F08CFA0E4A0F4CC4
:10122000937800210133DBB29370CA22230052016C
:101230000B4800F0BDFE200003F0A4FD10BDC04629
:101240007FBB000014E000E010E000E01CED00E0D7
:1012500020ED00E00000FFFFE40A0020A00C0020C9
:10126000B55300081148124B10B51860114B1860A7
:101270000123437100F026FD0F4CA378012B04D00D
:10128000A378013BDBB2A37010BD0C4B1B78012B84
:1012900008D06378012B02D00023A370F4E700F09C
:1012A000EBFDF9E700F07EF8F3E7C046200B0020E5
:1012B0002C0C00203C0C0020E40A00201C0B002019
:1012C0008B2040007047C04680235B041360131FCF
:1012D00018600220043B404218603C3A143B100066
:1012E0001960704770B5184A184913780C684D6832
:1012F0000133DBB213700122002312196B410A6023
:101300004B60134B1A68002A04D0136A012B15D9BD
:10131000013B13620F4B1A68002A04D05368012B5B
:1013200007D9013B536001220B4B1A70FFF71AFFDC
:1013300070BD0023536003F069F9F4E700231362E2
:1013400001F0EAFCE6E7C046E60A0020E80A0020D1
:10135000780D0020340E0020E50A0020F8B50700C3
:101360000E00150003F00CFD0D4C2378042B13D850
:10137000200003F0EDFC2C2201216378A154C01859
:10138000043104F08BF9C90061180F714E718D6042
:1013900003F0F4FC0120F8BD03F0F0FC0020FAE7B4
:1013A000F00A0020F0B547462D2480B4284E335D66
:1013B000012B48D02E24335D012B3FD034003378ED
:1013C000002B20D003F0DCFC60780521C300E3187B
:1013D0001D795F799B680130984604F05FF92378A6
:1013E0006170013B237003F0C9FC022D21D016D996
:1013F000032D1AD0042DE2D14146380001F004FE3D
:101400003378002BDED103F0BBFC2378002B01D115
:101410002C22A35403F0B2FC04BC9046F0BD012D75
:10142000CDD1380001F08AF8C9E73800FFF7FEFC9B
:10143000C5E741463800FEF743FFC0E703F056F822
:1014400000233355BAE701F03FFC00233355B1E7E1
:10145000F00A002010B5FFF763FE0E4A0E4913880C
:101460008B4201D8013313800C4A0B4913888B42FD
:1014700001D8013313800A4A074913888B4201D8E7
:10148000013313800222074B52421A82FFF750FEAB
:1014900010BDC046780A00201F4E0000A00D00209D
:1014A000C60A0020001000401021114BDA690A43DF
:1014B000DA611A690A431A611A698A431A61842235
:1014C0000C4B1A80833A9A810B4A1A852722DA62DA
:1014D0001988263A0A431A808022C421074B9202B7
:1014E0001A6089005858064A02405A507047C04650
:1014F0000010024000100040AF04000000E100E0D6
:10150000FF00FFFF0121114B1A680A431A60586857
:101510000F4A02405A6018680E4A02401A60186862
:101520000D4A02401A6058680C4A02400F205A6067
:10153000DA6A8243DA62186B094A02401A635A6B0C
:101540008A435A6300229A607047C04600100240E6
:101550000CB8FF08FFFFF6FEFFFFFBFFFFFFC0FF19
:10156000ACFEF0FF0022024B1A7018707047C046A4
:101570000210024000238022A02082B001930B4978
:101580009202C00105E0019B01330193019B83425C
:1015900006D00B681342F6D0019B01330193019BE7
:1015A000024B18688003C00F02B070470010024061
:1015B000F821034AC00013688B431843106070473A
:1015C00000100240064A002804D1012113688B4311
:1015D00013607047012311680B431360F9E7C0469D
:1015E00000100240F821034AC000536B8B4318439C
:1015F0005063704700100240064A002804D10121C0
:10160000536B8B43536370470123516B0B435363FD
:10161000F9E7C04600100240064A002804D104231E
:10162000516B0B43536370470421536B8B435363DC
:10163000F9E7C046001002400121064B1A6A8A43AE
:101640001A621A6A03318A431A621A6A10431862CC
:101650007047C046001002401821044B1A6A8A43A2
:101660001A621A6A104318627047C046001002409E
:10167000064A002804D10121536A8B435362704704
:101680000123516A0B435362F9E7C0460010024040
:10169000054B10B5054A5C6822405A605A681143F0
:1016A0000843586010BDC04600100240FF7FC2FFD3
:1016B000064A002804D11168054B0B40136070479F
:1016C0008021136849040B431360F8E700100240BF
:1016D000FFFFFFFE064A002804D1516B054B0B406B
:1016E000536370478021536B49020B435363F8E700
:1016F00000100240FFFFFEFF0F21034AD36A8B4315
:101700001843D0627047C04600100240064A0028C5
:1017100004D11168054B0B4013607047802113689A
:1017200009030B431360F8E700100240FFFFF7FFC7
:10173000044A000653681B021B0A19430143516007
:101740007047C046001002400321034A53688B4390
:10175000184350607047C046001002400C20024BF6
:101760005B6818407047C04600100240F021034AF1
:1017700053688B43184350607047C04600100240C6
:10178000034A044B51680B40184350607047C046F1
:1017900000100240FFF8FFFF094B0A4A59680A404F
:1017A0005A6059680204120C0A435A60196B064ABF
:1017B000000C0A401A631A6B104318637047C04646
:1017C00000100240FFBFFFFFFFFEFFFF4021044B60
:1017D0001A6B8A431A631A6B104318637047C0462A
:1017E000001002401021044B1A6B8A431A631A6BD3
:1017F000104318637047C04600100240030F0B4AA5
:10180000012B0AD0116B022B0CD0094B0B40136338
:10181000064A136B1843106370470321136B8B4305
:101820001363F5E7034B0B401363F1E7001002402D
:10183000FFFFF3FFFFFFFCFF8021044B1A6B8A437D
:101840001A631A6B104318637047C04600100240B9
:101850000C215C4AF8B5536804000B40042B09D0F6
:1018600008D9082B00D184E00C2B03D15649016024
:10187000002002E00020554921600A00514D544EDD
:101880006B681B061B0FF35CDA40130062606A682A
:101890005205520FB25CD340A3602A6BD2055FD4CD
:1018A0004C4AE260474A126B520656D44A4A2261B9
:1018B000444A156B0A00ED0600D4444A62610322D3
:1018C000404D2E6B324239D1A361C0223D4D920270
:1018D0002E6B16421FD1E361C0223A4D12032E6BCC
:1018E000164210D080262B6BF6021340B34254D020
:1018F00080212B6B090313408B425FD02B6B13406D
:10190000934201D1314B23622E4B1B6B1B0600D43B
:101910002D486062F8BD80272E6B7F021640BE42C4
:101920003DD080272E6BBF021640BE423ED02D6BAD
:1019300015409542D0D1254AE261CDE72E6B164085
:10194000012E2ED02E6B1640022E33D02D6B2A4046
:10195000032ABAD11D4AA261B7E780221202A6E784
:101960006A68520402D45A08E2609BE79A08E2606F
:1019700098E70F21C02350685668800C08405B022E
:10198000851C1E420FD0D36A10481940013103F064
:1019900015FD6843206001006FE72162B4E7E16153
:1019A0009AE7A16191E70D486843F3E780221202AC
:1019B000E26191E780221202A26186E780231B0286
:1019C0002362A1E700100240006CDC0200127A00E2
:1019D00024000020809FD5001280000000093D00F7
:1019E000024B1A6A104318627047C046001002404A
:1019F000064A002804D1116A054B0B401362704758
:101A00008021136A09020B431362F8E700100240B9
:101A1000FF7FFFFF064A002804D1116A054B0B40E7
:101A2000136270478021136A49020B431362F8E77F
:101A300000100240FFFFFEFF002904D1044A536951
:101A4000834353617047024B5A6910435861F9E769
:101A500000100240002904D1044A93698343936132
:101A60007047024B9A6910439861F9E700100240F1
:101A7000002904D1044AD3698343D3617047024BE0
:101A8000DA691043D861F9E700100240002904D157
:101A9000044A936A834393627047024B9A6A1043E5
:101AA0009862F9E700100240002904D1044AD36883
:101AB0008343D3607047024BDA681043D860F9E77C
:101AC00000100240002904D1044A136983431361C2
:101AD0007047024B1A6910431861F9E70010024081
:101AE000002904D1044A1378834313707047024BD2
:101AF0001A7810431870F9E70910024003004209F0
:101B000007D10A4A10681F221340D8400123184009
:101B10007047012A04D0022A05D0044A506BF2E72C
:101B2000024A106AEFE7014A506AECE700100240EF
:101B30008021034A4904536A0B4353627047C046ED
:101B400000100240034B9B681840431E9841C0B2EE
:101B50007047C04600100240014B18707047C046E5
:101B60000A1002400C488546002103E00B4B5B58ED
:101B7000435004310A480B4B42189A42F6D30A4AA2
:101B800002E0002313600432084B9A42F9D303F0B9
:101B9000C3F903F023FAFEE70020002044BD00084B
:101BA00000000020100A0020100A0020001600206B
:101BB000FEE70000184B10B518002C3058620124C5
:101BC000322003221C5401381A541800583018656A
:101BD0005E2001341C5401381A5418008430D86730
:101BE0008A201C001A5401381A54B0341F301C507B
:101BF00004240E301C5401381A5418005A71DC3079
:101C0000D1329850052000210E3298541E3299503E
:101C1000024A9971936010BD200B0020200C002017
:101C20000023F0B5244D4371E96804790B79A34290
:101C300026D0A969002938D00B79A34219D84A6A5D
:101C4000002A37D01379A34204D90BE019798C42CA
:101C50000AD31A00536A002BF8D100234362506262
:101C60008262F0BD13000A00436250628262986291
:101C7000F7E70122114B41621A708862A861F0E710
:101C80008842D6D00E4B6E691A685B689E4203D3B9
:101C9000CFD12E699642CCD200274E89A9699219DC
:101CA0007B412A616B610029C6D10122034BA861E7
:101CB0001A70D6E70A00D0E7200C0020E50A0020C1
:101CC000E80A0020426A836A002A08D0002B0BD061
:101CD0005A62426A93620023436283627047002B18
:101CE00007D05A628262F9E7034943628A619362CC
:101CF000F4E7014A9361F1E7200C0020F8B54F4664
:101D000046460500C0B41424002804D120000CBCB1
:101D100090469946F8BD133C0528F7D82C23434339
:101D20004F4EF3185C79032C5DD040295BD81879AD
:101D3000814256D0DA79FF2A0AD04A4F9B79B946B8
:101D4000D700BC46C846E0444746BF789F425CD0B7
:101D50002C276F43F7193971002C5DD0012C44D02A
:101D6000FF2A29D040490B780133DBB20B703D4B81
:101D70009946D300984649464A4640464144145C39
:101D80004B688A78CA70002B09D003311A79A242B5
:101D900002D21400987908705B6A002BF6D1FFF725
:101DA000E1F94B4642469B5CA34205D04B46434477
:101DB00098782100FFF7A2FF2C235D437619307A33
:101DC000FF280ED00F22294C000124186379934379
:101DD000202B06D1380003F07FFA3900200003F0F1
:101DE000EFF9002492E7012490E7214B9B691B79CE
:101DF0008B42F6D21C4A13780133DBB213701D4BB1
:101E00001C70FFF7AFF9002480E763464F46D955B1
:101E100081429DD9002479E7134A13780133DBB25C
:101E200013707A6ABB6A002A0CD0002B0FD05A625A
:101E30007A6A93627C62BC623800FFF7F1FEFFF7BA
:101E400091F963E7002B07D05C62BC62F4E7084BB2
:101E50007C629A619462EFE7054B9C61ECE7C046B7
:101E6000200B0020B00D0020E60A00203C0E0020D0
:101E7000200C0020E50A0020F0B54746464C80B40F
:101E8000A569E668002D02D0E3699E4202D004BC39
:101E90009046F0BD414B1B78012BF8D8404B1F7882
:101EA000FFB2002FF3D13F4B00211F7072792B79C5
:101EB0009046012A24D001226A716A6AE561002AEB
:101EC00050D0A96A002953D04A626B6A99626F6246
:101ED000AF6200236A8934490868496812184B4187
:101EE00022616361F36832689A4203D32F4A1B6808
:101EF000934202D0B07903F05FFA02F047FFC6E7E1
:101F000032799A4219D8C2D1274B226919688A427C
:101F1000BDD15B6862699A42B9D13000E561FFF7D3
:101F20007FFE2800FFF7CEFE43466B71E569A2698C
:101F30002B7912799A42D5D1CBE73000E561FFF7D2
:101F40006FFE6B6AAA6A002B16D0002A1AD0536261
:101F50006B6A9A62A2696F62AF6201236B71E56975
:101F60002B79E6E7AA6A002A11D05162A962B0E78C
:101F70006962A2619162DCE7002A0AD05362AB6217
:101F8000A269EAE76A62A3619A621A00E5E7A261C0
:101F9000CFE7A261E1E7C046200C0020E60A00205E
:101FA000E40A0020E50A0020E80A0020A5A55A5A04
:101FB000F8B556464D465F464446F0B416001D003F
:101FC00000280CD0002B0AD0D7B2FF24402F08D90C
:101FD00020003CBC90469946A246AB46F8BDFF2483
:101FE000F6E713031B0D9A46132BF1D92A00FFF7CE
:101FF0006BF9244B834699464A461B780133DBB282
:102000001370214B9A689046002A38D0526A9A6021
:10201000FFF7A8F843465A461F711A6053469B00C3
:10202000ED1A43460435DD60184B42462B60012310
:102030005B42136200235362936273005B0D00D115
:102040000A334246538100234146D361FF220B618C
:102050000A724B618B61CA71002E0DDB4B464A46FA
:102060001B7840460133DBB21370FFF7D9FDFFF751
:1020700079F843469C79ABE702234B71F9E7FFF708
:1020800071F8A5E7E60A0020200C0020A5A55A5A01
:10209000F8B505000120052D09D82C236B43414ECE
:1020A000F3185A79032A02D01330002D00D1F8BD5D
:1020B000012A49D0D8793C4FFF2809D02C246C4301
:1020C0003A49C300CB1834199978A379994258D06A
:1020D0002C236B43F4183B780133DBB23B70002AAE
:1020E00041D0022A0FD032492C2301225D43293BE3
:1020F000761973712F4B1A708B688C607362FFF7BF
:1021000031F80020D3E7236A013302D0200000F029
:1021100055FC2C236B43F3181B7AFF2B02D02000B5
:1021200003F0DAF82C236B43F318D869002801D0A8
:10213000FEF7B2FF2C236B43F318DB79FF2BD2D0D1
:10214000200001F069FBCEE7174F013039780029F4
:10215000ADD1D879FF28B1D11C003B7814490133A7
:10216000DBB23B70C0E72100606A2431A36A00281B
:102170000BD0002B0FD0586209688B62A2620C4909
:10218000B2E701F0F3FA6279A2E7002B07D05A62B6
:102190000749A262A8E7064982628861A4E7044968
:1021A0008A61A1E7200B0020E60A0020B00D002084
:1021B000200C0020E50A0020F0B5474680B4444ECC
:1021C000F3689D79052D02D904BC9046F0BD2C23FF
:1021D0006B43404FFB185A79032AF5D0002DF3D0FA
:1021E000012A4AD0D8793C4B9846FF2809D02C24A4
:1021F0006C433A49C300CB183C199978A3799942AA
:1022000058D02C236B43FC18434641461B780133BE
:10221000DBB20B70002A40D0022A0DD02C23012201
:102220005D43293B7F197B712D4B1A70B368B460F5
:102230007B62FEF797FFC7E7236A013302D02000D5
:1022400000F0BCFB2C236B43FB181B7AFF2B02D046
:10225000200003F041F82C236B43FB18D8690028B9
:1022600001D0FEF719FF2C236B43FB18DB79FF2B02
:10227000D4D0200001F0D0FAD0E717498846097879
:102280000029A1D1D879FF28B1D11C00434642468C
:102290001B780133DBB21370C0E72000616A243081
:1022A000A36A00290AD0002B0DD0596201688B6205
:1022B000A262B3E701F05AFA6279A2E7002B05D0D7
:1022C0005A62A262AAE7B1618A62A7E7B261A5E792
:1022D000200C0020200B0020E60A0020B00D00207A
:1022E000E50A0020014BDB6898797047200C00203C
:1022F00070B51424002801D1200070BD133C0528BE
:10230000FAD82C2343431D49CB185A79032AF3D01A
:102310001B4D2C78E4B2002C01D01524ECE7022AE6
:102320001AD02A780132D2B22A70164DEA689A423F
:1023300014D05E6A9A6A002E14D0002A17D0566212
:102340005D6AAA625C629C622C2358432A3B09188E
:102350004B71FEF707FFCFE70D24CDE701220A4BB3
:102360001A70F1E7002A06D054629C62ECE75C62C6
:10237000AE61B462E8E7AC61E6E7C046200B00203E
:10238000E60A0020200C0020E50A0020030010B51A
:102390001420002B00D110BD1338052BFBD82C22A4
:1023A0005343104AD3185A79032AF4D00D30022A25
:1023B000F1D11A6A01300132EDD1DA69002AEAD18D
:1023C0001A7AFF2AE7D1DA79FF2AE4D10649180000
:1023D0000A780132D2B20A70FFF722FCFEF7C2FE81
:1023E0000020D8E7200B0020E60A002070B50C0082
:1023F00005001100A04201D9FF2070BD531E012B22
:10240000FAD80022012002F061FE0028F4D0C58035
:1024100004810079F1E7C046030010B50120132BB9
:1024200007D80F24054A1B01D3185A792240012AE4
:1024300000D010BD180002F071FEFAE73C0E00203B
:1024400010B50121132807D803010D48C3180F2028
:102450005A790240012A01D0080010BD09490A78C2
:102460000132D2B20A70DA88002A03D1FEF77AFE6E
:102470000921F1E7013ADA80FEF774FE0021EBE76B
:102480003C0E0020E60A0020F0B5474680B4274BFA
:102490000E001B780324002B03D0200004BC9046C0
:1024A000F0BD023C1328F8D80F22214D00012D1851
:1024B0006B791340012BF0D11E4F3C78E4B2002C15
:1024C00001D01524E9E73B780133DBB23B70EB88A0
:1024D000002B19D1184B28001B6898461900002EB4
:1024E00017D002F06DFE3100404600F033FAFEF7DF
:1024F00039FE43461B69002B15D03B780133DBB214
:102500003B7043461C61EB88013BEB80FEF72AFEE3
:10251000C3E702F055FEEB88013BEB8043461C61AC
:10252000FEF720FEB9E70524B7E7C046E40A00201D
:102530003C0E0020E60A00202C0C002010B50121E2
:10254000132807D803010E48C3180F205A790240F8
:10255000012A01D0080010BDDA881889053190429F
:10256000F8D0084801320178DA800131C9B201702F
:10257000180002F073FEFEF7F5FD0021EAE7C04601
:102580003C0E0020E60A002010B5174B1C78E4B280
:10259000002C12D1132802D90124200010BD0F21D4
:1025A000124A0001101842790A40012AF4D1C28867
:1025B000018991420CD10624EFE70100002201209D
:1025C000FEF7CCFE43425841122440420440E4E767
:1025D000197801320131C9B2C280197002F03EFE91
:1025E000FEF7C0FDD9E7C046E60A00203C0E0020F9
:1025F0008022F0B5354D47466B6992021343E022C5
:10260000902680B46B61AB6A12031343AB62AA6A73
:102610002F4BF605134082B0AB6230000122092136
:1026200000F074FE300001220A2100F06FFEC0238A
:10263000DB0000930223984600246B4642469C71BF
:102640001A716A460323694630005371D47100F051
:10265000B9FDFF2300936B46694630001C719C71E5
:102660005C71DC7100F0AEFD80226B69194FD20203
:1026700013436B6138000122062100F047FE380049
:102680000122072100F042FEC023424601260093AA
:102690006B46694638001A719E715C71DE7100F0FC
:1026A00091FD80226B69120313436B610A4B6946EB
:1026B00000936B4609481E719C715C71DC7100F0DF
:1026C00081FD02B004BC9046F0BDC046001002403F
:1026D000FFFFF1FF00040048FF030000000800486E
:1026E000FF20064B06491A781A608B8A83439B1891
:1026F000044A13609BB28B827047C046BC0F002017
:1027000000080048C00F0020FF22034B9B8A1340A3
:10271000024A13607047C04600080048BC0F002002
:102720009023FF22DB051B8A1340014A1360704788
:10273000C40F0020054B064A1900C8319364D164C8
:10274000136500221A605A609A607047A40C00203A
:10275000240D002070B5002850D003232A4A0330EE
:10276000984313780830040001332848DBB2137013
:10277000036DC66C002B21D0002504E01A681D00F3
:10278000002A1BD013005968F21A002901D04A1EF2
:10279000D21AA242F2D31E00121B08360B2A11D8FD
:1027A0001A68002D2CD02A60002903D00122481E6F
:1027B0001A4342609A6819605A6015E0FEF7D2FC2D
:1027C000002070BD1C19002D1CD02C6001221A4362
:1027D000A2601A68616022605A68002A01D0013A3A
:1027E00054609A681C605A60002A03D00121013AA3
:1027F0000B431360FEF7B6FC3000E2E70020E0E791
:102800000265D1E70465E1E7E60A0020240D002017
:1028100070B5002849D04D498B6C984245D3CA6C9D
:10282000904242D84A4C0D6D227808380132D2B21B
:10283000227085423AD8002D03D06B68002B61D0FE
:10284000013B98420DD00124002B02D12BE0002B3C
:1028500029D01A68531E224201D15368013B984285
:10286000F5D1012644680268230032420CD134427B
:1028700028D1002A4ED01368002C55D0526823600E
:102880006260A368200006E034422DD1002C3CD0C9
:102890002000A3686260002B01D0013B1860002A71
:1028A00001D0013A5060FEF75DFC70BDAB68013BA2
:1028B000984204D1D5E75B68013B9842D1D0002B08
:1028C000F9D1F0E70122013B5B681A42FBD1002BF2
:1028D00034D01D6818608460002D2BD06A682B6886
:1028E000426003602300D6E70126013B5B681E427D
:1028F000FBD1002B24D01D68186084604260056005
:102900002300C8E70028ACD0CDE7056042608460B2
:102910000865C4E7002C15D02000A368226062601F
:102920000022002BB9D1BEE7526803604260846088
:102930000865B4E7456005602300F1E70865CAE76C
:102940000865DAE7046084600865ACE7240D0020C0
:10295000E60A002070B500291ED0164D2C68231EF3
:102960001FD01A6A891A06D45A6A002A15D0130091
:102970001A6A891AF8D59E6A002E15D0706286628E
:1029800043629862891801621A6A511A1962022315
:1029900001224371084B1A7070BD83625862016254
:1029A000F5E701622860F2E744622860A062226ACB
:1029B0002300E7E7780D0020E50A0020836A10B5C0
:1029C000426A002B10D05A62002A1AD0016A426A69
:1029D0008C469362136A63441362002343628362EA
:1029E00001235B42036210BD002A0CD007490A6034
:1029F000116A0C00016A93628C466444146243625B
:102A0000EEE78262ECE7014B1A60E9E7780D0020FF
:102A1000014B186859687047E80A0020F8B5254B43
:102A20001C78E4B2002C02D003242000F8BD431C23
:102A300008D00028F9D0204B1C78E4B2002C03D039
:102A40001524F2E70224F0E71A781C4E0132D2B2C4
:102A50001A7035681A4B19682B1E21D01A6A801A11
:102A600006D45A6A002A17D013001A6A801AF8D5B9
:102A70009F6A002F17D079628F624B62996280182B
:102A800008621A6A101A1862022301224B710D4B58
:102A90001A70FEF767FBC8E78B6259620862F3E7BA
:102AA00008623160F0E74D623160A9622A6A2B004A
:102AB000E5E7C046E40A0020E60A0020780D002081
:102AC0002C0C0020E50A00200200F8B50120052AA0
:102AD0000AD82C2353433E4DEC58002C04D0EB185D
:102AE0001C6A1030661C00D1F8BD3A4E30780130B7
:102AF000C0B23070986A5E6A002847D04662002EE5
:102B00004FD05E6AB062306A84460020644434620A
:102B1000586298622C20012350435B4228180362BC
:102B2000002905D1FFF77CF8FEF71CFB0020DBE74E
:102B3000294F3E68331E3DD01C6A091B06D45C6ACF
:102B4000002C30D023001C6A091BF8D59C6AA446CF
:102B5000002C35D060622C24664654432C19A662A2
:102B6000636298622C235343EB18586A046AA446A4
:102B700061441962036A591A01622C2042430223FC
:102B8000AD1801226B71154B1A70CDE7002E14D0D1
:102B9000114FB0623E60376ABC466444346258628A
:102BA000B8E79E62B6E72C3454432C19A3625862EE
:102BB0002162E2E701623860DFE7074B1E60A9E7A8
:102BC0002C235343EB185E623860B062CAE7C046FC
:102BD000200B0020E60A0020780D0020E50A0020E6
:102BE000F8B5334D03242E78002E01D02000F8BD17
:102BF000013C3B29FAD83B2AF8D82E4EB342F5D8EF
:102C00002D4E3478E4B2002C01D01524EEE72D7857
:102C1000002DEBD1E1253C272D0168437943451870
:102C2000FA2189004B43AA184A43F533FF331800B1
:102C3000150002F04DFC2D18002DD7D03478E4B2E9
:102C4000002C01D00024D1E733781C480133DBB2DB
:102C5000337001681A4B0A1E1B6804D116E0566ACD
:102C6000002E1DD03200166AAD1BF8D5966A002ED4
:102C70001AD073629E625A6293625A6A116A8C46D3
:102C800065441D62116A4D1B156201E01D620360FF
:102C900002225A710B4B013A1A70FEF763FAA5E74C
:102CA0009A6253621D62F3E7596203608B62E4E744
:102CB000E40A0020E7030000E60A0020780D002067
:102CC0002C0C0020E50A0020F8B5124D2C68002CD1
:102CD0001FD0236A002B1CD1012700267F4203E06E
:102CE000236AA662002B14D1237AFF2B02D0200086
:102CF00002F0F2FAE069002801D0FEF7CDF9636A2C
:102D00002762666220002B60FEF78AFF2C68002C89
:102D1000E6D1F8BD780D0020F8B5174B1B78012BD4
:102D200005D90123154A1370154A1370F8BD154DC6
:102D30002C68002CFAD0236A002BF7D1012700263B
:102D40007F4203E0236AA662002BEFD1237AFF2B98
:102D500002D0200002F0C0FAE069002801D0FEF79E
:102D60009BF9636A2762666220002B60FEF758FFBA
:102D70002C68002CE6D1D9E7E60A00201C0B0020C5
:102D80001D0B0020780D0020F8B546464F46040084
:102D9000C0B40D001600002801D0002904D1FF2086
:102DA0000CBC90469946F8BD174A184F137801336A
:102DB000DBB213703B68DA0704D59A071FD5FEF71C
:102DC000D1F9ECE7002101228846894613433B6094
:102DD000FEF7C8F9434649461A01BB18197200218B
:102DE00004375981998119825C60DD81BA183100FC
:102DF000032002F06BF90028D1D00079D0E701213F
:102E0000022288468946E1E7E60A00207C0D002080
:102E1000030070B50120132B07D80F260D4D1B01A1
:102E2000EC1862793240032A00D070BD20005D5951
:102E300002F074F90028F8D101232979064A8B4061
:102E40001168287199431160E880286028816881A1
:102E5000A881EAE73C0E00207C0D002070B50C0034
:102E6000132825D80F21174A000113185B790B404E
:102E7000032B1DD1144982580B780133DBB20B7040
:102E80009189002918D0D3881568980001394559CF
:102E90000133918151899BB2D380994205D0FEF7CD
:102EA00061F900232800237070BD0023D380F6E76A
:102EB000012300202370F7E7FEF754F90B230020CD
:102EC0002370F1E73C0E0020E60A0020F0B55746DB
:102ED0004E464546E0B4484B0F001B781600002BC9
:102EE00058D113282FD80F22444900010B189846B7
:102EF0005B791340032B26D1414D2A78D2B2002AA8
:102F000000D071E02B7844580133DBB22B70A389D9
:102F10009946002B1BD0E388206899000F5849463A
:102F200001390133A18161899BB2E380994200D1CB
:102F3000E280FEF717F90023337038001CBC90467E
:102F40009946A246F0BD012300273370F5E7FEF74E
:102F500009F92C4B1B689A46002F1FD119004046D7
:102F600002F02EF92B780133DBB22B7053461D692A
:102F70001F61A289E388013A0133A28162899BB271
:102F8000E3809A4200D1E780FEF7ECF800232F009F
:102F90003370D2E7032300271370CEE72B78514616
:102FA0000133DBB240462B7002F00AF9390050467B
:102FB000FFF7D0FCFEF7D6F853461F69002F17D055
:102FC0002B784A460133DBB22B7053461A61A28933
:102FD000E388013A0133A28162899BB2E3809A427D
:102FE000A7D14B46E380A4E7123333700027A4E750
:102FF00005233370A1E7C046E40A00203C0E002000
:10300000E60A00202C0C0020F8B503000120132B49
:1030100007D80F25144C1B01E21852792A40032AC5
:1030200000D0F8BDE258073095895689B542F8D0EE
:103030000E4F013538780130C0B23870108984469F
:103040008700106839506046013081B21181958146
:103050008E4206D0E01802F001F9FEF783F8002056
:10306000DFE700211181F5E73C0E0020E60A002091
:10307000F0B5474680B4204B1C78E4B2002C2BD12D
:10308000132804D90124200004BC9046F0BD0F266B
:103090001A4A000115186D793540032DF2D11558E3
:1030A0006F89AE89BC46BE4222D01F7801360137F7
:1030B000FFB21F702B8998469F002B68F95043463A
:1030C00001339BB22B81AE819C4513D0101802F0C6
:1030D000C5F8FEF747F8D6E70A0001000420FEF71E
:1030E0003DF9030058425841122440420440CAE7C7
:1030F0000824C8E72C81E9E7E60A00203C0E0020FE
:10310000902310B5DB0598421AD0294B984222D063
:10311000284B98422AD0284B984232D0274B9842CD
:103120003AD0274B984200D010BD80200121C00327
:10313000FEF7ACFC80200021C003FEF7A7FCF3E7FC
:10314000802001218002FEF7A1FC80200021800266
:10315000FEF79CFCE8E780200121C002FEF796FC08
:1031600080200021C002FEF791FCDDE780200121D4
:103170000003FEF78BFC802000210003FEF786FC95
:10318000D2E7802001214003FEF780FC802000214F
:103190004003FEF77BFCC7E7802001218003FEF798
:1031A00075FC802000218003FEF770FCBCE7C04660
:1031B0000004004800080048000C004800100048C7
:1031C00000140048F0B544465F4656464D46F0B4FC
:1031D00003248C4683B00968002200230127A046FF
:1031E00003E001330232102B27D03C009C40250025
:1031F0000D40AC42F5D165462D796E1EAB46012ED1
:1032000022D946469640F443260001945D469540F7
:10321000046801332640066004682543056045467E
:103220009540C468AC43C4606446E479C568944082
:103230002C43C4600232102BD7D103B03CBC904663
:103240009946A246AB46F0BD46469640F643856891
:103250000196354085608568AA4665466D7995403A
:10326000A94655464E46354385608588019EA5434F
:1032700085808488A1466446A4794D469C402C43B1
:10328000A4B28480C2E7C046044B0122036000233D
:10329000427103718371C3717047C046FFFF000024
:1032A000802382B05B020193019B0B430193019B3E
:1032B000C361C161019BC361C3690193C369019388
:1032C00002B07047038A19400800411E8841C0B20D
:1032D0007047C046008A80B27047C046838A194052
:1032E0000800411E8841C0B27047C046808A80B243
:1032F0007047C0468161704701857047002A01D13F
:10330000018570478161FCE781827047072310B512
:103310000F240B409B009C409A40C908890040182C
:10332000016AA1430162016A0A43026210BDC046FC
:1033300070B5104C0125207800F08EF903220E4B59
:1033400000201D700D4B5A703D321A70FDF7F4F8D5
:1033500000220B4B1A800B4A1278002A00D1FEE79C
:10336000920602D41A79AA431A71207800F0FEF965
:1033700070BDC046F90F00206D0A0020700A0020C1
:10338000A00D00206C0A0020F8B5114D40262878C9
:1033900000F062F9012702220E4C0F4B00201A7038
:1033A00067702670FDF7C8F80323002263700B4B8B
:1033B00026701A800A4A1278002A00D1FEE7920687
:1033C00002D41A79BA431A71287800F0CFF9F8BDFF
:1033D000F90F0020700A00206D0A0020A00D0020C7
:1033E0006C0A002070B5104D0124287800F034F9E3
:1033F000402200260D4B00201C700D4B1A705C7093
:103400000C4B1E70FDF798F80B4A0C4B12781E807F
:10341000002A00D1FEE7920602D41A79A2431A715B
:10342000287800F0A3F970BDF90F00206D0A002084
:10343000700A00204C0A00206C0A0020A00D002019
:10344000F8B50123154C10212279002613430222DE
:103450002371134B134D1A7059709E7001272878F1
:1034600000F0FAF80322104B00201F700F4B5A7027
:103470003D321A70FDF760F80D4B26801B78002B4B
:1034800000D1FEE79B0602D42379BB432371287841
:1034900000F06CF9C820FFF7C1FAF8BDA00D0020BC
:1034A0004C0A0020F90F00206D0A0020700A00204D
:1034B0006C0A0020F8B55F4656464D4644464E4BD2
:1034C000F0B498464D4B01269B464D4B4D4D9946C9
:1034D0004D4B2C799A464D4F344045D04346187891
:1034E00000F0BAF85B461E70402300243B704B4648
:1034F0007E7000201C70FDF71FF853461B782C804F
:10350000002B00D1FEE79B0602D42B79B3432B712D
:103510004346187800F02AF96420FFF77FFA2C79E7
:103520002642D9D04346187800F096F85B461E70C4
:10353000042301207B703C333B70FCF7FDFF00232C
:103540002B8053461B78002B00D1FEE743461878AA
:1035500000F00CF92B791E4230D1FA208000FFF7E1
:103560005DFA2C793440B9D101222B7913432B71A8
:103570004A46022313700E335370434694701878F2
:1035800000F06AF85B461E70032300207B703D3319
:103590003B70FCF7D1FF53461B782C80002B00D1E9
:1035A000FEE79B0602D42B79B3432B714346187870
:1035B00000F0DCF8C820FFF731FACEE7144A144BCC
:1035C00050781B7800021843FCF7F8FF104A288156
:1035D0000F4BD0789B7800021843FCF7EFFF2B8944
:1035E0009A00D3185A019B181B0C283B2B8164238B
:1035F0005843000C6881B0E7F90F00206D0A0020E5
:103600004C0A0020A00D00206C0A0020700A002047
:103610002C0A002070B50E4A0E4D13782C78013319
:10362000DBB21370092C04D9FDF79CFDFF242000A8
:1036300070BD631C2B70FDF795FDE300ED180022B3
:10364000FF236A71EB712B71AB71AA60EFE7C04683
:10365000E60A0020AC0D0020F8B54F464646C0B43F
:103660003B4B03241B78002B04D020000CBC90465D
:103670009946F8BD374B1C78E4B2002C01D01524D4
:10368000F3E7354E3278824219D91A78C5000132F3
:10369000D2B21A70314B1F687319F8715A79002A27
:1036A00004D0012A0DD0FDF75DFDDEE73A791A71ED
:1036B000BA799A71BA79DA7101225A71F3E7012461
:1036C000D3E798792B324243254839798046904494
:1036D000424612798A4215D942461171BA79DA7195
:1036E00043465B79002B24D043461B7AFF2B09D03D
:1036F0001C4A1B01914699444B460F225B79934328
:10370000202B1DD0022301227B71174B70191A70D8
:1037100000237B62BB628268002A01D107E01A00A5
:10372000536A002BFBD15762BA627B62BBE78760AA
:10373000B9E74046FEF7C6FA4046FEF771FAE1E700
:10374000404601F0C9FD4146484601F039FDD9E740
:10375000E40A0020E60A0020AC0D00202C0C00201A
:10376000200B00203C0E0020E50A0020F8B5264B77
:103770001C78E4B2002C02D003242000F8BD234DB5
:103780002B7883422AD92C21FF26214A1378013332
:10379000DBB21370C200AF18B8791E4B4143591801
:1037A000BB68CE71002B2AD0FE79864218D00E79E4
:1037B000FF23AD18AB712979FEF7A0FAA868436A18
:1037C000AB6003792B718379AB710023067143627F
:1037D0008362FEF725FAFDF7C5FCCEE70124CCE7AE
:1037E0001E7907375B6A002BE2D019798E42F9D92E
:1037F0009E793E705B6A0E00002BF6D1D8E77C7193
:10380000BE71FDF7AFFCB8E7E40A0020AC0D002064
:10381000E60A0020200B002070B5436AC479826A52
:10382000002B29D09A62002A2DD0826A1A4E536248
:103830000023E40083624362FF233219C371D1790C
:103840008379994200D070BD957993681179D571CB
:10385000002B09D0D01D1A798A4202D299790170C1
:1038600011005B6A002BF6D1FF233419A3712800E5
:10387000FEF744FAA571E6E7002A08D05362064E27
:103880008362E400D8E74262034EE400D4E7024ECC
:10389000E40033199A60CFE7AC0D00200268374B83
:1038A000134003600023036043608360C360344BB4
:1038B000984228D0334B98422BD0334B98422ED08D
:1038C000324B984232D0324B98423DD0314B9842E5
:1038D0003CD0314B98420FD0304B98423DD0304BCA
:1038E000984240D02F4B984243D02F4B984242D021
:1038F0002E4B984221D07047F0212D4A090553687C
:103900000B435360F7E70F23294A51680B43536079
:10391000F1E7F023264A51680B435360EBE7244A52
:10392000F021536809010B435360E4E7204AF0217A
:10393000536809020B435360DDE71E4AF0215368C8
:1039400009030B435360D6E7194AF7E7F021184AF9
:10395000090453680B435360CDE70F23154A5168A0
:103960000B435360C7E7F023124A51680B4353607F
:10397000C1E7104AD4E70F4AD9E7C046FEFF00006E
:10398000080002401C000240300002404400024097
:10399000580002406C0002408000024008040240CF
:1039A0001C04024030040240440402405804024017
:1039B000000002400004024002680D4B10B51A409E
:1039C0000C6A8B6823430C6923434C6923438C693D
:1039D0002343CC6923434C6A23438C6A2343134318
:1039E0000360CB6843600B6883604B68C36010BDA5
:1039F0000F80FFFF0023036043608360C3600361A7
:103A000043618361C3610362436283627047C0465E
:103A10000268002903D1044B13400360704701235F
:103A200013430360FAE7C046FEFF000030B50F24E1
:103A3000A8230D0FAD00AC40C2580901A243C250EB
:103A4000C25809091143C15030BDC046416070479A
:103A5000406880B27047C0460368002A02D18B4399
:103A60000360704719430160FBE7C046C30006D5F9
:103A7000044B1B681840431E9841C0B27047024B6C
:103A80001B68F7E70004024000000240C30002D4B4
:103A9000024B58607047024B5860FBE70000024041
:103AA00000040240C30006D5044B1B681840431EA7
:103AB0009841C0B27047024B1B68F7E70004024010
:103AC00000000240C30002D4024B58607047024B12
:103AD0005860FBE7000002400004024001207047EC
:103AE00010B5FEF711FE0B4C0421A2682068137973
:103AF000527912021A43084B1B68D340074A1360DD
:103B00000122C3704270827000F0EAF8062301209F
:103B1000237110BDDC0F0020BC0F0020C80F002057
:103B200010B5FEF7FDFD0C4C0421A2682068137946
:103B3000527912021A43094B1B68D340084A13609A
:103B400002224270013A8270C37000F0C9F8062365
:103B50000120237110BDC046DC0F0020C40F0020DF
:103B6000C80F0020F8B54F4646460322314BC0B47B
:103B700099461B68304E5A703188304D4A009A7011
:103B80004A1E033392B22B60328000293DD00023BD
:103B900098462B4B2B4F9C4683001B189B00F95CCF
:103BA000012923D000292DD01400032911D8624601
:103BB000FB185B681B8813701B0A53702A68511C22
:103BC000296013702B685A1C2A60624612781A709A
:103BD0003488621E013092B280B23280002C14D040
:103BE00083001B189B00F95C0129DBD12B685A1C50
:103BF0002A6042461A702B685A1C2A6042461A7084
:103C00003488E6E701235B4233804B461B68997892
:103C10004B4603311868C9B200F062F84B464A4679
:103C20001B6801209B78053313710CBC90469946A4
:103C3000F8BDC046DC0F0020000E0020CC0F002095
:103C4000D40F002038B60008052370B5214C206839
:103C50004370A368DA78997812020A438270120AD4
:103C6000C27019795A79017142715A79197912021F
:103C70000A43FF2A1DD00020002A00D070BD164D37
:103C800001322A60D8789A7800021043FCF796FC3B
:103C90002B68124A834011682B6099431160FEF72C
:103CA0001FFD2068062100F01BF808230120237166
:103CB000E4E7094DFE3A2A60D8789A78000210436A
:103CC000FCF77CFC2B68054A834011682B600B4392
:103CD0001360E4E7DC0F0020C80F0020BC0F0020B9
:103CE000012370B582B05B4201AA1380CB18DBB20E
:103CF000002914D00133517815780A4E0400C018F9
:103D00000B002278013453405B00F218517869406F
:103D1000F55CA042F4D10170457002B070BD5178DD
:103D20001578F8E7BCB600080123F0B583B05B4214
:103D300001AE3380CB189BB200291FD001337178BC
:103D400035780F4F0400C0180B002278013453401F
:103D50005B00FA1851786940FD5CA042F4D13570DF
:103D6000027800238A4202D0180003B0F0BD4278E6
:103D700033789B1A5A425341DBB2F5E77178EFE78B
:103D8000BCB600080121F0B5144F4942BB683C683D
:103D90001A780E0E22705A782378114D5E40760004
:103DA000AB195B78803A9C466270CBB2D1B2624666
:103DB00053404B405B00EA18715D5278A0704A4056
:103DC00050404000425D281841785B5D83B04B4015
:103DD000E370052322713B7103B0F0BDDC0F0020BE
:103DE000BCB60008F0B54E4657460023C0B4DA4EC4
:103DF00083B03371337B072B06D9B26891461278B2
:103E00009246727B524504D003B00CBC91469A4650
:103E1000F0BD033B9BB201279C4601336A464B44ED
:103E200048461C007F42CD4D9780390EFFB20B00F3
:103E30000278013053405B00EA1851787940EF5C1A
:103E40008442F4D16B461F714B4663445B788B42CE
:103E5000DAD16378FAB29A42D6D1524633681A70F0
:103E6000B3685A78102A06D8012191400A00BC494B
:103E70000A4200D0EAE058791A7900021043FCF7B0
:103E80009DFBB84FB26838805378102B00D9B3E04F
:103E9000B5499B00CB589F46D078937800021843D1
:103EA000FCF78CFB072800D9DEE0FFF7CDFE0028E9
:103EB000AAD1B36831681A7868460A705A78042320
:103EC0008B70053B838008781C0E604040002C18E6
:103ED000803A64784A70DBB2D2B2634053405B00F0
:103EE000EA18285C52785040042242405200A85CF4
:103EF000AA185278EB5C08715340CB7005233371DC
:103F000082E7D078937800021843FCF757FB3B8890
:103F1000C018964B1A8883B29A4200D2C1E0B268A8
:103F2000D078937800021843FCF748FBFFF71AFE9D
:103F3000002800D068E7B36831681A7868460A70CC
:103F40005A7804238B70053B803A838008784A7046
:103F50001C0E604040002C186478DBB2BCE7D078BF
:103F6000937800021843FCF729FB3B88C01883B202
:103F7000082B00D9B3E0FFF7D3FD002800D043E7BA
:103F8000B36831681A7868460A705A7804230C7846
:103F90008B70053B8380180E604040002C186478BD
:103FA000803ADBB263404A70D2B253405B00EA18F9
:103FB00054782A5C200096E7D07893780002184362
:103FC000FCF7FCFA3B88C01883B2082B00D9A4E0A8
:103FD000FFF786FD002800D016E7B36831681A782D
:103FE00068460A705A780423803A8B70053B8380B8
:103FF0004A700C78180EACE7137830680121037012
:104000000123527883706B464942998003780F0EE2
:104010005F407F00EB195B78CCB29C466146803AEA
:10402000D3B2614059404B004270EA185178EA5DC2
:10403000EC5C4A4001214A405200A95CAA1853781E
:1040400001716340C37005233371DDE658791A7935
:1040500000021043FCF7B2FA454A013883B293429A
:1040600000D987E0B36806E7B36831681A78684614
:104070000A705A7802238B70033B838008781C0EE9
:10408000604040002C186478803ADBB24A7063408C
:10409000D2B253405B00EA185278285C50400222AA
:1040A00023E7B36831681A780A70587802236A46A1
:1040B0008B700C78033B93801A0E544064002A19CD
:1040C0005778DAB23B00803853404870C0B2434062
:1040D0005B00EA1850782A5D5040022205E7B36879
:1040E00031681A780A70587802236A468B700C7807
:1040F000033B93801A0E544064002A195778DAB2B1
:104100003B00803853404870C0B243405B00EA181F
:104110005278285D50400222E7E6B36831681A7889
:1041200068460A7002225B780C788A70033A8280B3
:10413000100E604040002C186478803BD2B2624080
:104140004B70DBB253405B00EA1854782A5C2000C5
:1041500050400222C9E6C046DC0F0020BCB6000871
:104160001E800100000E002078B6000874B600081A
:10417000CF070000B36831681A7801200A70032263
:104180005B788A706A46404290800A78040E6240EA
:104190005200AC186478803BC0B260404B70DBB218
:1041A00043405B00EC18A85C6278504003229CE618
:1041B0000122034B1A701A71962292015A8070479D
:1041C000EC0F0020F8B54500204C2A18D200A218A8
:1041D0005368002B29D01E4E31780131C9B231709D
:1041E000266B002E29D0320051685B1A06D4116963
:1041F00000291BD00A0051685B1AF8D55769002FB7
:104200001DD02918C900611839614F610A615161D7
:104210002818C0002018026951688C466344436026
:104220005168CB1A5360FCF79DFFF8BD2818C000F9
:104230002018426110614360F5E72263F3E72A1812
:10424000D200A218166122637261E1E7040E002019
:10425000E60A0020F0B5454657464E468846E0B48B
:10426000FF24050017001E00012805D920001CBCF2
:1042700090469946A246F0BD002BF7D0174A137816
:104280000133DBB21370164B99465B6BDA0704D52A
:104290009A071DD5FCF766FFE8E7002101228A4650
:1042A000002413434A465363FCF75CFF53464A46D7
:1042B0005B005344DB00D45401224B449A704246C5
:1042C0005A6000225D709F60DE605A611A61CDE71E
:1042D000012102228A460124E3E7C046E60A0020C3
:1042E000040E002010B50123012801D9180010BDCB
:1042F00019008140084C626B0A42F7D04200121844
:10430000D200A2189378002BF0D000239370FFF70F
:1043100059FF0023EAE7C046040E0020F8B5040068
:104320000120012C00D9F8BD0300A3401C4D6A6B8D
:104330001A42F8D066003319DB00EB189A78002097
:10434000012AF0D017490A780132D2B20A705A69AC
:104350001969002A15D0116100291ED019694A6116
:104360004A6817005A68944667444F60186158615C
:10437000FCF7F8FE01233419E4002C19A370002087
:10438000D1E729630029F3D048684A6107005868DB
:10439000844667444F601A61EAE75961E8E7C0461E
:1043A000040E0020E60A0020030070B50120012B56
:1043B00000D970BD05009D401B4C626B2A42F8D0AD
:1043C0005800C318DB00E3189978002903D0AA43EA
:1043D00062630020EDE7154802780132D2B2027024
:1043E0005A69002A11D01869106100281AD018697A
:1043F0004261426816005A689446664446601961F4
:104400005961FCF7AFFE626BE1E71969216300298E
:10441000F7D048684A6106005868844666444E6092
:104420001A61EEE75861ECE7040E0020E60A00206E
:1044300010B5012803D9012300200B7010BD012302
:104440008340064A546B1C42F5D000230B70430096
:104450001818C00010184068F0E7C046040E00208D
:1044600070B505000124012801D9200070BD23008A
:10447000AB401C48466B1E42F7D06B005B19DB005B
:10448000C3189C7859609A60002C01D00024ECE796
:10449000154E32780132D2B232705A69002A11D0E8
:1044A0001869002819D01061186942614268944661
:1044B000614441601C615C61FCF754FE2800FFF719
:1044C00081FED2E71A69002A0AD00263506854615B
:1044D0008446614451601C61EEE714615C61EBE766
:1044E0000463E9E7040E0020E60A0020F8B54F4611
:1044F0004646444DC0B42C6B002C32D06368002B70
:104500002FD1414FA8463E0004E0012A2DD0636818
:10451000002B26D16278002AF7D131782378013137
:10452000C9B231705900CB18DB00EB18596900296A
:1045300040D01869086100284BD018694161416872
:10454000894659688C46E144494641601A615A617E
:10455000FCF708FE0123A370E36898472C6B002C3E
:10456000D5D10CBC90469946F8BD3A7823780132F3
:10457000D2B23A705A00D318DB00EB185A691969A5
:10458000002A28D01161002933D05868196984465F
:104590004A614A6862444A6000221A615A61FCF723
:1045A000E1FDA36820786360FFF70CFEE36898479D
:1045B0002C6BD4E71A69002A1DD04046026350686C
:1045C0005161814658688446E1444846506019610B
:1045D000BEE75861BCE7002910D040460163486837
:1045E0004A61814658688446E144484648601A61F9
:1045F000D5E75961D3E743461A63A9E743461963F0
:10460000CDE7C046040E0020E60A0020F0B545467E
:1046100057464E46E0B4484D2B78012B09D901236B
:10462000464A1370464A13701CBC90469946A246EF
:10463000F0BD444E346B002CF6D06368002BF3D1F0
:10464000B1469846012704E0012A29D06368002B6F
:10465000EAD16278002AF7D1297823780131C9B2EA
:1046600029705900CB18DB00F318596900293CD098
:1046700018690861002847D01869416141688A4675
:1046800059688C46E244514641601A615A61FCF710
:1046900069FDA770E3689847346B002CD6D1C3E757
:1046A0002A7823780132D2B22A705A00D318DB005C
:1046B000F3185A691969002A28D01161002933D0EA
:1046C0005868196984464A614A6862444A604246A9
:1046D0001A615A61FCF746FDA36820786360FFF712
:1046E00071FDE3689847346BD7E71A69002A1DD03B
:1046F0004846026350685161824658688446E244E5
:10470000504650601961C2E75861C0E7002910D0D7
:104710004846016348684A61824658688446E244D4
:10472000504648601A61D5E75961D3E74B461A6392
:10473000ADE74B461963CDE7E60A00201C0B0020CD
:104740001E0B0020040E0020354B10B598421ED0E1
:10475000344B984226D0344B98422ED0334B98425B
:1047600036D0334B98423ED0324B984246D0324BF3
:1047700098424CD0314B984200D010BD012180208E
:10478000FDF792F900218020FDF78EF9F5E78020F2
:104790000121C001FDF788F980200021C001FDF74B
:1047A00083F9EAE7802001218002FDF78BF9802060
:1047B00000218002FDF786F9DFE780200121C00299
:1047C000FDF780F980200021C002FDF77BF9D4E7D6
:1047D000802001210003FDF775F9802000210003EE
:1047E000FDF770F9C9E7802001214003FDF76AF960
:1047F000802000214003FDF765F9BEE7012120205C
:10480000FDF752F900212020FDF74EF9B5E701210F
:104810004020FDF749F900214020FDF745F9ACE7BC
:10482000003801400044004000480040004C004077
:10483000005000400014014000180140001C0140DD
:104840000122F0B50D0003688BB09343036042680A
:10485000234B040013408A68134343600268214BD2
:104860001A404B68C9680B4329690B431343036023
:1048700082681D4B13406A69134383606846FCF7E6
:10488000E7FF1A4B9C4225D0194B9C4224D0194B70
:104890009C4223D0029F23681B0400D57F002E6812
:1048A0003800310000F08AFD31000500380000F0CA
:1048B0000BFE00237608B1425B41ED1823681B0410
:1048C00004D50D4B2A07520F1D401543ADB2A581EB
:1048D0000BB0F0BD069FDEE7079FDCE7089FDAE735
:1048E000FFCFFFFFF3E9FFFFFFFCFFFF00380140B0
:1048F0000044004000480040F0FF000096239B0168
:1049000003600C220023026143608360C360436143
:104910007047C0464268064B10B51A404C680B6899
:1049200023438C68C96823430B431343436010BD82
:10493000FFF0FFFF0023036043608360C3607047A4
:10494000002904D1012203689343036070470123C7
:10495000026813430360F9E70368002A02D18B431E
:104960000360704719430160FBE7C046002904D18A
:104970000268054B134003607047802203681202EF
:1049800013430360F8E7C046FF7FFFFF002904D10F
:104990008268054B13408360704780228368120150
:1049A00013438360F8E7C046FFF7FFFF002904D1F7
:1049B0004268054B134043607047802243681203EE
:1049C00013434360F8E7C046FFFFF7FF002904D117
:1049D0004268054B13404360704780224368D2020F
:1049E00013434360F8E7C046FFFFFBFF4368002A1C
:1049F00002D18B434360704719434160FBE7C046D7
:104A0000002904D14268054B13404360704780225F
:104A10004368120213434360F8E7C046FF7FFFFF7D
:104A2000002904D14268054B13404360704780223F
:104A30004368120413434360F8E7C046FFFF7FFF5B
:104A400043691B0E1B06436143691943416170476B
:104A5000FF22038A93430382038A1943018270472A
:104A6000002904D1022203689343036070470223A4
:104A7000026813430360F9E78268034B13408360C5
:104A80008368194381607047FFFFCFFF002904D17D
:104A90004268054B134043607047802243685203CD
:104AA00013434360F8E7C046FFFFEFFF4268034B44
:104AB000134043604368194341607047FFFF9FFF05
:104AC000C905C90D01857047808CC005C00D7047B0
:104AD000436809061B021B0A43604368194341608F
:104AE0007047C046002904D10268054B134003609B
:104AF000704780220368920113430360F8E7C046C1
:104B0000FFDFFFFF0268034B134003600368194394
:104B100001607047FFF7FFFF102243689343436033
:104B200043681943416070472022436893434360C0
:104B30004368194341607047002904D14268054B1E
:104B400013404360704780224368D201134343609F
:104B5000F8E7C046FFBFFFFF002904D108228368A1
:104B60009343836070470823826813438360F9E7A7
:104B7000FF22038A090213400382038A1943018238
:104B80007047C046002904D1202283689343836084
:104B900070472023826813438360F9E7002904D11A
:104BA0001022836893438360704710238268134305
:104BB0008360F9E78268044B49041340836083688B
:104BC000194381607047C046FFFFF1FF4369090642
:104BD0001B021B0A43614369194341617047C04688
:104BE000042283689343836083681943816070471C
:104BF000002904D102228368934383607047022313
:104C0000826813438360F9E7002904D18268054B69
:104C100013408360704780228368D201134383600E
:104C2000F8E7C046FFBFFFFF8268034B1340836075
:104C30008368194381607047FF7FFFFF0268044B60
:104C40004905134003600368194301607047C0467B
:104C5000FFFF1FFC0268044B090413400360036854
:104C6000194301607047C046FFFFE0FF8368002AD8
:104C700002D18B438360704719438160FBE7C046D4
:104C80008268034B134083608368194381607047D7
:104C9000FFDFFFFF10B5FF248BB22140FE3C8C40AC
:104CA0001B0A2100022B0AD0032B0AD00368002A1A
:104CB00002D18B43036010BD19430160FBE7043050
:104CC000F4E70830F2E7C046038B002A02D18B4399
:104CD00003837047194389B20183FAE78268034B63
:104CE000134083608368194381607047FFEFFFFFC3
:104CF000C36919400800411E8841C0B27047C046D0
:104D00000162704710B5FF2401238AB20C40120AD9
:104D1000A340012A0FD0022A10D082681340C26932
:104D20000020002B06D0090C013088401040431EA3
:104D30009841C0B210BD02681340F0E742681340CA
:104D4000EDE7C0460123090C8B4003627047C04663
:104D500002B472B601780131017062B60139081CE3
:104D600002BCC0B27047C04602B472B601780139C5
:104D7000017062B6081C02BCC0B2704762B67047D0
:104D800072B670471C3880F309887047144B1B6853
:104D9000144A116819607047134B1968134A126856
:104DA000914216D0EFF3098020380860F0C04446E5
:104DB0004D4656465F46F0C01A6010681030F0C885
:104DC000A046A946B246BB462038F0C8103080F352
:104DD0000988074B00201870064B18680047000030
:104DE000400000203C0000202C0C00203C0C002047
:104DF000E60A0020380000200C21134A70B55368E1
:104E00000B40082B0CD1C02350680331800C55682F
:104E100008405B02841C1D420DD10C48604300E039
:104E20000B48094B0B4A5B681B061B0FD35CD84031
:104E3000094B186070BDD36A05481940013100F074
:104E4000BDFA6043EDE7C0460010024000093D0096
:104E500000127A004400002054000020002380212A
:104E600082B02A4A00930193136849020B43A020A1
:104E7000802113608902C00102E0009B834208D0B8
:104E800013680B400193009B01330093019B002B9F
:104E9000F3D01E4B1A6880239B02134006D00123D7
:104EA0000193019B012B05D002B070470193019B38
:104EB000012BF9D11122164B80201A60134A80046D
:104EC00053685360536853605168124B0B408821FC
:104ED0005360536849030B438021536013684904AE
:104EE0000B4313601168094B0142FBD003215A6840
:104EF0008A435A60022259680A435A600C211A00F8
:104F000053680B40082BFBD1CEE7C046001002408F
:104F100000200240FF7FC0FF0121124B10B51A682C
:104F20000A431A605868104A02405A6018680F4ACB
:104F300002401A6018680E4A02401A6058680D4A0A
:104F400002400F205A60DA6A8243DA62186B0A4A1A
:104F500002401A635A6B8A435A6300229A60FFF731
:104F60007DFF10BD001002400CB8FF08FFFFF6FEE9
:104F7000FFFFFBFFFFFFC0FFACFEFFFF70B5C025CA
:104F8000AD002E00054CA6616420FDF747FDC8204A
:104F900025854000FDF742FDF5E7C04600080048C2
:104FA0007047C04630B500230D00040089B01C22B4
:104FB000002101A8009300F077FB2A00064968460B
:104FC00000F0B8FB06212000FBF70CFC0821684626
:104FD000FBF708FCFEE7C046BCB8000810B5FFF7B9
:104FE0000BFFFDF705FBFFF7E3F8194B5888FBF7BC
:104FF0002DFB0123174A51690B435361FBF792FBC9
:10500000FBF77AFBFCF750FAFBF758FAFEF702FBC6
:10501000114B002118700120FBF7A0FC0F4B1870FA
:10502000FCF7E4F80E4B0F4A00210F48FCF7C0FFD5
:105030000E4B0C4A00210E48FCF7BAFF0D4B094AF3
:1050400000210D48FCF7B4FFFCF70CF9FEE7C04661
:10505000EC0F002000100240F90F0020F80F002094
:10506000F8130020028000007D4F0008F815002092
:105070004D080008F8110020B534000870B5114E35
:10508000002332000F250424100051791371A94325
:10509000013310302143DBB2106051710200132B39
:1050A000F2D136200F21FF30325C8A4304210A43BB
:1050B0003254982200215200B1500432B354024BB2
:1050C0001E6470BD3C0E00203C0F0020F8B5160099
:1050D000104A050013780F000133DBB213700E4B3A
:1050E0001C6C002C12D022683F011A64FCF73AF8BD
:1050F0000F222B006579134095431D430023154073
:105100003D4365712660E3602000F8BDFCF72AF896
:10511000FAE7C046E60A00203C0F0020F0B54746FB
:10512000050080B4002906D1EB680420002B37D09D
:1051300004BC9046F0BD00200129F9D11E4BEC685B
:10514000984642461B7800270133DBB21370FF26D6
:10515000002C0FD0236A013302D02000FDF72EFC73
:1051600063692000EB6067612672FCF759FDEC680B
:10517000002CEFD1FBF7F6FF0F226B79934304224B
:1051800013436B71434642461B780133DBB2137005
:105190000A4B1A6C2A601D64FBF7E4FF0020C7E786
:1051A0000F226B79934304221343034A6B711378E4
:1051B0000133DBB2EBE7C046E60A00203C0F0020DB
:1051C00010B50F24234A13780133DBB2137003792F
:1051D000C2680B724379A343102B22D0202B07D037
:1051E000022301224B711C4B1A70FBF7BBFF10BD51
:1051F000002A2BD00C791379A3421CD850690028BF
:1052000026D00379A34204D919E01A79944218D31D
:1052100018004369002BF8D10023416188614B617C
:10522000DEE7002A01D111E01A005369002BFBD1FF
:1052300051618A61D4E7C1604A619161D0E703009E
:105240001000416188614B619961C9E7C160C7E79E
:105250001000E1E7E60A0020E50A002070B5C46806
:105260000500002C1FD06369C360002B01D0002211
:105270009A6100236361FF332372236A013302D0F2
:105280002000FDF79BFB0F226B791340022B0BD004
:10529000032B14D0012B19D00E4B1B689C420BD052
:1052A0002000FCF7BDFC70BD2B68236100232B6040
:1052B000084B1B689C42F3D101236371F3E72A6812
:1052C000D38812689B009B582361E5E7023B23616A
:1052D000E2E7C0462C0C0020426910B5017A8369D0
:1052E000002A0AD0002B0DD05A6142699361002335
:1052F00083614361FF23037210BD002B09D05A6103
:105300008261F7E7054C090161189361CA60436146
:10531000F0E7024A09015118CB60EBE73C0E002090
:10532000837870B5002B08D11F22037812491A40E8
:105330000123934080228B5070BD0F4B01789C4617
:1053400003238C081940FC331A00C026C9008A4088
:10535000A4006444B600A5599543427892011340D5
:105360008B401F222B43A35103781A400123934003
:1053700062461360E0E7C04600E100E0044A1369BA
:10538000002902D183431361704718431061FBE782
:1053900000ED00E0042805D00421054A13688B4382
:1053A00013607047024B1A6810431860F9E7C04653
:1053B00010E000E0FEE7C046FEE7C04600224308DA
:1053C0008B4274D303098B425FD3030A8B4244D3CD
:1053D000030B8B4228D3030C8B420DD3FF2209020F
:1053E00012BA030C8B4202D31212090265D0030BCE
:1053F0008B4219D300E0090AC30B8B4201D3CB03C4
:10540000C01A5241830B8B4201D38B03C01A524105
:10541000430B8B4201D34B03C01A5241030B8B4207
:1054200001D30B03C01A5241C30A8B4201D3CB02F2
:10543000C01A5241830A8B4201D38B02C01A5241D7
:10544000430A8B4201D34B02C01A5241030A8B42DA
:1054500001D30B02C01A5241CDD2C3098B4201D3F2
:10546000CB01C01A524183098B4201D38B01C01A70
:10547000524143098B4201D34B01C01A52410309E7
:105480008B4201D30B01C01A5241C3088B4201D396
:10549000CB00C01A524183088B4201D38B00C01A43
:1054A000524143088B4201D34B00C01A5241411A6A
:1054B00000D20146524110467047FFE701B5002077
:1054C00000F0F0F802BDC0460029F7D076E770473B
:1054D00003460B437FD4002243088B4274D3030955
:1054E0008B425FD3030A8B4244D3030B8B4228D3F6
:1054F000030C8B420DD3FF22090212BA030C8B421C
:1055000002D31212090265D0030B8B4219D300E0BB
:10551000090AC30B8B4201D3CB03C01A5241830B40
:105520008B4201D38B03C01A5241430B8B4201D3F0
:105530004B03C01A5241030B8B4201D30B03C01A19
:105540005241C30A8B4201D3CB02C01A5241830A93
:105550008B4201D38B02C01A5241430A8B4201D3C2
:105560004B02C01A5241030A8B4201D30B02C01AEC
:105570005241CDD2C3098B4201D3CB01C01A524153
:1055800083098B4201D38B01C01A524143098B42DC
:1055900001D34B01C01A524103098B4201D30B01C5
:1055A000C01A5241C3088B4201D3CB00C01A5241EA
:1055B00083088B4201D38B00C01A524143088B42AF
:1055C00001D34B00C01A5241411A00D20146524148
:1055D000104670475DE0CA0F00D04942031000D367
:1055E0004042534000229C4603098B422DD3030ABC
:1055F0008B4212D3FC22890112BA030A8B420CD3CC
:10560000890192118B4208D3890192118B4204D3F4
:1056100089013AD0921100E08909C3098B4201D374
:10562000CB01C01A524183098B4201D38B01C01AAE
:10563000524143098B4201D34B01C01A5241030925
:105640008B4201D30B01C01A5241C3088B4201D3D4
:10565000CB00C01A524183088B4201D38B00C01A81
:105660005241D9D243088B4201D34B00C01A524158
:10567000411A00D20146634652415B10104601D3E5
:105680004042002B00D54942704763465B1000D36F
:10569000404201B5002000F005F802BD0029F8D015
:1056A00016E770477047C04670B583073FD0541E59
:1056B000002A3BD0CEB20300032503E0621E002C7B
:1056C00034D0140001335A1E16702B42F6D1032C2D
:1056D00024D9FF250D402A0215432A0415430F2C17
:1056E00011D92600103E3609013636011A009B19E1
:1056F000156055609560D56010329342F8D10F2245
:105700001440032C0AD9261FB6080136B6001A0029
:105710009B1920C29342FCD103221440002C05D0D7
:10572000C9B21C19197001339C42FBD170BD140021
:105730000300CCE70EB410B59DB002A90290086139
:105740000B48822488604861012040421FABC88119
:10575000084804CBA400006801938C8100F00CF889
:105760000023029A13701DB010BC08BC03B0184788
:10577000FFFFFF7F80040020F0B55F464446564699
:105780004D46F0B4C3B00C001193079193460990B5
:1057900002F082FC0068199003F016FB1890A389B0
:1057A0001B0605D523690893002B01D101F06CF984
:1057B00032AB2593002325AFBB607B601493169317
:1057C000179332AE1A930C935B461B785C46002B02
:1057D0001CD0252B02D119E0252B03D001342378CE
:1057E000002BF9D15B46E51A10D05B463360BB68ED
:1057F00075605B19BB607B6801337B60072B61DCE4
:1058000008360C9B9C46AC4463460C932378002BD3
:1058100061D0012040420B900020631C9B46002376
:105820000D90089010308146303016AA84464030E2
:10583000D3770021002282465D46637801351C0043
:10584000203C582C00D9ABE3D448A4000459A74607
:105850000D9B11945B420D93042308981843089004
:105860002B78EBE73024119B1EAA1470181D4834C6
:105870001B685470AB460022089D0E93002329003C
:1058800016ACE2770B9A0F9302331943002A00DA21
:1058900096E3802295432A001A430E9B08921190AA
:1058A000002B00D076E37833BD4913930B9B9846C9
:1058B000002B00D10CE300239846002400230E9314
:1058C0000F946BE23A000799099803F0B1FA0028A7
:1058D00009D132AE95E7BB68002B04D03A00079996
:1058E000099803F0A5FA079B0C989B895B0601D5E4
:1058F00001F05EF943B03CBC90469946A246AB46E7
:10590000F0BD1393AB46002A01D001F010FB202319
:1059100008990B4000D1A8E10722119B073393435C
:10592000013294469C4462465C681B6825001C005A
:105930000023119216AAD3770B9B0E940F95002B80
:1059400001DA00F0B9FF802399430891210029432F
:1059500000D1A6E1002398460722B44632AB924616
:105960001C000E9A0F9B5807D6085146DD0830439D
:105970002B0005001140013C3031217002001D4315
:10598000F1D10E920F93089A12946646D20700D472
:105990001EE2302901D101F0CDF83023129D013DE6
:1059A0002B7032AB5B1B10931295109A13000B9A5D
:1059B000934200DA13000A93002315934346002B09
:1059C00002D00A9B01330A930223089A1A40924696
:1059D00002D00A9B02330A938423089A1A40914604
:1059E00000D0FCE20D9B0A9A9C1A002C00DCF6E227
:1059F0006C49BA687B688846102C1FDD3100102581
:105A0000464603E0103C0831102C15DD10320133FE
:105A10000E604D60BA607B60072BF3DD3A0007999A
:105A2000099803F005FA002800D05CE7103CBA683A
:105A30007B6832A9102CE9DCB0460E004146746048
:105A40000133A4183160BC607B60072B01DD00F0DE
:105A50005BFD16ABDB7F08369846C1E26B1C9846AF
:105A60002B782A2B01D101F04BFA3020404283469B
:105A70009B44584600244546092801D901F0DCF929
:105A800090465A46A30001351C196B1E1B78640012
:105A9000A4181A00303A092AF4D94246A846002C24
:105AA00001DA01F08FF80B944546C8E65046089B92
:105AB000034308932B78C1E630246442A3460020B8
:105AC0009B44904603005A469C00E3185B00013556
:105AD000D3186A1E14782200303A092AF4D90D939B
