:020000040800F2
:1000000000200020312B00087D2B00087D2B0008EC
:1000100000000000000000000000000000000000E0
:100020000000000000000000000000007D2B000820
:10003000000000000000000075780008791A000830
:100040007D2B00087D2B00087D2B00087D2B0008F0
:100050007D2B00087D2B00087D2B00087D2B0008E0
:100060007D2B00087D2B0008B50A00087D2B0008B9
:100070007D2B00087D2B00087D2B00087D2B0008C0
:100080007D2B0008B51D0008000000007D2B000836
:100090007D2B00087D2B00087D2B000899050008AA
:1000A0007D2B00087D2B00087D2B000841090008EE
:1000B0007D2B0008000000007D2B000800000000E0
:1000C0005FF808F110B5064C2378002B07D1054BDB
:1000D000002B02D0044800E000BF0123237010BDB4
:1000E000100A00200000000054EA0008084B10B578
:1000F000002B03D00749084800E000BF0748036809
:10010000002B00D110BD064B002BFBD09847F9E720
:1001100000000000140A002054EA00080C0A002025
:100120000000000080B584B000AF0200FB1D1A7013
:10013000FB1D1B7800221900022007F01BFD0300A5
:10014000FB60FB68002B01D1FF2304E0FB68002269
:10015000DA80FB681B791800BD4604B080BDC0463C
:1001600080B584B000AF0200FB1D1A70BB1D0A1CD5
:100170001A70FB1D1B78132B01D9012316E0FB1D00
:100180001B781A010B4BD318FB60FB685B790F22BD
:100190001340DBB2022B01D0012307E0BB1D1A780C
:1001A000FB681100180007F035FD03001800BD467C
:1001B00004B080BD3C0E002080B584B000AF0200CA
:1001C0003960FB1D1A70FB1D1B78132B04D93B688B
:1001D00001221A70002332E0FB1D1B781A011A4B12
:1001E000D318FB60FB685B790F221340DBB2022B54
:1001F00004D03B6801221A70002320E0134B1B78C7
:10020000DBB20133DAB2114B1A70FB68DB88012BC9
:100210000FD13B6800221A70FB681B68BB60FB684B
:1002200000221A60FB680022DA8001F057FBBB68ED
:1002300005E001F053FB3B680A221A700023180006
:10024000BD4604B080BDC0463C0E0020E10A00203F
:1002500080B588B000AFB9607A600F23FB18021C2C
:100260001A70544B1B78DBB2002B04D07B6803223E
:100270001A7000239AE00F23FB181B78132B04D964
:100280007B6801221A70002390E00F23FB181B7873
:100290001A01494BD318FB61FB695B790F221340AC
:1002A000DBB2022B04D07B6801221A7000237DE0B0
:1002B000424B1B78DBB2002B04D07B6815221A70EE
:1002C000002373E03D4B1B78DBB20133DAB23B4BCA
:1002D0001A70FB69DB88012B0FD17B6800221A7032
:1002E000FB691B68BB61FB6900221A60FB69002285
:1002F000DA8001F0F3FABB6958E001F0EFFA304B15
:100300001B687B61BB68002B1CD17A69FB691100FB
:10031000180007F0CBFC7B6800221A70274B1B7873
:10032000DBB20133DAB2254B1A707B691B69BB6102
:10033000FB690022DA807B6900221A6101F0CEFAA3
:10034000BB6933E01D4B1B78DBB20133DAB21B4BC8
:100350001A707A69FB691100180007F0A7FCBA68E7
:100360007B691100180003F0BBFD01F0B7FA7B694F
:100370001B69002B04D17B6805221A70002315E04D
:100380007B6800221A700D4B1B78DBB20133DAB2A6
:100390000A4B1A707B691B69BB61FB690022DA801A
:1003A0007B6900221A6101F099FABB691800BD4609
:1003B00008B080BDE00A00203C0E0020E10A0020C9
:1003C000980C002080B584B000AF02003960FB1D9E
:1003D0001A70FB1D1B78132B01D9012328E0FB1D8C
:1003E0001B781A01144BD318FB60FB685B790F2252
:1003F0001340DBB2022B01D0012319E0FB68DB883C
:10040000002B14D10D4B1B78DBB20133DAB20B4B4E
:100410001A70FB683A681A60FB680122DA80FB6890
:10042000180007F0C3FC01F059FA002300E007238D
:100430001800BD4604B080BD3C0E0020E10A00203B
:1004400080B582B000AF02003960FB1D1A700F4BFF
:100450001B78DBB2002B0CD03A68FB1D1B7819000F
:10046000022001F059FB031E01D1122309E00023F1
:1004700007E03A68FB1D1B7811001800FFF7A2FF88
:1004800003001800BD4602B080BDC046E10A00204E
:1004900080B582B000AF0200FB1D1A70064BFA1D3A
:1004A000127811001F220A40012191400A001A60AF
:1004B000C046BD4602B080BD00E100E0B0B582B0EC
:1004C00000AF02003960FB1D1A70FB1D1B787F2BEB
:1004D00032D92F4CFB1D1B781A000F231340083B09
:1004E00099082B4AFB1D1B7818000F230340083B7B
:1004F0009B0806339B00D31804331B68FA1D12783F
:10050000100003220240D200FF2090400200D2439C
:100510001A403B689B01FF201840FB1D1B781D0003
:1005200003232B40DB00984003001A438B1D9B00E4
:10053000E31804331A6027E0164CFB1D1B785BB2EE
:100540009B081449FA1D127852B29208C0329200E8
:100550005258F91D0978080003210140C900FF2005
:1005600088400100C94311403A689201FF201040C1
:10057000FA1D1278150003222A40D2009040020092
:100580000A43C0339B001A51C046BD4602B0B0BDFD
:1005900000ED00E000E100E080B500AF01F068F997
:1005A000664B9B690822134008D0644B0822DA612D
:1005B000634B644A1A60644B644A1A605F4B9B69E0
:1005C0002022134007D05D4B2022DA61604B9A78DD
:1005D00001210A439A70594B9B694022134041D034
:1005E0005C4B1B78002B2DD05B4B1B785B009B0575
:1005F0009A0D5A4B1A60594B1B688022D2001A433D
:10060000564B1A604E4B4F4A1A60534B5B781A0494
:10061000FF231B041A40514B1B681A434F4B1A60AF
:10062000464A4E4B1B685360444B444A52688021F3
:1006300089010A435A60474B1B78013BDAB2454BAC
:100640001A700FE03D4B3D4A52688021C9010A43B0
:100650005A603F4B5B78002B04D13D4B9A780121C7
:100660000A439A70354B9B690122134009D0334AE3
:10067000354B1B681B789362334B1B685A1C324BFB
:100680001A602E4B9B69042213400AD02C4B1A6827
:100690002A4B5B6ADBB21370294B1B685A1C284B30
:1006A0001A60264B9B690222134009D0234A264B2D
:1006B0001B681B789362244B1B685A1C224B1A60E0
:1006C0001E4B9B691022134005D01C4B1022DA618F
:1006D0001F4B01225A70194B9A698023DB0013408B
:1006E00008D0164B8022D200DA61194B1A78042107
:1006F0000A431A70114B9A6980239B00134008D05B
:100700000E4B80229200DA61114B1A7808210A43BD
:100710001A700A4B9A6980235B00134008D0074B7C
:1007200080225200DA610A4B1A7802210A431A70B9
:1007300001F0AAF8C046BD4680BDC0460054004046
:10074000B40F00204C0A0020B80F00202C0A002013
:10075000700A0020730A00206C0A0020740A00202E
:1007600080B500AF214B214AD269802189030A4319
:10077000DA611E4B1D4A1269802189030A431A61FE
:100780001A4B1A4A12691A490A401A61194B194A36
:10079000126801218A431A60164B174A1A61154BD9
:1007A000164A1A60134B00229A60124B14229A6068
:1007B000104B104A9268802109020A439A600D4B3F
:1007C0000C4A126801210A431A601720FFF760FEE5
:1007D00000211720FFF772FE044B044A126B102110
:1007E0008A431A63C046BD4680BDC0460010024021
:1007F000FFFFDFFF005400401C0E2000FE0F08002A
:1008000080B582B000AF0200FB1D1A702E4B1B7822
:10081000002B03D02C4B1B78022B01D900234FE077
:100820002A4B00221A702A4B2A4A1A602A4B1B783C
:100830005B009B059A0D294B1A60FB1D1B78012B51
:1008400009D1264B1B688022D2001A43234B1A6021
:10085000234B244A1A60204B5B78002B01D10023E4
:100860002EE01D4B5B781A04FF231B041A401B4B20
:100870001B681A43194B1A601B4A184B1B685360BC
:100880001A4B00221A8007E0184B1A88FA239B00A3
:100890009A4201D9002313E0134B9A6980231B026B
:1008A0001340F1D1104B104A5268802189010A434C
:1008B0005A60054B1B78013BDAB2034B1A700123D7
:1008C0001800BD4602B080BD730A0020700A0020E7
:1008D000B80F00202C0A00206C0A0020740A0020A7
:1008E000B40F00204C0A002000540040780A002079
:1008F00080B584B000AF0200BB1D1A800E23FB1828
:10090000BA1D12881A800E23FB180E22BA181288FC
:1009100012021A80BB1DBA1D1288120A1A800E23F9
:10092000FB180E22B918BA1D098812888A181A8075
:100930000E23FB181B881800BD4604B080BDC046BE
:1009400080B500AF00F094FF254A264B1100180037
:1009500006F0BEFD031E04D0234B1A7801210A4382
:100960001A701F4A1F4B1100180006F009FE1F4B9A
:100970000021180004F0E6FE1B4B5B78012B0ED122
:100980001A4B1B4ADA60184B00225A70174B5B68EF
:10099000DBB22022D31ADAB2164B1A700DE0134BD9
:1009A000154ADA60104B01225A70104B5B68DBB2BB
:1009B0002022D31ADAB20F4B5A700C4B20225A6005
:1009C0000A4B0121180004F0BDFE0C4B1B781800E7
:1009D00000F00CFE00F058FFC046BD4680BDC0468A
:1009E0001A010B0000380140C00A0020300002400C
:1009F0009E0A00207C0A00207E0A0020F80F0020BA
:100A000080B588B000AF7860264B264A9269802175
:100A1000C9010A439A61234B224AD2688021C90145
:100A20000A43DA601F4B1F4AD2681F490A40DA6046
:100A30000823FB187A681A600823FB1800225A6002
:100A40000823FB1800229A600823FB180022DA60B2
:100A50000823FB1800225A610823FB180C221A6194
:100A60000823FB18114A1900100005F071FF0F4B05
:100A70002321180006F0A2F90C4B0121180006F002
:100A80007DF90B49094B0122180006F079FC074B50
:100A9000064A126801210A431A60C046BD4608B0E2
:100AA00080BDC04600100240FFBFFFFF003801407C
:100AB0001A010B0080B500AF00F0DAFE0C4B0021EC
:100AC000180004F03FFE102004F0E4FE102004F0B3
:100AD00027FF084B1A7901218A431A71044B01211F
:100AE000180004F02FFE00F0CFFEC046BD4680BDCA
:100AF0001C000240C00A002080B582B000AF3B1D40
:100B00000A221A703B1D00225A703B1D01229A7066
:100B10003B1D180007F0FCF93B1D1B221A703B1D02
:100B200001225A703B1D01229A703B1D180007F0EC
:100B3000EFF9C046BD4602B080BDC04680B58CB05E
:100B400000AF3E4B180004F0D1FC3B1D3C4A1A603C
:100B50003C4A3B1D5A603B1D00229A603B1D2022EF
:100B6000DA603B1D00221A613B1D80225A613B1D49
:100B700000229A613B1D0022DA613B1D00221A62AD
:100B80003B1D802292015A623B1D00229A623B1D4E
:100B90002A4A1900100004F06DFD284B01211800AD
:100BA00004F0D0FD284B01225A70274B1A790121FD
:100BB0000A431A71254B180004F098FC3B1D244A87
:100BC0001A60244A3B1D5A603B1D10229A60224B3A
:100BD0005B781A003B1DDA603B1D00221A613B1D49
:100BE00080225A613B1D00229A613B1D0022DA617E
:100BF0003B1D00221A623B1D802252015A623B1D9E
:100C000000229A623B1D114A1900100004F032FDC7
:100C10000E4B01220221180004F0F0FD0B4B0121C4
:100C2000180004F08FFD0D4B0122C021180006F0C2
:100C300071FBC046BD460CB080BDC04630000240CE
:100C4000243801407E0A0020C00A00201C00024017
:100C50002838014002000020000000200038014038
:100C600080B582B000AF78600A00FB1C1A70254B7B
:100C700000221A8005E0234B1A88FA239B009A422F
:100C800007D8214B1B7901221340DBB2002BF2D194
:100C900000E0C0461B4B00221A8005E0194B1A8861
:100CA000FA239B009A4229D8184B9A6980231B0289
:100CB0001340F3D1144B1A7901210A431A71144BD2
:100CC0000021180004F03EFD202004F0B5FD031EB5
:100CD00007D0202004F0DEFD0E4B4021180006F066
:100CE000EBFB0B4B7A68DA60094BFA1C12785A60FE
:100CF000074B0121180004F025FD00E0C046BD4669
:100D000002B080BDC60A0020C00A00200054004086
:100D10001C0002400038014080B582B000AF78600E
:100D20002C4B1B780021180000F004FA2A4B1B788A
:100D3000002B47D0012B00D047E0284B00225A70EF
:100D4000254B1A79264B5A73264B1B78002B13D050
:100D5000234B254A9A60234B1A78214B1A73204B58
:100D6000224A1A6005F06AF81D4B1A791B4B5A701B
:100D70001C4B00221A7016E01A4B5B78002B12D025
:100D8000174B1B4A9A60174B5A78154B1A73144B22
:100D9000164A1A6005F052F8114B1A790F4B5A7027
:100DA000104B00225A700D4B5B78002B0CD00520A5
:100DB00003F070F9094B5A780C4B11001800FFF73B
:100DC0004FFF01E0C04600E0C046052003F062F995
:100DD000A6E7C046F80F0020EC0F0020000000201E
:100DE000DC0F00207C0A00207E0A00200200002088
:100DF0009E0A002080B584B000AF0200FB1D1A706F
:100E0000BB1D0A1C1A70294B1B78DBB20133DAB206
:100E1000264B1A700F23FB1800221A7039E0244B5E
:100E20009B680F22BA181278012191400A001340E2
:100E300028D11F4B9B680F22BA18127801219140CC
:100E40000A001A431A4B9A60194B1B68BA1D117895
:100E50000F22BA18127891400A001A43144B1A60F4
:100E6000134B5B68FA1D11780F22BA181278914063
:100E70000A001A430E4B5A6000F030FD0F23FB1896
:100E80001B780EE00F23FB181A780F23FB18013292
:100E90001A700F23FB181B781F2BC0D900F01EFD02
:100EA000FF231800BD4604B080BDC046E10A002003
:100EB000C80A002080B584B000AF0200FB1D1A7084
:100EC000BB1D0A1C1A70444BBB60444B1B78DBB241
:100ED000002B01D003237BE0BB689B68FA1D1278CE
:100EE000012191400A00134001D1012370E03C4BE5
:100EF0001B78DBB20133DAB2394B1A70BB68DB689E
:100F0000FB603EE0FB689B68FA1D1278012191406E
:100F10000A00134032D0BB1D1B78002B03D100F018
:100F2000DDFC042354E0BB1D1B78012B26D1FB689C
:100F30001B7C002B1BD1FB689B68FA1D12780121DA
:100F400091400A00934206D1FB68180000F0AEFB06
:100F50000300FB6015E0FB689B68FA1D1278012115
:100F600091400A00D2431A40FB689A6006E0FB6891
:100F7000180000F09BFB0300FB6002E0FB681B68AD
:100F8000FB60FB68002BBDD1BB689B68FA1D127823
:100F9000012191400A00D2431A40BB689A60BB68A5
:100FA0001B68FA1D1278012191400A00D2431A40B1
:100FB000BB681A60BB685B68FA1D1278012191401A
:100FC0000A00D2431A40BB685A6000F087FC002335
:100FD0001800BD4604B080BDC80A0020E00A002009
:100FE000E10A002080B584B000AF0200FB1D1A703A
:100FF0001C4BFB60FB1D1B781F2B01D901232DE02F
:10100000FB689B68FA1D1278012191400A00134089
:1010100001D1012322E0FB681B68FA1D127801212F
:1010200091400A00134018D00F4B1B78DBB20133FC
:10103000DAB20D4B1A70FB681A680A4B5B68F91D2F
:1010400009780120884001000B40DB431A40FB680F
:101050001A6000F043FC002300E00C231800BD469A
:1010600004B080BDC80A0020E10A002080B586B027
:1010700000AFF8607A600B23FB180A1C1A702B4B28
:101080007B617B699B68FA681A40FB689A4204D0CE
:101090007B6802221A70002344E07B691B68FA68AF
:1010A00013403B61224B1B78DBB20133DAB2204B99
:1010B0001A703B69002B15D00B23FB181B78012BF2
:1010C00010D17B691A687B695B6839690B40DB4327
:1010D0001A407B691A6000F001FC7B6800221A70DC
:1010E0003B691FE03A69FB689A4215D10B23FB1854
:1010F0001B78002B10D17B691A687B695B683969A2
:101100000B40DB431A407B691A6000F0E7FB7B6809
:1011100000221A703B6905E000F0E0FB7B680C22BE
:101120001A7000231800BD4606B080BDC80A002012
:10113000E10A002080B58AB000AF02003960FB1DD3
:101140001A70594B1B78DBB2002B01D00323A6E0A9
:10115000564B1B78DBB2002B01D015239FE0FB1D03
:101160001B781F2B01D9012399E0514B9B68FA1D75
:101170001278012191400A00134001D101238EE031
:101180004A4B1B78DBB20133DAB2484B1A70484B3A
:101190007B627B6A1B68FA1D1278012191400A006C
:1011A000134010D07B6A1A687B6A5B68F91D097866
:1011B0000120884001000B40DB431A407B6A1A6023
:1011C00000F08CFB6AE03B4B1B683B623B68002BEA
:1011D0002FD1FB1D1B7801229A40130019000C230C
:1011E000FB180222180000F025FA3B6A02225A710D
:1011F000314B01221A7000F071FB3B6A0022DA6168
:101200002A4B1B78DBB20133DAB2284B1A707B6AA7
:101210001A68FB1D1B78012199400B0019007B6A9D
:101220005B680B40DB431A407B6A1A6000F056FB98
:1012300034E0FB1D1B7801229A40130019000C2397
:10124000FB180222180000F0F5F93A683B6A110019
:10125000180002F045FE00F041FB3B6ADB69002B01
:1012600001D105231BE03B6A0022DA610F4B1B789A
:10127000DBB20133DAB20D4B1A707B6A1A68FB1DC0
:101280001B78012199400B0019007B6A5B680B40B9
:10129000DB431A407B6A1A6000F020FB0023180031
:1012A000BD460AB080BDC046E00A0020E10A002029
:1012B000C80A0020980C0020E20A002080B58CB0FB
:1012C00000AFF8607A603B600B23FB180A1C1A70B1
:1012D0006A4B1B78DBB2002B04D03B6803221A70E8
:1012E0000023C6E0664B1B78DBB2002B04D03B68C2
:1012F00015221A700023BCE0624B9B68FA681A4002
:10130000FB689A4204D03B6802221A700023B0E0C6
:101310005B4B1B78DBB20133DAB2594B1A70594B75
:10132000FB62FB6A1B68FA681340BB62BB6A002B56
:1013300015D00B23FB181B78012B10D1FB6A1A6800
:10134000FB6A5B68B96A0B40DB431A40FB6A1A60B0
:1013500000F0C4FA3B6800221A70BB6A89E0BA6ADE
:10136000FB689A4215D10B23FB181B78002B10D178
:10137000FB6A1A68FB6A5B68B96A0B40DB431A4078
:10138000FB6A1A6000F0AAFA3B6800221A70BB6A76
:101390006FE03D4B1B687B627B68002B30D10B23D9
:1013A000FB181A78F9681023FB18180000F042F9AE
:1013B0007B6A02225A71354B01221A7000F08EFAB4
:1013C0007B6A0022DA612E4B1B78DBB20133DAB282
:1013D0002B4B1A70FB6A1B68FA681340BB62FB6AEE
:1013E0001A68FB6A5B68B96A0B40DB431A40FB6A08
:1013F0001A6000F073FA3B6800221A70BB6A38E08A
:101400000B23FB181A78F9681023FB18180000F05A
:1014100011F97A687B6A1100180002F061FD00F092
:101420005DFA7B6ADB69002B04D13B6805221A70E8
:1014300000231EE07B6A0022DA61114B1B78DBB2CD
:101440000133DAB20E4B1A700E4B1B68FA68134068
:10145000BB62FB6A1A68FB6A5B68B96A0B40DB43D4
:101460001A40FB6A1A6000F039FA3B6800221A70D1
:10147000BB6A1800BD460CB080BDC046E00A002023
:10148000E10A0020C80A0020980C0020E20A00208F
:1014900080B584B000AF0200FB1D1A70114BFB60D9
:1014A000FB1D1B781F2B01D9012316E0FB689B68ED
:1014B000FA1D1278012191400A00134001D1012345
:1014C0000BE0FB681B68FA1D1278012191400A00AD
:1014D000D2431A40FB681A6000231800BD4604B0CE
:1014E00080BDC046C80A002080B584B000AF0200AD
:1014F000FB1D1A703B4BBB60FB1D1B781F2B01D9DA
:1015000001236AE0BB689B68FA1D127801219140B3
:101510000A00134001D101235FE0BB681B68FA1D7C
:101520001278012191400A00134001D0002354E0B9
:10153000BB681B68FA1D1278012191400A001A430A
:10154000BB681A60284B1B78DBB20133DAB2264B3A
:101550001A70BB68DB68FB6035E0FB681B7C002B06
:1015600018D1FB689A68BB681B681A40FB689B68C7
:101570009A4225D1FB68180000F098F80300FB6040
:10158000BB685B68FA1D1278012191400A00134084
:101590001DD118E0FB689A68BB681B6813400FD028
:1015A000FB68180000F082F80300FB60BB685B6812
:1015B000FA1D1278012191400A00134009D102E07E
:1015C000FB681B68FB60FB68002BC6D102E0C046CD
:1015D00000E0C04600F082F900231800BD4604B0C8
:1015E00080BDC046C80A0020E10A002080B582B054
:1015F00000AF0200FB1D1A700D4B1B78DBB2002BF5
:101600000CD0FB1D1B7800221900032000F084FA87
:10161000031E01D1122307E0002305E0FB1D1B7808
:101620001800FFF761FF03001800BD4602B080BD3F
:10163000E10A002080B586B000AFF860B960FB1DFC
:101640001A70184B7B61184B1B68FA68DA61164BED
:101650001A68FB68DA60FB68BA689A60FB68FA1D72
:1016600012781A747B691B69002B09D1FB68002270
:101670001A60FB6800225A607B69FA68DA600AE047
:101680007B691B69FA681A607B691A69FB685A6092
:10169000FB6800221A607B69FA681A61C046BD4681
:1016A00006B080BDC80A0020980C002080B584B028
:1016B00000AF78607B68180000F024F87B68DB6876
:1016C000FB60FB681B6A013303D0FB68180002F063
:1016D0007DFCFB6801225242DA61094B1B68FA6803
:1016E0009A4203D1FB6801225A7103E0FB6818009B
:1016F00001F084FA7B681B681800BD4604B080BD09
:10170000980C002080B582B000AF78607B681B68C1
:10171000002B0AD17B685B68002B06D1194B002295
:10172000DA60184B00221A6123E07B681B68002BEB
:1017300008D17B685A68134B1A617B685B6800228A
:101740001A6016E07B685B68002B08D17B681A681A
:101750000C4BDA607B681B6800225A6009E07B68EA
:101760001B687A6852685A607B685B687A6812689E
:101770001A607B68DB680022DA61C046BD4602B0B1
:1017800080BDC046C80A002080B584B000AF786034
:101790000A4B1B68002B02D1084B094A1A60074B01
:1017A0001B68FB60054B1A687B68D218034B1A60F4
:1017B000FB681800BD4604B080BDC046DC0A0020AE
:1017C0000016002080B582B000AF78603960012338
:1017D0005B421800BD4602B080BDC04680B582B0F5
:1017E00000AF786001235B421800BD4602B080BDA7
:1017F00080B582B000AF786039603B68802292018A
:101800005A6000231800BD4602B080BD80B582B08A
:1018100000AF786001231800BD4602B080BDC0460D
:1018200080B584B000AFF860B9607A60002318001A
:10183000BD4604B080BDC04680B584B000AFF8603E
:10184000B9607A607B681800BD4604B080BDC046B0
:1018500080B584B000AFF860B9607A607B6818002A
:10186000BD4604B080BDC04680B500AFFEE7C046AF
:1018700080B500AF034B180005F0BAFFC046BD4667
:1018800080BDC046E00A002080B500AF104B1800B4
:1018900005F0C2FF0E4B1B78DBB2002B14D10D4BB1
:1018A0001B78DBB2012B0FD10B4B1B78DBB2013362
:1018B000DAB2094B1A7001F063FB074B1B78DBB2FD
:1018C000013BDAB2044B1A70C046BD4680BDC0462B
:1018D000E00A0020E20A0020E10A002080B500AF03
:1018E0000F4B1B78DBB2012B10D10E4B1B78012B59
:1018F00001D100F05DF90C4B1B78DBB2012B01D15B
:1019000001F03EFB064B00221A7006E0044B1B78E8
:10191000DBB2013BDAB2024B1A70C046BD4680BD55
:10192000E10A00201C0B0020E20A002080B500AF75
:10193000044B1B78DBB20133DAB2024B1A70C0469B
:10194000BD4680BDE10A002080B500AFFFF7C6FFAD
:10195000C046BD4680BDC04680B500AF174B184A93
:101960001A60184B07221A60174B174A1268FF219A
:1019700009060A431A60154B144A126814490A43AF
:101980001A6001F0FDF806F085F802F047F8114BF7
:101990001B78DBB20133DAB20E4B1A700E49CA2340
:1019A0005A010E480B00002101F0BEFB0A4B180043
:1019B00005F052FFC046BD4680BDC04614E000E0C1
:1019C0007FBB000010E000E01CED00E020ED00E037
:1019D0000000FFFFE10A0020880C00203980000889
:1019E00080B500AF0A4B0B4A1A60094B1A680A4BC4
:1019F0001A60074B1B6801225A71054B1B681800BF
:101A000001F084F9FFF76AFFC046BD4680BDC046BD
:101A1000980C0020200B0020940C002080B500AF13
:101A20008B235B001800BD4680BDC04680B586B0E4
:101A300000AFF860B9607A607B687B617B691A1FD0
:101A40007A61802252041A607B691A1F7A61FA68EF
:101A50001A607B69022252421A607B69143B7B61E7
:101A6000BA687B691A607B69203B7B617B691800DF
:101A7000BD4606B080BDC046B0B500AF214B1B7857
:101A8000DBB20133DAB21F4B1A701F4B5C681B6864
:101A9000012100225B1854411B4A136054601B4B08
:101AA0001B68002B10D0194B1B681B6A012B05D932
:101AB000164B1B681A6A013A1A6205E0134B1B6841
:101AC00000221A6202F004FC114B1B68002B10D09C
:101AD0000F4B1B685B68012B05D90D4B1B685A68BF
:101AE000013A5A6005E00A4B1B6800225A6004F074
:101AF00081FE084B01221A70FFF7F0FEC046BD467A
:101B0000B0BDC046E10A0020E80A00207C0D00209C
:101B1000340E0020E20A002090B585B000AF3A6094
:101B2000FB1D021C1A70BB1D0A1C1A7005F08EFEEC
:101B30001D4B1B78042B03D905F082FE00232EE0F9
:101B40000F23FC18184B180005F052FE03002370F9
:101B50000E23FB18144A52781A70144B01221A7083
:101B60000F23FB181A780E23FB181B78D3180521B6
:101B7000180006F0DFFB0B00DA000B4BD318043320
:101B8000BB60BB68FA1D12781A70BB68BA1D127868
:101B90005A70BB683A685A6005F052FE012318007B
:101BA000BD4605B090BDC046F00A00201C0B0020C9
:101BB00080B582B000AF394B1B78012B04D102F005
:101BC00049FB364B00221A70354B1B78012B51D143
:101BD00004F0D4FD324B00221A704BE005F036FEC3
:101BE000304B5B7838002F4ADB000421D3185A1899
:101BF000030003CA03C32B4B5B7801330521180094
:101C000006F098FB0B00DAB2264B5A70254B1B7876
:101C1000013BDAB2234B1A7005F012FE3B001B7831
:101C2000022B0ED002DC012B05D022E0032B11D0B9
:101C3000042B15D01DE03B005B78180001F09AFDE5
:101C400018E03B005A783B005B6819001000FEF773
:101C5000B9FB0FE03B005B781800FFF745FC09E09B
:101C60003B005A783B005B681900100002F09CFDB5
:101C700000E0C0460B4B1B78002BAFD105F0E6FD12
:101C8000084B1B78002B02D1074B00221A7005F07D
:101C9000D7FDC046BD4602B080BDC0461D0B00202A
:101CA0001E0B0020F00A00201C0B002080B582B023
:101CB00000AF0200FB1D1A70064BFA1D12781100CE
:101CC0001F220A40012191400A001A60C046BD4609
:101CD00002B080BD00E100E0B0B582B000AF02000C
:101CE0003960FB1D1A70FB1D1B787F2B32D92F4CDE
:101CF000FB1D1B781A000F231340083B99082B4A41
:101D0000FB1D1B7818000F230340083B9B0806337C
:101D10009B00D31804331B68FA1D127810000322AD
:101D20000240D200FF2090400200D2431A403B689C
:101D30009B01FF201840FB1D1B781D0003232B4037
:101D4000DB00984003001A438B1D9B00E31804330B
:101D50001A6027E0164CFB1D1B785BB29B081449E8
:101D6000FA1D127852B29208C03292005258F91DF0
:101D70000978080003210140C900FF2088400100C4
:101D8000C94311403A689201FF201040FA1D1278B1
:101D9000150003222A40D200904002000A43C033BB
:101DA0009B001A51C046BD4602B0B0BD00ED00E038
:101DB00000E100E080B500AFFFF75AFD144B1B882F
:101DC000144A934205D8124B1B8801339AB2104B28
:101DD0001A80114B1B880F4A934205D80E4B1B8863
:101DE00001339AB20C4B1A800C4B1B88094A934260
:101DF00005D80A4B1B8801339AB2084B1A80084B4E
:101E0000022252421A82FFF73FFDC046BD4680BD06
:101E1000780A00201F4E0000AA0D0020C60A0020EC
:101E20000010004080B500AF174B174AD26910214F
:101E30000A43DA61144B144A126910210A431A61E9
:101E4000114B114A126910218A431A610F4B8422E7
:101E50001A800E4B01229A810C4B0D4A1A850B4BAE
:101E60002722DA62094A094B1B889BB201210B43E6
:101E70009BB213801120FFF719FF00211120FFF7FB
:101E80002BFFC046BD4680BD001002400010004040
:101E9000AF04000080B500AF1A4B1A4A1268012146
:101EA0000A431A60174B174A526817490A405A608A
:101EB000144B144A126815490A401A60114B114A12
:101EC000126813490A401A600E4B0E4A52681149B3
:101ED0000A405A600B4B0B4AD26A0F218A43DA62DE
:101EE000084B084A126B0C490A401A63054B054A15
:101EF000526B01218A435A63024B00229A60C0460A
:101F0000BD4680BD001002400CB8FF08FFFFF6FE82
:101F1000FFFFFBFFFFFFC0FFACFEF0FF80B582B00C
:101F200000AF0200FB1D1A70054B00221A70044A14
:101F3000FB1D1B781370C046BD4602B080BDC04675
:101F40000210024090B583B000AF00233B60FB1D40
:101F500000221A70BB1D00221A70BC1D112000F057
:101F60005DFD030023703B6801333B603A68A023AA
:101F7000DB019A4203D0BB1D1B78002BEDD0112052
:101F800000F04CFD031E03D0FB1D01221A7002E07D
:101F9000FB1D00221A70FB1D1B781800BD4603B004
:101FA00090BDC04680B584B000AF0200FB1D1A7022
:101FB0000023FB60094B1B68FB60FB68F82293431E
:101FC000FB60FB1D1B78DB00FA681343FB60034BCF
:101FD000FA681A60C046BD4604B080BD00100240D9
:101FE00080B582B000AF0200FB1D1A70FB1D1B788C
:101FF000002B06D0084B084A126801210A431A60D8
:1020000005E0054B044A126801218A431A60C04664
:10201000BD4602B080BDC0460010024080B584B00D
:1020200000AF0200FB1D1A700023FB60094B5B6BC5
:10203000FB60FB68F8229343FB60FB1D1B78DB0011
:10204000FA681343FB60034BFA685A63C046BD4607
:1020500004B080BD0010024080B582B000AF020025
:10206000FB1D1A70FB1D1B78002B06D0084B084A7D
:10207000526B01210A435A6305E0054B044A526B37
:1020800001218A435A63C046BD4602B080BDC046A6
:102090000010024080B582B000AF0200FB1D1A7034
:1020A000FB1D1B78002B06D0084B084A526B0421FD
:1020B0008A435A6305E0054B044A526B04210A43E4
:1020C0005A63C046BD4602B080BDC0460010024003
:1020D00080B582B000AF78600A4B0A4A126A0121CB
:1020E0008A431A62074B074A126A04218A431A621A
:1020F000044B044A116A7A680A431A62C046BD4614
:1021000002B080BD0010024080B582B000AF7860A0
:10211000074B074A126A18218A431A62044B044A81
:10212000116A7A680A431A62C046BD4602B080BD91
:102130000010024080B582B000AF0200FB1D1A7093
:10214000FB1D1B78002B06D0084B084A526A012160
:102150000A435A6205E0054B044A526A01218A4348
:102160005A62C046BD4602B080BDC0460010024063
:1021700080B582B000AF78603960094B084A526878
:1021800008490A405A60064B054A516878683A681F
:1021900002430A435A60C046BD4602B080BDC046F5
:1021A00000100240FF7FC2FF80B582B000AF020086
:1021B000FB1D1A70FB1D1B78002B07D0084B084A2B
:1021C0001268802149040A431A6005E0044B044A5E
:1021D000126804490A401A60C046BD4602B080BD7C
:1021E00000100240FFFFFFFE80B582B000AF02008A
:1021F000FB1D1A70FB1D1B78002B07D0084B084AEB
:10220000526B802149020A435A6305E0044B044A99
:10221000526B04490A405A63C046BD4602B080BDB5
:1022200000100240FFFFFEFF80B584B000AF786071
:102230000023FB60084BDB6AFB60FB680F229343C3
:10224000FB60FA687B681343FB60034BFA68DA6251
:10225000C046BD4604B080BD0010024080B582B0CB
:1022600000AF0200FB1D1A70FB1D1B78002B07D06E
:10227000084B084A1268802109030A431A6005E0E6
:10228000044B044A126804490A401A60C046BD461D
:1022900002B080BD00100240FFFFF7FF80B584B0A0
:1022A00000AF02003960FB1D1A700023FB600B4B6E
:1022B0005B68FB60FB681B021B0AFB60FB1D1B7855
:1022C0001A063B681343FA681343FB60034BFA6832
:1022D0005A60C046BD4604B080BDC04600100240F2
:1022E00080B584B000AF78600023FB60084B5B686A
:1022F000FB60FB6803229343FB60FA687B6813432F
:10230000FB60034BFA685A60C046BD4604B080BD0E
:102310000010024080B500AF044B5B68DBB20C22BA
:102320001340DBB21800BD4680BDC046001002401D
:1023300080B584B000AF78600023FB60084B5B6819
:10234000FB60FB68F0229343FB60FA687B681343F1
:10235000FB60034BFA685A60C046BD4604B080BDBE
:102360000010024080B584B000AF78600023FB60AD
:10237000084B5B68FB60FB68074A1340FB60FA6828
:102380007B681343FB60034BFA685A60C046BD4646
:1023900004B080BD00100240FFF8FFFF80B582B09E
:1023A00000AF78600F4B0F4A52680F490A405A60DD
:1023B0000C4B0C4A51687A681204120C0A435A609A
:1023C000084B084A126B09490A401A63054B054A33
:1023D000116B7A68120C0A431A63C046BD4602B0FC
:1023E00080BDC04600100240FFBFFFFFFFFEFFFFA1
:1023F00080B582B000AF7860074B074A126B40216E
:102400008A431A63044B044A116B7A680A431A63BD
:10241000C046BD4602B080BD0010024080B582B00B
:1024200000AF7860074B074A126B10218A431A638A
:10243000044B044A116B7A680A431A63C046BD46CE
:1024400002B080BD0010024080B584B000AF78605B
:102450000023FB607B681B0FFB60FB68012B06D130
:10246000104B104A126B03218A431A630FE0FB687A
:10247000022B06D10B4B0B4A126B0B490A401A6315
:1024800005E0084B074A126B08490A401A63054BDE
:10249000044A116B7A680A431A63C046BD4604B009
:1024A00080BDC04600100240FFFFFCFFFFFFF3FFAE
:1024B00080B582B000AF7860074B074A126B80216D
:1024C0008A431A63044B044A116B7A680A431A63FD
:1024D000C046BD4602B080BD0010024080B588B045
:1024E00000AF78600023BB6100237B6100233B6168
:1024F0000023FB600023BB600023FB61A44B5B68EF
:102500000C221340BB61BB69042B0CD002D8002BFA
:1025100005D03BE0082B0AD00C2B33D036E07B688B
:102520009C4A1A6036E07B689A4A1A6032E0984BFF
:102530005A68F0239B0313407B61954B5A68C02374
:102540005B0213403B617B699B0C02337B613B69FF
:10255000002B04D17B69904A5343FB610EE08C4B06
:10256000DB6A0F2213400133FB60F968894805F0EC
:1025700071FD03001A007B695343FB617B68FA69B4
:102580001A6007E07B68854A1A6003E07B68814A2D
:102590001A60C0467E4B5B68F0221340BB61BB698A
:1025A0001B09BB617E4ABB69D3181B78DBB2BB60D9
:1025B0007B681A68BB68DA407B685A60744B5A685B
:1025C000E023DB001340BB61BB691B0ABB61744A9B
:1025D000BB69D3181B78DBB2BB607B685A68BB68E9
:1025E000DA407B689A606A4B1A6B80235B00134069
:1025F00003D17B686B4ADA6010E0654B5A68802330
:10260000DB01134005D17B689B685A087B68DA6060
:1026100004E07B689B689A087B68DA605C4B1B6B04
:102620004022134003D17B685F4A1A6103E07B6854
:10263000802212021A61564B1B6B1022134003D1E9
:102640007B68544A5A6103E07B681A687B685A6168
:102650004F4B1B6B0322134004D17B689A687B6845
:102660009A611EE04A4B1B6B03221340012B04D1DD
:102670007B681A687B689A6113E0454B1B6B0322E9
:102680001340022B04D17B68802212029A6108E079
:102690003F4B1B6B03221340032B02D17B683D4A47
:1026A0009A613B4B1A6BC0239B02134004D17B6899
:1026B0009A687B68DA6127E0354B1A6BC0239B026E
:1026C0001A4080235B029A4204D17B681A687B68B7
:1026D000DA6119E02E4B1A6BC0239B021A4080234B
:1026E0009B029A4204D17B6880221202DA610BE0DD
:1026F000274B1A6BC0239B021A40C0239B029A42AD
:1027000002D17B68234ADA61214B1A6BC0231B0379
:10271000134004D17B689A687B681A6227E01C4BDF
:102720001A6BC0231B031A408023DB029A4204D198
:102730007B681A687B681A6219E0154B1A6BC02314
:102740001B031A4080231B039A4204D17B6880221A
:1027500012021A620BE00E4B1A6BC0231B031A40C5
:10276000C0231B039A4202D17B680A4A1A62084BB3
:102770001B6B8022134003D17B68084A5A6202E037
:102780007B68FA695A62C046BD4608B080BDC04643
:102790000010024000127A0000093D00006CDC02CB
:1027A00024000020809FD5001280000080B582B0F8
:1027B00000AF7860044B044A116A7A680A431A62CF
:1027C000C046BD4602B080BD0010024080B582B058
:1027D00000AF0200FB1D1A70FB1D1B78002B07D0F9
:1027E000084B084A126A802109020A431A6205E06E
:1027F000044B044A126A04490A401A62C046BD46A4
:1028000002B080BD00100240FF7FFFFF80B582B0A4
:1028100000AF0200FB1D1A70FB1D1B78002B07D0B8
:10282000084B084A126A802149020A431A6205E0ED
:10283000044B044A126A04490A401A62C046BD4663
:1028400002B080BD00100240FFFFFEFF80B582B0E5
:1028500000AF78600A00FB1C1A70FB1C1B78002B71
:1028600006D0094B084A51697A680A435A6106E062
:10287000054B054A52697968C9430A405A61C04606
:10288000BD4602B080BDC0460010024080B582B097
:1028900000AF78600A00FB1C1A70FB1C1B78002B31
:1028A00006D0094B084A91697A680A439A6106E0A2
:1028B000054B054A92697968C9430A409A61C04646
:1028C000BD4602B080BDC0460010024080B582B057
:1028D00000AF78600A00FB1C1A70FB1C1B78002BF1
:1028E00006D0094B084AD1697A680A43DA6106E0E2
:1028F000054B054AD2697968C9430A40DA61C04686
:10290000BD4602B080BDC0460010024080B582B016
:1029100000AF78600A00FB1C1A70FB1C1B78002BB0
:1029200006D0094B084A916A7A680A439A6206E01F
:10293000054B054A926A7968C9430A409A62C046C3
:10294000BD4602B080BDC0460010024080B582B0D6
:1029500000AF78600A00FB1C1A70FB1C1B78002B70
:1029600006D0094B084AD1687A680A43DA6006E063
:10297000054B054AD2687968C9430A40DA60C04607
:10298000BD4602B080BDC0460010024080B582B096
:1029900000AF78600A00FB1C1A70FB1C1B78002B30
:1029A00006D0094B084A11697A680A431A6106E0A1
:1029B000054B054A12697968C9430A401A61C04645
:1029C000BD4602B080BDC0460010024080B582B056
:1029D00000AF0200FB1D1A70BB1D0A1C1A70BB1D44
:1029E0001B78002B09D00C490B4B1B78DAB2FB1D6E
:1029F0001B781343DBB20B700AE00749064B1B78C8
:102A0000DBB2FA1D1278D243D2B21340DBB20B70A4
:102A1000C046BD4602B080BD0910024080B586B0F8
:102A200000AF0200FB1D1A700023FB6000237B61D6
:102A30001323FB1800221A70FB1D1B785B09DBB205
:102A4000FB60FB68002B03D1184B1B687B6110E017
:102A5000FB68012B03D1154B1B6A7B6109E0FB6806
:102A6000022B03D1114B5B6A7B6102E00F4B5B6B66
:102A70007B61FB1D1B781F221340FB607A69FB689A
:102A8000DA4013000122134004D01323FB18012263
:102A90001A7003E01323FB1800221A701323FB188B
:102AA0001B781800BD4606B080BDC046001002402D
:102AB00080B500AF044B044A526A802149040A439E
:102AC0005A62C046BD4680BD0010024080B584B049
:102AD00000AF0200FB1D1A700F23FB1800221A70B2
:102AE0000A4B9B68FA1D1278134004D00F23FB1881
:102AF00001221A7003E00F23FB1800221A700F2323
:102B0000FB181B781800BD4604B080BD00100240C1
:102B100080B582B000AF0200FB1D1A70034AFB1D96
:102B20001B781370C046BD4602B080BD0A1002403B
:102B30000C488546002103E00B4B5B5843500431A1
:102B40000A480B4B42189A42F6D30A4A02E0002385
:102B500013600432084B9A42F9D304F029FD04F0C3
:102B6000D7FEFEE7002000205CEA000800000020FD
:102B7000100A0020100A002000160020FEE70000C6
:102B800080B584B000AF1A4BBB601A4B7B600F233B
:102B9000FB1800221A7017E0BB680F22BA181278CF
:102BA0009A71BB6803225A71BB687A685A62BB6823
:102BB0002C33BB607B682C337B600F23FB181A78A7
:102BC0000F23FB1801321A700F23FB181B78042BFC
:102BD000E2D9BB680F22BA1812789A71BB6800223A
:102BE0005A62054B024A1A60C046BD4604B080BD19
:102BF000200B00204C0B00208C0C0020F0B587B07F
:102C000000AF78600F23FB187A6812791A707B681E
:102C100000225A71384B1B683B613B691B790F22BC
:102C2000BA1812789A421ED13A697B689A421AD031
:102C30003B69002B17D0314B5C681B68304A116828
:102C40005268A24202D80ED199420CD93B695B89E5
:102C50001D0000231E002A4B5C681B685B19744131
:102C6000264A13605460274B1B683B613B69002B6D
:102C700006D1254B01221A70224B7A681A6037E080
:102C80003B691B790F22BA1812789A420CD21E4B5C
:102C900001221A707B683A695A623B697A689A62C3
:102CA000184B7A681A6023E03B695B6A7B610BE032
:102CB0007B691B790F22BA1812789A4208D37B6974
:102CC0003B617B695B6A7B617B69002BF0D100E033
:102CD000C0467B687A695A623B697A685A627B6847
:102CE0003A699A627B69002B02D07B697A689A62A2
:102CF000C046BD4607B0F0BD980C0020A00C0020D7
:102D0000E80A0020900C0020E20A002080B582B082
:102D100000AF78607B685B6A002B07D17B689B6A99
:102D2000002B03D1194B00221A602BE07B689B6AB1
:102D3000002B0BD17B685A6A144B1A607B68002207
:102D40005A62124B1B6800229A621BE07B685B6A26
:102D5000002B07D17B689B6A00225A627B680022A5
:102D60009A620FE07B689B6A7A68526A5A627B6853
:102D70005B6A7A68926A9A627B6800225A627B6810
:102D800000229A62C046BD4602B080BD900C002071
:102D900080B586B000AF0200FB1D1A70BB1D0A1C77
:102DA0001A70FB1D1B78002B01D11423D7E0FB1DEB
:102DB0001B78052B01D90123D1E0FB1D1B782C22A8
:102DC0005A43694BD3187B617B695B79032B01D133
:102DD0000123C4E0BB1D1B78402B01D90123BEE0B9
:102DE0007B691B79BA1D12789A4200D1B6E07B69E3
:102DF000DB79FF2B17D07B69DB79DA005B4BD318CB
:102E0000FB60FB689A787B699B799A420BD1FB68DF
:102E1000BA1D12781A707B691B79BA1D12789A4212
:102E200001D900239BE07B69BA1D12781A717B6976
:102E30005B79002B11D14E4B1B78DBB20133DAB238
:102E40004B4B1A707B691800FFF760FF7B69180015
:102E5000FFF7D4FEFEF742FD80E07B695B79012B32
:102E600014D17B691A79434B1B681B799A4200D8AD
:102E700074E03F4B1B78DBB20133DAB23C4B1A7083
:102E80003D4B01221A70FEF729FD67E07B69DB7973
:102E9000FF2B41D0364B1B78DBB20133DAB2344B17
:102EA0001A707B69DB79DA00304BD318FB60FB6862
:102EB0005B687B611323FB18FA6812781A70FB6851
:102EC0009A78FB68DA7012E07B691B791322BA18D2
:102ED00012789A4208D91323FB187A6912791A706A
:102EE0007B699A79FB68DA707B695B6A7B617B69D5
:102EF000002BE9D1FEF7F2FCFB681B781322BA180D
:102F000012789A4208D0FB689A781323FB181B7832
:102F100019001000FFF73CFFFB1D1B782C225A43C1
:102F2000114BD3187B617B691B7AFF2B16D07B6911
:102F30001B7A1A01114BD318BB60BB685B790F2257
:102F40009343DBB2202B09D17B69180004F094FF76
:102F50007A69BB681100180004F0A8FE002318006D
:102F6000BD4606B080BDC046200B0020B00D00203D
:102F7000E10A0020900C0020E20A00203C0E002014
:102F8000F0B585B000AF4C4B1B68FB604B4B1B682A
:102F9000BB60BB68002B00D188E0494B1B68FA6816
:102FA0009A4200D082E0474B1B78DBB2012B00D95C
:102FB0007CE0454B1B78DBB2002B00D076E0434B26
:102FC00000221A70FB1DFA6812791A70BB1DBA68CC
:102FD00012791A70FB685B79012B0AD0384BBA68FA
:102FE0001A60BB6801225A71BB681800FFF78EFE99
:102FF00032E0BA1DFB1D12781B789A420ED2304B7C
:10300000BA681A60FB681800FFF7F8FDBB68180083
:10301000FFF77CFEBB6801225A711DE0FA1DBB1D43
:1030200012781B789A4243D1294B19685A68294B68
:103030005C681B6899423BD1A24239D1204BBA68E7
:103040001A60FB681800FFF7D9FDBB681800FFF78E
:103050005DFEBB6801225A71194B1B681A79174B28
:103060001B681B799A420DD1154B1B685B891D00AB
:1030700000231E00174B5C681B685B197441144ADF
:1030800013605460FB681A68FB68DB689A4205D3DA
:10309000FB68DB681B68104A934204D0FB689B798D
:1030A000180004F0CFFF04F0DDFB02E0C04600E0B2
:1030B000C046BD4605B0F0BD980C0020900C002025
:1030C000940C0020E10A0020E00A0020E20A00201F
:1030D000A00C0020E80A0020A5A55A5A80B582B0AD
:1030E00000AF0F4B1B78DBB20133DAB20C4B1A7016
:1030F0000C4B1B68002B03D1FEF7F0FB00230AE00A
:10310000084B1B687B60074B1B685A6A054B1A60AB
:10311000FEF7E4FB7B681800BD4602B080BDC046E8
:10312000E10A00208C0C002080B588B000AFF86068
:10313000B9607A603B607B681B0A9AB21C23FB185B
:103140001205120D1A801B23FB187A681A70FB688F
:10315000002B01D1FF2383E03B68002B01D1FF232B
:103160007EE01B23FB181B78402B01D9FF2377E05F
:103170001C23FB181B88132B01D8FF2370E03A682F
:10318000B968FB681800FEF751FC03007B61FFF78C
:10319000A5FF03003B613B69002B01D1FF235FE0EA
:1031A0003B697A691A603B691B22BA1812781A7156
:1031B0001C23FB181A8813009B079B1A9B000433DF
:1031C0003A68D2183B69DA603B69DB68264A1A60C4
:1031D0003B69012252421A623B6900225A623B69F2
:1031E00000229A627B681B0D9AB21E23FB185205BF
:1031F000520D1A801E23FB181B88002B03D11E239F
:10320000FB180A221A803B691E22BA1812885A81BA
:103210003B690022DA613B69FF221A723B69002296
:103220001A613B6900225A613B6900229A613B693D
:10323000FF22DA717B68002B0DDB0C4B1B78DBB2B5
:103240000133DAB2094B1A703B691800FFF7D6FC5C
:10325000FEF744FB02E03B6902225A713B699B790D
:103260001800BD4608B080BDA5A55A5AE10A002045
:1032700080B584B000AF0200FB1D1A70FB1D1B78E7
:10328000052B01D9012376E0FB1D1B782C225A4324
:103290003B4BD318FB60FB685B79032B01D1012307
:1032A00069E0FB1D1B78002B01D1142363E0FB6850
:1032B0005B79012B06D1334B1B78DBB2002B01D09D
:1032C000152358E0FB68DB79FF2B0FD0FB68DB7917
:1032D0002D4ADB00D31802331A78FB689B799A4297
:1032E00004D1FB68DB79180001F0CAFF254B1B787D
:1032F000DBB20133DAB2234B1A70FB685B79002B27
:1033000004D1FB681800FFF701FD24E0FB685B793E
:10331000022B20D1FB681B6A013303D0FB68180025
:1033200000F054FEFB681B7AFF2B03D0FB681800EB
:1033300004F0A2FDFB68DB69002B04D0FB68DB69AD
:103340001800FEF7DFF9FB68DB79FF2B03D0FB6881
:10335000180002F043F8FB6803225A710B4B01225C
:103360001A700B4B1A68FB685A62094BFA681A60AC
:10337000FEF7B4FA00231800BD4604B080BDC04675
:10338000200B0020E10A0020B00D0020E20A0020FE
:103390008C0C002080B500AF044B1B689B79180093
:1033A000FFF766FFC046BD4680BDC046980C0020B2
:1033B00080B500AF024B1B689B791800BD4680BDED
:1033C000980C002080B584B000AF0200FB1D1A707D
:1033D000FB1D1B78002B01D1142339E0FB1D1B784A
:1033E000052B01D9012333E0FB1D1B782C225A4306
:1033F000194BD318FB60FB685B79032B01D10123C8
:1034000026E0164B1B78DBB2002B01D015231FE002
:10341000FB685B79022B01D10D2319E00F4B1B7860
:10342000DBB20133DAB20D4B1A700D4B1B68FA6830
:103430009A4204D0FB681800FFF768FC02E0094BD1
:1034400001221A70FB6802225A71FEF747FA002324
:103450001800BD4604B080BD200B0020E10A00200A
:10346000980C0020E20A002080B584B000AF020072
:10347000FB1D1A70FB1D1B78002B01D114233EE0AD
:10348000FB1D1B78052B01D9012338E0FB1D1B78A0
:103490002C225A431C4BD318FB60FB685B79032B2F
:1034A00001D101232BE0FB685B79022B01D00E23B5
:1034B00025E0FB681B6A013301D00F231FE0FB6886
:1034C000DB69002B01D00F2319E0FB681B7AFF2B6F
:1034D00001D00F2313E0FB68DB79FF2B01D00F2312
:1034E0000DE00A4B1B78DBB20133DAB2074B1A70DE
:1034F000FB681800FFF782FBFEF7F0F900231800C5
:10350000BD4604B080BDC046200B0020E10A00206B
:1035100090B585B000AF040008001100BB1D221C4F
:103520001A803B1D021C1A80FB1C0A1C1A70BA1D53
:103530003B1D12881B889A4201D9FF2321E0FB1C06
:103540001B78012B05D0FB1C1B78022B01D0FF231D
:1035500017E0FB1C1B7800221900012004F00AFB75
:103560000300FB60FB68002B01D1FF2309E0FB682F
:10357000BA1D1288DA80FB683A1D12881A81FB682E
:103580001B791800BD4605B090BDC04680B584B01B
:1035900000AF0200FB1D1A70BB1D0A1C1A70FB1D38
:1035A0001B78132B01D9012316E0FB1D1B781A0190
:1035B0000B4BD318FB60FB685B790F221340DBB227
:1035C000012B01D0012307E0BB1D1A78FB68110015
:1035D000180004F01FFB03001800BD4604B080BDB6
:1035E0003C0E002080B584B000AF0200FB1D1A70B5
:1035F000FB1D1B78132B01D9012326E0FB1D1B7833
:103600001A01144BD318FB60FB685B790F2213403F
:10361000DBB2012B01D0012317E00F4B1B78DBB28B
:103620000133DAB20C4B1A70FB68DB88002B09D02F
:10363000FB68DB88013B9AB2FB68DA80FEF74EF943
:10364000002302E0FEF74AF909231800BD4604B042
:1036500080BDC0463C0E0020E10A002080B584B049
:1036600000AF02003960FB1D1A703E4B1B78DBB2C5
:10367000002B01D0032370E0FB1D1B78132B01D915
:1036800001236AE0FB1D1B781A01374BD318FB603E
:10369000FB685B790F221340DBB2012B01D00123C1
:1036A0005BE0324B1B78DBB2002B01D0152354E0DA
:1036B0002E4B1B78DBB20133DAB22C4B1A70FB684D
:1036C000DB88002B09D0FB68DB88013B9AB2FB68E2
:1036D000DA80FEF703F900233FE0254B1B68BB604F
:1036E0003B68002B12D1BA68FB681100180004F087
:1036F000DDFAFB68DB88013B9AB2FB68DA80BB68C5
:1037000000221A61FEF7EAF8002326E0BA68FB6897
:103710001100180004F0CAFA3A68BB6811001800DA
:1037200000F0DEFBFEF7DAF8BB681B69002B01D165
:10373000052312E00D4B1B78DBB20133DAB20B4BE1
:103740001A70BB6800221A61FB68DB88013B9AB2E1
:10375000FB68DA80FEF7C2F800231800BD4604B00B
:1037600080BDC046E00A00203C0E0020E10A002097
:10377000980C002080B584B000AF0200FB1D1A70C9
:10378000FB1D1B78132B01D901232AE0FB1D1B789D
:103790001A01164BD318FB60FB685B790F221340AC
:1037A000DBB2012B01D001231BE0FB68DA88FB6848
:1037B0001B899A4201D1062313E00D4B1B78DBB223
:1037C0000133DAB20A4B1A70FB68DB8801339AB214
:1037D000FB68DA80FB68180004F0E8FAFEF77EF870
:1037E00000231800BD4604B080BDC0463C0E00203A
:1037F000E10A002080B582B000AF0200FB1D1A7004
:103800000D4B1B78DBB2002B0CD0FB1D1B7800226C
:1038100019000120FEF780F9031E01D1122307E0F1
:10382000002305E0FB1D1B781800FFF7A3FF030032
:103830001800BD4602B080BDE10A002080B582B00C
:1038400000AF4B4B4A4A5269802189020A435A61B0
:10385000474B474A926AE02109030A439A62444B64
:10386000434A926A43490A409A629023DB05012247
:103870000921180001F012FA9023DB0501220A2128
:10388000180001F00BFA3B00C022D2001A603B0086
:1038900002221A713B0000229A713B0003225A71E6
:1038A0003B000022DA713A009023DB05110018007A
:1038B00001F074F83B00FF221A603B0000221A71ED
:1038C0003B0000229A713B0000225A713B0000220B
:1038D000DA713A009023DB051100180001F05EF860
:1038E000234B234A52698021C9020A435A61224B61
:1038F00001220621180001F0D1F91F4B01220721F6
:10390000180001F0CBF93B00C0221A603B000222F4
:103910001A713B0001229A713B0000225A713B0050
:103920000122DA713B00144A1900100001F036F848
:103930000F4B0F4A5269802109030A435A613B0029
:103940000E4A1A603B0001221A713B0000229A7154
:103950003B0000225A713B000022DA713B00084A0A
:103960001900100001F01AF8C046BD4602B080BD33
:1039700000100240FFFFF1FF00040048FF030000B9
:103980000008004880B500AF104B1B68FF221A40AA
:103990000E4B1A600E4B9B8A9BB21A000D4B1A609D
:1039A0000C4B1B68FF2293431A000A4B1A60094B09
:1039B0001A68064B1B68D218064B1A60044A054B5E
:1039C0001B689BB29382C046BD4680BDBC0F0020E1
:1039D00000080048C00F002080B500AF054B9B8A4F
:1039E0009BB21A00FF231A40034B1A60C046BD4623
:1039F00080BDC04600080048BC0F002080B500AF65
:103A00009023DB051B8A9BB21A00FF231A40024B4E
:103A10001A60C046BD4680BDC40F002080B500AF0F
:103A20000C4A0D4B1A600B4BC8331A000A4B5A60F4
:103A30000A4B084A1A60094B1B6800221A60074BA0
:103A40001B6800225A60054B1B6800229A60C04622
:103A5000BD4680BDA80C0020740D0020700D002014
:103A600080B58AB000AF78607B68002B01D100235D
:103A7000A2E07B6803330322934308337B60504BFF
:103A80005B68BB614F4B1B78DBB20133DAB24D4B45
:103A90001A704D4B1B687B6200233B6285E07B6A9A
:103AA0005B68002B04D17B6ABA69D31AFB6106E01C
:103AB0007B6A5B681A007B6AD31A013BFB61FA6977
:103AC0007B689A426CD37B6A7B617B6908333B617C
:103AD000FA697B68D31A0B2B22D83B6A002B04D0DF
:103AE0007B6A1A683B6A1A6003E07B6A1A68364B85
:103AF0001A607B6A5B68002B09D07B6A5B68013BBC
:103B0000FB607B69012213431A00FB685A607B6AE1
:103B10005A687B691A607B6A9A687B695A602DE0F3
:103B20007A6A7B68D318BB603B6A002B03D03B6A80
:103B3000BA681A6002E0244BBA681A607B690122F5
:103B400013431A00BB689A607B6A5A68BB685A6064
:103B50007B6A1A68BB681A607B6A5B68002B06D0B8
:103B60007B6A5B68013BFB60FB68BA685A607B69F3
:103B7000BA681A607B6A9A687B695A607B6A9B683C
:103B8000002B09D07B6A9B68013BFB607B690122AB
:103B900013431A00FB681A60FDF7A0FE3B690BE0B7
:103BA0007B6A3B627B6A1B687B627B6A002B00D06E
:103BB00075E7FDF793FE00231800BD460AB080BDEF
:103BC000740D0020E10A0020700D002080B588B03F
:103BD00000AF78607B68002B00D15AE17B68083B1E
:103BE000FB60B04B1A687B689A4200D953E1AD4B39
:103BF0005A687B689A4200D24FE1AB4B1B78DBB22C
:103C00000133DAB2A84B1A70FA68A84B1B689A42C3
:103C100014D2A64B1B689B68013B3B6109E03B69E2
:103C2000002B02D1FDF75AFE38E13B695B68013B8E
:103C30003B613A69FB689A42F1D131E09B4B1B68CA
:103C4000002B03D1974B1B687B6125E0974B1B68CA
:103C50005B68002B05D0954B1B685B68013B7B6163
:103C60001AE000237B6117E07B69002B02D1FDF78E
:103C700035FE13E17B691B681A000123134007D14D
:103C80007B691B68BB61BB695B68013B7B6103E0CF
:103C90007B691B68013B7B617A69FB689A42E3D1CF
:103CA000FB681B681A000123134051D1FB685B6855
:103CB0001A00012313404BD1FB681B68002B12D163
:103CC000FB685B68002B0ED1FB68FB61FB6900227F
:103CD0001A60FB6900225A60FB6900229A60734BEC
:103CE000FA691A60BCE0FB685B68002B13D1FB68C3
:103CF000FB61FB681B68BB61BB691A68FB691A60E2
:103D0000BB695A68FB695A60FB6900229A60674B7D
:103D1000FA691A60A4E0FB681B68002B09D1FB68F4
:103D20005B68FB61FB6900221A60FB6900225A6034
:103D300096E0FB681B68BB61FB685B68FB61BB6965
:103D40001A68FB691A60BB695A68FB695A6087E0A8
:103D5000FB685B681A000123134020D1FB685B6895
:103D6000002B12D1FB68FB61FB681B687B61FB6960
:103D70007A695A60FB6900229A604C4B1A68FB69A9
:103D80001A604A4BFA691A606AE0FB685B68FB617B
:103D9000FB681B687B61FB697A695A6060E0FB68BD
:103DA0001B681A000123134033D1FB685B683B6139
:103DB000FB68FB61FB68180000F07AF80300BB6049
:103DC000BB68002B06D1394B1B68BB61374BFA69C6
:103DD0001A6005E0BB681B68BB61BB68FA691A60C2
:103DE000BB69002B09D1FB693A699A60FB69002223
:103DF0005A60FB6900221A6032E0FB693A699A60F6
:103E0000BB695A68FB695A60BB691A68FB691A602A
:103E100026E0FB68FB61FB68180000F049F803002E
:103E2000BB60FB685B683B61FB681B687B61BB68D0
:103E3000002B06D11D4B1B68BB611C4BFA691A6035
:103E400005E0BB681B68BB61BB68FA691A60FB6967
:103E50003A699A60FB697A695A60FB69BA691A60C3
:103E6000FB699B68002B06D0FB699B68013B3B61AB
:103E70003B69FA691A60FB695B68002B06D0FB6935
:103E80005B68013B7B617B69FA695A60FDF726FD3F
:103E900004E0C04602E0C04600E0C046BD4608B0AF
:103EA00080BDC046740D0020E10A0020700D002086
:103EB00080B584B000AF78607B68FB6003E0FB688E
:103EC0005B68013BFB60FB685B681A0001231340E1
:103ED000F5D1FB685B681800BD4604B080BDC046E4
:103EE00080B584B000AF786039603B68002B65D046
:103EF000344B1B68002B06D17B683A681A62314B41
:103F00007A681A6053E02F4B1B68BB603B68FB600C
:103F10004AE0FA68BB681B6AD31AFB60FB68002B97
:103F20002EDABB689B6A002B0ED0BB689B6A7A684E
:103F30005A62BB689A6A7B689A627B68BA685A62FE
:103F4000BB687A689A620AE01E4B1A687B685A62FC
:103F50001C4B1B687A689A621A4B7A681A607B68F5
:103F60005B6A1A6AFB68D2187B681A627B685B6AB4
:103F70007A68526A116A7A68126A8A1A1A6216E0B4
:103F8000FB68002B0DDBBB685B6A002B09D17B68EB
:103F9000BA689A62BB687A685A62FA687B681A6281
:103FA00005E0BB685B6ABB60BB68002BB1D17B6876
:103FB00002225A71044B01221A7000E0C046BD462D
:103FC00004B080BD7C0D0020E20A002080B582B0E4
:103FD00000AF78607B689B6A002B07D17B685B6AC7
:103FE000002B03D1244B00221A603DE07B689B6AC2
:103FF000002B14D17B685A6A1F4B1A607B685B6A7E
:104000007A68526A116A7A68126A8A181A627B6838
:104010005B6A00229A627B6800225A6224E07B6815
:104020005B6A002B07D17B689B6A00225A627B681F
:1040300000229A6218E07B689B6A7A68526A5A6228
:104040007B685B6A7A68926A9A627B685B6A7A6864
:10405000526A116A7A68126A8A181A627B680022A8
:104060005A627B6800229A627B68012252421A627D
:10407000C046BD4602B080BD7C0D002090B500AFAB
:10408000034B5C681B6818002100BD4690BDC0460C
:10409000E80A002080B582B000AF7860164B1B782C
:1040A000DBB2002B01D0032321E07B68013301D177
:1040B00002231CE07B68002B01D1002317E00F4B8B
:1040C0001B78DBB2002B01D0152310E00B4B1B78C3
:1040D000DBB20133DAB2094B1A70094B1B687A68FC
:1040E00011001800FFF7FCFEFDF7F8FB0023180095
:1040F000BD4602B080BDC046E00A0020E10A0020B3
:10410000980C002080B584B000AF02003960FB1D20
:104110001A70FB1D1B78052B01D901232EE0FB1D16
:104120001B782C225A43174BD318FB60FB681B6883
:10413000002B01D1012321E0FB681B6A013301D16F
:1041400011231BE0104B1B78DBB20133DAB20E4BAC
:104150001A70FB681800FFF739FF3B68002B04D189
:10416000FB681800FEF74AFD05E03A68FB6811009D
:104170001800FFF7B5FEFDF7B1FB00231800BD46A0
:1041800004B080BD200B0020E10A0020B0B584B04F
:1041900000AF05000C0010001900FB1D2A1C1A704E
:1041A000BB1D221C1A707B1D021C1A70BB1C0A1C32
:1041B0001A80254B1B78DBB2002B01D003233EE095
:1041C000BB1D1B783B2B08D87B1D1B783B2B04D8D1
:1041D000BB1C1B881D4A934201D902232FE01C4BB4
:1041E0001B78DBB2002B01D0152328E0FB1D1B78C8
:1041F000E12212015A431100BB1D1A7813001B0162
:104200009B1A9B00CA187B1D1B78D318FA229200B8
:104210005A431400BB1C1B88FA2292005343F53307
:10422000FF331A00FA239900100003F09DFF0300EA
:10423000E318FB60FB681800FFF72CFF0023180051
:10424000BD4604B0B0BDC046E00A0020E703000050
:10425000E10A002080B582B000AF1C4B1B687B6078
:1042600028E07B681B7AFF2B03D07B68180003F0E3
:1042700003FE7B68DB69002B04D07B68DB691800D8
:10428000FDF740FA7B68012252421A627B685A6A43
:104290000E4B1A607B6800225A627B681800FEF79A
:1042A000ADFC0A4B1B687B607B68002B02D07B68EF
:1042B00000229A627B68002B03D07B681B6A002B6C
:1042C000CFD0C046BD4602B080BDC0467C0D0020A8
:1042D00080B500AF084B1B78DBB2012B06D9074B2A
:1042E00001221A70064B01221A7001E0FFF7B2FF9B
:1042F000C046BD4680BDC046E10A00201C0B002020
:104300001D0B002080B584B000AF7860080011005C
:10431000BB1C021C1A807B1C0A1C1A707B68002BB9
:1043200003D0BB1C1B88002B01D1FF2380E0424B34
:104330001B78DBB20133DAB23F4B1A700F23FB1844
:1043400000221A706CE00F23FB181B7801229A40A0
:1043500013001A00394B1B6813405AD10F23FB1866
:104360001B7801229A4013001A00344B1B681A4331
:10437000324B1A60FDF7B2FA0F23FB181A78304B54
:1043800012017968D1500F23FB181B782C4A1B01AE
:10439000D31804330F22BA1812781A700F23FB189F
:1043A0001B78274A1B01D318063300221A800F23DB
:1043B000FB181B78224A1B01D318083300221A80ED
:1043C0000F23FB181B781E4A1B01D3180A33BA1C93
:1043D00012881A800F23FB181B78194A1B01D31867
:1043E0000C3300221A800F23FB181B781A01144B80
:1043F000D2187B1C1B781900032003F0BBFB0300C1
:10440000BB60BB68002B01D1FF2311E0BB681B79A7
:104410000EE00F23FB181A780F23FB1801321A70D5
:104420000F23FB181B78012B8DD9FDF757FAFF23BB
:104430001800BD4604B080BDE10A0020A00D002098
:10444000800D002090B587B000AF0200FB1D1A70F0
:10445000BB1D0A1C1A70FB1D1B78132B01D90123ED
:1044600041E0FB1D1B781A01214BD3187B617B694E
:104470005B790F221340DBB2032B01D0012332E022
:104480007B691B683B610F23FC18BB1D1A787B6995
:104490001100180003F0BEFB030023700F23FB186C
:1044A0001B78002B1CD13B691B791A000123934018
:1044B000DA43104B1B681A400E4B1A603B6900220E
:1044C0001A603B6900221A713B690022DA803B695D
:1044D00000221A813B6900225A813B6900229A819D
:1044E0000F23FB181B781800BD4607B090BDC046CF
:1044F0003C0E0020A00D002080B586B000AF020069
:104500003960FB1D1A70FB1D1B78132B04D93B6807
:1045100001221A70002349E0FB1D1B781A01254B6C
:10452000D3187B617B695B790F221340DBB2032BCD
:1045300004D03B6801221A70002337E07B691B68B6
:104540003B611D4B1B78DBB20133DAB21A4B1A7098
:104550003B699B89002B23D03B691A683B69DB8848
:104560009B00D3181B68FB603B69DB8801339AB260
:104570003B69DA803B699B89013B9AB23B699A812E
:104580003B69DA883B695B899A4202D13B69002228
:10459000DA80FDF7A3F93B6800221A70FB6805E09A
:1045A000FDF79CF93B680B221A7000231800BD46EA
:1045B00006B080BD3C0E0020E10A002080B588B026
:1045C00000AFB9607A600F23FB18021C1A70724B9F
:1045D0001B78DBB2002B04D07B6803221A70002307
:1045E000D5E00F23FB181B78132B04D97B6801221D
:1045F0001A700023CBE00F23FB181B781A01674BBE
:10460000D318FB61FB695B790F221340DBB2032BEC
:1046100004D07B6801221A700023B8E0604B1B783D
:10462000DBB2002B04D07B6815221A700023AEE0A9
:10463000FB691B68BB615A4B1B78DBB20133DAB2F2
:10464000574B1A70BB699B89002B23D0BB691A6832
:10465000BB69DB889B00D3181B687B61BB69DB8867
:1046600001339AB2BB69DA80BB699B89013B9AB27C
:10467000BB699A81BB69DA88BB695B899A4202D1BE
:10468000BB690022DA80FDF729F97B6800221A70E5
:104690007B697CE0FDF722F9424B1B683B61BB68FC
:1046A000002B2ED13A69FB691100180003F0FEFAC5
:1046B0003B4B1B78DBB20133DAB2394B1A703B69E2
:1046C0001B697B613B6900221A61BB69DB8801338E
:1046D0009AB2BB69DA80BB699B89013B9AB2BB691C
:1046E0009A81BB69DA88BB695B899A4202D1BB694E
:1046F0000022DA80FDF7F2F87B6800221A707B69ED
:1047000045E0274B1B78DBB20133DAB2244B1A7039
:104710003A69FB691100180003F0C8FABA683B69EE
:1047200011001800FFF7DCFBFDF7D8F83B691B69A7
:10473000002B04D17B6805221A70002327E0184B58
:104740001B78DBB20133DAB2154B1A703B691B6977
:104750007B613B6900221A61BB69DB8801339AB235
:10476000BB69DA80BB699B89013B9AB2BB699A81BC
:10477000BB69DA88BB695B899A4202D1BB690022B6
:10478000DA80FDF7ABF87B6800221A707B691800AD
:10479000BD4608B080BDC046E00A00203C0E0020A7
:1047A000E10A0020980C002080B584B000AF020020
:1047B0003960FB1D1A70FB1D1B78132B01D90123D7
:1047C00044E0FB1D1B781A01224BD318FB60FB68E9
:1047D0005B790F221340DBB2032B01D0012335E0BC
:1047E000FB681B68BB60BB689A89BB685B899A429F
:1047F00001D108232AE0184B1B78DBB20133DAB26F
:10480000154B1A70BB681A68BB681B899B00D318CC
:104810003A681A60BB681B8901339AB2BB681A8177
:10482000BB689B8901339AB2BB689A81BB681A89BD
:10483000BB685B899A4202D1BB6800221A81FB687F
:10484000180003F0B3FAFDF749F800231800BD463D
:1048500004B080BD3C0E0020E10A002080B582B08B
:1048600000AF02003960FB1D1A700F4B1B78DBB2E2
:10487000002B0CD03A68FB1D1B7819000420FDF7B3
:104880004BF9031E01D1122309E0002307E03A6827
:10489000FB1D1B7811001800FFF786FF03001800AE
:1048A000BD4602B080BDC046E10A002080B582B09E
:1048B00000AF78607A689023DB059A420CD18023A0
:1048C0009B0201211800FEF721F880239B020021A2
:1048D0001800FEF71BF853E07B682B4A93420CD17B
:1048E0008023DB0201211800FEF710F88023DB0291
:1048F00000211800FEF70AF842E07B68234A934241
:104900000CD180231B0301211800FDF7FFFF80233A
:104910001B0300211800FDF7F9FF31E07B681C4AFA
:1049200093420CD180235B0301211800FDF7EEFFB9
:1049300080235B0300211800FDF7E8FF20E07B687F
:10494000144A93420CD180239B0301211800FDF7E8
:10495000DDFF80239B0300211800FDF7D7FF0FE048
:104960007B680D4A93420BD18023DB0301211800A1
:10497000FDF7CCFF8023DB0300211800FDF7C6FF05
:10498000C046BD4602B080BD000400480008004893
:10499000000C0048001000480014004880B586B0A4
:1049A00000AF7860396000237B6100233B61002306
:1049B000FB6000237B617CE001227B699A4013004D
:1049C0003B613B681B683A691340FB60FA683B69CE
:1049D0009A426BD13B681B79012B03D03B681B7952
:1049E000022B34D17B689B687A6952000321914085
:1049F0000A00D2431A407B689A607B689A683B68D9
:104A00005B7919007B695B0099400B001A437B6856
:104A10009A607B689B889BB27A6992B211000122EE
:104A20008A4092B2D24392B213409AB27B689A8083
:104A30007B689B889AB23B689B7919007B699BB223
:104A400099400B009BB213439AB27B689A807B68B3
:104A50001B687A695200032191400A00D2431A4030
:104A60007B681A607B681A683B681B7919007B6950
:104A70005B0099400B001A437B681A607B68DB6817
:104A80007A6992B25200032191400A00D2431A403F
:104A90007B68DA607B68DA683B68DB7919007B69E0
:104AA0005B0099400B001A437B68DA607B69013335
:104AB0007B617B690F2B00D87EE7C046BD4606B000
:104AC00080BDC04680B582B000AF78607B68094A7F
:104AD0001A607B6800221A717B6801225A717B6818
:104AE00000229A717B680022DA71C046BD4602B08E
:104AF00080BDC046FFFF000080B584B000AF786085
:104B00000A00BB1C1A8080235B02FB60BB1C1A8856
:104B1000FB681343FB60FA687B68DA61BB1C1A8888
:104B20007B68DA61FA687B68DA617B68DB69FB6065
:104B30007B68DB69FB60C046BD4604B080BDC046F3
:104B400080B584B000AF78600A00BB1C1A800F23C8
:104B5000FB1800221A707B681B8A9BB2BA1C128851
:104B600013409BB2002B04D00F23FB1801221A70B4
:104B700003E00F23FB1800221A700F23FB181B7889
:104B80001800BD4604B080BD80B582B000AF78602B
:104B90007B681B8A9BB21800BD4602B080BDC04630
:104BA00080B584B000AF78600A00BB1C1A800F2368
:104BB000FB1800221A707B689B8A9BB2BA1C128871
:104BC00013409BB2002B04D00F23FB1801221A7054
:104BD00003E00F23FB1800221A700F23FB181B7829
:104BE0001800BD4604B080BD80B582B000AF7860CB
:104BF0007B689B8A9BB21800BD4602B080BDC04650
:104C000080B582B000AF78600A00BB1C1A80BB1C64
:104C10001A887B689A61C046BD4602B080BDC04616
:104C200080B582B000AF78600A00BB1C1A807B6838
:104C3000BA1C12881A85C046BD4602B080BDC04667
:104C400080B582B000AF786008001100BB1C021C68
:104C50001A807B1C0A1C1A707B1C1B78002B04D04A
:104C6000BB1C1A887B689A6103E07B68BA1C1288B7
:104C70001A85C046BD4602B080BDC04680B582B030
:104C800000AF78600A00BB1C1A807B68BA1C1288CF
:104C90009A82C046BD4602B080BDC04680B584B091
:104CA00000AF786008001100BB1C021C1A807B1C3E
:104CB0000A1C1A700023FB600023BB607B1C1A785F
:104CC000BB1C1B8807210B409B009A401300FB6014
:104CD000BB1C1B88DB089BB21800BB1C1B88DB08B5
:104CE0009BB21A007B6808329200D358BA1C128813
:104CF00007210A4092000F2191400A00D2431A4036
:104D000011007B68020008329200D150BB1C1B8846
:104D1000DB089BB21A007B6808329200D258FB680D
:104D20001343BB60BB1C1B88DB089BB21A007B686B
:104D300008329200B968D150C046BD4604B080BD6B
:104D400080B500AF1C4B1B78180000F0D5F91B4B49
:104D500001221A701A4B03225A70194B40221A7002
:104D60000020FBF74DFD174B00221A800BE0154B7E
:104D70001A88FA239B009A4205D9134B1A7801210D
:104D80008A431A7003E0114B1B78002BEFD00F4BB6
:104D90009B7801221340DBB2002B04D10A4B1A7816
:104DA00001218A431A70044B1B78180000F068FA3E
:104DB000C046BD4680BDC046F90F0020730A0020E2
:104DC0006C0A0020AA0D0020A80D0020700A002007
:104DD00080B500AF1F4B1B78180000F08DF91E4BFB
:104DE00002221A701D4B01225A701C4B40221A706D
:104DF0000020FBF705FD194B03225A70174B402288
:104E00001A70174B00221A800BE0154B1A88FA23F0
:104E10009B009A4205D9134B1A7801218A431A70D4
:104E200003E0114B1B78002BEFD00F4B9B78012236
:104E30001340DBB2002B04D10A4B1A7801218A43BC
:104E40001A70044B1B78180000F01AFAC046BD46D1
:104E500080BDC046F90F0020730A00206C0A0020B4
:104E6000AA0D0020A80D0020700A002080B500AF18
:104E7000254B1B78180000F03FF9244B01221A70D3
:104E8000234B03225A70224B40221A70214B0022DE
:104E90001A70204B01331A7800210A40111C02229B
:104EA0000A431A705A7800210A40111C01220A4351
:104EB0005A700020FBF7A4FC174B00221A800BE06D
:104EC000154B1A88FA239B009A4205D9134B1A787E
:104ED00001218A431A7003E0114B1B78002BEFD09D
:104EE0000F4B9B7801221340DBB2002B04D10B4BFC
:104EF0001A7801218A431A70034B1B78180000F0BE
:104F0000BFF9C046BD4680BDF90F0020730A0020DE
:104F10006C0A00202C0A0020AA0D0020A80D0020F9
:104F2000700A002080B500AF0E4B1A7801210A43A9
:104F30001A700D4B02221A700B4B01331A780021A4
:104F40000A40111C10220A431A705A7800210A40A4
:104F50005A70FFF7F5FEC820FFF79CF8C046BD4623
:104F600080BDC046A80D00202C0A002080B584B06A
:104F700000AF7860394B1B7801221340DBB2002B65
:104F800063D0FFF773FF354B1B7801221340DBB270
:104F9000002B03D1C820FFF77DF85DE0C820FFF7A4
:104FA00079F82F4B1B78180000F0A6F82D4B022241
:104FB0001A702D4B04225A702B4B40221A7001207C
:104FC000FBF71EFC294B00221A800BE0274B1A88A6
:104FD000FA239B009A4205D9204B1A7801218A4373
:104FE0001A7003E0224B1B78002BEFD01C4B1B7870
:104FF000180000F045F9194B1B7801221340DBB271
:10500000002B24D01B4B1A881B4B1A80194B5A8833
:10501000194B5A80184B1B881A0013009B009B18D1
:105020005A019B181B0C283BFB60FB689AB2124B81
:105030001A80114B5B881A00642353431B0CFB60DE
:10504000FB689AB20C4B5A8001E0FFF76BFFFA2322
:105050009B001800FFF71EF88CE7C046A80D002043
:10506000F90F0020730A00206C0A0020AA0D00200E
:10507000700A00204C0A0020A40D002080B582B0E8
:1050800000AF1A4B1B78DBB20133DAB2174B1A7040
:10509000174B1B78092B21D8154B1B785A1CD1B202
:1050A000134A1170FA1D1370FCF718FCFB1D1B78D6
:1050B000DA00104BD3183B603B68FF22DA703B6884
:1050C000FF221A703B6800225A703B68FF229A70D8
:1050D0003B6800225A60FB1D1B7802E0FCF7FEFBD8
:1050E000FF231800BD4602B080BDC046E10A002083
:1050F000AC0D0020B00D002080B586B000AF0200DE
:10510000FB1D1A70564B1B78DBB2002B01D003231A
:10511000A1E0544B1B78DBB2002B01D015239AE0A1
:10512000514B1B78FA1D12789A4201D3012392E069
:105130004C4B1B78DBB20133DAB24A4B1A704B4B43
:105140001B683B61FB1D1B78DA00494BD318FB60E1
:105150003B69FA1D1278DA71FB685B78002B0FD17E
:105160003B691A79FB681A703B699A79FB689A70F7
:105170003B699A79FB68DA70FB6801225A7067E034
:10518000FB685B78012B63D1FB689B781A002C23AA
:105190005A43384BD3187B617B691A793B691B7979
:1051A0009A422FD93B691A797B691A713B699A79BE
:1051B000FB68DA707B695B79002B08D17B6918008A
:1051C000FDF7A4FD7B691800FDF718FD1AE07B6967
:1051D0001B7AFF2B16D07B691B7A1A01264BD3183A
:1051E000BB60BB685B790F229343DBB2202B09D1F4
:1051F0007B69180002F040FE7A69BB681100180054
:1052000002F054FD3B6902225A711C4B01221A70B4
:105210003B6900225A623B6900229A62FB685B6824
:105220007B617B69002B06D1FB683A695A600FE00D
:105230007B695B6A7B617B695B6A002BF8D17B6968
:105240003A695A623B697A699A623B6900225A62FA
:10525000FCF744FB00231800BD4606B080BDC046E5
:10526000E00A0020E10A0020AC0D0020980C00208C
:10527000B00D0020200B00203C0E0020E20A002090
:1052800080B586B000AF0200FB1D1A704E4B1B7834
:10529000DBB2002B01D0032391E04C4B1B78FA1DAD
:1052A00012789A4201D3012389E0494B1B78DBB283
:1052B0000133DAB2464B1A70FB1D1B78DA00454BFE
:1052C000D318FB60FB689B781A002C235A43424B8F
:1052D000D3187B617B69FF22DA71FB685B68002B66
:1052E00008D1FB6800225A70FB68FF229A70FCF715
:1052F000F5FA63E00B23FB18FA6892781A70FB68E2
:10530000DB780B22BA1812789A421FD1FB685B68CF
:105310007B611323FB187A6912791A7012E07B699A
:105320001B791322BA1812789A4208D91323FB1852
:105330007A6912791A707B699A79FB68DA707B69ED
:105340005B6A7B617B69002BE9D10BE00B23FB18C7
:105350001A781323FB1820492C2042438A18043260
:1053600012781A70FB68FF229A70FB681A780B2378
:10537000FB181B7811001800FDF70AFDFB685B683D
:105380007B617B695A6AFB685A607B691A79FB68A2
:105390001A707B699A79FB689A707B691322BA1834
:1053A00012781A717B6900225A627B6900229A6224
:1053B0007B691800FDF722FCFCF790FA0023180027
:1053C000BD4606B080BDC046E00A0020AC0D0020FE
:1053D000E10A0020B00D0020200B002080B586B02F
:1053E00000AF78607B68DB79DA003F4BD3183B6114
:1053F0007B685B6A002B07D17B689B6A002B03D11B
:105400003B6900225A6027E07B685B6A002B07D16A
:105410007B689B6A00225A627B6800229A621BE0CA
:105420007B689B6A002B07D17B685B6A00229A62CB
:105430007B6800225A620FE07B685B6A7A68926A36
:105440009A627B689B6A7A68526A5A627B68002219
:105450009A627B6800225A627B68FF22DA713B699C
:10546000DA787B689B799A4239D13B695B687B60CB
:105470001723FB183A6912781A703B699A783B69CE
:10548000DA7012E07B681B791722BA1812789A42F8
:1054900008D91723FB187A6812791A707B689A79F1
:1054A0003B69DA707B685B6A7B607B68002BE9D1C3
:1054B0000F23FB183A6992781A703B69FF229A70A1
:1054C0001723FB181A780F23FB181B7811001800FC
:1054D000FDF75EFC3B690F22BA1812789A70C0463D
:1054E000BD4606B080BDC046B00D002080B582B07C
:1054F00000AF78607B681B684F4A1A407B681A606F
:105500007B6800221A607B6800225A607B68002258
:105510009A607B680022DA607B68484A934206D131
:10552000474B474A52680F210A435A607FE07B6825
:10553000444A934206D1424B414A5268F0210A4301
:105540005A6074E07B68404A934207D13C4B3C4A26
:105550005268F02109010A435A6068E07B683B4ABF
:10556000934207D1364B364A5268F02109020A436A
:105570005A605CE07B68364A934207D1304B304A30
:105580005268F02109030A435A6050E07B68314AAF
:10559000934207D12A4B2A4A5268F02109040A4350
:1055A0005A6044E07B682C4A934207D1244B244A3A
:1055B0005268F02109050A435A6038E07B68274A9F
:1055C000934206D1264B264A52680F210A435A605D
:1055D0002DE07B68234A934206D1214B204A526832
:1055E000F0210A435A6022E07B681F4A934207D1A8
:1055F0001B4B1B4A5268F02109010A435A6016E00E
:105600007B681A4A934207D1154B154A5268F0211C
:1056100009020A435A600AE07B68154A934206D1A0
:105620000F4B0F4A5268F02109030A435A60C046E3
:10563000BD4602B080BDC046FEFF0000080002402B
:10564000000002401C0002403000024044000240C2
:10565000580002406C0002408000024008040240F2
:10566000000402401C040240300402404404024092
:105670005804024080B584B000AF786039600023E0
:10568000FB607B681B68FB60FB68184A1340FB608B
:105690003B689A683B681B6A1A433B681B691A435C
:1056A0003B685B691A433B689B691A433B68DB694B
:1056B0001A433B685B6A1A433B689B6A1343FA6868
:1056C0001343FB607B68FA681A603B68DA687B68A2
:1056D0005A603B681A687B689A603B685A687B68C6
:1056E000DA60C046BD4604B080BDC0460F80FFFFF3
:1056F00080B582B000AF78607B6800221A607B685A
:1057000000225A607B6800229A607B680022DA607F
:105710007B6800221A617B6800225A617B68002244
:105720009A617B680022DA617B6800221A627B68DA
:1057300000225A627B6800229A62C046BD4602B0CF
:1057400080BDC04680B582B000AF78600A00FB1C07
:105750001A70FB1C1B78002B06D07B681B6801228B
:105760001A437B681A6005E07B681B68034A1A408D
:105770007B681A60C046BD4602B080BDFEFF0000D7
:1057800080B582B000AF786039607B68A8229B58F2
:105790003A68120F92000F2191400A00D2431A403A
:1057A0007B68A8215A507B68A8229A583B681B0145
:1057B0001B091A437B68A8215A50C046BD4602B057
:1057C00080BDC04680B582B000AF78600A00BB1CC7
:1057D0001A80BB1C1A887B685A60C046BD4602B05E
:1057E00080BDC04680B582B000AF78607B685B68E2
:1057F0009BB21800BD4602B080BDC04680B584B0E3
:1058000000AFF860B960FB1D1A70FB1D1B78002B00
:1058100006D0FB681A68BB681A43FB681A6006E08A
:10582000FB681B68BA68D2431A40FB681A60C0461E
:10583000BD4604B080BDC04680B584B000AF78607E
:105840000F23FB1800221A700023BB607A688023A4
:105850005B05134003D00D4B1B68BB6002E00C4B93
:105860001B68BB60BB687A68134004D00F23FB1829
:1058700001221A7003E00F23FB1800221A700F2375
:10588000FB181B781800BD4604B080BD0004024020
:105890000000024080B582B000AF78607A68802353
:1058A0005B05134003D0054B7A685A6002E0044B55
:1058B0007A685A60C046BD4602B080BD000402400E
:1058C0000000024080B584B000AF78600F23FB1861
:1058D00000221A700023BB607A6880235B051340A6
:1058E00003D00D4B1B68BB6002E00C4B1B68BB6018
:1058F000BB687A68134004D00F23FB1801221A708A
:1059000003E00F23FB1800221A700F23FB181B78EB
:105910001800BD4604B080BD0004024000000240F3
:1059200080B582B000AF78607A6880235B05134051
:1059300003D0054B7A685A6002E0044B7A685A60DB
:10594000C046BD4602B080BD0004024000000240D7
:1059500080B500AFFEF740F8154B1A68154B1A607A
:10596000144B1A68144B9B6819795B791B020B4323
:105970009BB2DA400F4B1A600F4B1B6801225A7022
:105980000D4B1B6801229A700B4B1A68094B1B6860
:10599000DBB2D370084B1B680421180000F08AF9B1
:1059A000054B06221A7101231800BD4680BDC04672
:1059B000BC0F0020C80F0020DC0F002080B500AF16
:1059C000FEF71CF8154B1A68154B1A60144B1A6831
:1059D000144B9B6819795B791B020B439BB2DA402D
:1059E0000F4B1A600F4B1B6802225A700D4B1B683D
:1059F00001229A700B4B1A68094B1B68DBB2D370FB
:105A0000084B1B680421180000F054F9054B0622CE
:105A10001A7101231800BD4680BDC046C40F002086
:105A2000C80F0020DC0F002090B583B000AF02004B
:105A3000BB1D1A80454B1B6803225A70434B1A68E2
:105A4000434B1B88DBB2DB18DBB293703F4B1B6808
:105A5000DA1C404B1A6059E0BB1D1A883E491300FE
:105A60009B009B189B005B5C042B47D89A003B4B28
:105A7000D3181B689F46374B1B68591C354A116069
:105A800000221A70334B1B68591C324A11600022E5
:105A90001A7036E0BB1D1A882F4913009B009B1813
:105AA0009B00CB1804331B681A882D4BFF21114033
:105AB0000C00197800200140081C211C01431970BA
:105AC000120A90B25A7800210A40111C021C0A43A3
:105AD0005A70204B1B68591C1E4A1160204A52788C
