:020000040800F2
:100000000020002081270008CD270008CD27000808
:1000100000000000000000000000000000000000E0
:10002000000000000000000000000000CD270008D4
:100030000000000000000000956A00080D1700088D
:10004000CD270008CD270008CD270008CD270008C0
:10005000CD270008CD270008CD270008CD270008B0
:10006000CD270008CD27000851070008CD2700083C
:10007000CD270008CD270008CD270008CD27000890
:10008000CD270008051A000800000000CD27000851
:10009000CD270008CD270008CD2700082D02000835
:1000A000CD270008CD270008CD270008DD05000872
:1000B000CD27000800000000CD2700080000000048
:1000C0005FF808F110B5064C2378002B07D1054BDB
:1000D000002B02D0044800E000BF0123237010BDB4
:1000E000100A0020000000001CDB0008084B10B5BF
:1000F000002B03D00749084800E000BF0748036809
:10010000002B00D110BD064B002BFBD09847F9E720
:1001100000000000140A00201CDB00080C0A00206C
:100120000000000080B582B000AF0200FB1D1A7015
:10013000064BFA1D127811001F220A40012191403E
:100140000A001A60C046BD4602B080BD00E100E072
:10015000B0B582B000AF02003960FB1D1A70FB1D04
:100160001B787F2B32D92F4CFB1D1B781A000F23D5
:100170001340083B99082B4AFB1D1B7818000F23DE
:100180000340083B9B0806339B00D31804331B68CD
:10019000FA1D1278100003220240D200FF20904086
:1001A0000200D2431A403B689B01FF201840FB1D10
:1001B0001B781D0003232B40DB00984003001A43EB
:1001C0008B1D9B00E31804331A6027E0164CFB1DBF
:1001D0001B785BB29B081449FA1D127852B2920840
:1001E000C03292005258F91D0978080003210140DD
:1001F000C900FF2088400100C94311403A689201BC
:10020000FF201040FA1D1278150003222A40D20068
:10021000904002000A43C0339B001A51C046BD46BD
:1002200002B0B0BD00ED00E000E100E080B500AF3D
:1002300001F068F9684B9B690822134008D0664BAF
:100240000822DA61654B664A1A60664B664A1A6094
:10025000614B9B692022134007D05F4B2022DA615B
:10026000624B1A7820210A431A705B4B9B6940222B
:10027000134044D05E4B1B78002B2DD05D4B1B7878
:100280005B009B059A0D5C4B1A605B4B1B688022E0
:10029000D2001A43584B1A60504B514A1A60554BC2
:1002A0005B781A04FF231B041A40534B1B681A4344
:1002B000514B1A60484A504B1B685360464B464AA4
:1002C0005268802189010A435A60494B1B78013BDF
:1002D000DAB2474B1A7012E03F4B3F4A5268802116
:1002E000C9010A435A60414B1B7810221340DBB20C
:1002F000002B04D13D4B1A7820210A431A70364B4B
:100300009B690122134009D0334A364B1B681B7886
:100310009362344B1B685A1C324B1A602E4B9B69FC
:10032000042213400AD02D4B1A682B4B5B6ADBB2B8
:1003300013702A4B1B685A1C284B1A60264B9B696A
:100340000222134009D0244A264B1B681B78936273
:10035000244B1B685A1C234B1A601F4B9B691022AD
:10036000134007D01C4B1022DA61204B1A78102161
:100370000A431A70184B9A698023DB00134008D097
:10038000154B8022D200DA61184B1A7804210A43F7
:100390001A70114B9A6980239B00134008D00E4BB2
:1003A00080229200DA61114B1A7808210A431A70F0
:1003B000094B9A6980235B00134008D0064B8022CA
:1003C0005200DA61094B1A7802210A431A7001F0CF
:1003D000A5F8C046BD4680BD00540040900F0020E7
:1003E0004C0A0020940F00202C0A0020700A0020E4
:1003F000710A00206C0A0020740A002080B500AF4A
:10040000214B214AD269802189030A43DA611E4BBC
:100410001D4A1269802189030A431A611A4B1A4A3C
:1004200012691A490A401A61194B194A12680121C6
:100430008A431A60164B174A1A61154B164A1A60FE
:10044000134B00229A60124B14229A60104B104AF0
:100450009268802109020A439A600D4B0C4A126887
:1004600001210A431A601720FFF75CFE00211720C4
:10047000FFF76EFE044B044A126B10218A431A6385
:10048000C046BD4680BDC04600100240FFFFDFFFF2
:10049000005400401C0E2000FE0F080080B582B002
:1004A00000AF0200FB1D1A702E4B1B78002B03D0EF
:1004B0002C4B1B78022B01D900234FE02A4B002242
:1004C0001A702A4B2A4A1A602A4B1B785B009B053C
:1004D0009A0D294B1A60FB1D1B78012B09D1264B65
:1004E0001B688022D2001A43234B1A60234B244AF4
:1004F0001A60204B5B78002B01D100232EE01D4BAE
:100500005B781A04FF231B041A401B4B1B681A4319
:10051000194B1A601B4A184B1B6853601A4B002278
:100520001A8007E0184B1A88FA239B009A4201D9D7
:10053000002313E0134B9A6980231B021340F1D16F
:10054000104B104A5268802189010A435A60054BBA
:100550001B78013BDAB2034B1A7001231800BD4629
:1005600002B080BD710A0020700A0020940F0020A4
:100570002C0A00206C0A0020740A0020900F002032
:100580004C0A002000540040780A002080B584B056
:1005900000AF0200BB1D1A800E23FB18BA1D128883
:1005A0001A800E23FB180E22BA18128812021A8023
:1005B000BB1DBA1D1288120A1A800E23FB180E22C8
:1005C000B918BA1D098812888A181A800E23FB18D8
:1005D0001B881800BD4604B080BDC04680B500AF82
:1005E00000F090FF254A264B1100180006F080F815
:1005F000031E04D0234B1A7801210A431A701F4AA4
:100600001F4B1100180006F0CBF81F4B00211800FB
:1006100004F0A8F91B4B5B78012B0ED11A4B1B4A37
:10062000DA60184B00225A70174B5B68DBB220224D
:10063000D31ADAB2164B1A700DE0134B154ADA6072
:10064000104B01225A70104B5B68DBB22022D31A88
:10065000DAB20F4B5A700C4B20225A600A4B012120
:10066000180004F07FF90C4B1B78180000F008FE0E
:1006700000F054FFC046BD4680BDC0461A010B00C5
:1006800000380140C00A0020300002409E0A0020CD
:100690007C0A00207E0A0020D40F002080B588B09C
:1006A00000AF7860264B264A92698021C9010A432F
:1006B0009A61234B224AD2688021C9010A43DA6039
:1006C0001F4B1F4AD2681F490A40DA600823FB18F3
:1006D0007A681A600823FB1800225A600823FB1866
:1006E00000229A600823FB180022DA600823FB1816
:1006F00000225A610823FB180C221A610823FB18F8
:10070000114A1900100005F033FA0F4B232118008D
:1007100005F064FC0C4B0121180005F03FFC0B496F
:10072000094B0122180005F03BFF074B064A1268EF
:1007300001210A431A60C046BD4608B080BDC046CC
:1007400000100240FFBFFFFF003801401A010B00FC
:1007500080B500AF00F0D6FE0C4B0021180004F06D
:1007600001F9102004F0A6F9102004F0E9F9084B73
:100770001A7901218A431A71044B0121180004F0EF
:10078000F1F800F0CBFEC046BD4680BD1C00024023
:10079000C00A002080B582B000AF3B1D0A221A704B
:1007A0003B1D00225A703B1D01229A703B1D180010
:1007B00006F048FC3B1D1B221A703B1D01225A709B
:1007C0003B1D01229A703B1D180006F03BFCC04601
:1007D000BD4602B080BDC04680B58CB000AF3E4B78
:1007E000180003F093FF3B1D3C4A1A603C4A3B1D36
:1007F0005A603B1D00229A603B1D2022DA603B1D9F
:1008000000221A613B1D80225A613B1D00229A6121
:100810003B1D0022DA613B1D00221A623B1D802233
:1008200092015A623B1D00229A623B1D2A4A19001E
:10083000100004F02FF8284B0121180004F092F862
:10084000284B01225A70274B1A7901210A431A7149
:10085000254B180003F05AFF3B1D244A1A60244A16
:100860003B1D5A603B1D10229A60224B5B781A0098
:100870003B1DDA603B1D00221A613B1D80225A613C
:100880003B1D00229A613B1D0022DA613B1D0022C4
:100890001A623B1D802252015A623B1D00229A625D
:1008A0003B1D114A1900100003F0F4FF0E4B01220A
:1008B0000221180004F0B2F80B4B0121180004F0DB
:1008C00051F80D4B0122C021180005F033FEC0463F
:1008D000BD460CB080BDC046300002402438014007
:1008E0007E0A0020C00A00201C0002402838014077
:1008F00002000020000000200038014080B582B0D6
:1009000000AF78600A00FB1C1A70254B00221A8089
:1009100005E0234B1A88FA239B009A4207D8214B03
:100920001B7901221340DBB2002BF2D100E0C0465C
:100930001B4B00221A8005E0194B1A88FA239B00F2
:100940009A4229D8184B9A6980231B021340F3D18D
:10095000144B1A7901210A431A71144B0021180013
:1009600004F000F8202004F077F8031E07D02020C0
:1009700004F0A0F80E4B4021180005F0ADFE0B4B23
:100980007A68DA60094BFA1C12785A60074B012129
:10099000180003F0E7FF00E0C046BD4602B080BD8E
:1009A000C60A0020C00A0020005400401C0002407B
:1009B0000038014080B582B000AF78602A4B1B78C8
:1009C0000021180000F000FA284B1B78002B47D0BC
:1009D000012B00D047E0264B00225A70234B1A7996
:1009E000244B5A73244B1B78002B13D0214B234AE2
:1009F0009A60214B1A781F4B1A731E4B204A1A60BB
:100A000004F02CFB1B4B1A79194B5A701A4B00221D
:100A10001A7016E0184B5B78002B12D0154B194A50
:100A20009A60154B5A78134B1A73124B144A1A607A
:100A300004F014FB0F4B1A790D4B5A700E4B002229
:100A40005A700B4B5B78002B0CD0052002F00EFF88
:100A5000074B5A780A4B11001800FFF74FFF01E0CF
:100A6000C046ABE7C046A9E7D40F0020C80F00205E
:100A700000000020B80F00207C0A00207E0A002021
:100A8000020000209E0A002080B584B000AF020062
:100A9000FB1D1A70BB1D0A1C1A70294B1B78DBB298
:100AA0000133DAB2264B1A700F23FB1800221A709A
:100AB00039E0244B9B680F22BA181278012191402B
:100AC0000A00134028D11F4B9B680F22BA181278D6
:100AD000012191400A001A431A4B9A60194B1B6876
:100AE000BA1D11780F22BA18127891400A001A43E1
:100AF000144B1A60134B5B68FA1D11780F22BA1859
:100B0000127891400A001A430E4B5A6000F030FDF3
:100B10000F23FB181B780EE00F23FB181A780F2306
:100B2000FB1801321A700F23FB181B781F2BC0D93A
:100B300000F01EFDFF231800BD4604B080BDC04676
:100B4000E10A0020C80A002080B584B000AF02008E
:100B5000FB1D1A70BB1D0A1C1A70444BBB60444B32
:100B60001B78DBB2002B01D003237BE0BB689B68C2
:100B7000FA1D1278012191400A00134001D101238E
:100B800070E03C4B1B78DBB20133DAB2394B1A70A0
:100B9000BB68DB68FB603EE0FB689B68FA1D12786F
:100BA000012191400A00134032D0BB1D1B78002B5D
:100BB00003D100F0DDFC042354E0BB1D1B78012BA6
:100BC00026D1FB681B7C002B1BD1FB689B68FA1DA0
:100BD0001278012191400A00934206D1FB68180067
:100BE00000F0AEFB0300FB6015E0FB689B68FA1D9C
:100BF0001278012191400A00D2431A40FB689A60A2
:100C000006E0FB68180000F09BFB0300FB6002E0BD
:100C1000FB681B68FB60FB68002BBDD1BB689B6851
:100C2000FA1D1278012191400A00D2431A40BB6894
:100C30009A60BB681B68FA1D1278012191400A0076
:100C4000D2431A40BB681A60BB685B68FA1D127811
:100C5000012191400A00D2431A40BB685A6000F05B
:100C600087FC00231800BD4604B080BDC80A0020E0
:100C7000E00A0020E10A002080B584B000AF020045
:100C8000FB1D1A701C4BFB60FB1D1B781F2B01D931
:100C900001232DE0FB689B68FA1D12780121914029
:100CA0000A00134001D1012322E0FB681B68FA1DF2
:100CB0001278012191400A00134018D00F4B1B7885
:100CC000DBB20133DAB20D4B1A70FB681A680A4BBB
:100CD0005B68F91D09780120884001000B40DB4367
:100CE0001A40FB681A6000F043FC002300E00C236C
:100CF0001800BD4604B080BDC80A0020E10A0020EB
:100D000080B586B000AFF8607A600B23FB180A1C30
:100D10001A702B4B7B617B699B68FA681A40FB68F1
:100D20009A4204D07B6802221A70002344E07B6957
:100D30001B68FA6813403B61224B1B78DBB201331E
:100D4000DAB2204B1A703B69002B15D00B23FB182D
:100D50001B78012B10D17B691A687B695B68396944
:100D60000B40DB431A407B691A6000F001FC7B6892
:100D700000221A703B691FE03A69FB689A4215D15C
:100D80000B23FB181B78002B10D17B691A687B6939
:100D90005B6839690B40DB431A407B691A6000F0DD
:100DA000E7FB7B6800221A703B6905E000F0E0FB7E
:100DB0007B680C221A7000231800BD4606B080BD67
:100DC000C80A0020E10A002080B58AB000AF020006
:100DD0003960FB1D1A70594B1B78DBB2002B01D018
:100DE0000323A6E0564B1B78DBB2002B01D0152362
:100DF0009FE0FB1D1B781F2B01D9012399E0514B6C
:100E00009B68FA1D1278012191400A00134001D11C
:100E100001238EE04A4B1B78DBB20133DAB2484B38
:100E20001A70484B7B627B6A1B68FA1D127801219D
:100E300091400A00134010D07B6A1A687B6A5B6895
:100E4000F91D09780120884001000B40DB431A405E
:100E50007B6A1A6000F08CFB6AE03B4B1B683B62CC
:100E60003B68002B2FD1FB1D1B7801229A401300F9
:100E700019000C23FB180222180000F025FA3B6A27
:100E800002225A71314B01221A7000F071FB3B6A49
:100E90000022DA612A4B1B78DBB20133DAB2284B2D
:100EA0001A707B6A1A68FB1D1B78012199400B00A0
:100EB00019007B6A5B680B40DB431A407B6A1A604F
:100EC00000F056FB34E0FB1D1B7801229A40130012
:100ED00019000C23FB180222180000F0F5F93A68FB
:100EE0003B6A1100180002F0E7FB00F041FB3B6A8F
:100EF000DB69002B01D105231BE03B6A0022DA618C
:100F00000F4B1B78DBB20133DAB20D4B1A707B6AE0
:100F10001A68FB1D1B78012199400B0019007B6AA0
:100F20005B680B40DB431A407B6A1A6000F020FBD1
:100F300000231800BD460AB080BDC046E00A00206C
:100F4000E10A0020C80A0020980C0020E20A0020D4
:100F500080B58CB000AFF8607A603B600B23FB1863
:100F60000A1C1A706A4B1B78DBB2002B04D03B685A
:100F700003221A700023C6E0664B1B78DBB2002BFD
:100F800004D03B6815221A700023BCE0624B9B68BA
:100F9000FA681A40FB689A4204D03B6802221A7031
:100FA0000023B0E05B4B1B78DBB20133DAB2594B64
:100FB0001A70594BFB62FB6A1B68FA681340BB62EC
:100FC000BB6A002B15D00B23FB181B78012B10D10B
:100FD000FB6A1A68FB6A5B68B96A0B40DB431A401C
:100FE000FB6A1A6000F0C4FA3B6800221A70BB6A00
:100FF00089E0BA6AFB689A4215D10B23FB181B786B
:10100000002B10D1FB6A1A68FB6A5B68B96A0B4057
:10101000DB431A40FB6A1A6000F0AAFA3B68002220
:101020001A70BB6A6FE03D4B1B687B627B68002BCC
:1010300030D10B23FB181A78F9681023FB1818001D
:1010400000F042F97B6A02225A71354B01221A7074
:1010500000F08EFA7B6A0022DA612E4B1B78DBB23D
:101060000133DAB22B4B1A70FB6A1B68FA68134023
:10107000BB62FB6A1A68FB6A5B68B96A0B40DB43B8
:101080001A40FB6A1A6000F073FA3B6800221A707B
:10109000BB6A38E00B23FB181A78F9681023FB1899
:1010A000180000F011F97A687B6A1100180002F04C
:1010B00003FB00F05DFA7B6ADB69002B04D13B681F
:1010C00005221A7000231EE07B6A0022DA61114BB0
:1010D0001B78DBB20133DAB20E4B1A700E4B1B6871
:1010E000FA681340BB62FB6A1A68FB6A5B68B96AFC
:1010F0000B40DB431A40FB6A1A6000F039FA3B6888
:1011000000221A70BB6A1800BD460CB080BDC046F4
:10111000E00A0020E10A0020C80A0020980C002004
:10112000E20A002080B584B000AF0200FB1D1A70F7
:10113000114BFB60FB1D1B781F2B01D9012316E00F
:10114000FB689B68FA1D1278012191400A00134048
:1011500001D101230BE0FB681B68FA1D1278012105
:1011600091400A00D2431A40FB681A60002318001D
:10117000BD4604B080BDC046C80A002080B584B01A
:1011800000AF0200FB1D1A703B4BBB60FB1D1B78C0
:101190001F2B01D901236AE0BB689B68FA1D1278F6
:1011A000012191400A00134001D101235FE0BB6897
:1011B0001B68FA1D1278012191400A00134001D0EA
:1011C000002354E0BB681B68FA1D1278012191408E
:1011D0000A001A43BB681A60284B1B78DBB2013344
:1011E000DAB2264B1A70BB68DB68FB6035E0FB683F
:1011F0001B7C002B18D1FB689A68BB681B681A40DF
:10120000FB689B689A4225D1FB68180000F098F8AB
:101210000300FB60BB685B68FA1D127801219140F6
:101220000A0013401DD118E0FB689A68BB681B6870
:1012300013400FD0FB68180000F082F80300FB6039
:10124000BB685B68FA1D1278012191400A001340C7
:1012500009D102E0FB681B68FB60FB68002BC6D16C
:1012600002E0C04600E0C04600F082F9002318000A
:10127000BD4604B080BDC046C80A0020E10A002077
:1012800080B582B000AF0200FB1D1A700D4B1B78B9
:10129000DBB2002B0CD0FB1D1B78002219000320B1
:1012A00000F084FA031E01D1122307E0002305E0B9
:1012B000FB1D1B781800FFF761FF03001800BD46F7
:1012C00002B080BDE10A002080B586B000AFF860B2
:1012D000B960FB1D1A70184B7B61184B1B68FA68CC
:1012E000DA61164B1A68FB68DA60FB68BA689A60C4
:1012F000FB68FA1D12781A747B691B69002B09D1EF
:10130000FB6800221A60FB6800225A607B69FA6859
:10131000DA600AE07B691B69FA681A607B691A69FE
:10132000FB685A60FB6800221A607B69FA681A61E0
:10133000C046BD4606B080BDC80A0020980C0020FB
:1013400080B584B000AF78607B68180000F024F8A6
:101350007B68DB68FB60FB681B6A013303D0FB68BA
:10136000180002F01FFAFB6801225242DA61094BB1
:101370001B68FA689A4203D1FB6801225A7103E0A4
:10138000FB68180001F062FA7B681B681800BD4614
:1013900004B080BD980C002080B582B000AF7860AA
:1013A0007B681B68002B0AD17B685B68002B06D129
:1013B000194B0022DA60184B00221A6123E07B6887
:1013C0001B68002B08D17B685A68134B1A617B6835
:1013D0005B6800221A6016E07B685B68002B08D10E
:1013E0007B681A680C4BDA607B681B6800225A60C5
:1013F00009E07B681B687A6852685A607B685B68A2
:101400007A6812681A607B68DB680022DA61C0467D
:10141000BD4602B080BDC046C80A002080B584B079
:1014200000AF78600A4B1B68002B02D1084B094AB9
:101430001A60074B1B68FB60054B1A687B68D21863
:10144000034B1A60FB681800BD4604B080BDC0465F
:10145000DC0A0020DC15002080B582B000AF786087
:10146000396001235B421800BD4602B080BDC04612
:1014700080B582B000AF786001235B421800BD46A2
:1014800002B080BD80B582B000AF786039603B6843
:10149000802292015A6000231800BD4602B080BD30
:1014A00080B582B000AF786001231800BD4602B05D
:1014B00080BDC04680B584B000AFF860B9607A6086
:1014C00000231800BD4604B080BDC04680B584B07E
:1014D00000AFF860B9607A607B681800BD4604B060
:1014E00080BDC04680B584B000AFF860B9607A6056
:1014F0007B681800BD4604B080BDC04680B500AF13
:10150000FEE7C04680B500AF034B180005F080FA37
:10151000C046BD4680BDC046E00A002080B500AF91
:10152000104B180005F088FA0E4B1B78DBB2002B2D
:1015300014D10D4B1B78DBB2012B0FD10B4B1B7859
:10154000DBB20133DAB2094B1A7001F041FB074BF1
:101550001B78DBB2013BDAB2044B1A70C046BD46C1
:1015600080BDC046E00A0020E20A0020E10A002017
:1015700080B500AF0F4B1B78DBB2012B10D10E4BA7
:101580001B78012B01D100F05DF90C4B1B78DBB20D
:10159000012B01D101F01CFB064B00221A7006E062
:1015A000044B1B78DBB2013BDAB2024B1A70C04627
:1015B000BD4680BDE10A00201C0B0020E20A00208D
:1015C00080B500AF044B1B78DBB20133DAB2024BBB
:1015D0001A70C046BD4680BDE10A002080B500AF4C
:1015E000FFF7C6FFC046BD4680BDC04680B500AF10
:1015F000174B184A1A60184B07221A60174B174AE4
:101600001268FF2109060A431A60154B144A126832
:1016100014490A431A6001F0DBF805F003FB01F0FE
:10162000E9FD114B1B78DBB20133DAB20E4B1A70B5
:101630000E49CA235A010E480B00002101F09CFB01
:101640000A4B180005F018FAC046BD4680BDC046DA
:1016500014E000E07FBB000010E000E01CED00E0C3
:1016600020ED00E00000FFFFE10A0020880C0020D0
:101670006D71000880B500AF0A4B0B4A1A60094B28
:101680001A680A4B1A60074B1B6801225A71054BF6
:101690001B68180001F062F9FFF76AFFC046BD46FB
:1016A00080BDC046980C0020200B0020940C002028
:1016B00080B500AF8B235B001800BD4680BDC046DF
:1016C00080B586B000AFF860B9607A607B687B61F6
:1016D0007B691A1F7A61802252041A607B691A1F83
:1016E0007A61FA681A607B69022252421A607B6949
:1016F000143B7B61BA687B691A607B69203B7B6124
:101700007B691800BD4606B080BDC046B0B500AFCD
:10171000214B1B78DBB20133DAB21F4B1A701F4B1F
:101720005C681B68012100225B1854411B4A13604E
:1017300054601B4B1B68002B10D0194B1B681B6A95
:10174000012B05D9164B1B681A6A013A1A6205E08B
:10175000134B1B6800221A6202F0A6F9114B1B689A
:10176000002B10D00F4B1B685B68012B05D90D4B6C
:101770001B685A68013A5A6005E00A4B1B68002250
:101780005A6004F047F9084B01221A70FFF7F0FE87
:10179000C046BD46B0BDC046E10A0020E80A0020B0
:1017A0007C0D0020100E0020E20A002090B585B0CC
:1017B00000AF3A60FB1D021C1A70BB1D0A1C1A7098
:1017C00005F054F91D4B1B78042B03D905F048F99B
:1017D00000232EE00F23FC18184B180005F018F911
:1017E000030023700E23FB18144A52781A70144B0E
:1017F00001221A700F23FB181A780E23FB181B788E
:10180000D3180521180005F02FFE0B00DA000B4B52
:10181000D3180433BB60BB68FA1D12781A70BB681A
:10182000BA1D12785A70BB683A685A6005F018F908
:1018300001231800BD4605B090BDC046F00A002047
:101840001C0B002080B582B000AF284B1B78012B09
:1018500004D102F0EBF8254B00221A70244B1B78C0
:10186000012B30D104F09AF8214B00221A702AE0A3
:1018700005F0FCF81F4B5B7838001E4ADB000421A2
:10188000D3185A18030003CA03C31A4B5B780133F9
:101890000521180005F0E8FD0B00DAB2154B5A706F
:1018A000144B1B78013BDAB2124B1A7005F0D8F8D2
:1018B0003B001B78032B05D13B005B781800FFF73A
:1018C0005DFC00E0C0460B4B1B78002BD0D105F02F
:1018D000CDF8084B1B78002B02D1074B00221A7061
:1018E00005F0BEF8C046BD4602B080BD1D0B00200D
:1018F0001E0B0020F00A00201C0B002080B582B0D7
:1019000000AF0200FB1D1A70064BFA1D1278110081
:101910001F220A40012191400A001A60C046BD46BC
:1019200002B080BD00E100E0B0B582B000AF0200BF
:101930003960FB1D1A70FB1D1B787F2B32D92F4C91
:10194000FB1D1B781A000F231340083B99082B4AF4
:10195000FB1D1B7818000F230340083B9B08063330
:101960009B00D31804331B68FA1D12781000032261
:101970000240D200FF2090400200D2431A403B6850
:101980009B01FF201840FB1D1B781D0003232B40EB
:10199000DB00984003001A438B1D9B00E3180433BF
:1019A0001A6027E0164CFB1D1B785BB29B0814499C
:1019B000FA1D127852B29208C03292005258F91DA4
:1019C0000978080003210140C900FF208840010078
:1019D000C94311403A689201FF201040FA1D127865
:1019E000150003222A40D200904002000A43C0336F
:1019F0009B001A51C046BD4602B0B0BD00ED00E0EC
:101A000000E100E080B500AFFFF77CFD144B1B88C0
:101A1000144A934205D8124B1B8801339AB2104BDB
:101A20001A80114B1B880F4A934205D80E4B1B8816
:101A300001339AB20C4B1A800C4B1B88094A934213
:101A400005D80A4B1B8801339AB2084B1A80084B01
:101A5000022252421A82FFF761FDC046BD4680BD98
:101A6000780A00201F4E0000860D0020C60A0020C4
:101A70000010004080B500AF174B174AD269102103
:101A80000A43DA61144B144A126910210A431A619D
:101A9000114B114A126910218A431A610F4B84229B
:101AA0001A800E4B01229A810C4B0D4A1A850B4B62
:101AB0002722DA62094A094B1B889BB201210B439A
:101AC0009BB213801120FFF719FF00211120FFF7AF
:101AD0002BFFC046BD4680BD0010024000100040F4
:101AE000AF04000080B500AF1A4B1A4A12680121FA
:101AF0000A431A60174B174A526817490A405A603E
:101B0000144B144A126815490A401A60114B114AC5
:101B1000126813490A401A600E4B0E4A5268114966
:101B20000A405A600B4B0B4AD26A0F218A43DA6291
:101B3000084B084A126B0C490A401A63054B054AC8
:101B4000526B01218A435A63024B00229A60C046BD
:101B5000BD4680BD001002400CB8FF08FFFFF6FE36
:101B6000FFFFFBFFFFFFC0FFACFEF0FF80B582B0C0
:101B700000AF0200FB1D1A70054B00221A70044AC8
:101B8000FB1D1B781370C046BD4602B080BDC04629
:101B90000210024090B583B000AF00233B60FB1DF4
:101BA00000221A70BB1D00221A70BC1D112000F00B
:101BB0005DFD030023703B6801333B603A68A0235E
:101BC000DB019A4203D0BB1D1B78002BEDD0112006
:101BD00000F04CFD031E03D0FB1D01221A7002E031
:101BE000FB1D00221A70FB1D1B781800BD4603B0B8
:101BF00090BDC04680B584B000AF0200FB1D1A70D6
:101C00000023FB60094B1B68FB60FB68F8229343D1
:101C1000FB60FB1D1B78DB00FA681343FB60034B82
:101C2000FA681A60C046BD4604B080BD001002408C
:101C300080B582B000AF0200FB1D1A70FB1D1B783F
:101C4000002B06D0084B084A126801210A431A608B
:101C500005E0054B044A126801218A431A60C04618
:101C6000BD4602B080BDC0460010024080B584B0C1
:101C700000AF0200FB1D1A700023FB60094B5B6B79
:101C8000FB60FB68F8229343FB60FB1D1B78DB00C5
:101C9000FA681343FB60034BFA685A63C046BD46BB
:101CA00004B080BD0010024080B582B000AF0200D9
:101CB000FB1D1A70FB1D1B78002B06D0084B084A31
:101CC000526B01210A435A6305E0054B044A526BEB
:101CD00001218A435A63C046BD4602B080BDC0465A
:101CE0000010024080B582B000AF0200FB1D1A70E8
:101CF000FB1D1B78002B06D0084B084A526B0421B1
:101D00008A435A6305E0054B044A526B04210A4397
:101D10005A63C046BD4602B080BDC04600100240B6
:101D200080B582B000AF78600A4B0A4A126A01217E
:101D30008A431A62074B074A126A04218A431A62CD
:101D4000044B044A116A7A680A431A62C046BD46C7
:101D500002B080BD0010024080B582B000AF786054
:101D6000074B074A126A18218A431A62044B044A35
:101D7000116A7A680A431A62C046BD4602B080BD45
:101D80000010024080B582B000AF0200FB1D1A7047
:101D9000FB1D1B78002B06D0084B084A526A012114
:101DA0000A435A6205E0054B044A526A01218A43FC
:101DB0005A62C046BD4602B080BDC0460010024017
:101DC00080B582B000AF78603960094B084A52682C
:101DD00008490A405A60064B054A516878683A68D3
:101DE00002430A435A60C046BD4602B080BDC046A9
:101DF00000100240FF7FC2FF80B582B000AF02003A
:101E0000FB1D1A70FB1D1B78002B07D0084B084ADE
:101E10001268802149040A431A6005E0044B044A11
:101E2000126804490A401A60C046BD4602B080BD2F
:101E300000100240FFFFFFFE80B582B000AF02003D
:101E4000FB1D1A70FB1D1B78002B07D0084B084A9E
:101E5000526B802149020A435A6305E0044B044A4D
:101E6000526B04490A405A63C046BD4602B080BD69
:101E700000100240FFFFFEFF80B584B000AF786025
:101E80000023FB60084BDB6AFB60FB680F22934377
:101E9000FB60FA687B681343FB60034BFA68DA6205
:101EA000C046BD4604B080BD0010024080B582B07F
:101EB00000AF0200FB1D1A70FB1D1B78002B07D022
:101EC000084B084A1268802109030A431A6005E09A
:101ED000044B044A126804490A401A60C046BD46D1
:101EE00002B080BD00100240FFFFF7FF80B584B054
:101EF00000AF02003960FB1D1A700023FB600B4B22
:101F00005B68FB60FB681B021B0AFB60FB1D1B7808
:101F10001A063B681343FA681343FB60034BFA68E5
:101F20005A60C046BD4604B080BDC04600100240A5
:101F300080B584B000AF78600023FB60084B5B681D
:101F4000FB60FB6803229343FB60FA687B681343E2
:101F5000FB60034BFA685A60C046BD4604B080BDC2
:101F60000010024080B500AF044B5B68DBB20C226E
:101F70001340DBB21800BD4680BDC04600100240D1
:101F800080B584B000AF78600023FB60084B5B68CD
:101F9000FB60FB68F0229343FB60FA687B681343A5
:101FA000FB60034BFA685A60C046BD4604B080BD72
:101FB0000010024080B584B000AF78600023FB6061
:101FC000084B5B68FB60FB68074A1340FB60FA68DC
:101FD0007B681343FB60034BFA685A60C046BD46FA
:101FE00004B080BD00100240FFF8FFFF80B582B052
:101FF00000AF78600F4B0F4A52680F490A405A6091
:102000000C4B0C4A51687A681204120C0A435A604D
:10201000084B084A126B09490A401A63054B054AE6
:10202000116B7A68120C0A431A63C046BD4602B0AF
:1020300080BDC04600100240FFBFFFFFFFFEFFFF54
:1020400080B582B000AF7860074B074A126B402121
:102050008A431A63044B044A116B7A680A431A6371
:10206000C046BD4602B080BD0010024080B582B0BF
:1020700000AF7860074B074A126B10218A431A633E
:10208000044B044A116B7A680A431A63C046BD4682
:1020900002B080BD0010024080B584B000AF78600F
:1020A0000023FB607B681B0FFB60FB68012B06D1E4
:1020B000104B104A126B03218A431A630FE0FB682E
:1020C000022B06D10B4B0B4A126B0B490A401A63C9
:1020D00005E0084B074A126B08490A401A63054B92
:1020E000044A116B7A680A431A63C046BD4604B0BD
:1020F00080BDC04600100240FFFFFCFFFFFFF3FF62
:1021000080B582B000AF7860074B074A126B802120
:102110008A431A63044B044A116B7A680A431A63B0
:10212000C046BD4602B080BD0010024080B588B0F8
:1021300000AF78600023BB6100237B6100233B611B
:102140000023FB600023BB600023FB61A44B5B68A2
:102150000C221340BB61BB69042B0CD002D8002BAE
:1021600005D03BE0082B0AD00C2B33D036E07B683F
:102170009C4A1A6036E07B689A4A1A6032E0984BB3
:102180005A68F0239B0313407B61954B5A68C02328
:102190005B0213403B617B699B0C02337B613B69B3
:1021A000002B04D17B69904A5343FB610EE08C4BBA
:1021B000DB6A0F2213400133FB60F968894804F0A1
:1021C000E3FF03001A007B695343FB617B68FA69F4
:1021D0001A6007E07B68854A1A6003E07B68814AE1
:1021E0001A60C0467E4B5B68F0221340BB61BB693E
:1021F0001B09BB617E4ABB69D3181B78DBB2BB608D
:102200007B681A68BB68DA407B685A60744B5A680E
:10221000E023DB001340BB61BB691B0ABB61744A4E
:10222000BB69D3181B78DBB2BB607B685A68BB689C
:10223000DA407B689A606A4B1A6B80235B0013401C
:1022400003D17B686B4ADA6010E0654B5A688023E3
:10225000DB01134005D17B689B685A087B68DA6014
:1022600004E07B689B689A087B68DA605C4B1B6BB8
:102270004022134003D17B685F4A1A6103E07B6808
:10228000802212021A61564B1B6B1022134003D19D
:102290007B68544A5A6103E07B681A687B685A611C
:1022A0004F4B1B6B0322134004D17B689A687B68F9
:1022B0009A611EE04A4B1B6B03221340012B04D191
:1022C0007B681A687B689A6113E0454B1B6B03229D
:1022D0001340022B04D17B68802212029A6108E02D
:1022E0003F4B1B6B03221340032B02D17B683D4AFB
:1022F0009A613B4B1A6BC0239B02134004D17B684D
:102300009A687B68DA6127E0354B1A6BC0239B0221
:102310001A4080235B029A4204D17B681A687B686A
:10232000DA6119E02E4B1A6BC0239B021A408023FE
:102330009B029A4204D17B6880221202DA610BE090
:10234000274B1A6BC0239B021A40C0239B029A4260
:1023500002D17B68234ADA61214B1A6BC0231B032D
:10236000134004D17B689A687B681A6227E01C4B93
:102370001A6BC0231B031A408023DB029A4204D14C
:102380007B681A687B681A6219E0154B1A6BC023C8
:102390001B031A4080231B039A4204D17B688022CE
:1023A00012021A620BE00E4B1A6BC0231B031A4079
:1023B000C0231B039A4202D17B680A4A1A62084B67
:1023C0001B6B8022134003D17B68084A5A6202E0EB
:1023D0007B68FA695A62C046BD4608B080BDC046F7
:1023E0000010024000127A0000093D00006CDC027F
:1023F00024000020809FD5001280000080B582B0AC
:1024000000AF7860044B044A116A7A680A431A6282
:10241000C046BD4602B080BD0010024080B582B00B
:1024200000AF0200FB1D1A70FB1D1B78002B07D0AC
:10243000084B084A126A802109020A431A6205E021
:10244000044B044A126A04490A401A62C046BD4657
:1024500002B080BD00100240FF7FFFFF80B582B058
:1024600000AF0200FB1D1A70FB1D1B78002B07D06C
:10247000084B084A126A802149020A431A6205E0A1
:10248000044B044A126A04490A401A62C046BD4617
:1024900002B080BD00100240FFFFFEFF80B582B099
:1024A00000AF78600A00FB1C1A70FB1C1B78002B25
:1024B00006D0094B084A51697A680A435A6106E016
:1024C000054B054A52697968C9430A405A61C046BA
:1024D000BD4602B080BDC0460010024080B582B04B
:1024E00000AF78600A00FB1C1A70FB1C1B78002BE5
:1024F00006D0094B084A91697A680A439A6106E056
:10250000054B054A92697968C9430A409A61C046F9
:10251000BD4602B080BDC0460010024080B582B00A
:1025200000AF78600A00FB1C1A70FB1C1B78002BA4
:1025300006D0094B084AD1697A680A43DA6106E095
:10254000054B054AD2697968C9430A40DA61C04639
:10255000BD4602B080BDC0460010024080B582B0CA
:1025600000AF78600A00FB1C1A70FB1C1B78002B64
:1025700006D0094B084A916A7A680A439A6206E0D3
:10258000054B054A926A7968C9430A409A62C04677
:10259000BD4602B080BDC0460010024080B582B08A
:1025A00000AF78600A00FB1C1A70FB1C1B78002B24
:1025B00006D0094B084AD1687A680A43DA6006E017
:1025C000054B054AD2687968C9430A40DA60C046BB
:1025D000BD4602B080BDC0460010024080B582B04A
:1025E00000AF78600A00FB1C1A70FB1C1B78002BE4
:1025F00006D0094B084A11697A680A431A6106E055
:10260000054B054A12697968C9430A401A61C046F8
:10261000BD4602B080BDC0460010024080B582B009
:1026200000AF0200FB1D1A70BB1D0A1C1A70BB1DF7
:102630001B78002B09D00C490B4B1B78DAB2FB1D21
:102640001B781343DBB20B700AE00749064B1B787B
:10265000DBB2FA1D1278D243D2B21340DBB20B7058
:10266000C046BD4602B080BD0910024080B586B0AC
:1026700000AF0200FB1D1A700023FB6000237B618A
:102680001323FB1800221A70FB1D1B785B09DBB2B9
:10269000FB60FB68002B03D1184B1B687B6110E0CB
:1026A000FB68012B03D1154B1B6A7B6109E0FB68BA
:1026B000022B03D1114B5B6A7B6102E00F4B5B6B1A
:1026C0007B61FB1D1B781F221340FB607A69FB684E
:1026D000DA4013000122134004D01323FB18012217
:1026E0001A7003E01323FB1800221A701323FB183F
:1026F0001B781800BD4606B080BDC04600100240E1
:1027000080B500AF044B044A526A802149040A4351
:102710005A62C046BD4680BD0010024080B584B0FC
:1027200000AF0200FB1D1A700F23FB1800221A7065
:102730000A4B9B68FA1D1278134004D00F23FB1834
:1027400001221A7003E00F23FB1800221A700F23D6
:10275000FB181B781800BD4604B080BD0010024075
:1027600080B582B000AF0200FB1D1A70034AFB1D4A
:102770001B781370C046BD4602B080BD0A100240EF
:102780000C488546002103E00B4B5B584350043155
:102790000A480B4B42189A42F6D30A4A02E0002339
:1027A00013600432084B9A42F9D304F011F804F094
:1027B000BFF9FEE70020002024DB00080000002015
:1027C000100A0020100A0020DC150020FEE700009F
:1027D00080B584B000AF1A4BBB601A4B7B600F23EF
:1027E000FB1800221A7017E0BB680F22BA18127883
:1027F0009A71BB6803225A71BB687A685A62BB68D7
:102800002C33BB607B682C337B600F23FB181A785A
:102810000F23FB1801321A700F23FB181B78042BAF
:10282000E2D9BB680F22BA1812789A71BB680022ED
:102830005A62054B024A1A60C046BD4604B080BDCC
:10284000200B00204C0B00208C0C0020F0B587B032
:1028500000AF78600F23FB187A6812791A707B68D2
:1028600000225A71384B1B683B613B691B790F2270
:10287000BA1812789A421ED13A697B689A421AD0E5
:102880003B69002B17D0314B5C681B68304A1168DC
:102890005268A24202D80ED199420CD93B695B8999
:1028A0001D0000231E002A4B5C681B685B197441E5
:1028B000264A13605460274B1B683B613B69002B21
:1028C00006D1254B01221A70224B7A681A6037E034
:1028D0003B691B790F22BA1812789A420CD21E4B10
:1028E00001221A707B683A695A623B697A689A6277
:1028F000184B7A681A6023E03B695B6A7B610BE0E6
:102900007B691B790F22BA1812789A4208D37B6927
:102910003B617B695B6A7B617B69002BF0D100E0E6
:10292000C0467B687A695A623B697A685A627B68FA
:102930003A699A627B69002B02D07B697A689A6255
:10294000C046BD4607B0F0BD980C0020A00C00208A
:10295000E80A0020900C0020E20A002080B582B036
:1029600000AF78607B685B6A002B07D17B689B6A4D
:10297000002B03D1194B00221A602BE07B689B6A65
:10298000002B0BD17B685A6A144B1A607B680022BB
:102990005A62124B1B6800229A621BE07B685B6ADA
:1029A000002B07D17B689B6A00225A627B68002259
:1029B0009A620FE07B689B6A7A68526A5A627B6807
:1029C0005B6A7A68926A9A627B6800225A627B68C4
:1029D00000229A62C046BD4602B080BD900C002025
:1029E00080B586B000AF0200FB1D1A70BB1D0A1C2B
:1029F0001A70FB1D1B78002B01D11423D7E0FB1D9F
:102A00001B78052B01D90123D1E0FB1D1B782C225B
:102A10005A43694BD3187B617B695B79032B01D1E6
:102A20000123C4E0BB1D1B78402B01D90123BEE06C
:102A30007B691B79BA1D12789A4200D1B6E07B6996
:102A4000DB79FF2B17D07B69DB79DA005B4BD3187E
:102A5000FB60FB689A787B699B799A420BD1FB6893
:102A6000BA1D12781A707B691B79BA1D12789A42C6
:102A700001D900239BE07B69BA1D12781A717B692A
:102A80005B79002B11D14E4B1B78DBB20133DAB2EC
:102A90004B4B1A707B691800FFF760FF7B691800C9
:102AA000FFF7D4FEFEF764FD80E07B695B79012BC4
:102AB00014D17B691A79434B1B681B799A4200D861
:102AC00074E03F4B1B78DBB20133DAB23C4B1A7037
:102AD0003D4B01221A70FEF74BFD67E07B69DB7905
:102AE000FF2B41D0364B1B78DBB20133DAB2344BCB
:102AF0001A707B69DB79DA00304BD318FB60FB6816
:102B00005B687B611323FB18FA6812781A70FB6804
:102B10009A78FB68DA7012E07B691B791322BA1885
:102B200012789A4208D91323FB187A6912791A701D
:102B30007B699A79FB68DA707B695B6A7B617B6988
:102B4000002BE9D1FEF714FDFB681B781322BA189D
:102B500012789A4208D0FB689A781323FB181B78E6
:102B600019001000FFF73CFFFB1D1B782C225A4375
:102B7000114BD3187B617B691B7AFF2B16D07B69C5
:102B80001B7A1A01114BD318BB60BB685B790F220B
:102B90009343DBB2202B09D17B69180004F006FABD
:102BA0007A69BB681100180004F048F90023180086
:102BB000BD4606B080BDC046200B00208C0D002015
:102BC000E10A0020900C0020E20A0020180E0020EC
:102BD000F0B585B000AF4C4B1B68FB604B4B1B68DE
:102BE000BB60BB68002B00D188E0494B1B68FA68CA
:102BF0009A4200D082E0474B1B78DBB2012B00D910
:102C00007CE0454B1B78DBB2002B00D076E0434BD9
:102C100000221A70FB1DFA6812791A70BB1DBA687F
:102C200012791A70FB685B79012B0AD0384BBA68AD
:102C30001A60BB6801225A71BB681800FFF78EFE4C
:102C400032E0BA1DFB1D12781B789A420ED2304B2F
:102C5000BA681A60FB681800FFF7F8FDBB68180037
:102C6000FFF77CFEBB6801225A711DE0FA1DBB1DF7
:102C700012781B789A4243D1294B19685A68294B1C
:102C80005C681B6899423BD1A24239D1204BBA689B
:102C90001A60FB681800FFF7D9FDBB681800FFF742
:102CA0005DFEBB6801225A71194B1B681A79174BDC
:102CB0001B681B799A420DD1154B1B685B891D005F
:102CC00000231E00174B5C681B685B197441144A93
:102CD00013605460FB681A68FB68DB689A4205D38E
:102CE000FB68DB681B68104A934204D0FB689B7941
:102CF000180004F041FA03F0C5FE02E0C04600E00F
:102D0000C046BD4605B0F0BD980C0020900C0020D8
:102D1000940C0020E10A0020E00A0020E20A0020D2
:102D2000A00C0020E80A0020A5A55A5A80B582B060
:102D300000AF0F4B1B78DBB20133DAB20C4B1A70C9
:102D40000C4B1B68002B03D1FEF712FC00230AE09A
:102D5000084B1B687B60074B1B685A6A054B1A605F
:102D6000FEF706FC7B681800BD4602B080BDC04679
:102D7000E10A00208C0C002080B588B000AFF8601C
:102D8000B9607A603B607B681B0A9AB21C23FB180F
:102D90001205120D1A801B23FB187A681A70FB6843
:102DA000002B01D1FF2383E03B68002B01D1FF23DF
:102DB0007EE01B23FB181B78402B01D9FF2377E013
:102DC0001C23FB181B88132B01D8FF2370E03A68E3
:102DD000B968FB681800FEF773FC03007B61FFF71E
:102DE000A5FF03003B613B69002B01D1FF235FE09E
:102DF0003B697A691A603B691B22BA1812781A710A
:102E00001C23FB181A8813009B079B1A9B00043392
:102E10003A68D2183B69DA603B69DB68264A1A6077
:102E20003B69012252421A623B6900225A623B69A5
:102E300000229A627B681B0D9AB21E23FB18520572
:102E4000520D1A801E23FB181B88002B03D11E2352
:102E5000FB180A221A803B691E22BA1812885A816E
:102E60003B690022DA613B69FF221A723B6900224A
:102E70001A613B6900225A613B6900229A613B69F1
:102E8000FF22DA717B68002B0DDB0C4B1B78DBB269
:102E90000133DAB2094B1A703B691800FFF7D6FC10
:102EA000FEF766FB02E03B6902225A713B699B799F
:102EB0001800BD4608B080BDA5A55A5AE10A0020F9
:102EC00080B584B000AF0200FB1D1A70FB1D1B789B
:102ED000052B01D9012376E0FB1D1B782C225A43D8
:102EE0003B4BD318FB60FB685B79032B01D10123BB
:102EF00069E0FB1D1B78002B01D1142363E0FB6804
:102F00005B79012B06D1334B1B78DBB2002B01D050
:102F1000152358E0FB68DB79FF2B0FD0FB68DB79CA
:102F20002D4ADB00D31802331A78FB689B799A424A
:102F300004D1FB68DB79180001F0B2FA254B1B784D
:102F4000DBB20133DAB2234B1A70FB685B79002BDA
:102F500004D1FB681800FFF701FD24E0FB685B79F2
:102F6000022B20D1FB681B6A013303D0FB681800D9
:102F700000F018FCFB681B7AFF2B03D0FB681800DD
:102F800004F014F8FB68DB69002B04D0FB68DB69F4
:102F90001800FEF701FAFB68DB79FF2B03D0FB6812
:102FA000180001F02BFBFB6803225A710B4B012226
:102FB0001A700B4B1A68FB685A62094BFA681A6060
:102FC000FEF7D6FA00231800BD4604B080BDC04607
:102FD000200B0020E10A00208C0D0020E20A0020D6
:102FE0008C0C002080B500AF044B1B689B79180047
:102FF000FFF766FFC046BD4680BDC046980C002066
:1030000080B500AF024B1B689B791800BD4680BDA0
:10301000980C002080B582B000AF4B4B4A4A5269F1
:10302000802189020A435A61474B474A926AE0214C
:1030300009030A439A62444B434A926A43490A404D
:103040009A629023DB0501220921180000F03EFF5F
:103050009023DB0501220A21180000F037FF3B0016
:10306000C022D2001A603B0002221A713B000022EB
:103070009A713B0003225A713B000022DA713A0038
:103080009023DB051100180000F0A0FD3B00FF229B
:103090001A603B0000221A713B0000229A713B002B
:1030A00000225A713B000022DA713A009023DB05BE
:1030B0001100180000F08AFD234B234A5269802139
:1030C000C9020A435A61224B01220621180000F06E
:1030D000FDFE1F4B01220721180000F0F7FE3B0008
:1030E000C0221A603B0002221A713B0001229A7131
:1030F0003B0000225A713B000122DA713B00144A66
:103100001900100000F062FD0F4B0F4A5269802138
:1031100009030A435A613B000E4A1A603B00012230
:103120001A713B0000229A713B0000225A713B0049
:103130000022DA713B00084A1900100000F046FD39
:10314000C046BD4602B080BD00100240FFFFF1FF47
:1031500000040048FF0300000008004880B500AFED
:10316000104B1B68FF221A400E4B1A600E4B9B8AB5
:103170009BB21A000D4B1A600C4B1B68FF22934345
:103180001A000A4B1A60094B1A68064B1B68D218C2
:10319000064B1A60044A054B1B689BB29382C046DB
:1031A000BD4680BD980F0020000800489C0F0020FD
:1031B00080B500AF054B9B8A9BB21A00FF231A40D3
:1031C000034B1A60C046BD4680BDC046000800489B
:1031D000980F002080B500AF9023DB051B8A9BB2BF
:1031E0001A00FF231A40024B1A60C046BD4680BD3C
:1031F000A00F002080B500AF0C4A0D4B1A600B4B9E
:10320000C8331A000A4B5A600A4B084A1A60094B25
:103210001B6800221A60074B1B6800225A60054B8E
:103220001B6800229A60C046BD4680BDA80C0020E5
:10323000740D0020700D002080B58AB000AF78605A
:103240007B68002B01D10023A2E07B6803330322BB
:10325000934308337B60504B5B68BB614F4B1B78DB
:10326000DBB20133DAB24D4B1A704D4B1B687B62F7
:1032700000233B6285E07B6A5B68002B04D17B6A9C
:10328000BA69D31AFB6106E07B6A5B681A007B6A45
:10329000D31A013BFB61FA697B689A426CD37B6A63
:1032A0007B617B6908333B61FA697B68D31A0B2B1E
:1032B00022D83B6A002B04D07B6A1A683B6A1A60EA
:1032C00003E07B6A1A68364B1A607B6A5B68002BE6
:1032D00009D07B6A5B68013BFB607B690122134379
:1032E0001A00FB685A607B6A5A687B691A607B6ABD
:1032F0009A687B695A602DE07A6A7B68D318BB6054
:103300003B6A002B03D03B6ABA681A6002E0244B88
:10331000BA681A607B69012213431A00BB689A607D
:103320007B6A5A68BB685A607B6A1A68BB681A6015
:103330007B6A5B68002B06D07B6A5B68013BFB60A5
:10334000FB68BA685A607B69BA681A607B6A9A68D7
:103350007B695A607B6A9B68002B09D07B6A9B68FB
:10336000013BFB607B69012213431A00FB681A6072
:10337000FEF7FEF83B690BE07B6A3B627B6A1B68E9
:103380007B627B6A002B00D075E7FEF7F1F8002323
:103390001800BD460AB080BD740D0020E10A00206F
:1033A000700D002080B588B000AF78607B68002B7E
:1033B00000D15AE17B68083BFB60B04B1A687B6820
:1033C0009A4200D953E1AD4B5A687B689A4200D2C9
:1033D0004FE1AB4B1B78DBB20133DAB2A84B1A706A
:1033E000FA68A84B1B689A4214D2A64B1B689B68CC
:1033F000013B3B6109E03B69002B02D1FEF7B8F8C5
:1034000038E13B695B68013B3B613A69FB689A4282
:10341000F1D131E09B4B1B68002B03D1974B1B680C
:103420007B6125E0974B1B685B68002B05D0954BB3
:103430001B685B68013B7B611AE000237B6117E03E
:103440007B69002B02D1FEF793F813E17B691B68BF
:103450001A000123134007D17B691B68BB61BB695C
:103460005B68013B7B6103E07B691B68013B7B611F
:103470007A69FB689A42E3D1FB681B681A00012352
:10348000134051D1FB685B681A00012313404BD1F4
:10349000FB681B68002B12D1FB685B68002B0ED108
:1034A000FB68FB61FB6900221A60FB6900225A601D
:1034B000FB6900229A60734BFA691A60BCE0FB68F2
:1034C0005B68002B13D1FB68FB61FB681B68BB6169
:1034D000BB691A68FB691A60BB695A68FB695A6064
:1034E000FB6900229A60674BFA691A60A4E0FB68E6
:1034F0001B68002B09D1FB685B68FB61FB6900223C
:103500001A60FB6900225A6096E0FB681B68BB6189
:10351000FB685B68FB61BB691A68FB691A60BB6981
:103520005A68FB695A6087E0FB685B681A000123F0
:10353000134020D1FB685B68002B12D1FB68FB6154
:10354000FB681B687B61FB697A695A60FB69002232
:103550009A604C4B1A68FB691A604A4BFA691A6008
:103560006AE0FB685B68FB61FB681B687B61FB6969
:103570007A695A6060E0FB681B681A0001231340F7
:1035800033D1FB685B683B61FB68FB61FB6818003B
:1035900000F07AF80300BB60BB68002B06D1394B02
:1035A0001B68BB61374BFA691A6005E0BB681B6892
:1035B000BB61BB68FA691A60BB69002B09D1FB6962
:1035C0003A699A60FB6900225A60FB6900221A601E
:1035D00032E0FB693A699A60BB695A68FB695A60D4
:1035E000BB691A68FB691A6026E0FB68FB61FB682F
:1035F000180000F049F80300BB60FB685B683B61A2
:10360000FB681B687B61BB68002B06D11D4B1B68E8
:10361000BB611C4BFA691A6005E0BB681B68BB61A3
:10362000BB68FA691A60FB693A699A60FB697A6952
:103630005A60FB69BA691A60FB699B68002B06D067
:10364000FB699B68013B3B613B69FA691A60FB6956
:103650005B68002B06D0FB695B68013B7B617B6983
:10366000FA695A60FDF784FF04E0C04602E0C046F4
:1036700000E0C046BD4608B080BDC046740D0020C5
:10368000E10A0020700D002080B584B000AF7860A2
:103690007B68FB6003E0FB685B68013BFB60FB68E9
:1036A0005B681A0001231340F5D1FB685B681800C2
:1036B000BD4604B080BDC04680B584B000AF786020
:1036C00039603B68002B65D0344B1B68002B06D15A
:1036D0007B683A681A62314B7A681A6053E02F4B64
:1036E0001B68BB603B68FB604AE0FA68BB681B6A0A
:1036F000D31AFB60FB68002B2EDABB689B6A002B99
:103700000ED0BB689B6A7A685A62BB689A6A7B680B
:103710009A627B68BA685A62BB687A689A620AE001
:103720001E4B1A687B685A621C4B1B687A689A6247
:103730001A4B7A681A607B685B6A1A6AFB68D2184F
:103740007B681A627B685B6A7A68526A116A7A6877
:10375000126A8A1A1A6216E0FB68002B0DDBBB683E
:103760005B6A002B09D17B68BA689A62BB687A6889
:103770005A62FA687B681A6205E0BB685B6ABB60E4
:10378000BB68002BB1D17B6802225A71044B012225
:103790001A7000E0C046BD4604B080BD7C0D00201C
:1037A000E20A002080B582B000AF78607B689B6A37
:1037B000002B07D17B685B6A002B03D1244B0022CE
:1037C0001A603DE07B689B6A002B14D17B685A6AC3
:1037D0001F4B1A607B685B6A7A68526A116A7A6862
:1037E000126A8A181A627B685B6A00229A627B6896
:1037F00000225A6224E07B685B6A002B07D17B6859
:103800009B6A00225A627B6800229A6218E07B68F9
:103810009B6A7A68526A5A627B685B6A7A68926AC3
:103820009A627B685B6A7A68526A116A7A68126A7D
:103830008A181A627B6800225A627B6800229A62A8
:103840007B68012252421A62C046BD4602B080BD6A
:103850007C0D002090B500AF034B5C681B6818001E
:103860002100BD4690BDC046E80A002080B582B068
:1038700000AF7860164B1B78DBB2002B01D003231E
:1038800021E07B68013301D102231CE07B68002B1F
:1038900001D1002317E00F4B1B78DBB2002B01D0C6
:1038A000152310E00B4B1B78DBB20133DAB2094B66
:1038B0001A70094B1B687A6811001800FFF7FCFEAC
:1038C000FDF756FE00231800BD4602B080BDC0467D
:1038D000E00A0020E10A0020980C002080B584B0A6
:1038E00000AF02003960FB1D1A70FB1D1B78052B11
:1038F00001D901232EE0FB1D1B782C225A43174BC4
:10390000D318FB60FB681B68002B01D1012321E069
:10391000FB681B6A013301D111231BE0104B1B789C
:10392000DBB20133DAB20E4B1A70FB681800FFF7F6
:1039300039FF3B68002B04D1FB681800FEF786FFB7
:1039400005E03A68FB6811001800FFF7B5FEFDF7C7
:103950000FFE00231800BD4604B080BD200B0020E0
:10396000E10A0020B0B584B000AF05000C001000E3
:103970001900FB1D2A1C1A70BB1D221C1A707B1D0E
:10398000021C1A70BB1C0A1C1A80254B1B78DBB268
:10399000002B01D003233EE0BB1D1B783B2B08D836
:1039A0007B1D1B783B2B04D8BB1C1B881D4A9342F4
:1039B00001D902232FE01C4B1B78DBB2002B01D076
:1039C000152328E0FB1D1B78E12212015A43110048
:1039D000BB1D1A7813001B019B1A9B00CA187B1D84
:1039E0001B78D318FA2292005A431400BB1C1B8880
:1039F000FA2292005343F533FF331A00FA23990059
:103A0000100003F04BFC0300E318FB60FB68180098
:103A1000FFF72CFF00231800BD4604B0B0BDC04620
:103A2000E00A0020E7030000E10A002080B582B030
:103A300000AF1C4B1B687B6028E07B681B7AFF2B68
:103A400003D07B68180003F0B1FA7B68DB69002BB8
:103A500004D07B68DB691800FDF79EFC7B680122BF
:103A600052421A627B685A6A0E4B1A607B680022C7
:103A70005A627B681800FEF7E9FE0A4B1B687B6000
:103A80007B68002B02D07B6800229A627B68002B47
:103A900003D07B681B6A002BCFD0C046BD4602B066
:103AA00080BDC0467C0D002080B500AF084B1B7860
:103AB000DBB2012B06D9074B01221A70064B0122FB
:103AC0001A7001E0FFF7B2FFC046BD4680BDC04698
:103AD000E10A00201C0B00201D0B002080B582B0E5
:103AE00000AF78607A689023DB059A420CD180237E
:103AF0009B0201211800FEF731FD80239B0200216B
:103B00001800FEF72BFD53E07B682B4A93420CD143
:103B10008023DB0201211800FEF720FD8023DB0259
:103B200000211800FEF71AFD42E07B68234A934209
:103B30000CD180231B0301211800FEF70FFD802309
:103B40001B0300211800FEF709FD31E07B681C4AC9
:103B500093420CD180235B0301211800FEF7FEFC89
:103B600080235B0300211800FEF7F8FC20E07B684F
:103B7000144A93420CD180239B0301211800FEF7C5
:103B8000EDFC80239B0300211800FEF7E7FC0FE00B
:103B90007B680D4A93420BD18023DB03012118007F
:103BA000FEF7DCFC8023DB0300211800FEF7D6FCC7
:103BB000C046BD4602B080BD000400480008004871
:103BC000000C0048001000480014004880B586B082
:103BD00000AF7860396000237B6100233B610023E4
:103BE000FB6000237B617CE001227B699A4013002B
:103BF0003B613B681B683A691340FB60FA683B69AC
:103C00009A426BD13B681B79012B03D03B681B792F
:103C1000022B34D17B689B687A6952000321914062
:103C20000A00D2431A407B689A607B689A683B68B6
:103C30005B7919007B695B0099400B001A437B6834
:103C40009A607B689B889BB27A6992B211000122CC
:103C50008A4092B2D24392B213409AB27B689A8061
:103C60007B689B889AB23B689B7919007B699BB201
:103C700099400B009BB213439AB27B689A807B6891
:103C80001B687A695200032191400A00D2431A400E
:103C90007B681A607B681A683B681B7919007B692E
:103CA0005B0099400B001A437B681A607B68DB68F5
:103CB0007A6992B25200032191400A00D2431A401D
:103CC0007B68DA607B68DA683B68DB7919007B69BE
:103CD0005B0099400B001A437B68DA607B69013313
:103CE0007B617B690F2B00D87EE7C046BD4606B0DE
:103CF00080BDC04680B582B000AF78607B68094A5D
:103D00001A607B6800221A717B6801225A717B68F5
:103D100000229A717B680022DA71C046BD4602B06B
:103D200080BDC046FFFF000080B584B000AF786062
:103D30000A00BB1C1A8080235B02FB60BB1C1A8834
:103D4000FB681343FB60FA687B68DA61BB1C1A8866
:103D50007B68DA61FA687B68DA617B68DB69FB6043
:103D60007B68DB69FB60C046BD4604B080BDC046D1
:103D700080B584B000AF78600A00BB1C1A800F23A6
:103D8000FB1800221A707B681B8A9BB2BA1C12882F
:103D900013409BB2002B04D00F23FB1801221A7092
:103DA00003E00F23FB1800221A700F23FB181B7867
:103DB0001800BD4604B080BD80B582B000AF786009
:103DC0007B681B8A9BB21800BD4602B080BDC0460E
:103DD00080B584B000AF78600A00BB1C1A800F2346
:103DE000FB1800221A707B689B8A9BB2BA1C12884F
:103DF00013409BB2002B04D00F23FB1801221A7032
:103E000003E00F23FB1800221A700F23FB181B7806
:103E10001800BD4604B080BD80B582B000AF7860A8
:103E20007B689B8A9BB21800BD4602B080BDC0462D
:103E300080B582B000AF78600A00BB1C1A80BB1C42
:103E40001A887B689A61C046BD4602B080BDC046F4
:103E500080B582B000AF78600A00BB1C1A807B6816
:103E6000BA1C12881A85C046BD4602B080BDC04645
:103E700080B582B000AF786008001100BB1C021C46
:103E80001A807B1C0A1C1A707B1C1B78002B04D028
:103E9000BB1C1A887B689A6103E07B68BA1C128895
:103EA0001A85C046BD4602B080BDC04680B582B00E
:103EB00000AF78600A00BB1C1A807B68BA1C1288AD
:103EC0009A82C046BD4602B080BDC04680B584B06F
:103ED00000AF786008001100BB1C021C1A807B1C1C
:103EE0000A1C1A700023FB600023BB607B1C1A783D
:103EF000BB1C1B8807210B409B009A401300FB60F2
:103F0000BB1C1B88DB089BB21800BB1C1B88DB0892
:103F10009BB21A007B6808329200D358BA1C1288F0
:103F200007210A4092000F2191400A00D2431A4013
:103F300011007B68020008329200D150BB1C1B8824
:103F4000DB089BB21A007B6808329200D258FB68EB
:103F50001343BB60BB1C1B88DB089BB21A007B6849
:103F600008329200B968D150C046BD4604B080BD49
:103F700080B500AF1C4B1B78180000F0CDF91B4B2F
:103F800001221A701A4B03225A70194B40221A70E0
:103F90000020FCF783FA174B00221A800BE0154B28
:103FA0001A88FA239B009A4205D9134B1A780121EB
:103FB0008A431A7003E0114B1B78002BEFD00F4B94
:103FC0001B7820221340DBB2002B04D10A4B1A7855
:103FD00001218A431A70044B1B78180000F060FA24
:103FE000C046BD4680BDC046D50F0020710A0020E6
:103FF0006C0A0020860D0020840D0020700A00202D
:1040000080B500AF1F4B1B78180000F085F91E4BE0
:1040100002221A701D4B01225A701C4B40221A704A
:104020000020FCF73BFA194B03225A70174B402231
:104030001A70174B00221A800BE0154B1A88FA23CE
:104040009B009A4205D9134B1A7801218A431A70B2
:1040500003E0114B1B78002BEFD00F4B1B78202275
:104060001340DBB2002B04D10A4B1A7801218A439A
:104070001A70044B1B78180000F012FAC046BD46B7
:1040800080BDC046D50F0020710A00206C0A0020B8
:10409000860D0020840D0020700A002080B500AF3E
:1040A0001D4B1B78180000F037F91C4B01221A70C9
:1040B0001B4B01225A701A4B40221A70194B0022D6
:1040C0001A700020FCF7EAF9174B00221A800BE067
:1040D000154B1A88FA239B009A4205D9134B1A787C
:1040E00001218A431A7003E0114B1B78002BEFD09B
:1040F0000F4B1B7820221340DBB2002B04D10B4B5B
:104100001A7801218A431A70034B1B78180000F0BB
:10411000C7F9C046BD4680BDD50F0020710A0020FA
:104120006C0A00202C0A0020860D0020840D00203F
:10413000700A002080B500AF0E4B1A7801210A43A7
:104140001A700D4B02221A700B4B01331A780021A2
:104150000A40111C10220A431A705A7800210A40A2
:104160005A70FFF705FFC820FFF780FBC046BD4629
:1041700080BDC046840D00202C0A002080B584B08C
:1041800000AF78603D4B1B7801221340DBB2002B5F
:1041900069D0FFF783FF6420FFF768FB374B1B787C
:1041A00001221340DBB2002B65D0354B1B78180081
:1041B00000F0B2F8334B01221A70334B04225A70CC
:1041C000314B40221A700120FCF768F92F4B002276
:1041D0001A800BE02D4B1A88FA239B009A4205D9CE
:1041E000264B1A7801218A431A7003E0284B1B786A
:1041F000002BEFD0224B1B78180000F051F91F4B19
:104200001B7801221340DBB2002B2ED0214B1B88E0
:104210001800FCF7BBF903001A001F4B1A801D4B56
:104220005B881800FCF7B2F903001A001A4B5A8099
:10423000194B1B881A0013009B009B185A019B18EE
:104240001B0C283BFB60FB689AB2134B1A80124B85
:104250005B881A00642353431B0CFB60FB689AB213
:104260000D4B5A8001E0FFF765FFFA239B00180011
:10427000FFF7FCFA86E7C04684E7C046840D0020BD
:10428000D50F0020710A00206C0A0020860D002046
:10429000700A00204C0A0020800D002080B582B0FA
:1042A00000AF1A4B1B78DBB20133DAB2174B1A702E
:1042B000174B1B78092B21D8154B1B785A1CD1B2F0
:1042C000134A1170FA1D1370FDF752F9FB1D1B788C
:1042D000DA00104BD3183B603B68FF22DA703B6872
:1042E000FF221A703B6800225A703B68FF229A70C6
:1042F0003B6800225A60FB1D1B7802E0FDF738F98D
:10430000FF231800BD4602B080BDC046E10A002070
:10431000880D00208C0D002080B586B000AF020013
:10432000FB1D1A70564B1B78DBB2002B01D0032308
:10433000A1E0544B1B78DBB2002B01D015239AE08F
:10434000514B1B78FA1D12789A4201D3012392E057
:104350004C4B1B78DBB20133DAB24A4B1A704B4B31
:104360001B683B61FB1D1B78DA00494BD318FB60CF
:104370003B69FA1D1278DA71FB685B78002B0FD16C
:104380003B691A79FB681A703B699A79FB689A70E5
:104390003B699A79FB68DA70FB6801225A7067E022
:1043A000FB685B78012B63D1FB689B781A002C2398
:1043B0005A43384BD3187B617B691A793B691B7967
:1043C0009A422FD93B691A797B691A713B699A79AC
:1043D000FB68DA707B695B79002B08D17B69180078
:1043E000FEF7BCFA7B691800FEF730FA1AE07B6929
:1043F0001B7AFF2B16D07B691B7A1A01264BD31828
:10440000BB60BB685B790F229343DBB2202B09D1E1
:104410007B69180002F0CAFD7A69BB6811001800B8
:1044200002F00CFD3B6902225A711C4B01221A70EA
:104430003B6900225A623B6900229A62FB685B6812
:104440007B617B69002B06D1FB683A695A600FE0FB
:104450007B695B6A7B617B695B6A002BF8D17B6956
:104460003A695A623B697A699A623B6900225A62E8
:10447000FDF77EF800231800BD4606B080BDC0469B
:10448000E00A0020E10A0020880D0020980C00209E
:104490008C0D0020200B0020180E0020E20A0020C6
:1044A00080B586B000AF0200FB1D1A704E4B1B7822
:1044B000DBB2002B01D0032391E04C4B1B78FA1D9B
:1044C00012789A4201D3012389E0494B1B78DBB271
:1044D0000133DAB2464B1A70FB1D1B78DA00454BEC
:1044E000D318FB60FB689B781A002C235A43424B7D
:1044F000D3187B617B69FF22DA71FB685B68002B54
:1045000008D1FB6800225A70FB68FF229A70FDF701
:104510002FF863E00B23FB18FA6892781A70FB6897
:10452000DB780B22BA1812789A421FD1FB685B68BD
:104530007B611323FB187A6912791A7012E07B6988
:104540001B791322BA1812789A4208D91323FB1840
:104550007A6912791A707B699A79FB68DA707B69DB
:104560005B6A7B617B69002BE9D10BE00B23FB18B5
:104570001A781323FB1820492C2042438A1804324E
:1045800012781A70FB68FF229A70FB681A780B2366
:10459000FB181B7811001800FEF722FAFB685B6815
:1045A0007B617B695A6AFB685A607B691A79FB6890
:1045B0001A707B699A79FB689A707B691322BA1822
:1045C00012781A717B6900225A627B6900229A6212
:1045D0007B691800FEF73AF9FCF7CAFF00231800C0
:1045E000BD4606B080BDC046E00A0020880D002010
:1045F000E10A00208C0D0020200B002080B586B041
:1046000000AF78607B68DB79DA003F4BD3183B6101
:104610007B685B6A002B07D17B689B6A002B03D108
:104620003B6900225A6027E07B685B6A002B07D158
:104630007B689B6A00225A627B6800229A621BE0B8
:104640007B689B6A002B07D17B685B6A00229A62B9
:104650007B6800225A620FE07B685B6A7A68926A24
:104660009A627B689B6A7A68526A5A627B68002207
:104670009A627B6800225A627B68FF22DA713B698A
:10468000DA787B689B799A4239D13B695B687B60B9
:104690001723FB183A6912781A703B699A783B69BC
:1046A000DA7012E07B681B791722BA1812789A42E6
:1046B00008D91723FB187A6812791A707B689A79DF
:1046C0003B69DA707B685B6A7B607B68002BE9D1B1
:1046D0000F23FB183A6992781A703B69FF229A708F
:1046E0001723FB181A780F23FB181B7811001800EA
:1046F000FEF776F93B690F22BA1812789A70C04615
:10470000BD4606B080BDC0468C0D002080B582B08D
:1047100000AF78607B681B684F4A1A407B681A605C
:104720007B6800221A607B6800225A607B68002246
:104730009A607B680022DA607B68484A934206D11F
:10474000474B474A52680F210A435A607FE07B6813
:10475000444A934206D1424B414A5268F0210A43EF
:104760005A6074E07B68404A934207D13C4B3C4A14
:104770005268F02109010A435A6068E07B683B4AAD
:10478000934207D1364B364A5268F02109020A4358
:104790005A605CE07B68364A934207D1304B304A1E
:1047A0005268F02109030A435A6050E07B68314A9D
:1047B000934207D12A4B2A4A5268F02109040A433E
:1047C0005A6044E07B682C4A934207D1244B244A28
:1047D0005268F02109050A435A6038E07B68274A8D
:1047E000934206D1264B264A52680F210A435A604B
:1047F0002DE07B68234A934206D1214B204A526820
:10480000F0210A435A6022E07B681F4A934207D195
:104810001B4B1B4A5268F02109010A435A6016E0FB
:104820007B681A4A934207D1154B154A5268F0210A
:1048300009020A435A600AE07B68154A934206D18E
:104840000F4B0F4A5268F02109030A435A60C046D1
:10485000BD4602B080BDC046FEFF00000800024019
:10486000000002401C0002403000024044000240B0
:10487000580002406C0002408000024008040240E0
:10488000000402401C040240300402404404024080
:104890005804024080B584B000AF786039600023CE
:1048A000FB607B681B68FB60FB68184A1340FB6079
:1048B0003B689A683B681B6A1A433B681B691A434A
:1048C0003B685B691A433B689B691A433B68DB6939
:1048D0001A433B685B6A1A433B689B6A1343FA6856
:1048E0001343FB607B68FA681A603B68DA687B6890
:1048F0005A603B681A687B689A603B685A687B68B4
:10490000DA60C046BD4604B080BDC0460F80FFFFE0
:1049100080B582B000AF78607B6800221A607B6847
:1049200000225A607B6800229A607B680022DA606D
:104930007B6800221A617B6800225A617B68002232
:104940009A617B680022DA617B6800221A627B68C8
:1049500000225A627B6800229A62C046BD4602B0BD
:1049600080BDC04680B582B000AF78600A00FB1CF5
:104970001A70FB1C1B78002B06D07B681B68012279
:104980001A437B681A6005E07B681B68034A1A407B
:104990007B681A60C046BD4602B080BDFEFF0000C5
:1049A00080B582B000AF786039607B68A8229B58E0
:1049B0003A68120F92000F2191400A00D2431A4028
:1049C0007B68A8215A507B68A8229A583B681B0133
:1049D0001B091A437B68A8215A50C046BD4602B045
:1049E00080BDC04680B582B000AF78600A00BB1CB5
:1049F0001A80BB1C1A887B685A60C046BD4602B04C
:104A000080BDC04680B582B000AF78607B685B68CF
:104A10009BB21800BD4602B080BDC04680B584B0D0
:104A200000AFF860B960FB1D1A70FB1D1B78002BEE
:104A300006D0FB681A68BB681A43FB681A6006E078
:104A4000FB681B68BA68D2431A40FB681A60C0460C
:104A5000BD4604B080BDC04680B584B000AF78606C
:104A60000F23FB1800221A700023BB607A68802392
:104A70005B05134003D00D4B1B68BB6002E00C4B81
:104A80001B68BB60BB687A68134004D00F23FB1817
:104A900001221A7003E00F23FB1800221A700F2363
:104AA000FB181B781800BD4604B080BD000402400E
:104AB0000000024080B582B000AF78607A68802341
:104AC0005B05134003D0054B7A685A6002E0044B43
:104AD0007A685A60C046BD4602B080BD00040240FC
:104AE0000000024080B584B000AF78600F23FB184F
:104AF00000221A700023BB607A6880235B05134094
:104B000003D00D4B1B68BB6002E00C4B1B68BB6005
:104B1000BB687A68134004D00F23FB1801221A7077
:104B200003E00F23FB1800221A700F23FB181B78D9
:104B30001800BD4604B080BD0004024000000240E1
:104B400080B582B000AF78607A6880235B0513403F
:104B500003D0054B7A685A6002E0044B7A685A60C9
:104B6000C046BD4602B080BD0004024000000240C5
:104B700080B500AFFEF71CFB154B1A68154B1A6089
:104B8000144B1A68144B9B6819795B791B020B4311
:104B90009BB2DA400F4B1A600F4B1B6801225A7010
:104BA0000D4B1B6801229A700B4B1A68094B1B684E
:104BB000DBB2D370084B1B680421180000F08AF99F
:104BC000054B06221A7101231800BD4680BDC04660
:104BD000980F0020A40F0020B80F002080B500AF70
:104BE000FEF7F8FA154B1A68154B1A60144B1A6841
:104BF000144B9B6819795B791B020B439BB2DA401B
:104C00000F4B1A600F4B1B6802225A700D4B1B682A
:104C100001229A700B4B1A68094B1B68DBB2D370E8
:104C2000084B1B680421180000F054F9054B0622BC
:104C30001A7101231800BD4680BDC046A00F002098
:104C4000A40F0020B80F002090B583B000AF020081
:104C5000BB1D1A80454B1B6803225A70434B1A68D0
:104C6000434B1B88DBB2DB18DBB293703F4B1B68F6
:104C7000DA1C404B1A6059E0BB1D1A883E491300EC
:104C80009B009B189B005B5C042B47D89A003B4B16
:104C9000D3181B689F46374B1B68591C354A116057
:104CA00000221A70334B1B68591C324A11600022D3
:104CB0001A7036E0BB1D1A882F4913009B009B1801
:104CC0009B00CB1804331B681A882D4BFF21114021
:104CD0000C00197800200140081C211C01431970A8
:104CE000120A90B25A7800210A40111C021C0A4391
:104CF0005A70204B1B68591C1E4A1160204A52787A
:104D00001A701C4B1B68591C1A4A11601C4A1278F5
:104D10001A7006E0164B00221A8002E0C04600E03E
:104D2000C046BB1DBA1D128801321A80104B1B8869
:104D30005A1E91B20E4A1180002B9DD10B4B1A685E
:104D40000A4B1B689B780333DBB21900100000F09C
:104D5000C1F8064B1B689B780533DAB2034B1A7116
:104D600001231800BD4603B090BDC046B80F002017
:104D7000DC0D0020A80F002018D4000804D400087F
:104D8000B00F0020B0B500AF4C4B1B6805225A7025
:104D90004A4B1B68494A92689178D27812020A43BA
:104DA00092B2FF2111400C00997800200140081CAC
:104DB000211C01439970120A90B2DA7800210A404E
:104DC000111C021C0A43DA703C4B1B683B4A926878
:104DD0001179527912020A4392B2FF2111400C005C
:104DE000197900200140081C211C01431971120A85
:104DF00090B25A7900210A40111C021C0A435A71D0
:104E00002E4B9B681A795B791B0213439BB2FF2BD5
:104E10001CD12B4B01221A60284B9B689A78DB78B7
:104E20001B0213439BB21800FBF7B0FB03001A00F0
:104E3000234B1B6893401A00214B1A60214B1A68C0
:104E40001F4B1B681A431F4B1A6028E01B4B9B68C3
:104E50001A795B791B0213439BB2002B1DD1184BAF
:104E600001221A60154B9B689A78DB781B0213436A
:104E70009BB21800FBF78AFB03001A00104B1B685B
:104E800093401A000E4B1A600D4B1B68DA430D4B12
:104E90001B681A400B4B1A6001E000230BE0FEF781
:104EA0005DF9064B1B680621180000F013F8034B50
:104EB00008221A7101231800BD46B0BDB80F0020AA
:104EC000A40F0020980F002080B500AF0123180028
:104ED000BD4680BD80B584B000AF78600A00FB1C81
:104EE0001A700C23FB18012252421A8023E00C2373
:104EF000FB1859787B685A1C7A601A780F23FB18C4
:104F00004A401A700C23FB181A780F23FB181B78E1
:104F100014495B00CB1801331B785340DAB20C23E1
:104F2000FB185A700F23FB181A780E4B5200D25CF4
:104F30000C23FB181A70FB1C1B78FA1C591E1170ED
:104F4000002BD4D17B685A1C7A600C22BA18527894
:104F50001A700C23FB181A787B681A70C046BD467D
:104F600004B080BD58D4000880B584B000AF78602C
:104F70000A00BB1C1A800C23FB18012252421A8023
:104F800023E00C23FB1859787B685A1C7A601A7846
:104F90000F23FB184A401A700C23FB181A780F23B2
:104FA000FB181B7818495B00CB1801331B78534062
:104FB000DAB20C23FB185A700F23FB181A78124B25
:104FC0005200D25C0C23FB181A70BB1C1B88BA1C45
:104FD000591E1180002BD4D10C23FB185A787B6802
:104FE0001B789A420BD17B6801337B600C23FB1842
:104FF0001A787B681B789A4201D1012300E00023D4
:105000001800BD4604B080BD58D4000880B582B0F9
:1050100000AF0200FB1D1A700F4B1A680E4B9B6805
:105020001B7813700C4B1A680B4B9B685B78803BAA
:10503000DBB25370084B1B68FA1D12789A70064B4E
:105040001B6803211800FFF745FF034B05221A7167
:10505000C046BD4602B080BDB80F002090B583B0F9
:1050600000AF854B00221A71834B1B7B072B00D8A6
:10507000F1E0814B9B681A787F4B5B7B9A4200D0B2
:10508000F6E07D4B9A687C4B1B7B9BB2023B9BB24C
:1050900019001000FFF768FF031E00D1DDE0764B1A
:1050A0001B68754A527B1A70734B9B685B78012BA7
:1050B00020DB042B02DD0F3B012B1BD86E4B9B68C2
:1050C0001A795B791B0213439BB2BC1D1800FBF7D6
:1050D0005DFA03002380BB1D1B88002B05D0BB1D80
:1050E0001A88FA23DB009A4203D90320FFF78EFFC8
:1050F000BEE0C046604B9B681A795B791B02134384
:105100009BB21800FBF742FA03001A005B4B1A80AF
:10511000594B9B685B78102B00D997E09A00584B4D
:10512000D3181B689F46544B9B689A78DB781B0208
:1051300013439BB21800FBF729FA030019004F4BE9
:105140001A88BB1D8A181A80BB1D1B88082B03D91F
:105150000220FFF75BFF8BE0FFF70AFD031E00D084
:105160007FE00420FFF752FF7BE0434B9B689A7877
:10517000DB781B0213439BB21800FBF707FA03000E
:1051800019003E4B1A88BB1D8A181A80BB1D1B884C
:10519000082B03D90220FFF739FF69E0FFF71EFD56
:1051A000031E60D10420FFF731FF5CE0324B9B68A7
:1051B0009A78DB781B0213439BB21800FBF7E6F9E1
:1051C000030019002D4B1A88BB1D8A181A802D4B1D
:1051D0001B88BA1D12889A4203D90220FFF716FFD6
:1051E00046E0254B9B689A78DB781B0213439BB201
:1051F000BC1D1800FBF7CAF903002380BB1D1B88E8
:105200001800FFF721FD031E2FD10420FFF7FEFE3B
:105210002BE0194B9B689A78DB781B0213439BB2F7
:10522000BC1D1800FBF7B2F903002380BB1D1B88CF
:10523000072B03D90220FFF7E9FE19E0FFF7A2FDD3
:10524000031E14D10420FFF7E1FE10E00120FFF758
:10525000DDFEC0460CE0C0460AE0C04608E0C0469D
:1052600006E0C04604E0C04602E0C04600E0C0469A
:10527000BD4603B090BDC046B80F0020DC0D002035
:1052800058D6000854D4000880B500AF064B012260
:105290001A70054B01221A71034B962292015A8013
:1052A000C046BD4680BDC046C80F002090B587B03F
:1052B00000AF0200FB1D1A70FB1D1A78794913001C
:1052C0005B009B18DB00CB1804331B68FB60FB689A
:1052D000002B00D1E1E0744B1B78DBB20133DAB272
:1052E000714B1A70714B1B68002B0AD1FB1D1A7889
:1052F00013005B009B18DB006A4A9A186B4B1A601C
:10530000C8E06A4B1B687B61FB683B61BEE03A69A1
:105310007B695B68D31A3B613B69002B00DB8AE049
:105320007B695B69002B2CD07B695A69FB1D19785E
:105330000B005B005B18DB005A495B181361FB1D17
:105340001A787B695969574813005B009B18DB008A
:10535000C31814331960FB1D1A78524913005B00FF
:105360009B18DB00CB1810337A691A60FB1D1A7882
:1053700013005B009B18DB004A4A9A187B695A614C
:1053800020E0FB1D1A78494B1968464813005B0062
:105390009B18DB00C31810331960444B1A68FB1DBF
:1053A00019780B005B005B18DB003E495B1853610A
:1053B000FB1D1A7813005B009B18DB00394A9A1812
:1053C0003A4B1A60FB1D1A78FB1D197835480B0003
:1053D0005B005B18DB00C31810331B6859683B691E
:1053E000C918304813005B009B18DB00C318043356
:1053F0001960FB1D1A782B4913005B009B18DB001A
:10540000CB1810331A68FB1D197826480B005B0077
:105410005B18DB00C31810331B685868FB1D197834
:10542000204C0B005B005B18DB00E31804331B68A7
:10543000C31A53602EE03B69002B24DB7B691B6998
:10544000002B20D1FB1D1A78164913005B009B1816
:10545000DB00CB1814337A691A60FB1D1A7813002D
:105460005B009B18DB000F4A9A187B691A61FB1DD1
:105470001A7839690B4813005B009B18DB00C318CE
:105480000433196006E07B691B697B617B69002B33
:1054900000D03CE7FCF76CF800E0C046BD4607B022
:1054A00090BDC046E00D0020E10A0020100E002053
:1054B00080B584B000AF0200FB1D1A70FB1D1A7886
:1054C00013005B009B18DB002C4A9B18FB602C4BE5
:1054D0001B78DBB20133DAB2294B1A70FB685B69C7
:1054E000002B07D1FB681B69002B03D1254B002241
:1054F0001A603DE0FB685B69002B14D1FB681A69F8
:10550000204B1A601F4B1B6800225A61FB681B6905
:10551000FA6812695168FA6852688A185A60FB681A
:1055200000221A6124E0FB681B69002B07D1FB688D
:105530005B6900221A61FB6800225A6118E0FB686F
:105540005B69FA6812691A61FB681B69FA6852693B
:105550005A61FB681B69FA6812695168FA685268F7
:105560008A185A60FB6800221A61FB6800225A619F
:10557000FBF7FEFFC046BD4604B080BDE00D002035
:10558000E10A0020100E002080B586B000AFB9609F
:105590007A603B600F23FB18021C1A700F23FB1864
:1055A0001B78002B06D00F23FB181B78012B01D092
:1055B000FF239FE03B68002B01D1FF239AE04F4B74
:1055C0001B78DBB20133DAB24C4B1A701723FB188D
:1055D00000221A7085E01723FB181B7801229A40DD
:1055E00013001A00464B1B68134073D11723FB1896
:1055F0001B7801229A4013001A00414B1B681A4382
:105600003F4B1A60FBF7B4FF1723FB181A783D498C
:1056100013005B009B18DB001722BA1812785A544B
:105620001723FB181A78374913005B009B18DB001F
:10563000CB1801330F22BA1812781A701723FB18EF
:105640001A78304913005B009B18DB00CB1802333B
:1056500001221A701723FB181A782A4913005B00DD
:105660009B18DB00CB180433BA681A601723FB18A9
:105670001A78244913005B009B18DB00CB18083311
:105680007A681A601723FB181A781E4913005B000A
:105690009B18DB00CB180C333A681A601723FB18F1
:1056A0001A78184913005B009B18DB00CB181433E1
:1056B00000221A601723FB181A78124913005B00A6
:1056C0009B18DB00CB18103300221A601723FB183D
:1056D0001B780FE01723FB181A781723FB180132E9
:1056E0001A701723FB181B78012B00D873E7FBF700
:1056F0003FFFFF231800BD4606B080BDE10A002031
:10570000140E0020E00D002080B582B000AF020032
:10571000FB1D1A70FB1D1B78012B01D901232AE008
:10572000FB1D1B7801229A4013001A00144B1B68C2
:10573000134001D101231EE0FB1D1A78114913000B
:105740005B009B18DB00CB1802331B78002B01D1C8
:10575000002310E0FB1D1A780A4913005B009B1818
:10576000DB00CB18023300221A70FB1D1B781800D7
:10577000FFF79CFD00231800BD4602B080BDC04667
:10578000140E0020E00D002080B582B000AF0200B2
:10579000FB1D1A70FB1D1B78012B01D901232AE088
:1057A000FB1D1B7801229A4013001A00144B1B6842
:1057B000134001D101231EE0FB1D1A78114913008B
:1057C0005B009B18DB00CB1802331B78012B01D147
:1057D000002310E0FB1D1B781800FFF769FEFB1D7E
:1057E0001A78084913005B009B18DB00CB180233C2
:1057F00001221A7000231800BD4602B080BDC046C9
:10580000140E0020E00D002080B582B000AF020031
:10581000FB1D1A70FB1D1B78012B01D9012329E008
:10582000FB1D1B7801229A4013001A00134B1B68C2
:10583000134001D101231DE0FB1D1A78104913000C
:105840005B009B18DB00CB1802331B78002B04D1C4
:10585000FB1D1B781800FFF72BFEFB1D1B78012298
:105860009A401300DB431A00044B1B681A40034B99
:105870001A6000231800BD4602B080BD140E00203F
:10588000E00D002080B582B000AF02003960FB1D42
:105890001A70FB1D1B78012B04D93B6801221A707A
:1058A00000231BE0FB1D1B7801229A4013001A0005
:1058B0000C4B1B68134004D13B6801221A70002373
:1058C0000CE03B6800221A70FB1D1A780649130091
:1058D0005B009B18DB00CB1804331B681800BD4627
:1058E00002B080BD140E0020E00D002080B584B011
:1058F00000AFB9607A600F23FB18021C1A700F23E7
:10590000FB181B78012B01D901233EE00F23FB1864
:105910001B7801229A4013001A001E4B1B6813408B
:1059200001D1012331E00F23FB181A781A49130023
:105930005B009B18DB00CB180433BA681A600F2396
:10594000FB181A78144913005B009B18DB00CB1876
:1059500008337A681A600F23FB181A780E4913006F
:105960005B009B18DB00CB1802331B78002B0BD19C
:105970000F23FB181B781800FFF79AFD0F23FB1865
:105980001B781800FFF792FC00231800BD4604B0F6
:1059900080BDC046140E0020E00D002080B582B00E
:1059A00000AF1B4B1B687B6027E07B685B78002B9C
:1059B0000BD17B681B781800FFF77AFD7B6801220A
:1059C0009A707B68DB68984714E07B685B78012BF2
:1059D00010D17B681B781800FFF76AFD7B689A6816
:1059E0007B685A607B681B781800FFF75FFC7B6858
:1059F000DB689847064B1B687B607B68002B03D0F5
:105A00007B685B68002BD0D0C046BD4602B080BD2D
:105A1000100E002080B500AF084B1B78DBB2012BC5
:105A200006D9074B01221A70064B01221A7001E0B9
:105A3000FFF7B4FFC046BD4680BDC046E10A002066
:105A40001C0B00201E0B002080B582B000AF7860D8
:105A50007B683F4A93420CD18023DB01012118006F
:105A6000FCF79CFD8023DB0100211800FCF796FD6C
:105A700069E07B68374A93420CD180239B02012165
:105A80001800FCF7ABFD80239B0200211800FCF7F7
:105A9000A5FD58E07B68304A93420CD18023DB029D
:105AA00001211800FCF79AFD8023DB020021180079
:105AB000FCF794FD47E07B68284A93420CD1802391
:105AC0001B0301211800FCF789FD80231B03002123
:105AD0001800FCF783FD36E07B68214A93420CD125
