:020000040800F2
:1000000000200020413200088D3200088D320008A7
:1000100000000000000000000000000000000000E0
:100020000000000000000000000000008D32000809
:100030000000000000000000C1B30008D118000853
:100040008D3200088D3200088D3200088D32000894
:100050008D3200088D3200088D3200088D32000884
:100060008D3200088D320008550A00088D320008D4
:100070008D3200088D3200088D3200088D32000864
:100080008D3200080D1C0008000000008D320008B1
:100090008D3200088D3200088D3200089905000865
:1000A0008D3200088D3200088D3200081D090008CD
:1000B0008D320008000000008D32000800000000B2
:1000C0005FF808F110B5064C2378002B07D1054BDB
:1000D000002B02D0044800E000BF0123237010BDB4
:1000E000900400200000000014C40008084B10B564
:1000F000002B03D00749084800E000BF0748036809
:10010000002B00D110BD064B002BFBD09847F9E720
:10011000000000009404002014C400088C04002097
:100120000000000080B584B000AF0200FB1D1A7013
:10013000FB1D1B780022190002200BF071FA03004E
:10014000FB60FB68002B01D1FF2304E0FB68002269
:10015000DA80FB681B791800BD4604B080BDC0463C
:1001600080B584B000AF0200FB1D1A70BB1D0A1CD5
:100170001A70FB1D1B78132B01D9012316E0FB1D00
:100180001B781A010B4BD318FB60FB685B790F22BD
:100190001340DBB2022B01D0012307E0BB1D1A780C
:1001A000FB68110018000BF08BFA03001800BD4625
:1001B00004B080BDB408002080B584B000AF020058
:1001C0003960FB1D1A70FB1D1B78132B04D93B688B
:1001D00001221A70002332E0FB1D1B781A011A4B12
:1001E000D318FB60FB685B790F221340DBB2022B54
:1001F00004D03B6801221A70002320E0134B1B78C7
:10020000DBB20133DAB2114B1A70FB68DB88012BC9
:100210000FD13B6800221A70FB681B68BB60FB684B
:1002200000221A60FB680022DA8001F083FABB68C2
:1002300005E001F07FFA3B680A221A7000231800DB
:10024000BD4604B080BDC046B40800205D05002056
:1002500080B588B000AFB9607A600F23FB18021C2C
:100260001A70544B1B78DBB2002B04D07B6803223E
:100270001A7000239AE00F23FB181B78132B04D964
:100280007B6801221A70002390E00F23FB181B7873
:100290001A01494BD318FB61FB695B790F221340AC
:1002A000DBB2022B04D07B6801221A7000237DE0B0
:1002B000424B1B78DBB2002B04D07B6815221A70EE
:1002C000002373E03D4B1B78DBB20133DAB23B4BCA
:1002D0001A70FB69DB88012B0FD17B6800221A7032
:1002E000FB691B68BB61FB6900221A60FB69002285
:1002F000DA8001F01FFABB6958E001F01BFA304BBD
:100300001B687B61BB68002B1CD17A69FB691100FB
:1003100018000BF021FA7B6800221A70274B1B781B
:10032000DBB20133DAB2254B1A707B691B69BB6102
:10033000FB690022DA807B6900221A6101F0FAF978
:10034000BB6933E01D4B1B78DBB20133DAB21B4BC8
:100350001A707A69FB69110018000BF0FDF9BA6890
:100360007B691100180004F02BF901F0E3F97B69B7
:100370001B69002B04D17B6805221A70002315E04D
:100380007B6800221A700D4B1B78DBB20133DAB2A6
:100390000A4B1A707B691B69BB61FB690022DA801A
:1003A0007B6900221A6101F0C5F9BB691800BD46DE
:1003B00008B080BD5C050020B40800205D05002069
:1003C0001007002080B584B000AF02003960FB1D2B
:1003D0001A70FB1D1B78132B01D9012328E0FB1D8C
:1003E0001B781A01144BD318FB60FB685B790F2252
:1003F0001340DBB2022B01D0012319E0FB68DB883C
:10040000002B14D10D4B1B78DBB20133DAB20B4B4E
:100410001A70FB683A681A60FB680122DA80FB6890
:1004200018000BF019FA01F085F9002300E007230A
:100430001800BD4604B080BDB40800205D05002052
:1004400080B582B000AF02003960FB1D1A700F4BFF
:100450001B78DBB2002B0CD03A68FB1D1B7819000F
:10046000022001F085FA031E01D1122309E00023C6
:1004700007E03A68FB1D1B7811001800FFF7A2FF88
:1004800003001800BD4602B080BDC0465D050020D7
:1004900080B582B000AF0200FB1D1A70064BFA1D3A
:1004A000127811001F220A40012191400A001A60AF
:1004B000C046BD4602B080BD00E100E0B0B582B0EC
:1004C00000AF02003960FB1D1A70FB1D1B787F2BEB
:1004D00032D92F4CFB1D1B781A000F231340083B09
:1004E00099082B4AFB1D1B7818000F230340083B7B
:1004F0009B0806339B00D31804331B68FA1D12783F
:10050000100003220240D200FF2090400200D2439C
:100510001A403B689B01FF201840FB1D1B781D0003
:1005200003232B40DB00984003001A438B1D9B00E4
:10053000E31804331A6027E0164CFB1D1B785BB2EE
:100540009B081449FA1D127852B29208C0329200E8
:100550005258F91D0978080003210140C900FF2005
:1005600088400100C94311403A689201FF201040C1
:10057000FA1D1278150003222A40D2009040020092
:100580000A43C0339B001A51C046BD4602B0B0BDFD
:1005900000ED00E000E100E080B500AF01F094F86C
:1005A000664B9B690822134008D0644B0822DA612D
:1005B000634B644A1A60644B644A1A605F4B9B69E0
:1005C0002022134007D05D4B2022DA61604B9A78DD
:1005D00001210A439A70594B9B694022134041D034
:1005E0005C4B1B78002B2DD05B4B1B785B009B0575
:1005F0009A0D5A4B1A60594B1B688022D2001A433D
:10060000564B1A604E4B4F4A1A60534B5B781A0494
:10061000FF231B041A40514B1B681A434F4B1A60AF
:10062000464A4E4B1B685360444B444A52688021F3
:1006300089010A435A60474B1B78013BDAB2454BAC
:100640001A700FE03D4B3D4A52688021C9010A43B0
:100650005A603F4B5B78002B04D13D4B9A780121C7
:100660000A439A70354B9B690122134009D0334AE3
:10067000354B1B681B789362334B1B685A1C324BFB
:100680001A602E4B9B69042213400AD02C4B1A6827
:100690002A4B5B6ADBB21370294B1B685A1C284B30
:1006A0001A60264B9B690222134009D0234A264B2D
:1006B0001B681B789362244B1B685A1C224B1A60E0
:1006C0001E4B9B691022134005D01C4B1022DA618F
:1006D0001F4B01225A70194B9A698023DB0013408B
:1006E00008D0164B8022D200DA61194B1A78042107
:1006F0000A431A70114B9A6980239B00134008D05B
:100700000E4B80229200DA61114B1A7808210A43BD
:100710001A700A4B9A6980235B00134008D0074B7C
:1007200080225200DA610A4B1A7802210A431A70B9
:1007300000F0D6FFC046BD4680BDC0460054004014
:10074000F8090020CC040020FC090020AC040020A3
:10075000F0040020F3040020EC040020F404002046
:1007600080B500AF80239B030121180002F0D4FB69
:1007700080239B030021180002F0CEFB144B144A87
:10078000126801218A431A60114B124A1A61104BF8
:10079000114A1A600E4B00229A600D4B14229A6087
:1007A0000B4B0B4A9268802109020A439A60084B5E
:1007B000074A126801210A431A601720FFF768FEF2
:1007C00000211720FFF77AFEC046BD4680BDC04617
:1007D000005400401C0E2000FE0F080080B582B0BF
:1007E00000AF0200FB1D1A702E4B1B78002B03D0AC
:1007F0002C4B1B78022B01D900234FE02A4B0022FF
:100800001A702A4B2A4A1A602A4B1B785B009B05F8
:100810009A0D294B1A60FB1D1B78012B09D1264B21
:100820001B688022D2001A43234B1A60234B244AB0
:100830001A60204B5B78002B01D100232EE01D4B6A
:100840005B781A04FF231B041A401B4B1B681A43D6
:10085000194B1A601B4A184B1B6853601A4B002235
:100860001A8007E0184B1A88FA239B009A4201D994
:10087000002313E0134B9A6980231B021340F1D12C
:10088000104B104A5268802189010A435A60054B77
:100890001B78013BDAB2034B1A7001231800BD46E6
:1008A00002B080BDF3040020F0040020FC09002009
:1008B000AC040020EC040020F4040020F80900201F
:1008C000CC04002000540040F804002080B584B01F
:1008D00000AF0200BB1D1A800E23FB18BA1D128840
:1008E0001A800E23FB180E22BA18128812021A80E0
:1008F000BB1DBA1D1288120A1A800E23FB180E2285
:10090000B918BA1D098812888A181A800E23FB1894
:100910001B881800BD4604B080BDC04680B500AF3E
:1009200000F0D2FE224A234B110018000AF05AFAB6
:10093000031E04D0204B1A7801210A431A701C4A66
:100940001C4B110018000AF039FB1C4B0021180049
:1009500005F062FF184B5B78012B0ED1174B184A3C
:10096000DA60154B00225A70144B5B68DBB2202210
:10097000D31ADAB2134B1A700DE0104B124ADA6038
:100980000D4B01225A700D4B5B68DBB22022D31A4B
:10099000DAB20C4B5A70094B20225A60074B0121E6
:1009A000180005F039FF00F09BFEC046BD4680BD33
:1009B0001A010B00003801404005002030000240C1
:1009C0001E050020FC040020FE04002080B588B035
:1009D00000AF78601D4B180007F07EFF0823FB185E
:1009E0007A681A600823FB1800225A600823FB1853
:1009F00000229A600823FB180022DA600823FB1803
:100A000000225A610823FB180C221A610823FB18E4
:100A10000E4A1900100008F019F80C4B2321180099
:100A200008F002FE094B0121180008F0B1FD084949
:100A3000064B0122180009F0D3FE044B01211800D7
:100A400008F048FAC046BD4608B080BD00380140F5
:100A50001A010B0080B500AF0B4B0021180005F008
:100A6000DBFE102006F034FE102006F0A5FF074B39
:100A70001A7901218A431A71034B0121180005F0EC
:100A8000CBFEC046BD4680BD1C0002404005002094
:100A900080B582B000AF3B1D0A221A703B1D0022B8
:100AA0005A703B1D01229A703B1D18000AF086FF08
:100AB0003B1D1B221A703B1D01225A703B1D012257
:100AC0009A703B1D18000AF079FFC046BD4602B07F
:100AD00080BDC04680B58CB000AF3E4B180005F01D
:100AE00053FC3B1D3C4A1A603C4A3B1D5A603B1D6F
:100AF00000229A603B1D2022DA603B1D00221A6111
:100B00003B1D80225A613B1D00229A613B1D002241
:100B1000DA613B1D00221A623B1D802292015A625B
:100B20003B1D00229A623B1D2A4A1900100005F065
:100B300025FD284B0121180005F06EFE284B0122EF
:100B40005A70274B1A7901210A431A71254B180054
:100B500005F01AFC3B1D244A1A60244A3B1D5A60CA
:100B60003B1D10229A60224B5B781A003B1DDA6015
:100B70003B1D00221A613B1D80225A613B1D002251
:100B80009A613B1D0022DA613B1D00221A623B1D67
:100B9000802252015A623B1D00229A623B1D114A7B
:100BA0001900100005F0EAFC0E4B0122022118008A
:100BB00006F0BAFB0B4B0121180005F02DFE0D4B82
:100BC0000122C021180009F033FDC046BD460CB01B
:100BD00080BDC0463000024024380140FE040020A1
:100BE000400500201C00024028380140020000207F
:100BF000000000200038014080B582B000AF78606E
:100C00000A00FB1C1A70C046164B1B7901221340C8
:100C1000DBB2002BF8D1134B1A7901210A431A7168
:100C2000114B0021180005F0F7FD202006F00AFC0A
:100C3000031E07D0202006F04BFD0C4B402118006E
:100C40000AF052F8084B7A68DA60074BFA1C1278FF
:100C50005A60054B0121180005F0DEFDC046BD4677
:100C600002B080BD400500201C0002400038014059
:100C700080B582B000AF7860274B1B78002B47D03F
:100C8000012B00D047E0254B00225A70224B1A79E5
:100C9000234B5A73234B1B78002B13D0204B224A33
:100CA0009A60204B1A781E4B1A731D4B1F4A1A600C
:100CB00007F01CF91A4B1A79184B5A70194B00227D
:100CC0001A7016E0174B5B78002B12D0144B184AA1
:100CD0009A60144B5A78124B1A73114B134A1A60CC
:100CE00007F004F90E4B1A790C4B5A700D4B002289
:100CF0005A700A4B5B78002B0CD0022003F03AFDAF
:100D0000064B5A78094B11001800FFF775FF01E0F8
:100D1000C046B1E7C046AFE7300A0020000000201F
:100D2000200A0020FC040020FE0400200200002015
:100D30001E05002080B584B000AF0200FB1D1A70B4
:100D4000BB1D0A1C1A70294B1B78DBB20133DAB2C7
:100D5000264B1A700F23FB1800221A7039E0244B1F
:100D60009B680F22BA181278012191400A001340A3
:100D700028D11F4B9B680F22BA181278012191408D
:100D80000A001A431A4B9A60194B1B68BA1D117856
:100D90000F22BA18127891400A001A43144B1A60B5
:100DA000134B5B68FA1D11780F22BA181278914024
:100DB0000A001A430E4B5A6000F0BCFC0F23FB18CC
:100DC0001B780EE00F23FB181A780F23FB18013253
:100DD0001A700F23FB181B781F2BC0D900F0AAFC38
:100DE000FF231800BD4604B080BDC0465D0500204D
:100DF0004805002080B584B000AF0200FB1D1A70CA
:100E0000BB1D0A1C1A70444BBB60444B1B78DBB201
:100E1000002B01D003237BE0BB689B68FA1D12788E
:100E2000012191400A00134001D1012370E03C4BA5
:100E30001B78DBB20133DAB2394B1A70BB68DB685E
:100E4000FB603EE0FB689B68FA1D1278012191402F
:100E50000A00134032D0BB1D1B78002B03D100F0D9
:100E600069FC042354E0BB1D1B78012B26D1FB68D1
:100E70001B7C002B1BD1FB689B68FA1D127801219B
:100E800091400A00934206D1FB68180000F0AEFBC7
:100E90000300FB6015E0FB689B68FA1D12780121D6
:100EA00091400A00D2431A40FB689A6006E0FB6852
:100EB000180000F09BFB0300FB6002E0FB681B686E
:100EC000FB60FB68002BBDD1BB689B68FA1D1278E4
:100ED000012191400A00D2431A40BB689A60BB6866
:100EE0001B68FA1D1278012191400A00D2431A4072
:100EF000BB681A60BB685B68FA1D127801219140DB
:100F00000A00D2431A40BB685A6000F013FC002369
:100F10001800BD4604B080BD480500205C050020D7
:100F20005D05002080B584B000AF0200FB1D1A7083
:100F30001C4BFB60FB1D1B781F2B01D901232DE0EF
:100F4000FB689B68FA1D1278012191400A0013404A
:100F500001D1012322E0FB681B68FA1D12780121F0
:100F600091400A00134018D00F4B1B78DBB20133BD
:100F7000DAB20D4B1A70FB681A680A4B5B68F91DF0
:100F800009780120884001000B40DB431A40FB68D0
:100F90001A6000F0CFFB002300E00C231800BD46D0
:100FA00004B080BD480500205D05002080B586B0F6
:100FB00000AFF8607A600B23FB180A1C1A702B4BE9
:100FC0007B617B699B68FA681A40FB689A4204D08F
:100FD0007B6802221A70002344E07B691B68FA6870
:100FE00013403B61224B1B78DBB20133DAB2204B5A
:100FF0001A703B69002B15D00B23FB181B78012BB3
:1010000010D17B691A687B695B6839690B40DB43E7
:101010001A407B691A6000F08DFB7B6800221A7011
:101020003B691FE03A69FB689A4215D10B23FB1814
:101030001B78002B10D17B691A687B695B68396962
:101040000B40DB431A407B691A6000F073FB7B683E
:1010500000221A703B6905E000F06CFB7B680C22F3
:101060001A7000231800BD4606B080BD4805002058
:101070005D05002080B58AB000AF02003960FB1D1D
:101080001A70594B1B78DBB2002B01D00323A6E06A
:10109000564B1B78DBB2002B01D015239FE0FB1DC4
:1010A0001B781F2B01D9012399E0514B9B68FA1D36
:1010B0001278012191400A00134001D101238EE0F2
:1010C0004A4B1B78DBB20133DAB2484B1A70484BFB
:1010D0007B627B6A1B68FA1D1278012191400A002D
:1010E000134010D07B6A1A687B6A5B68F91D097827
:1010F0000120884001000B40DB431A407B6A1A60E4
:1011000000F018FB6AE03B4B1B683B623B68002B1E
:101110002FD1FB1D1B7801229A40130019000C23CC
:10112000FB180222180000F025FA3B6A02225A71CD
:10113000314B01221A7000F0FDFA3B6A0022DA619D
:101140002A4B1B78DBB20133DAB2284B1A707B6A68
:101150001A68FB1D1B78012199400B0019007B6A5E
:101160005B680B40DB431A407B6A1A6000F0E2FACE
:1011700034E0FB1D1B7801229A40130019000C2358
:10118000FB180222180000F0F5F93A683B6A1100DA
:10119000180003F015FA00F0CDFA3B6ADB69002B6A
:1011A00001D105231BE03B6A0022DA610F4B1B785B
:1011B000DBB20133DAB20D4B1A707B6A1A68FB1D81
:1011C0001B78012199400B0019007B6A5B680B407A
:1011D000DB431A407B6A1A6000F0ACFA0023180067
:1011E000BD460AB080BDC0465C0500205D050020FC
:1011F00048050020100700205E05002080B58CB057
:1012000000AFF8607A603B600B23FB180A1C1A7071
:101210006A4B1B78DBB2002B04D03B6803221A70A8
:101220000023C6E0664B1B78DBB2002B04D03B6882
:1012300015221A700023BCE0624B9B68FA681A40C2
:10124000FB689A4204D03B6802221A700023B0E087
:101250005B4B1B78DBB20133DAB2594B1A70594B36
:10126000FB62FB6A1B68FA681340BB62BB6A002B17
:1012700015D00B23FB181B78012B10D1FB6A1A68C1
:10128000FB6A5B68B96A0B40DB431A40FB6A1A6071
:1012900000F050FA3B6800221A70BB6A89E0BA6A13
:1012A000FB689A4215D10B23FB181B78002B10D139
:1012B000FB6A1A68FB6A5B68B96A0B40DB431A4039
:1012C000FB6A1A6000F036FA3B6800221A70BB6AAB
:1012D0006FE03D4B1B687B627B68002B30D10B239A
:1012E000FB181A78F9681023FB18180000F042F96F
:1012F0007B6A02225A71354B01221A7000F01AFAE9
:101300007B6A0022DA612E4B1B78DBB20133DAB242
:101310002B4B1A70FB6A1B68FA681340BB62FB6AAE
:101320001A68FB6A5B68B96A0B40DB431A40FB6AC8
:101330001A6000F0FFF93B6800221A70BB6A38E0BF
:101340000B23FB181A78F9681023FB18180000F01B
:1013500011F97A687B6A1100180003F031F900F086
:10136000E9F97B6ADB69002B04D13B6805221A701E
:1013700000231EE07B6A0022DA61114B1B78DBB28E
:101380000133DAB20E4B1A700E4B1B68FA68134029
:10139000BB62FB6A1A68FB6A5B68B96A0B40DB4395
:1013A0001A40FB6A1A6000F0C5F93B6800221A7007
:1013B000BB6A1800BD460CB080BDC0465C0500206D
:1013C0005D05002048050020100700205E05002074
:1013D00080B584B000AF0200FB1D1A70114BFB609A
:1013E000FB1D1B781F2B01D9012316E0FB689B68AE
:1013F000FA1D1278012191400A00134001D1012306
:101400000BE0FB681B68FA1D1278012191400A006D
:10141000D2431A40FB681A6000231800BD4604B08E
:1014200080BDC0464805002080B584B000AF0200F2
:10143000FB1D1A703B4BBB60FB1D1B781F2B01D99A
:1014400001236AE0BB689B68FA1D12780121914074
:101450000A00134001D101235FE0BB681B68FA1D3D
:101460001278012191400A00134001D0002354E07A
:10147000BB681B68FA1D1278012191400A001A43CB
:10148000BB681A60284B1B78DBB20133DAB2264BFB
:101490001A70BB68DB68FB6035E0FB681B7C002BC7
:1014A00018D1FB689A68BB681B681A40FB689B6888
:1014B0009A4225D1FB68180000F098F80300FB6001
:1014C000BB685B68FA1D1278012191400A00134045
:1014D0001DD118E0FB689A68BB681B6813400FD0E9
:1014E000FB68180000F082F80300FB60BB685B68D3
:1014F000FA1D1278012191400A00134009D102E03F
:10150000FB681B68FB60FB68002BC6D102E0C0468D
:1015100000E0C04600F00EF900231800BD4604B0FC
:1015200080BDC046480500205D05002080B582B022
:1015300000AF0200FB1D1A700D4B1B78DBB2002BB5
:101540000CD0FB1D1B7800221900032000F010FABC
:10155000031E01D1122307E0002305E0FB1D1B78C9
:101560001800FFF761FF03001800BD4602B080BD00
:101570005D05002080B586B000AFF860B960FB1D46
:101580001A70184B7B61184B1B68FA68DA61164BAE
:101590001A68FB68DA60FB68BA689A60FB68FA1D33
:1015A00012781A747B691B69002B09D1FB68002231
:1015B0001A60FB6800225A607B69FA68DA600AE008
:1015C0007B691B69FA681A607B691A69FB685A6053
:1015D000FB6800221A607B69FA681A61C046BD4642
:1015E00006B080BD480500201007002080B584B0FB
:1015F00000AF78607B68180000F024F87B68DB6837
:10160000FB60FB681B6A013303D0FB68180003F022
:101610004DF8FB6801225242DA61094B1B68FA68F7
:101620009A4203D1FB6801225A7103E0FB6818005B
:1016300001F06CFE7B681B681800BD4604B080BDDD
:101640001007002080B582B000AF78607B681B680F
:10165000002B0AD17B685B68002B06D1194B002256
:10166000DA60184B00221A6123E07B681B68002BAC
:1016700008D17B685A68134B1A617B685B6800224B
:101680001A6016E07B685B68002B08D17B681A68DB
:101690000C4BDA607B681B6800225A6009E07B68AB
:1016A0001B687A6852685A607B685B687A6812685F
:1016B0001A607B68DB680022DA61C046BD4602B072
:1016C00080BDC0464805002080B500AF034B180020
:1016D00009F034FEC046BD4680BDC0465C05002012
:1016E00080B500AF104B180009F03CFE0E4B1B7884
:1016F000DBB2002B14D10D4B1B78DBB2012B0FD1C9
:101700000B4B1B78DBB20133DAB2094B1A7001F0D4
:10171000BFFF074B1B78DBB2013BDAB2044B1A70F8
:10172000C046BD4680BDC0465C0500205E05002069
:101730005D05002080B500AF0F4B1B78DBB2012B9D
:1017400010D10E4B1B78012B01D100F05DF90C4B31
:101750001B78DBB2012B01D101F09AFF064B00226E
:101760001A7006E0044B1B78DBB2013BDAB2024B85
:101770001A70C046BD4680BD5D050020940500205E
:101780005E05002080B500AF044B1B78DBB201334F
:10179000DAB2024B1A70C046BD4680BD5D0500201E
:1017A00080B500AFFFF7C6FFC046BD4680BDC0464E
:1017B00080B500AF174B184A1A60184B07221A6001
:1017C000174B174A1268FF2109060A431A60154B86
:1017D000144A126814490A431A6001F059FD09F0CD
:1017E000AFFE02F08BFC114B1B78DBB20133DAB297
:1017F0000E4B1A700E49CA235A010E480B000021E5
:1018000002F01AF80A4B180009F0CCFDC046BD469C
:1018100080BDC04614E000E07FBB000010E000E0A7
:101820001CED00E020ED00E00000FFFF5D05002062
:101830000007002071BB000880B500AF0A4B0B4ABF
:101840001A60094B1A680A4B1A60074B1B68012281
:101850005A71054B1B68180001F0E0FDFFF76AFFA5
:10186000C046BD4680BDC046100700209805002038
:101870000C07002080B500AF8B235B001800BD462D
:1018800080BDC04680B586B000AFF860B9607A60B0
:101890007B687B617B691A1F7A61802252041A601F
:1018A0007B691A1F7A61FA681A607B6902225242C8
:1018B0001A607B69143B7B61BA687B691A607B693B
:1018C000203B7B617B691800BD4606B080BDC046E9
:1018D000B0B500AF214B1B78DBB20133DAB21F4B3E
:1018E0001A701F4B5C681B68012100225B18544171
:1018F0001B4A136054601B4B1B68002B10D0194B04
:101900001B681B6A012B05D9164B1B681A6A013A22
:101910001A6205E0134B1B6800221A6203F048F8B4
:10192000114B1B68002B10D00F4B1B685B68012B01
:1019300005D90D4B1B685A68013A5A6005E00A4BFD
:101940001B6800225A6006F0ADFF084B01221A7096
:10195000FFF7F0FEC046BD46B0BDC0465D050020A5
:1019600060050020F4070020AC0800205E05002080
:1019700090B585B000AF3A60FB1D021C1A70BB1D0C
:101980000A1C1A7009F008FD1D4B1B78042B03D9A3
:1019900009F0FCFC00232EE00F23FC18184B180064
:1019A00009F0CCFC030023700E23FB18144A527874
:1019B0001A70144B01221A700F23FB181A780E2389
:1019C000FB181B78D318052118000AF04FFA0B00FA
:1019D000DA000B4BD3180433BB60BB68FA1D1278D6
:1019E0001A70BB68BA1D12785A70BB683A685A60A0
:1019F00009F0CCFC01231800BD4605B090BDC046DF
:101A0000680500209405002080B582B000AF394BF6
:101A10001B78012B04D102F08DFF364B00221A7087
:101A2000354B1B78012B51D106F000FF324B0022C1
:101A30001A704BE009F0B0FC304B5B7838002F4A4D
:101A4000DB000421D3185A18030003CA03C32B4B2D
:101A50005B780133052118000AF008FA0B00DAB2AE
:101A6000264B5A70254B1B78013BDAB2234B1A7078
:101A700009F08CFC3B001B78022B0ED002DC012B02
:101A800005D022E0032B11D0042B15D01DE03B0024
:101A90005B78180002F0F6F918E03B005A783B003A
:101AA0005B6819001000FEF78DFC0FE03B005B78CF
:101AB0001800FFF7B9FC09E03B005A783B005B686F
:101AC0001900100003F0E0F900E0C0460B4B1B7852
:101AD000002BAFD109F060FC084B1B78002B02D122
:101AE000074B00221A7009F051FCC046BD4602B0F7
:101AF00080BDC046950500209605002068050020A1
:101B00009405002080B582B000AF0200FB1D1A7062
:101B1000064BFA1D127811001F220A400121914044
:101B20000A001A60C046BD4602B080BD00E100E078
:101B3000B0B582B000AF02003960FB1D1A70FB1D0A
:101B40001B787F2B32D92F4CFB1D1B781A000F23DB
:101B50001340083B99082B4AFB1D1B7818000F23E4
:101B60000340083B9B0806339B00D31804331B68D3
:101B7000FA1D1278100003220240D200FF2090408C
:101B80000200D2431A403B689B01FF201840FB1D16
:101B90001B781D0003232B40DB00984003001A43F1
:101BA0008B1D9B00E31804331A6027E0164CFB1DC5
:101BB0001B785BB29B081449FA1D127852B2920846
:101BC000C03292005258F91D0978080003210140E3
:101BD000C900FF2088400100C94311403A689201C2
:101BE000FF201040FA1D1278150003222A40D2006F
:101BF000904002000A43C0339B001A51C046BD46C4
:101C000002B0B0BD00ED00E000E100E080B500AF43
:101C1000FFF75AFD0F4B1B880F4A934205D80D4B17
:101C20001B8801339AB20B4B1A800C4B1B880A4A53
:101C3000934205D8094B1B8801339AB2074B1A808F
:101C4000074B022252421A82FFF74AFDC046BD46A8
:101C500080BDC046F80400201F4E0000220800206E
:101C60000010004080B500AF0121102001F054F9B0
:101C70000021102001F050F90E4B84221A800D4BE8
:101C800001229A810B4B0C4A1A850A4B2722DA62F1
:101C9000084A084B1B889BB201210B439BB213805F
:101CA0001120FFF72FFF00211120FFF741FFC04651
:101CB000BD4680BD00100040AF04000080B500AFFD
:101CC0001A4B1A4A126801210A431A60174B174A25
:101CD000526817490A405A60144B144A1268154951
:101CE0000A401A60114B114A126813490A401A60DF
:101CF0000E4B0E4A526811490A405A600B4B0B4A70
:101D0000D26A0F218A43DA62084B084A126B0C49E7
:101D10000A401A63054B054A526B01218A435A63F4
:101D2000024B00229A60C046BD4680BD00100240B2
:101D30000CB8FF08FFFFF6FEFFFFFBFFFFFFC0FF31
:101D4000ACFEF0FF80B582B000AF0200FB1D1A7040
:101D5000FB1D1B78002B0CD0FB1D1B78012B08D022
:101D6000FB1D1B78052B04D0074BCC21180009F074
:101D7000E1FB064B00221A70044AFB1D1B7813700E
:101D8000C046BD4602B080BDC0BF00080210024080
:101D900090B583B000AF00233B60FB1D00221A709A
:101DA000BB1D00221A70BC1D112001F043F9030075
:101DB00023703B6801333B603A68A023DB019A4201
:101DC00003D0BB1D1B78002BEDD0112001F032F9A0
:101DD000031E03D0FB1D01221A7002E0FB1D00222E
:101DE0001A70FB1D1B781800BD4603B090BDC0469D
:101DF00080B584B000AF0200FB1D1A700023FB60A9
:101E0000FB1D1B781F2B06D985235A000C4B110094
:101E1000180009F08FFB0B4B1B68FB60FB68F82276
:101E20009343FB60FB1D1B78DB00FA681343FB60E8
:101E3000044BFA681A60C046BD4604B080BDC04677
:101E4000C0BF00080010024080B582B000AF0200A1
:101E5000FB1D1A70FB1D1B78002B0AD0FB1D1B7885
:101E6000012B06D095235A000C4B1100180009F0E5
:101E700061FBFB1D1B78002B06D0094B084A12683A
:101E800001210A431A6005E0054B054A1268012149
:101E90008A431A60C046BD4602B080BDC0BF00087C
:101EA0000010024080B584B000AF0200FB1D1A7024
:101EB0000023FB60FB1D1B781F2B06D9A3235A00B0
:101EC0000C4B1100180009F035FB0B4B5B6BFB60F2
:101ED000FB68F8229343FB60FB1D1B78DB00FA686C
:101EE0001343FB60044BFA685A63C046BD4604B016
:101EF00080BDC046C0BF00080010024080B582B05F
:101F000000AF0200FB1D1A70FB1D1B78002B0BD0CD
:101F1000FB1D1B78012B07D06423FF331A000D4BE8
:101F20001100180009F006FBFB1D1B78002B06D0E2
:101F3000094B094A526B01210A435A6305E0064BDB
:101F4000054A526B01218A435A63C046BD4602B01E
:101F500080BDC046C0BF00080010024080B582B0FE
:101F600000AF0200FB1D1A70FB1D1B78002B0AD06E
:101F7000FB1D1B78012B06D0BC235A000C4B110013
:101F8000180009F0D7FAFB1D1B78002B06D0094B6F
:101F9000084A526B04218A435A6305E0054B054AFF
:101FA000526B04210A435A63C046BD4602B080BD4D
:101FB000C0BF00080010024080B582B000AF78605A
:101FC0007B68002B0CD07B68012B09D07B68052B2C
:101FD00006D0CC235A000D4B1100180009F0AAFAC4
:101FE0000B4B0B4A126A01218A431A62084B084ABA
:101FF000126A04218A431A62054B054A116A7A68FB
:102000000A431A62C046BD4602B080BDC0BF000888
:102010000010024080B582B000AF78607B68002B72
:102020000FD07B68082B0CD07B68102B09D07B6805
:10203000182B06D0D9235A000A4B1100180009F0BA
:1020400079FA094B084A126A18218A431A62064B28
:10205000054A116A7A680A431A62C046BD4602B050
:1020600080BDC046C0BF00080010024080B582B0ED
:1020700000AF0200FB1D1A70FB1D1B78002B0AD05D
:10208000FB1D1B78012B06D0E5235A000C4B1100D9
:10209000180009F04FFAFB1D1B78002B06D0094BE6
:1020A000084A526A01210A435A6205E0054B054A73
:1020B000526A01218A435A62C046BD4602B080BDC1
:1020C000C0BF00080010024080B582B000AF786049
:1020D00039607B68002B1BD07A68C0235B029A4270
:1020E00016D07A6880231B029A4211D07A68802326
:1020F0005B029A420CD07A6880235B029A4207D036
:10210000EC23FF331A00334B1100180009F012FAC8
:102110003B68002B4CD03A688023DB029A4247D0C0
:102120003A6880231B039A4242D03A68C0231B03BB
:102130009A423DD03A6880235B039A4238D03A688D
:10214000A0235B039A4233D03A68C0235B039A42D0
:102150002ED03A68E0235B039A4229D03A68802364
:102160009B039A4224D03A6890239B039A421FD043
:102170003A68A0239B039A421AD03A68B0239B0383
:102180009A4215D03A68C0239B039A4210D03A680D
:10219000D0239B039A420BD03A68E0239B039A42D8
:1021A00006D0F6235A000B4B1100180009F0C2F9B3
:1021B000094B094A526809490A405A60064B064AC7
:1021C000516878683A6802430A435A60C046BD467F
:1021D00002B080BDC0BF000800100240FF7FC2FFF8
:1021E00080B582B000AF0200FB1D1A70FB1D1B788A
:1021F000002B09D0FB1D1B78012B05D00D4A0E4B7F
:102200001100180009F096F9FB1D1B78002B07D070
:102210000A4B0A4A1268802149040A431A6005E001
:10222000064B064A126806490A401A60C046BD4677
:1022300002B080BD03020000C0BF000800100240D1
:10224000FFFFFFFE80B582B000AF0200FB1D1A70D9
:10225000FB1D1B78002B09D0FB1D1B78012B05D023
:102260000D4A0E4B1100180009F064F9FB1D1B7894
:10227000002B07D00A4B0A4A526B802149020A43BD
:102280005A6305E0064B064A526B06490A405A63F8
:10229000C046BD4602B080BD1D020000C0BF0008A0
:1022A00000100240FFFFFEFF80B584B000AF7860F1
:1022B0000023FB607B68002B32D07B68012B2FD082
:1022C0007B68022B2CD07B68032B29D07B68042BE6
:1022D00026D07B68052B23D07B68062B20D07B681B
:1022E000072B1DD07B68082B1AD07B68092B17D0D1
:1022F0007B680A2B14D07B680B2B11D07B680C2BCE
:102300000ED07B680D2B0BD07B680E2B08D07B6822
:102310000F2B05D00B4A0C4B1100180009F00AF9DD
:102320000A4BDB6AFB60FB680F229343FB60FA6891
:102330007B681343FB60054BFA68DA62C046BD4612
:1023400004B080BD35020000C0BF0008001002408C
:1023500080B582B000AF0200FB1D1A70FB1D1B7818
:10236000002B09D0FB1D1B78012B05D00D4A0E4B0D
:102370001100180009F0DEF8FB1D1B78002B07D0B8
:102380000A4B0A4A1268802109030A431A6005E0D1
:10239000064B064A126806490A401A60C046BD4606
:1023A00002B080BD4E020000C0BF00080010024015
:1023B000FFFFF7FF80B584B000AF02003960FB1D5E
:1023C0001A700023FB60FB1D1B78002B29D0FB1D1E
:1023D0001B78012B25D0FB1D1B78042B21D0FB1D66
:1023E0001B78052B1DD0FB1D1B78062B19D0FB1D60
:1023F0001B78072B15D0FB1D1B78022B11D0FB1D62
:102400001B78082B0DD0FB1D1B78872B09D0FB1DDB
:102410001B78032B05D0244A244B1100180009F027
:1024200089F83B68002B28D03A6880235B059A42E4
:1024300023D03A6880239B059A421ED03A68C02375
:102440009B059A4219D03A688023DB059A4214D042
:102450003A68A023DB059A420FD03A68C023DB0517
:102460009A420AD03A68E023DB059A4205D0104A26
:102470000E4B1100180009F05DF80E4B5B68FB6015
:10248000FB681B021B0AFB60FB1D1B781A063B68DE
:102490001343FA681343FB60064BFA685A60C04660
:1024A000BD4604B080BDC04695020000C0BF000814
:1024B000960200000010024080B584B000AF786042
:1024C0000023FB607B68002B0ED07B68012B0BD0B8
:1024D0007B68032B08D07B68022B05D00B4A0C4B82
:1024E0001100180009F026F80A4B5B68FB60FB68D6
:1024F00003229343FB60FA687B681343FB60054B40
:10250000FA685A60C046BD4604B080BD09030000A9
:10251000C0BF00080010024080B500AF044B5B68EC
:10252000DBB20C221340DBB21800BD4680BDC046B2
:102530000010024080B584B000AF78600023FB60DB
:102540007B68002B1DD07B68802B1AD07B68902B7A
:1025500017D07B68A02B14D07B68B02B11D07B6880
:10256000C02B0ED07B68D02B0BD07B68E02B08D023
:102570007B68F02B05D00C4A0C4B1100180008F0BA
:10258000D9FF0B4B5B68FB60FB68F0229343FB6059
:10259000FA687B681343FB60054BFA685A60C046D3
:1025A000BD4604B080BDC0463B030000C0BF00086C
:1025B0000010024080B584B000AF78600023FB605B
:1025C0007B68002B19D07A688023DB009A4214D0F4
:1025D0007A68A023DB009A420FD07A68C023DB0020
:1025E0009A420AD07A68E023DB009A4205D00C4A6E
:1025F0000C4B1100180008F09DFF0B4B5B68FB6053
:10260000FB680A4A1340FB60FA687B681343FB606F
:10261000054BFA685A60C046BD4604B080BDC0464E
:102620005A030000C0BF000800100240FFF8FFFF7F
:1026300080B582B000AF78607B68002B0ED07A68DE
:1026400080235B049A4209D07B68144A934205D0E8
:10265000134A144B1100180008F06CFF124B124A79
:10266000526812490A405A600F4B0F4A51687A6803
:102670001204120C0A435A600B4B0B4A126B0C49A2
:102680000A401A63084B084A116B7A68120C0A4315
:102690001A63C046BD4602B080BDC046004000017E
:1026A00077030000C0BF000800100240FFBFFFFF1B
:1026B000FFFEFFFF80B582B000AF78607B68002B23
:1026C00009D07B68402B06D0E4239A000A4B110006
:1026D000180008F02FFF094B084A126B40218A436B
:1026E0001A63064B054A116B7A680A431A63C0469F
:1026F000BD4602B080BDC046C0BF00080010024009
:1027000080B582B000AF78607B68002B09D07B6811
:10271000102B06D0E9239A000A4B1100180008F08C
:1027200009FF094B084A126B10218A431A63064BB2
:10273000054A116B7A680A431A63C046BD4602B067
:1027400080BDC046C0BF00080010024080B584B004
:1027500000AF78600023FB607A6880235B059A42B3
:1027600034D07B682D4A934230D07B682C4A934208
:102770002CD07B682B4A934228D07A6880239B0513
:102780009A4223D07B68284A93421FD07B68274A0D
:1027900093421BD07B68264A934217D07A68C023A5
:1027A0009B059A4212D07B68224A93420ED07B68E6
:1027B000214A93420AD07B68204A934206D0F123F3
:1027C0009A001F4B1100180008F0B4FE7B681B0F25
:1027D000FB60FB68012B06D11A4B1A4A126B0321CE
:1027E0008A431A630FE0FB68022B06D1154B154A8A
:1027F000126B15490A401A6305E0124B114A126B1D
:1028000012490A401A630F4B0E4A116B7A680A4349
:102810001A63C046BD4604B080BDC046010000102A
:102820000200001003000010000001200000022040
:1028300000000320000004300000083000000C30CD
:10284000C0BF000800100240FFFFFCFFFFFFF3FFC6
:1028500080B582B000AF78607B68002B08D07B68C1
:10286000802B05D00A4A0B4B1100180008F062FEBD
:10287000094B094A126B80218A431A63064B064AA8
:10288000116B7A680A431A63C046BD4602B080BD28
:10289000EB030000C0BF00080010024080B588B004
:1028A00000AF78600023BB6100237B6100233B61A4
:1028B0000023FB600023BB600023FB61A44B5B682B
:1028C0000C221340BB61BB69042B0CD002D8002B37
:1028D00005D03BE0082B0AD00C2B33D036E07B68C8
:1028E0009C4A1A6036E07B689A4A1A6032E0984B3C
:1028F0005A68F0239B0313407B61954B5A68C023B1
:102900005B0213403B617B699B0C02337B613B693B
:10291000002B04D17B69904A5343FB610EE08C4B42
:10292000DB6A0F2213400133FB60F968894809F024
:102930002DF903001A007B695343FB617B68FA6938
:102940001A6007E07B68854A1A6003E07B68814A69
:102950001A60C0467E4B5B68F0221340BB61BB69C6
:102960001B09BB617E4ABB69D3181B78DBB2BB6015
:102970007B681A68BB68DA407B685A60744B5A6897
:10298000E023DB001340BB61BB691B0ABB61744AD7
:10299000BB69D3181B78DBB2BB607B685A68BB6825
:1029A000DA407B689A606A4B1A6B80235B001340A5
:1029B00003D17B686B4ADA6010E0654B5A6880236C
:1029C000DB01134005D17B689B685A087B68DA609D
:1029D00004E07B689B689A087B68DA605C4B1B6B41
:1029E0004022134003D17B685F4A1A6103E07B6891
:1029F000802212021A61564B1B6B1022134003D126
:102A00007B68544A5A6103E07B681A687B685A61A4
:102A10004F4B1B6B0322134004D17B689A687B6881
:102A20009A611EE04A4B1B6B03221340012B04D119
:102A30007B681A687B689A6113E0454B1B6B032225
:102A40001340022B04D17B68802212029A6108E0B5
:102A50003F4B1B6B03221340032B02D17B683D4A83
:102A60009A613B4B1A6BC0239B02134004D17B68D5
:102A70009A687B68DA6127E0354B1A6BC0239B02AA
:102A80001A4080235B029A4204D17B681A687B68F3
:102A9000DA6119E02E4B1A6BC0239B021A40802387
:102AA0009B029A4204D17B6880221202DA610BE019
:102AB000274B1A6BC0239B021A40C0239B029A42E9
:102AC00002D17B68234ADA61214B1A6BC0231B03B6
:102AD000134004D17B689A687B681A6227E01C4B1C
:102AE0001A6BC0231B031A408023DB029A4204D1D5
:102AF0007B681A687B681A6219E0154B1A6BC02351
:102B00001B031A4080231B039A4204D17B68802256
:102B100012021A620BE00E4B1A6BC0231B031A4001
:102B2000C0231B039A4202D17B680A4A1A62084BEF
:102B30001B6B8022134003D17B68084A5A6202E073
:102B40007B68FA695A62C046BD4608B080BDC0467F
:102B50000010024000127A0000093D00006CDC0207
:102B600024000020809FD5001280000080B582B034
:102B700000AF78607A6880235B009A4210D07A6850
:102B800080239B009A420BD07A68C0239B009A4214
:102B900006D0A123DA00074B1100180008F0CAFC88
:102BA000054B054A116A7A680A431A62C046BD4657
:102BB00002B080BDC0BF00080010024080B582B0E6
:102BC00000AF0200FB1D1A70FB1D1B78002B09D003
:102BD000FB1D1B78012B05D00D4A0E4B1100180070
:102BE00008F0A8FCFB1D1B78002B07D00A4B0A4AF3
:102BF000126A802109020A431A6205E0064B064A5E
:102C0000126A06490A401A62C046BD4602B080BD3B
:102C100019050000C0BF000800100240FF7FFFFF41
:102C200080B582B000AF0200FB1D1A70FB1D1B783F
:102C3000002B0AD0FB1D1B78012B06D0A623DA003F
:102C40000D4B1100180008F075FCFB1D1B78002BC4
:102C500007D00A4B094A126A802149020A431A62C4
:102C600005E0064B054A126A05490A401A62C04649
:102C7000BD4602B080BDC046C0BF00080010024083
:102C8000FFFFFEFF80B582B000AF78600A00FB1C3A
:102C90001A707B68174A134002D17B68002B05D15C
:102CA000154A164B1100180008F044FCFB1C1B7859
:102CB000002B09D0FB1C1B78012B05D0104A0F4BB1
:102CC0001100180008F036FCFB1C1B78002B06D006
:102CD0000C4B0C4A51697A680A435A6106E0094B69
:102CE000084A52697968C9430A405A61C046BD46DC
:102CF00002B080BDA8FF81FE56050000C0BF0008DD
:102D0000570500000010024080B582B000AF786027
:102D10000A00FB1C1A707B68174A134002D17B68BB
:102D2000002B05D1154A164B1100180008F002FCC3
:102D3000FB1C1B78002B09D0FB1C1B78012B05D03A
:102D4000104A0F4B1100180008F0F4FBFB1C1B7815
:102D5000002B06D00C4B0C4A91697A680A439A61A1
:102D600006E0094B084A92697968C9430A409A61AA
:102D7000C046BD4602B080BD1EA5B8FF7D0500005F
:102D8000C0BF00087E0500000010024080B582B080
:102D900000AF78600A00FB1C1A707B68174A13406A
:102DA00002D17B68002B05D1154A164B1100180083
:102DB00008F0C0FBFB1C1B78002B09D0FB1C1B7808
:102DC000012B05D0104A0F4B1100180008F0B2FB80
:102DD000FB1C1B78002B06D00C4B0C4AD1697A687F
:102DE0000A43DA6106E0094B084AD2697968C943A7
:102DF0000A40DA61C046BD4602B080BDCCB68185CE
:102E0000AB050000C0BF0008AC0500000010024088
:102E100080B582B000AF78600A00FB1C1A707B6836
:102E2000174A134002D17B68002B05D1154A164B77
:102E30001100180008F07EFBFB1C1B78002B09D04A
:102E4000FB1C1B78012B05D0104A0F4B11001800FA
:102E500008F070FBFB1C1B78002B06D00C4B0C4AB7
:102E6000916A7A680A439A6206E0094B084A926AB4
:102E70007968C9430A409A62C046BD4602B080BD27
:102E8000A8FF81FECA050000C0BF0008CB050000F6
:102E90000010024080B582B000AF78600A00FB1CD1
:102EA0001A707B68174A134002D17B68002B05D14A
:102EB000154A164B1100180008F03CFBFB1C1B7850
:102EC000002B09D0FB1C1B78012B05D0104A0F4B9F
:102ED0001100180008F02EFBFB1C1B78002B06D0FD
:102EE0000C4B0C4AD1687A680A43DA6006E0094B59
:102EF000084AD2687968C9430A40DA60C046BD46CC
:102F000002B080BD1EA5B8FFEE050000C0BF0008DE
:102F1000EF0500000010024080B582B000AF78607D
:102F20000A00FB1C1A707B68174A134002D17B68A9
:102F3000002B05D1154A164B1100180008F0FAFABB
:102F4000FB1C1B78002B09D0FB1C1B78012B05D028
:102F5000104A0F4B1100180008F0ECFAFB1C1B780C
:102F6000002B06D00C4B0C4A11697A680A431A618F
:102F700006E0094B084A12697968C9430A401A6198
:102F8000C046BD4602B080BDCCB6818519060000A2
:102F9000C0BF00081A0600000010024080B582B0D1
:102FA00000AF0200FB1D1A70BB1D0A1C1A70FB1D2E
:102FB0001B785BB2002B03DBFB1D1B78002B05D1BC
:102FC000184A194B1100180008F0B4FABB1D1B7801
:102FD000002B09D0BB1D1B78012B05D0134A124BC7
:102FE0001100180008F0A6FABB1D1B78002B09D0B1
:102FF0000F490F4B1B78DAB2FB1D1B781343DBB272
:103000000B700AE00A490A4B1B78DBB2FA1D1278F2
:10301000D243D2B21340DBB20B70C046BD4602B001
:1030200080BDC0464D060000C0BF00084E0600002F
:103030000910024080B586B000AF0200FB1D1A7077
:103040000023FB6000237B611323FB1800221A700E
:10305000FB1D1B78012B3ED0FB1D1B78112B3AD09A
:10306000FB1D1B78192B36D0FB1D1B78212B32D072
:10307000FB1D1B78412B2ED0FB1D1B78592B2AD012
:10308000FB1D1B785A2B26D0FB1D1B785B2B22D0F7
:10309000FB1D1B785C2B1ED0FB1D1B785D2B1AD0F3
:1030A000FB1D1B785E2B16D0FB1D1B785F2B12D0EF
:1030B000FB1D1B78612B0ED0FB1D1B78712B0AD0DA
:1030C000FB1D1B78572B06D0CF23DA001E4B1100B7
:1030D000180008F02FFAFB1D1B785B09DBB2FB60C0
:1030E000FB68002B03D1194B1B687B6110E0FB6868
:1030F000012B03D1154B1B6A7B6109E0FB68022B96
:1031000003D1124B5B6A7B6102E0104B5B6B7B610E
:10311000FB1D1B781F221340FB607A69FB68DA40B5
:1031200013000122134004D01323FB1801221A704C
:1031300003E01323FB1800221A701323FB181B78DB
:103140001800BD4606B080BDC0BF00080010024098
:1031500080B500AF044B044A526A802149040A43F7
:103160005A62C046BD4680BD0010024080B584B0A2
:1031700000AF0200FB1D1A700F23FB1800221A700B
:10318000FB1D1B78012B21D0FB1D1B78022B1DD0B2
:10319000FB1D1B78042B19D0FB1D1B78082B15D0A9
:1031A000FB1D1B78102B11D0FB1D1B78202B0DD085
:1031B000FB1D1B78802B09D0FB1D1B78402B05D0F5
:1031C0000D4A0E4B1100180008F0B4F90C4B9B6827
:1031D000FA1D1278134004D00F23FB1801221A7035
:1031E00003E00F23FB1800221A700F23FB181B7833
:1031F0001800BD4604B080BDBE060000C0BF000878
:103200000010024080B582B000AF0200FB1D1A70B2
:10321000FB1D1B78002B05D1064A074B1100180037
:1032200008F088F9054AFB1D1B781370C046BD469F
:1032300002B080BDDE060000C0BF00080A100240D8
:103240000C488546002103E00B4B5B58435004318A
:103250000A480B4B42189A42F6D30A4A02E000236E
:1032600013600432084B9A42F9D307F047FF08F085
:103270001BF9FEE70020002014C400080000002015
:10328000900400209004002040100020FEE7000081
:1032900080B584B000AF1A4BBB601A4B7B600F2324
:1032A000FB1800221A7017E0BB680F22BA181278B8
:1032B0009A71BB6803225A71BB687A685A62BB680C
:1032C0002C33BB607B682C337B600F23FB181A7890
:1032D0000F23FB1801321A700F23FB181B78042BE5
:1032E000E2D9BB680F22BA1812789A71BB68002223
:1032F0005A62054B024A1A60C046BD4604B080BD02
:1033000098050020C405002004070020F0B587B010
:1033100000AF78600F23FB187A6812791A707B6807
:1033200000225A71384B1B683B613B691B790F22A5
:10333000BA1812789A421ED13A697B689A421AD01A
:103340003B69002B17D0314B5C681B68304A116811
:103350005268A24202D80ED199420CD93B695B89CE
:103360001D0000231E002A4B5C681B685B1974411A
:10337000264A13605460274B1B683B613B69002B56
:1033800006D1254B01221A70224B7A681A6037E069
:103390003B691B790F22BA1812789A420CD21E4B45
:1033A00001221A707B683A695A623B697A689A62AC
:1033B000184B7A681A6023E03B695B6A7B610BE01B
:1033C0007B691B790F22BA1812789A4208D37B695D
:1033D0003B617B695B6A7B617B69002BF0D100E01C
:1033E000C0467B687A695A623B697A685A627B6830
:1033F0003A699A627B69002B02D07B697A689A628B
:10340000C046BD4607B0F0BD1007002018070020D9
:1034100060050020080700205E05002080B582B00E
:1034200000AF78607B685B6A002B07D17B689B6A82
:10343000002B03D1194B00221A602BE07B689B6A9A
:10344000002B0BD17B685A6A144B1A607B680022F0
:103450005A62124B1B6800229A621BE07B685B6A0F
:10346000002B07D17B689B6A00225A627B6800228E
:103470009A620FE07B689B6A7A68526A5A627B683C
:103480005B6A7A68926A9A627B6800225A627B68F9
:1034900000229A62C046BD4602B080BD08070020E7
:1034A00080B586B000AF0200FB1D1A70BB1D0A1C60
:1034B0001A70FB1D1B78002B01D11423D7E0FB1DD4
:1034C0001B78052B01D90123D1E0FB1D1B782C2291
:1034D0005A43694BD3187B617B695B79032B01D11C
:1034E0000123C4E0BB1D1B78402B01D90123BEE0A2
:1034F0007B691B79BA1D12789A4200D1B6E07B69CC
:10350000DB79FF2B17D07B69DB79DA005B4BD318B3
:10351000FB60FB689A787B699B799A420BD1FB68C8
:10352000BA1D12781A707B691B79BA1D12789A42FB
:1035300001D900239BE07B69BA1D12781A717B695F
:103540005B79002B11D14E4B1B78DBB20133DAB221
:103550004B4B1A707B691800FFF760FF7B691800FE
:10356000FFF7D4FEFEF7E6F880E07B695B79012B7C
:1035700014D17B691A79434B1B681B799A4200D896
:1035800074E03F4B1B78DBB20133DAB23C4B1A706C
:103590003D4B01221A70FEF7CDF867E07B69DB79BD
:1035A000FF2B41D0364B1B78DBB20133DAB2344B00
:1035B0001A707B69DB79DA00304BD318FB60FB684B
:1035C0005B687B611323FB18FA6812781A70FB683A
:1035D0009A78FB68DA7012E07B691B791322BA18BB
:1035E00012789A4208D91323FB187A6912791A7053
:1035F0007B699A79FB68DA707B695B6A7B617B69BE
:10360000002BE9D1FEF796F8FB681B781322BA1855
:1036100012789A4208D0FB689A781323FB181B781B
:1036200019001000FFF73CFFFB1D1B782C225A43AA
:10363000114BD3187B617B691B7AFF2B16D07B69FA
:103640001B7A1A01114BD318BB60BB685B790F2240
:103650009343DBB2202B09D17B69180008F062F993
:103660007A69BB681100180008F076F8002318008A
:10367000BD4606B080BDC046980500202808002041
:103680005D050020080700205E050020B40800202A
:10369000F0B585B000AF4C4B1B68FB604B4B1B6813
:1036A000BB60BB68002B00D188E0494B1B68FA68FF
:1036B0009A4200D082E0474B1B78DBB2012B00D945
:1036C0007CE0454B1B78DBB2002B00D076E0434B0F
:1036D00000221A70FB1DFA6812791A70BB1DBA68B5
:1036E00012791A70FB685B79012B0AD0384BBA68E3
:1036F0001A60BB6801225A71BB681800FFF78EFE82
:1037000032E0BA1DFB1D12781B789A420ED2304B64
:10371000BA681A60FB681800FFF7F8FDBB6818006C
:10372000FFF77CFEBB6801225A711DE0FA1DBB1D2C
:1037300012781B789A4243D1294B19685A68294B51
:103740005C681B6899423BD1A24239D1204BBA68D0
:103750001A60FB681800FFF7D9FDBB681800FFF777
:103760005DFEBB6801225A71194B1B681A79174B11
:103770001B681B799A420DD1154B1B685B891D0094
:1037800000231E00174B5C681B685B197441144AC8
:1037900013605460FB681A68FB68DB689A4205D3C3
:1037A000FB68DB681B68104A934204D0FB689B7976
:1037B000180008F0E3F907F0FBFD02E0C04600E066
:1037C000C046BD4605B0F0BD100700200807002028
:1037D0000C0700205D0500205C0500205E05002030
:1037E0001807002060050020A5A55A5A80B582B0B0
:1037F00000AF0F4B1B78DBB20133DAB20C4B1A70FF
:103800000C4B1B68002B03D1FDF794FF00230AE04B
:10381000084B1B687B60074B1B685A6A054B1A6094
:10382000FDF788FF7B681800BD4602B080BDC0462A
:103830005D0500200407002080B588B000AFF86067
:10384000B9607A603B607B681B0A9AB21C23FB1844
:103850001205120D1A801B23FB187A681A70FB6878
:10386000002B01D1FF2383E03B68002B01D1FF2314
:103870007EE01B23FB181B78402B01D9FF2377E048
:103880001C23FB181B88132B01D8FF2370E03A6818
:10389000B968FB681800FDF7F5FF03007B61FFF7CF
:1038A000A5FF03003B613B69002B01D1FF235FE0D3
:1038B0003B697A691A603B691B22BA1812781A713F
:1038C0001C23FB181A8813009B079B1A9B000433C8
:1038D0003A68D2183B69DA603B69DB68264A1A60AD
:1038E0003B69012252421A623B6900225A623B69DB
:1038F00000229A627B681B0D9AB21E23FB185205A8
:10390000520D1A801E23FB181B88002B03D11E2387
:10391000FB180A221A803B691E22BA1812885A81A3
:103920003B690022DA613B69FF221A723B6900227F
:103930001A613B6900225A613B6900229A613B6926
:10394000FF22DA717B68002B0DDB0C4B1B78DBB29E
:103950000133DAB2094B1A703B691800FFF7D6FC45
:10396000FDF7E8FE02E03B6902225A713B699B7950
:103970001800BD4608B080BDA5A55A5A5D050020B7
:1039800080B584B000AF0200FB1D1A70FB1D1B78D0
:10399000052B01D9012376E0FB1D1B782C225A430D
:1039A0003B4BD318FB60FB685B79032B01D10123F0
:1039B00069E0FB1D1B78002B01D1142363E0FB6839
:1039C0005B79012B06D1334B1B78DBB2002B01D086
:1039D000152358E0FB68DB79FF2B0FD0FB68DB7900
:1039E0002D4ADB00D31802331A78FB689B799A4280
:1039F00004D1FB68DB79180002F090FB254B1B78A3
:103A0000DBB20133DAB2234B1A70FB685B79002B0F
:103A100004D1FB681800FFF701FD24E0FB685B7927
:103A2000022B20D1FB681B6A013303D0FB6818000E
:103A300000F03CFEFB681B7AFF2B03D0FB681800EC
:103A400007F070FFFB68DB69002B04D0FB68DB69C3
:103A50001800FDF7F7FDFB68DB79FF2B03D0FB684F
:103A6000180002F009FCFB6803225A710B4B01227B
:103A70001A700B4B1A68FB685A62094BFA681A6095
:103A8000FDF758FE00231800BD4604B080BDC046B7
:103A9000980500205D050020280800205E05002014
:103AA0000407002080B500AF044B1B689B79180009
:103AB000FFF766FFC046BD4680BDC0461007002028
:103AC00080B500AF024B1B689B791800BD4680BDD6
:103AD0001007002080B584B000AF0200FB1D1A70F3
:103AE000FB1D1B78002B01D1142339E0FB1D1B7833
:103AF000052B01D9012333E0FB1D1B782C225A43EF
:103B0000194BD318FB60FB685B79032B01D10123B0
:103B100026E0164B1B78DBB2002B01D015231FE0EB
:103B2000FB685B79022B01D10D2319E00F4B1B7849
:103B3000DBB20133DAB20D4B1A700D4B1B68FA6819
:103B40009A4204D0FB681800FFF768FC02E0094BBA
:103B500001221A70FB6802225A71FDF7EBFD002367
:103B60001800BD4604B080BD980500205D0500200A
:103B7000100700205E05002080B584B000AF020071
:103B8000FB1D1A70FB1D1B78002B01D114233EE096
:103B9000FB1D1B78052B01D9012338E0FB1D1B7889
:103BA0002C225A431C4BD318FB60FB685B79032B18
:103BB00001D101232BE0FB685B79022B01D00E239E
:103BC00025E0FB681B6A013301D00F231FE0FB686F
:103BD000DB69002B01D00F2319E0FB681B7AFF2B58
:103BE00001D00F2313E0FB68DB79FF2B01D00F23FB
:103BF0000DE00A4B1B78DBB20133DAB2074B1A70C7
:103C0000FB681800FFF782FBFDF794FD0023180006
:103C1000BD4604B080BDC046980500205D0500206B
:103C200090B585B000AF040008001100BB1D221C38
:103C30001A803B1D021C1A80FB1C0A1C1A70BA1D3C
:103C40003B1D12881B889A4201D9FF2321E0FB1CEF
:103C50001B78012B05D0FB1C1B78022B01D0FF2306
:103C600017E0FB1C1B7800221900012007F0D8FC8C
:103C70000300FB60FB68002B01D1FF2309E0FB6818
:103C8000BA1D1288DA80FB683A1D12881A81FB6817
:103C90001B791800BD4605B090BDC04680B584B004
:103CA00000AF0200FB1D1A70BB1D0A1C1A70FB1D21
:103CB0001B78132B01D9012316E0FB1D1B781A0179
:103CC0000B4BD318FB60FB685B790F221340DBB210
:103CD000012B01D0012307E0BB1D1A78FB681100FE
:103CE000180007F0EDFC03001800BD4604B080BDCD
:103CF000B408002080B584B000AF0200FB1D1A702C
:103D0000FB1D1B78132B01D9012326E0FB1D1B781B
:103D10001A01144BD318FB60FB685B790F22134028
:103D2000DBB2012B01D0012317E00F4B1B78DBB274
:103D30000133DAB20C4B1A70FB68DB88002B09D018
:103D4000FB68DB88013B9AB2FB68DA80FDF7F2FC86
:103D5000002302E0FDF7EEFC09231800BD4604B085
:103D600080BDC046B40800205D05002080B584B049
:103D700000AF02003960FB1D1A703E4B1B78DBB2AE
:103D8000002B01D0032370E0FB1D1B78132B01D9FE
:103D900001236AE0FB1D1B781A01374BD318FB6027
:103DA000FB685B790F221340DBB2012B01D00123AA
:103DB0005BE0324B1B78DBB2002B01D0152354E0C3
:103DC0002E4B1B78DBB20133DAB22C4B1A70FB6836
:103DD000DB88002B09D0FB68DB88013B9AB2FB68CB
:103DE000DA80FDF7A7FC00233FE0254B1B68BB6092
:103DF0003B68002B12D1BA68FB681100180007F06D
:103E0000ABFCFB68DB88013B9AB2FB68DA80BB68DD
:103E100000221A61FDF78EFC002326E0BA68FB68D9
:103E20001100180007F098FC3A68BB6811001800F0
:103E300000F0C6FBFDF77EFCBB681B69002B01D1BF
:103E4000052312E00D4B1B78DBB20133DAB20B4BCA
:103E50001A70BB6800221A61FB68DB88013B9AB2CA
:103E6000FB68DA80FDF766FC00231800BD4604B04D
:103E700080BDC0465C050020B40800205D05002020
:103E80001007002080B584B000AF0200FB1D1A703F
:103E9000FB1D1B78132B01D901232AE0FB1D1B7886
:103EA0001A01164BD318FB60FB685B790F22134095
:103EB000DBB2012B01D001231BE0FB68DA88FB6831
:103EC0001B899A4201D1062313E00D4B1B78DBB20C
:103ED0000133DAB20A4B1A70FB68DB8801339AB2FD
:103EE000FB68DA80FB68180007F0B6FCFDF722FCDF
:103EF00000231800BD4604B080BDC046B4080020B1
:103F00005D05002080B582B000AF0200FB1D1A7075
:103F10000D4B1B78DBB2002B0CD0FB1D1B78002255
:103F200019000120FDF724FD031E01D1122307E033
:103F3000002305E0FB1D1B781800FFF7A3FF03001B
:103F40001800BD4602B080BD5D05002080B582B07E
:103F500000AF9023DB05180001F018F89023DB0573
:103F600001220921180001F04BFD9023DB050122FD
:103F70000A21180001F044FD3B00C022D2001A6063
:103F80003B0002221A713B0000229A713B0003227F
:103F90005A713B000022DA713A009023DB051100D0
:103FA000180001F08BF83B00FF221A603B00002252
:103FB0001A713B0000229A713B0000225A713B00AB
:103FC0000022DA713A009023DB051100180001F09D
:103FD00075F8214B180000F0D9FF1F4B0122062174
:103FE000180001F00DFD1C4B01220721180001F003
:103FF00007FD3B00C0221A603B0002221A713B0001
:1040000001229A713B0000225A713B000122DA71B1
:104010003B00114A1900100001F050F80F4B180036
:1040200000F0B4FF3B000E4A1A603B0001221A71F7
:104030003B0000229A713B0000225A713B00002293
:10404000DA713B00054A1900100001F037F8C0464C
:10405000BD4602B080BDC0460004004800080048CC
:10406000FF03000080B500AF104B1B68FF221A4011
:104070000E4B1A600E4B9B8A9BB21A000D4B1A60B6
:104080000C4B1B68FF2293431A000A4B1A60094B22
:104090001A68064B1B68D218064B1A60044A054B77
:1040A0001B689BB29382C046BD4680BD000A0020BB
:1040B00000080048040A002080B500AF054B9B8A29
:1040C0009BB21A00FF231A40034B1A60C046BD463C
:1040D00080BDC04600080048000A002080B500AF3F
:1040E0009023DB051B8A9BB21A00FF231A40024B68
:1040F0001A60C046BD4680BD080A002080B500AFEA
:104100000C4A0D4B1A600B4BC8331A000A4B5A600D
:104110000A4B084A1A60094B1B6800221A60074BB9
:104120001B6800225A60054B1B6800229A60C0463B
:10413000BD4680BD20070020EC070020E8070020D6
:1041400080B58AB000AF78607B68002B01D1002376
:10415000A2E07B6803330322934308337B60504B18
:104160005B68BB614F4B1B78DBB20133DAB24D4B5E
:104170001A704D4B1B687B6200233B6285E07B6AB3
:104180005B68002B04D17B6ABA69D31AFB6106E035
:104190007B6A5B681A007B6AD31A013BFB61FA6990
:1041A0007B689A426CD37B6A7B617B6908333B6195
:1041B000FA697B68D31A0B2B22D83B6A002B04D0F8
:1041C0007B6A1A683B6A1A6003E07B6A1A68364B9E
:1041D0001A607B6A5B68002B09D07B6A5B68013BD5
:1041E000FB607B69012213431A00FB685A607B6AFB
:1041F0005A687B691A607B6A9A687B695A602DE00D
:104200007A6A7B68D318BB603B6A002B03D03B6A99
:10421000BA681A6002E0244BBA681A607B6901220E
:1042200013431A00BB689A607B6A5A68BB685A607D
:104230007B6A1A68BB681A607B6A5B68002B06D0D1
:104240007B6A5B68013BFB60FB68BA685A607B690C
:10425000BA681A607B6A9A687B695A607B6A9B6855
:10426000002B09D07B6A9B68013BFB607B690122C4
:1042700013431A00FB681A60FDF75CFA3B690BE018
:104280007B6A3B627B6A1B687B627B6A002B00D087
:1042900075E7FDF74FFA00231800BD460AB080BD50
:1042A000EC0700205D050020E807002080B588B0FD
:1042B00000AF78607B68002B00D15AE17B68083B37
:1042C000FB60B04B1A687B689A4200D953E1AD4B52
:1042D0005A687B689A4200D24FE1AB4B1B78DBB245
:1042E0000133DAB2A84B1A70FA68A84B1B689A42DD
:1042F00014D2A64B1B689B68013B3B6109E03B69FC
:10430000002B02D1FDF716FA38E13B695B68013BEF
:104310003B613A69FB689A42F1D131E09B4B1B68E3
:10432000002B03D1974B1B687B6125E0974B1B68E3
:104330005B68002B05D0954B1B685B68013B7B617C
:104340001AE000237B6117E07B69002B02D1FDF7A7
:10435000F1F913E17B691B681A000123134007D1AF
:104360007B691B68BB61BB695B68013B7B6103E0E8
:104370007B691B68013B7B617A69FB689A42E3D1E8
:10438000FB681B681A000123134051D1FB685B686E
:104390001A00012313404BD1FB681B68002B12D17C
:1043A000FB685B68002B0ED1FB68FB61FB69002298
:1043B0001A60FB6900225A60FB6900229A60734B05
:1043C000FA691A60BCE0FB685B68002B13D1FB68DC
:1043D000FB61FB681B68BB61BB691A68FB691A60FB
:1043E000BB695A68FB695A60FB6900229A60674B97
:1043F000FA691A60A4E0FB681B68002B09D1FB680E
:104400005B68FB61FB6900221A60FB6900225A604D
:1044100096E0FB681B68BB61FB685B68FB61BB697E
:104420001A68FB691A60BB695A68FB695A6087E0C1
:10443000FB685B681A000123134020D1FB685B68AE
:10444000002B12D1FB68FB61FB681B687B61FB6979
:104450007A695A60FB6900229A604C4B1A68FB69C2
:104460001A604A4BFA691A606AE0FB685B68FB6194
:10447000FB681B687B61FB697A695A6060E0FB68D6
:104480001B681A000123134033D1FB685B683B6152
:10449000FB68FB61FB68180000F07AF80300BB6062
:1044A000BB68002B06D1394B1B68BB61374BFA69DF
:1044B0001A6005E0BB681B68BB61BB68FA691A60DB
:1044C000BB69002B09D1FB693A699A60FB6900223C
:1044D0005A60FB6900221A6032E0FB693A699A600F
:1044E000BB695A68FB695A60BB691A68FB691A6044
:1044F00026E0FB68FB61FB68180000F049F8030048
:10450000BB60FB685B683B61FB681B687B61BB68E9
:10451000002B06D11D4B1B68BB611C4BFA691A604E
:1045200005E0BB681B68BB61BB68FA691A60FB6980
:104530003A699A60FB697A695A60FB69BA691A60DC
:10454000FB699B68002B06D0FB699B68013B3B61C4
:104550003B69FA691A60FB695B68002B06D0FB694E
:104560005B68013B7B617B69FA695A60FDF7E2F8A1
:1045700004E0C04602E0C04600E0C046BD4608B0C8
:1045800080BDC046EC0700205D050020E807002044
:1045900080B584B000AF78607B68FB6003E0FB68A7
:1045A0005B68013BFB60FB685B681A0001231340FA
:1045B000F5D1FB685B681800BD4604B080BDC046FD
:1045C00080B584B000AF786039603B68002B65D05F
:1045D000344B1B68002B06D17B683A681A62314B5A
:1045E0007A681A6053E02F4B1B68BB603B68FB6026
:1045F0004AE0FA68BB681B6AD31AFB60FB68002BB1
:104600002EDABB689B6A002B0ED0BB689B6A7A6867
:104610005A62BB689A6A7B689A627B68BA685A6217
:10462000BB687A689A620AE01E4B1A687B685A6215
:104630001C4B1B687A689A621A4B7A681A607B680E
:104640005B6A1A6AFB68D2187B681A627B685B6ACD
:104650007A68526A116A7A68126A8A1A1A6216E0CD
:10466000FB68002B0DDBBB685B6A002B09D17B6804
:10467000BA689A62BB687A685A62FA687B681A629A
:1046800005E0BB685B6ABB60BB68002BB1D17B688F
:1046900002225A71044B01221A7000E0C046BD4646
:1046A00004B080BDF40700205E05002080B582B014
:1046B00000AF78607B689B6A002B07D17B685B6AE0
:1046C000002B03D1244B00221A603DE07B689B6ADB
:1046D000002B14D17B685A6A1F4B1A607B685B6A97
:1046E0007A68526A116A7A68126A8A181A627B6852
:1046F0005B6A00229A627B6800225A6224E07B682F
:104700005B6A002B07D17B689B6A00225A627B6838
:1047100000229A6218E07B689B6A7A68526A5A6241
:104720007B685B6A7A68926A9A627B685B6A7A687D
:10473000526A116A7A68126A8A181A627B680022C1
:104740005A627B6800229A627B68012252421A6296
:10475000C046BD4602B080BDF407002090B500AF52
:10476000034B5C681B6818002100BD4690BDC04625
:104770006005002080B582B000AF7860164B1B78D2
:10478000DBB2002B01D0032321E07B68013301D190
:1047900002231CE07B68002B01D1002317E00F4BA4
:1047A0001B78DBB2002B01D0152310E00B4B1B78DC
:1047B000DBB20133DAB2094B1A70094B1B687A6815
:1047C00011001800FFF7FCFEFCF7B4FF00231800EF
:1047D000BD4602B080BDC0465C0500205D050020DE
:1047E0001007002080B584B000AF02003960FB1DC7
:1047F0001A70FB1D1B78052B01D901232EE0FB1D30
:104800001B782C225A43174BD318FB60FB681B689C
:10481000002B01D1012321E0FB681B6A013301D188
:1048200011231BE0104B1B78DBB20133DAB20E4BC5
:104830001A70FB681800FFF739FF3B68002B04D1A2
:10484000FB681800FEF762FD05E03A68FB6811009E
:104850001800FFF7B5FEFCF76DFF00231800BD46FA
:1048600004B080BD980500205D050020B0B584B07F
:1048700000AF05000C0010001900FB1D2A1C1A7067
:10488000BB1D221C1A707B1D021C1A70BB1C0A1C4B
:104890001A80254B1B78DBB2002B01D003233EE0AE
:1048A000BB1D1B783B2B08D87B1D1B783B2B04D8EA
:1048B000BB1C1B881D4A934201D902232FE01C4BCD
:1048C0001B78DBB2002B01D0152328E0FB1D1B78E1
:1048D000E12212015A431100BB1D1A7813001B017B
:1048E0009B1A9B00CA187B1D1B78D318FA229200D2
:1048F0005A431400BB1C1B88FA2292005343F53321
:10490000FF331A00FA239900100007F0C9F90300D9
:10491000E318FB60FB681800FFF72CFF002318006A
:10492000BD4604B0B0BDC0465C050020E7030000F2
:104930005D05002080B582B000AF1C4B1B687B601A
:1049400028E07B681B7AFF2B03D07B68180006F0F9
:10495000E9FF7B68DB69002B04D07B68DB6918000A
:10496000FCF770FE7B68012252421A627B685A6A29
:104970000E4B1A607B6800225A627B681800FEF7B3
:10498000C5FC0A4B1B687B607B68002B02D07B68F0
:1049900000229A627B68002B03D07B681B6A002B85
:1049A000CFD0C046BD4602B080BDC046F40700204F
:1049B00080B500AF084B1B78DBB2012B06D9074B43
:1049C00001221A70064B01221A7001E0FFF7B2FFB4
:1049D000C046BD4680BDC0465D0500209405002050
:1049E0009505002080B584B000AF78600800110004
:1049F000BB1C021C1A807B1C0A1C1A707B68002BD3
:104A000003D0BB1C1B88002B01D1FF2380E0424B4D
:104A10001B78DBB20133DAB23F4B1A700F23FB185D
:104A200000221A706CE00F23FB181B7801229A40B9
:104A300013001A00394B1B6813405AD10F23FB187F
:104A40001B7801229A4013001A00344B1B681A434A
:104A5000324B1A60FCF76EFE0F23FB181A78304BAE
:104A600012017968D1500F23FB181B782C4A1B01C7
:104A7000D31804330F22BA1812781A700F23FB18B8
:104A80001B78274A1B01D318063300221A800F23F4
:104A9000FB181B78224A1B01D318083300221A8006
:104AA0000F23FB181B781E4A1B01D3180A33BA1CAC
:104AB00012881A800F23FB181B78194A1B01D31880
:104AC0000C3300221A800F23FB181B781A01144B99
:104AD000D2187B1C1B781900032006F0A1FD0300EF
:104AE000BB60BB68002B01D1FF2311E0BB681B79C1
:104AF0000EE00F23FB181A780F23FB1801321A70EF
:104B00000F23FB181B78012B8DD9FCF713FEFF2315
:104B10001800BD4604B080BD5D05002018080020C7
:104B2000F807002090B587B000AF0200FB1D1A7097
:104B3000BB1D0A1C1A70FB1D1B78132B01D9012306
:104B400041E0FB1D1B781A01214BD3187B617B6967
:104B50005B790F221340DBB2032B01D0012332E03B
:104B60007B691B683B610F23FC18BB1D1A787B69AE
:104B70001100180006F0A4FD030023700F23FB189A
:104B80001B78002B1CD13B691B791A000123934031
:104B9000DA43104B1B681A400E4B1A603B69002227
:104BA0001A603B6900221A713B690022DA803B6976
:104BB00000221A813B6900225A813B6900229A81B6
:104BC0000F23FB181B781800BD4607B090BDC046E8
:104BD000B40800201808002080B586B000AF02009D
:104BE0003960FB1D1A70FB1D1B78132B04D93B6821
:104BF00001221A70002349E0FB1D1B781A01254B86
:104C0000D3187B617B695B790F221340DBB2032BE6
:104C100004D03B6801221A70002337E07B691B68CF
:104C20003B611D4B1B78DBB20133DAB21A4B1A70B1
:104C30003B699B89002B23D03B691A683B69DB8861
:104C40009B00D3181B68FB603B69DB8801339AB279
:104C50003B69DA803B699B89013B9AB23B699A8147
:104C60003B69DA883B695B899A4202D13B69002241
:104C7000DA80FCF75FFD3B6800221A70FB6805E0F4
:104C8000FCF758FD3B680B221A7000231800BD4644
:104C900006B080BDB40800205D05002080B588B056
:104CA00000AFB9607A600F23FB18021C1A70724BB8
:104CB0001B78DBB2002B04D07B6803221A70002320
:104CC000D5E00F23FB181B78132B04D97B68012236
:104CD0001A700023CBE00F23FB181B781A01674BD7
:104CE000D318FB61FB695B790F221340DBB2032B06
:104CF00004D07B6801221A700023B8E0604B1B7857
:104D0000DBB2002B04D07B6815221A700023AEE0C2
:104D1000FB691B68BB615A4B1B78DBB20133DAB20B
:104D2000574B1A70BB699B89002B23D0BB691A684B
:104D3000BB69DB889B00D3181B687B61BB69DB8880
:104D400001339AB2BB69DA80BB699B89013B9AB295
:104D5000BB699A81BB69DA88BB695B899A4202D1D7
:104D6000BB690022DA80FCF7E5FC7B6800221A7040
:104D70007B697CE0FCF7DEFC424B1B683B61BB6857
:104D8000002B2ED13A69FB691100180006F0E4FCF3
:104D90003B4B1B78DBB20133DAB2394B1A703B69FB
:104DA0001B697B613B6900221A61BB69DB880133A7
:104DB0009AB2BB69DA80BB699B89013B9AB2BB6935
:104DC0009A81BB69DA88BB695B899A4202D1BB6967
:104DD0000022DA80FCF7AEFC7B6800221A707B6947
:104DE00045E0274B1B78DBB20133DAB2244B1A7053
:104DF0003A69FB691100180006F0AEFCBA683B691D
:104E000011001800FFF7DCFBFCF794FC3B691B6901
:104E1000002B04D17B6805221A70002327E0184B71
:104E20001B78DBB20133DAB2154B1A703B691B6990
:104E30007B613B6900221A61BB69DB8801339AB24E
:104E4000BB69DA80BB699B89013B9AB2BB699A81D5
:104E5000BB69DA88BB695B899A4202D1BB690022CF
:104E6000DA80FCF767FC7B6800221A707B69180007
:104E7000BD4608B080BDC0465C050020B4080020D7
:104E80005D0500201007002080B584B000AF02004F
:104E90003960FB1D1A70FB1D1B78132B01D90123F0
:104EA00044E0FB1D1B781A01224BD318FB60FB6802
:104EB0005B790F221340DBB2032B01D0012335E0D5
:104EC000FB681B68BB60BB689A89BB685B899A42B8
:104ED00001D108232AE0184B1B78DBB20133DAB288
:104EE000154B1A70BB681A68BB681B899B00D318E6
:104EF0003A681A60BB681B8901339AB2BB681A8191
:104F0000BB689B8901339AB2BB689A81BB681A89D6
:104F1000BB685B899A4202D1BB6800221A81FB6898
:104F2000180006F099FCFCF705FC00231800BD46AC
:104F300004B080BDB40800205D05002080B582B0BB
:104F400000AF02003960FB1D1A700F4B1B78DBB2FB
:104F5000002B0CD03A68FB1D1B7819000420FCF7CD
:104F600007FD031E01D1122309E0002307E03A6880
:104F7000FB1D1B7811001800FFF786FF03001800C7
:104F8000BD4602B080BDC0465D05002080B582B040
:104F900000AF78607A689023DB059A4218D07B686E
:104FA000404A934214D07B683F4A934210D07B68BA
:104FB0003E4A93420CD07B683D4A934208D07B68BE
:104FC0003C4A934204D03C4B7A21180006F0B2FAD6
:104FD0007A689023DB059A420CD180239B02012141
:104FE0001800FDF715FF80239B0200211800FDF734
:104FF0000FFF53E07B682B4A93420CD18023DB02E6
:1050000001211800FDF704FF8023DB0200211800B6
:10501000FDF7FEFE42E07B68234A93420CD18023D9
:105020001B0301211800FDF7F3FE80231B03002161
:105030001800FDF7EDFE31E07B681C4A93420CD16D
:1050400080235B0301211800FDF7E2FE80235B0350
:1050500000211800FDF7DCFE20E07B68144A934233
:105060000CD180239B0301211800FDF7D1FE802382
:105070009B0300211800FDF7CBFE0FE07B680D4A73
:1050800093420BD18023DB0301211800FDF7C0FE02
:105090008023DB0300211800FDF7BAFEC046BD46A1
:1050A00002B080BD0004004800080048000C004821
:1050B000001000480014004818C0000880B586B0F1
:1050C00000AF7860396000237B6100233B610023DF
:1050D000FB607A689023DB059A4218D07B68774A98
:1050E000934214D07B68764A934210D07B68754A0D
:1050F00093420CD07B68744A934208D07B68734A11
:10510000934204D0724BAE21180006F013FA3B68AC
:105110001B68002B04D16E4BAF21180006F00AFA71
:105120003B681B79002B10D03B681B79012B0CD0FE
:105130003B681B79022B08D03B681B79032B04D0FA
:10514000634BB021180006F0F5F93B68DB79002BC2
:105150000CD03B68DB79012B08D03B68DB79022B54
:1051600004D05B4BB121180006F0E4F900237B6109
:105170009BE001227B699A4013003B613B681B68FE
:105180003A691340FB60FA683B699A4200D089E0B3
:105190003B681B79012B03D03B681B79022B52D152
:1051A0003B685B79002B0CD03B685B79012B08D006
:1051B0003B685B79032B04D0454BC121180006F0F6
:1051C000B9F97B689B687A695200032191400A0013
:1051D000D2431A407B689A607B689A683B685B7927
:1051E00019007B695B0099400B001A437B689A6049
:1051F0003B689B79002B08D03B689B79012B04D03E
:10520000334BC821180006F095F97B689B889BB248
:105210007A6992B2110001228A4092B2D24392B2CC
:1052200013409AB27B689A807B689B889AB23B68ED
:105230009B7919007B699BB299400B009BB2134389
:105240009AB27B689A807B681B687A695200032156
:1052500091400A00D2431A407B681A607B681A6842
:105260003B681B7919007B695B0099400B001A436E
:105270007B681A607B68DB687A6992B2520003210E
:1052800091400A00D2431A407B68DA607B68DA6892
:105290003B68DB7919007B695B0099400B001A437E
:1052A0007B68DA607B6901337B617B690F2B00D8F7
:1052B0005FE7C046BD4606B080BDC046000400485A
:1052C00000080048000C0048001000480014004886
:1052D00018C0000880B582B000AF78607B68094ACA
:1052E0001A607B6800221A717B6801225A717B6800
:1052F00000229A717B680022DA71C046BD4602B076
:1053000080BDC046FFFF000080B584B000AF78606C
:105310000A00BB1C1A8080235B02FB607A68902322
:10532000DB059A4208D07B68144A934204D0144BA0
:10533000FA21180006F0FEF8BB1C1B88002B04D1D4
:105340000F4BFB21180006F0F5F8BB1C1A88FB6810
:105350001343FB60FA687B68DA61BB1C1A887B68C0
:10536000DA61FA687B68DA617B68DB69FB607B681D
:10537000DB69FB60C046BD4604B080BD0004004848
:1053800018C0000880B584B000AF78600A00BB1C6C
:105390001A800F23FB1800221A707A689023DB050D
:1053A0009A421BD07B68454A934217D07B68444A97
:1053B000934213D07B68434A93420FD07B68424AA2
:1053C00093420BD07B68414A934207D02C23FF3392
:1053D0001A003F4B1100180006F0ACF8BB1C1B88EC
:1053E000012B52D0BB1C1B88022B4ED0BB1C1B8830
:1053F000042B4AD0BB1C1B88082B46D0BB1C1B8827
:10540000102B42D0BB1C1B88202B3ED0BB1C1B8802
:10541000402B3AD0BB1C1B88802B36D0BB1C1A8873
:1054200080235B009A4230D0BB1C1A8880239B00EB
:105430009A422AD0BB1C1A888023DB009A4224D0CF
:10544000BB1C1A8880231B019A421ED0BB1C1A88E1
:1054500080235B019A4218D0BB1C1A8880239B01D1
:105460009A4212D0BB1C1A888023DB019A420CD0CE
:10547000BB1C1A8880231B029A4206D096235A002E
:10548000134B1100180006F055F87B681B8A9BB27D
:10549000BA1C128813409BB2002B04D00F23FB18B8
:1054A00001221A7003E00F23FB1800221A700F2349
:1054B000FB181B781800BD4604B080BD00040048EE
:1054C00000080048000C0048001000480014004884
:1054D00018C0000880B582B000AF78607A68902369
:1054E000DB059A421BD07B68104A934217D07B6839
:1054F0000F4A934213D07B680E4A93420FD07B68C9
:105500000D4A93420BD07B680C4A934207D0442348
:10551000FF331A000A4B1100180006F00BF87B68E5
:105520001B8A9BB21800BD4602B080BD0004004833
:1055300000080048000C0048001000480014004813
:1055400018C0000880B584B000AF78600A00BB1CAA
:105550001A800F23FB1800221A707A689023DB054B
:105560009A421BD07B68454A934217D07B68444AD5
:10557000934213D07B68434A93420FD07B68424AE0
:1055800093420BD07B68414A934207D05A23FF33A2
:105590001A003F4B1100180005F0CCFFBB1C1B8804
:1055A000012B52D0BB1C1B88022B4ED0BB1C1B886E
:1055B000042B4AD0BB1C1B88082B46D0BB1C1B8865
:1055C000102B42D0BB1C1B88202B3ED0BB1C1B8841
:1055D000402B3AD0BB1C1B88802B36D0BB1C1A88B2
:1055E00080235B009A4230D0BB1C1A8880239B002A
:1055F0009A422AD0BB1C1A888023DB009A4224D00E
:10560000BB1C1A8880231B019A421ED0BB1C1A881F
:1056100080235B019A4218D0BB1C1A8880239B010F
:105620009A4212D0BB1C1A888023DB019A420CD00C
:10563000BB1C1A8880231B029A4206D0AD235A0055
:10564000134B1100180005F075FF7B689B8A9BB215
:10565000BA1C128813409BB2002B04D00F23FB18F6
:1056600001221A7003E00F23FB1800221A700F2387
:10567000FB181B781800BD4604B080BD000400482C
:1056800000080048000C00480010004800140048C2
:1056900018C0000880B582B000AF78607A689023A7
:1056A000DB059A421BD07B68104A934217D07B6877
:1056B0000F4A934213D07B680E4A93420FD07B6807
:1056C0000D4A93420BD07B680C4A934207D0722359
:1056D000FF331A000A4B1100180005F02BFF7B68FE
:1056E0009B8A9BB21800BD4602B080BD00040048F2
:1056F00000080048000C0048001000480014004852
:1057000018C0000880B582B000AF78600A00BB1CEA
:105710001A807A689023DB059A421BD07B68174A6F
:10572000934217D07B68164A934213D07B68154A80
:1057300093420FD07B68144A93420BD07B68134A84
:10574000934207D08623FF331A00114B1100180033
:1057500005F0F0FEBB1C1B88002B06D1C3235A00AA
:105760000B4B1100180005F0E5FEBB1C1A887B6886
:105770009A61C046BD4602B080BDC04600040048E4
:1057800000080048000C00480010004800140048C1
:1057900018C0000880B582B000AF78600A00BB1C5A
:1057A0001A807A689023DB059A421AD07B68174AE0
:1057B000934216D07B68164A934212D07B68154AF2
:1057C00093420ED07B68144A93420AD07B68134AF6
:1057D000934206D0CD235A00114B1100180005F05A
:1057E000A9FEBB1C1B88002B07D19C23FF331A008A
:1057F0000B4B1100180005F09DFE7B68BA1C128847
:105800001A85C046BD4602B080BDC04600040048AF
:1058100000080048000C0048001000480014004830
:1058200018C0000880B582B000AF78600800110091
:10583000BB1C021C1A807B1C0A1C1A707A689023FD
:10584000DB059A421BD07B68494A934217D07B689C
:10585000484A934213D07B68474A93420FD07B68F3
:10586000464A93420BD07B68454A934207D0B42303
:10587000FF331A00434B1100180005F05BFEBB1C00
:105880001B88012B52D0BB1C1B88022B4ED0BB1C8B
:105890001B88042B4AD0BB1C1B88082B46D0BB1C82
:1058A0001B88102B42D0BB1C1B88202B3ED0BB1C5E
:1058B0001B88402B3AD0BB1C1B88802B36D0BB1CCE
:1058C0001A8880235B009A4230D0BB1C1A88802340
:1058D0009B009A422AD0BB1C1A888023DB009A4284
:1058E00024D0BB1C1A8880231B019A421ED0BB1CEB
:1058F0001A8880235B019A4218D0BB1C1A88802327
:105900009B019A4212D0BB1C1A888023DB019A4269
:105910000CD0BB1C1A8880231B029A4206D0DA23C3
:105920005A00184B1100180005F004FE7B1C1B7870
:10593000002B0BD07B1C1B78012B07D0B623FF3329
:105940001A00104B1100180005F0F4FD7B1C1B78A9
:10595000002B04D0BB1C1A887B689A6103E07B682B
:10596000BA1C12881A85C046BD4602B080BDC0462A
:105970000004004800080048000C004800100048DF
:105980000014004818C0000880B582B000AF7860ED
:105990000A00BB1C1A807A689023DB059A421AD051
:1059A0007B68114A934216D07B68104A934212D00A
:1059B0007B680F4A93420ED07B680E4A93420AD00E
:1059C0007B680D4A934206D0E6235A000B4B110028
:1059D000180005F0AFFD7B68BA1C12889A82C04699
:1059E000BD4602B080BDC046000400480008004823
:1059F000000C0048001000480014004818C00008BF
:105A000080B584B000AF786008001100BB1C021C98
:105A10001A807B1C0A1C1A700023FB600023BB60E9
:105A20007A689023DB059A421AD07B68634A9342D6
:105A300016D07B68624A934212D07B68614A9342D7
:105A40000ED07B68604A93420AD07B685F4A9342DB
:105A500006D081239A005E4B1100180005F06AFD04
:105A6000BB1C1B88002B41D0BB1C1B88012B3DD0CD
:105A7000BB1C1B88022B39D0BB1C1B88032B35D0C9
:105A8000BB1C1B88042B31D0BB1C1B88052B2DD0C5
:105A9000BB1C1B88062B29D0BB1C1B88072B25D0C1
:105AA000BB1C1B88082B21D0BB1C1B88092B1DD0BD
:105AB000BB1C1B880A2B19D0BB1C1B880B2B15D0B9
:105AC000BB1C1B880C2B11D0BB1C1B880D2B0DD0B5
:105AD000BB1C1B880E2B09D0BB1C1B880F2B05D0B1
